{
	"practise/dukedaily/day03/09delegatecall.sol": {
		"Proxy": {
			"abi": [
				{
					"anonymous": false,
					"inputs": [
						{
							"indexed": false,
							"internalType": "bool",
							"name": "success",
							"type": "bool"
						}
					],
					"name": "DelegateCallResult",
					"type": "event"
				},
				{
					"inputs": [],
					"name": "num",
					"outputs": [
						{
							"internalType": "uint256",
							"name": "",
							"type": "uint256"
						}
					],
					"stateMutability": "view",
					"type": "function"
				},
				{
					"inputs": [],
					"name": "sender",
					"outputs": [
						{
							"internalType": "address",
							"name": "",
							"type": "address"
						}
					],
					"stateMutability": "view",
					"type": "function"
				},
				{
					"inputs": [
						{
							"internalType": "address",
							"name": "_impl",
							"type": "address"
						},
						{
							"internalType": "uint256",
							"name": "_num",
							"type": "uint256"
						}
					],
					"name": "setVars",
					"outputs": [],
					"stateMutability": "payable",
					"type": "function"
				},
				{
					"inputs": [],
					"name": "value",
					"outputs": [
						{
							"internalType": "uint256",
							"name": "",
							"type": "uint256"
						}
					],
					"stateMutability": "view",
					"type": "function"
				}
			],
			"devdoc": {
				"kind": "dev",
				"methods": {},
				"version": 1
			},
			"evm": {
				"assembly": "    /* \"practise/dukedaily/day03/09delegatecall.sol\":853:1304  contract Proxy {... */\n  mstore(0x40, 0x80)\n  callvalue\n  dup1\n  iszero\n  tag_1\n  jumpi\n  0x00\n  dup1\n  revert\ntag_1:\n  pop\n  dataSize(sub_0)\n  dup1\n  dataOffset(sub_0)\n  0x00\n  codecopy\n  0x00\n  return\nstop\n\nsub_0: assembly {\n        /* \"practise/dukedaily/day03/09delegatecall.sol\":853:1304  contract Proxy {... */\n      mstore(0x40, 0x80)\n      jumpi(tag_1, lt(calldatasize, 0x04))\n      shr(0xe0, calldataload(0x00))\n      dup1\n      0x3fa4f245\n      eq\n      tag_2\n      jumpi\n      dup1\n      0x4e70b1dc\n      eq\n      tag_3\n      jumpi\n      dup1\n      0x67e404ce\n      eq\n      tag_4\n      jumpi\n      dup1\n      0xd1e0f308\n      eq\n      tag_5\n      jumpi\n    tag_1:\n      0x00\n      dup1\n      revert\n        /* \"practise/dukedaily/day03/09delegatecall.sol\":967:984  uint public value */\n    tag_2:\n      callvalue\n      dup1\n      iszero\n      tag_6\n      jumpi\n      0x00\n      dup1\n      revert\n    tag_6:\n      pop\n      tag_7\n      tag_8\n      jump\t// in\n    tag_7:\n      mload(0x40)\n      tag_9\n      swap2\n      swap1\n      tag_10\n      jump\t// in\n    tag_9:\n      mload(0x40)\n      dup1\n      swap2\n      sub\n      swap1\n      return\n        /* \"practise/dukedaily/day03/09delegatecall.sol\":919:934  uint public num */\n    tag_3:\n      callvalue\n      dup1\n      iszero\n      tag_11\n      jumpi\n      0x00\n      dup1\n      revert\n    tag_11:\n      pop\n      tag_12\n      tag_13\n      jump\t// in\n    tag_12:\n      mload(0x40)\n      tag_14\n      swap2\n      swap1\n      tag_10\n      jump\t// in\n    tag_14:\n      mload(0x40)\n      dup1\n      swap2\n      sub\n      swap1\n      return\n        /* \"practise/dukedaily/day03/09delegatecall.sol\":940:961  address public sender */\n    tag_4:\n      callvalue\n      dup1\n      iszero\n      tag_15\n      jumpi\n      0x00\n      dup1\n      revert\n    tag_15:\n      pop\n      tag_16\n      tag_17\n      jump\t// in\n    tag_16:\n      mload(0x40)\n      tag_18\n      swap2\n      swap1\n      tag_19\n      jump\t// in\n    tag_18:\n      mload(0x40)\n      dup1\n      swap2\n      sub\n      swap1\n      return\n        /* \"practise/dukedaily/day03/09delegatecall.sol\":991:1302  function setVars(address _impl, uint _num) public payable {... */\n    tag_5:\n      tag_20\n      0x04\n      dup1\n      calldatasize\n      sub\n      dup2\n      add\n      swap1\n      tag_21\n      swap2\n      swap1\n      tag_22\n      jump\t// in\n    tag_21:\n      tag_23\n      jump\t// in\n    tag_20:\n      stop\n        /* \"practise/dukedaily/day03/09delegatecall.sol\":967:984  uint public value */\n    tag_8:\n      sload(0x02)\n      dup2\n      jump\t// out\n        /* \"practise/dukedaily/day03/09delegatecall.sol\":919:934  uint public num */\n    tag_13:\n      sload(0x00)\n      dup2\n      jump\t// out\n        /* \"practise/dukedaily/day03/09delegatecall.sol\":940:961  address public sender */\n    tag_17:\n      0x01\n      0x00\n      swap1\n      sload\n      swap1\n      0x0100\n      exp\n      swap1\n      div\n      0xffffffffffffffffffffffffffffffffffffffff\n      and\n      dup2\n      jump\t// out\n        /* \"practise/dukedaily/day03/09delegatecall.sol\":991:1302  function setVars(address _impl, uint _num) public payable {... */\n    tag_23:\n        /* \"practise/dukedaily/day03/09delegatecall.sol\":1127:1139  bool success */\n      0x00\n        /* \"practise/dukedaily/day03/09delegatecall.sol\":1141:1158  bytes memory data */\n      dup1\n        /* \"practise/dukedaily/day03/09delegatecall.sol\":1162:1167  _impl */\n      dup4\n        /* \"practise/dukedaily/day03/09delegatecall.sol\":1162:1180  _impl.delegatecall */\n      0xffffffffffffffffffffffffffffffffffffffff\n      and\n        /* \"practise/dukedaily/day03/09delegatecall.sol\":1238:1242  _num */\n      dup4\n        /* \"practise/dukedaily/day03/09delegatecall.sol\":1194:1243  abi.encodeWithSignature(\"setVars(uint256)\", _num) */\n      add(0x24, mload(0x40))\n      tag_25\n      swap2\n      swap1\n      tag_10\n      jump\t// in\n    tag_25:\n      mload(0x40)\n      0x20\n      dup2\n      dup4\n      sub\n      sub\n      dup2\n      mstore\n      swap1\n      0x40\n      mstore\n      and(not(0xffffffffffffffffffffffffffffffffffffffffffffffffffffffff), 0x6466414b00000000000000000000000000000000000000000000000000000000)\n      0x20\n      dup3\n      add\n      dup1\n      mload\n      0xffffffffffffffffffffffffffffffffffffffffffffffffffffffff\n      dup4\n      dup2\n      dup4\n      and\n      or\n      dup4\n      mstore\n      pop\n      pop\n      pop\n      pop\n        /* \"practise/dukedaily/day03/09delegatecall.sol\":1162:1253  _impl.delegatecall(... */\n      mload(0x40)\n      tag_26\n      swap2\n      swap1\n      tag_27\n      jump\t// in\n    tag_26:\n      0x00\n      mload(0x40)\n      dup1\n      dup4\n      sub\n      dup2\n      dup6\n      gas\n      delegatecall\n      swap2\n      pop\n      pop\n      returndatasize\n      dup1\n      0x00\n      dup2\n      eq\n      tag_30\n      jumpi\n      mload(0x40)\n      swap2\n      pop\n      and(add(returndatasize, 0x3f), not(0x1f))\n      dup3\n      add\n      0x40\n      mstore\n      returndatasize\n      dup3\n      mstore\n      returndatasize\n      0x00\n      0x20\n      dup5\n      add\n      returndatacopy\n      jump(tag_29)\n    tag_30:\n      0x60\n      swap2\n      pop\n    tag_29:\n      pop\n        /* \"practise/dukedaily/day03/09delegatecall.sol\":1126:1253  (bool success, bytes memory data) = _impl.delegatecall(... */\n      swap2\n      pop\n      swap2\n      pop\n        /* \"practise/dukedaily/day03/09delegatecall.sol\":1268:1295  DelegateCallResult(success) */\n      0xb85aac3f27692419c387675884f1eb4e5683739747b7808ddc5431a5912d2bc4\n        /* \"practise/dukedaily/day03/09delegatecall.sol\":1287:1294  success */\n      dup3\n        /* \"practise/dukedaily/day03/09delegatecall.sol\":1268:1295  DelegateCallResult(success) */\n      mload(0x40)\n      tag_31\n      swap2\n      swap1\n      tag_32\n      jump\t// in\n    tag_31:\n      mload(0x40)\n      dup1\n      swap2\n      sub\n      swap1\n      log1\n        /* \"practise/dukedaily/day03/09delegatecall.sol\":1049:1302  {... */\n      pop\n      pop\n        /* \"practise/dukedaily/day03/09delegatecall.sol\":991:1302  function setVars(address _impl, uint _num) public payable {... */\n      pop\n      pop\n      jump\t// out\n        /* \"#utility.yul\":7:84   */\n    tag_33:\n        /* \"#utility.yul\":44:51   */\n      0x00\n        /* \"#utility.yul\":73:78   */\n      dup2\n        /* \"#utility.yul\":62:78   */\n      swap1\n      pop\n        /* \"#utility.yul\":7:84   */\n      swap2\n      swap1\n      pop\n      jump\t// out\n        /* \"#utility.yul\":90:208   */\n    tag_34:\n        /* \"#utility.yul\":177:201   */\n      tag_54\n        /* \"#utility.yul\":195:200   */\n      dup2\n        /* \"#utility.yul\":177:201   */\n      tag_33\n      jump\t// in\n    tag_54:\n        /* \"#utility.yul\":172:175   */\n      dup3\n        /* \"#utility.yul\":165:202   */\n      mstore\n        /* \"#utility.yul\":90:208   */\n      pop\n      pop\n      jump\t// out\n        /* \"#utility.yul\":214:436   */\n    tag_10:\n        /* \"#utility.yul\":307:311   */\n      0x00\n        /* \"#utility.yul\":345:347   */\n      0x20\n        /* \"#utility.yul\":334:343   */\n      dup3\n        /* \"#utility.yul\":330:348   */\n      add\n        /* \"#utility.yul\":322:348   */\n      swap1\n      pop\n        /* \"#utility.yul\":358:429   */\n      tag_56\n        /* \"#utility.yul\":426:427   */\n      0x00\n        /* \"#utility.yul\":415:424   */\n      dup4\n        /* \"#utility.yul\":411:428   */\n      add\n        /* \"#utility.yul\":402:408   */\n      dup5\n        /* \"#utility.yul\":358:429   */\n      tag_34\n      jump\t// in\n    tag_56:\n        /* \"#utility.yul\":214:436   */\n      swap3\n      swap2\n      pop\n      pop\n      jump\t// out\n        /* \"#utility.yul\":442:568   */\n    tag_35:\n        /* \"#utility.yul\":479:486   */\n      0x00\n        /* \"#utility.yul\":519:561   */\n      0xffffffffffffffffffffffffffffffffffffffff\n        /* \"#utility.yul\":512:517   */\n      dup3\n        /* \"#utility.yul\":508:562   */\n      and\n        /* \"#utility.yul\":497:562   */\n      swap1\n      pop\n        /* \"#utility.yul\":442:568   */\n      swap2\n      swap1\n      pop\n      jump\t// out\n        /* \"#utility.yul\":574:670   */\n    tag_36:\n        /* \"#utility.yul\":611:618   */\n      0x00\n        /* \"#utility.yul\":640:664   */\n      tag_59\n        /* \"#utility.yul\":658:663   */\n      dup3\n        /* \"#utility.yul\":640:664   */\n      tag_35\n      jump\t// in\n    tag_59:\n        /* \"#utility.yul\":629:664   */\n      swap1\n      pop\n        /* \"#utility.yul\":574:670   */\n      swap2\n      swap1\n      pop\n      jump\t// out\n        /* \"#utility.yul\":676:794   */\n    tag_37:\n        /* \"#utility.yul\":763:787   */\n      tag_61\n        /* \"#utility.yul\":781:786   */\n      dup2\n        /* \"#utility.yul\":763:787   */\n      tag_36\n      jump\t// in\n    tag_61:\n        /* \"#utility.yul\":758:761   */\n      dup3\n        /* \"#utility.yul\":751:788   */\n      mstore\n        /* \"#utility.yul\":676:794   */\n      pop\n      pop\n      jump\t// out\n        /* \"#utility.yul\":800:1022   */\n    tag_19:\n        /* \"#utility.yul\":893:897   */\n      0x00\n        /* \"#utility.yul\":931:933   */\n      0x20\n        /* \"#utility.yul\":920:929   */\n      dup3\n        /* \"#utility.yul\":916:934   */\n      add\n        /* \"#utility.yul\":908:934   */\n      swap1\n      pop\n        /* \"#utility.yul\":944:1015   */\n      tag_63\n        /* \"#utility.yul\":1012:1013   */\n      0x00\n        /* \"#utility.yul\":1001:1010   */\n      dup4\n        /* \"#utility.yul\":997:1014   */\n      add\n        /* \"#utility.yul\":988:994   */\n      dup5\n        /* \"#utility.yul\":944:1015   */\n      tag_37\n      jump\t// in\n    tag_63:\n        /* \"#utility.yul\":800:1022   */\n      swap3\n      swap2\n      pop\n      pop\n      jump\t// out\n        /* \"#utility.yul\":1109:1226   */\n    tag_39:\n        /* \"#utility.yul\":1218:1219   */\n      0x00\n        /* \"#utility.yul\":1215:1216   */\n      dup1\n        /* \"#utility.yul\":1208:1220   */\n      revert\n        /* \"#utility.yul\":1355:1477   */\n    tag_41:\n        /* \"#utility.yul\":1428:1452   */\n      tag_68\n        /* \"#utility.yul\":1446:1451   */\n      dup2\n        /* \"#utility.yul\":1428:1452   */\n      tag_36\n      jump\t// in\n    tag_68:\n        /* \"#utility.yul\":1421:1426   */\n      dup2\n        /* \"#utility.yul\":1418:1453   */\n      eq\n        /* \"#utility.yul\":1408:1471   */\n      tag_69\n      jumpi\n        /* \"#utility.yul\":1467:1468   */\n      0x00\n        /* \"#utility.yul\":1464:1465   */\n      dup1\n        /* \"#utility.yul\":1457:1469   */\n      revert\n        /* \"#utility.yul\":1408:1471   */\n    tag_69:\n        /* \"#utility.yul\":1355:1477   */\n      pop\n      jump\t// out\n        /* \"#utility.yul\":1483:1622   */\n    tag_42:\n        /* \"#utility.yul\":1529:1534   */\n      0x00\n        /* \"#utility.yul\":1567:1573   */\n      dup2\n        /* \"#utility.yul\":1554:1574   */\n      calldataload\n        /* \"#utility.yul\":1545:1574   */\n      swap1\n      pop\n        /* \"#utility.yul\":1583:1616   */\n      tag_71\n        /* \"#utility.yul\":1610:1615   */\n      dup2\n        /* \"#utility.yul\":1583:1616   */\n      tag_41\n      jump\t// in\n    tag_71:\n        /* \"#utility.yul\":1483:1622   */\n      swap3\n      swap2\n      pop\n      pop\n      jump\t// out\n        /* \"#utility.yul\":1628:1750   */\n    tag_43:\n        /* \"#utility.yul\":1701:1725   */\n      tag_73\n        /* \"#utility.yul\":1719:1724   */\n      dup2\n        /* \"#utility.yul\":1701:1725   */\n      tag_33\n      jump\t// in\n    tag_73:\n        /* \"#utility.yul\":1694:1699   */\n      dup2\n        /* \"#utility.yul\":1691:1726   */\n      eq\n        /* \"#utility.yul\":1681:1744   */\n      tag_74\n      jumpi\n        /* \"#utility.yul\":1740:1741   */\n      0x00\n        /* \"#utility.yul\":1737:1738   */\n      dup1\n        /* \"#utility.yul\":1730:1742   */\n      revert\n        /* \"#utility.yul\":1681:1744   */\n    tag_74:\n        /* \"#utility.yul\":1628:1750   */\n      pop\n      jump\t// out\n        /* \"#utility.yul\":1756:1895   */\n    tag_44:\n        /* \"#utility.yul\":1802:1807   */\n      0x00\n        /* \"#utility.yul\":1840:1846   */\n      dup2\n        /* \"#utility.yul\":1827:1847   */\n      calldataload\n        /* \"#utility.yul\":1818:1847   */\n      swap1\n      pop\n        /* \"#utility.yul\":1856:1889   */\n      tag_76\n        /* \"#utility.yul\":1883:1888   */\n      dup2\n        /* \"#utility.yul\":1856:1889   */\n      tag_43\n      jump\t// in\n    tag_76:\n        /* \"#utility.yul\":1756:1895   */\n      swap3\n      swap2\n      pop\n      pop\n      jump\t// out\n        /* \"#utility.yul\":1901:2375   */\n    tag_22:\n        /* \"#utility.yul\":1969:1975   */\n      0x00\n        /* \"#utility.yul\":1977:1983   */\n      dup1\n        /* \"#utility.yul\":2026:2028   */\n      0x40\n        /* \"#utility.yul\":2014:2023   */\n      dup4\n        /* \"#utility.yul\":2005:2012   */\n      dup6\n        /* \"#utility.yul\":2001:2024   */\n      sub\n        /* \"#utility.yul\":1997:2029   */\n      slt\n        /* \"#utility.yul\":1994:2113   */\n      iszero\n      tag_78\n      jumpi\n        /* \"#utility.yul\":2032:2111   */\n      tag_79\n      tag_39\n      jump\t// in\n    tag_79:\n        /* \"#utility.yul\":1994:2113   */\n    tag_78:\n        /* \"#utility.yul\":2152:2153   */\n      0x00\n        /* \"#utility.yul\":2177:2230   */\n      tag_80\n        /* \"#utility.yul\":2222:2229   */\n      dup6\n        /* \"#utility.yul\":2213:2219   */\n      dup3\n        /* \"#utility.yul\":2202:2211   */\n      dup7\n        /* \"#utility.yul\":2198:2220   */\n      add\n        /* \"#utility.yul\":2177:2230   */\n      tag_42\n      jump\t// in\n    tag_80:\n        /* \"#utility.yul\":2167:2230   */\n      swap3\n      pop\n        /* \"#utility.yul\":2123:2240   */\n      pop\n        /* \"#utility.yul\":2279:2281   */\n      0x20\n        /* \"#utility.yul\":2305:2358   */\n      tag_81\n        /* \"#utility.yul\":2350:2357   */\n      dup6\n        /* \"#utility.yul\":2341:2347   */\n      dup3\n        /* \"#utility.yul\":2330:2339   */\n      dup7\n        /* \"#utility.yul\":2326:2348   */\n      add\n        /* \"#utility.yul\":2305:2358   */\n      tag_44\n      jump\t// in\n    tag_81:\n        /* \"#utility.yul\":2295:2358   */\n      swap2\n      pop\n        /* \"#utility.yul\":2250:2368   */\n      pop\n        /* \"#utility.yul\":1901:2375   */\n      swap3\n      pop\n      swap3\n      swap1\n      pop\n      jump\t// out\n        /* \"#utility.yul\":2381:2479   */\n    tag_45:\n        /* \"#utility.yul\":2432:2438   */\n      0x00\n        /* \"#utility.yul\":2466:2471   */\n      dup2\n        /* \"#utility.yul\":2460:2472   */\n      mload\n        /* \"#utility.yul\":2450:2472   */\n      swap1\n      pop\n        /* \"#utility.yul\":2381:2479   */\n      swap2\n      swap1\n      pop\n      jump\t// out\n        /* \"#utility.yul\":2485:2632   */\n    tag_46:\n        /* \"#utility.yul\":2586:2597   */\n      0x00\n        /* \"#utility.yul\":2623:2626   */\n      dup2\n        /* \"#utility.yul\":2608:2626   */\n      swap1\n      pop\n        /* \"#utility.yul\":2485:2632   */\n      swap3\n      swap2\n      pop\n      pop\n      jump\t// out\n        /* \"#utility.yul\":2638:2777   */\n    tag_47:\n        /* \"#utility.yul\":2727:2733   */\n      dup3\n        /* \"#utility.yul\":2722:2725   */\n      dup2\n        /* \"#utility.yul\":2717:2720   */\n      dup4\n        /* \"#utility.yul\":2711:2734   */\n      mcopy\n        /* \"#utility.yul\":2768:2769   */\n      0x00\n        /* \"#utility.yul\":2759:2765   */\n      dup4\n        /* \"#utility.yul\":2754:2757   */\n      dup4\n        /* \"#utility.yul\":2750:2766   */\n      add\n        /* \"#utility.yul\":2743:2770   */\n      mstore\n        /* \"#utility.yul\":2638:2777   */\n      pop\n      pop\n      pop\n      jump\t// out\n        /* \"#utility.yul\":2783:3169   */\n    tag_48:\n        /* \"#utility.yul\":2887:2890   */\n      0x00\n        /* \"#utility.yul\":2915:2953   */\n      tag_86\n        /* \"#utility.yul\":2947:2952   */\n      dup3\n        /* \"#utility.yul\":2915:2953   */\n      tag_45\n      jump\t// in\n    tag_86:\n        /* \"#utility.yul\":2969:3057   */\n      tag_87\n        /* \"#utility.yul\":3050:3056   */\n      dup2\n        /* \"#utility.yul\":3045:3048   */\n      dup6\n        /* \"#utility.yul\":2969:3057   */\n      tag_46\n      jump\t// in\n    tag_87:\n        /* \"#utility.yul\":2962:3057   */\n      swap4\n      pop\n        /* \"#utility.yul\":3066:3131   */\n      tag_88\n        /* \"#utility.yul\":3124:3130   */\n      dup2\n        /* \"#utility.yul\":3119:3122   */\n      dup6\n        /* \"#utility.yul\":3112:3116   */\n      0x20\n        /* \"#utility.yul\":3105:3110   */\n      dup7\n        /* \"#utility.yul\":3101:3117   */\n      add\n        /* \"#utility.yul\":3066:3131   */\n      tag_47\n      jump\t// in\n    tag_88:\n        /* \"#utility.yul\":3156:3162   */\n      dup1\n        /* \"#utility.yul\":3151:3154   */\n      dup5\n        /* \"#utility.yul\":3147:3163   */\n      add\n        /* \"#utility.yul\":3140:3163   */\n      swap2\n      pop\n        /* \"#utility.yul\":2891:3169   */\n      pop\n        /* \"#utility.yul\":2783:3169   */\n      swap3\n      swap2\n      pop\n      pop\n      jump\t// out\n        /* \"#utility.yul\":3175:3446   */\n    tag_27:\n        /* \"#utility.yul\":3305:3308   */\n      0x00\n        /* \"#utility.yul\":3327:3420   */\n      tag_90\n        /* \"#utility.yul\":3416:3419   */\n      dup3\n        /* \"#utility.yul\":3407:3413   */\n      dup5\n        /* \"#utility.yul\":3327:3420   */\n      tag_48\n      jump\t// in\n    tag_90:\n        /* \"#utility.yul\":3320:3420   */\n      swap2\n      pop\n        /* \"#utility.yul\":3437:3440   */\n      dup2\n        /* \"#utility.yul\":3430:3440   */\n      swap1\n      pop\n        /* \"#utility.yul\":3175:3446   */\n      swap3\n      swap2\n      pop\n      pop\n      jump\t// out\n        /* \"#utility.yul\":3452:3542   */\n    tag_49:\n        /* \"#utility.yul\":3486:3493   */\n      0x00\n        /* \"#utility.yul\":3529:3534   */\n      dup2\n        /* \"#utility.yul\":3522:3535   */\n      iszero\n        /* \"#utility.yul\":3515:3536   */\n      iszero\n        /* \"#utility.yul\":3504:3536   */\n      swap1\n      pop\n        /* \"#utility.yul\":3452:3542   */\n      swap2\n      swap1\n      pop\n      jump\t// out\n        /* \"#utility.yul\":3548:3657   */\n    tag_50:\n        /* \"#utility.yul\":3629:3650   */\n      tag_93\n        /* \"#utility.yul\":3644:3649   */\n      dup2\n        /* \"#utility.yul\":3629:3650   */\n      tag_49\n      jump\t// in\n    tag_93:\n        /* \"#utility.yul\":3624:3627   */\n      dup3\n        /* \"#utility.yul\":3617:3651   */\n      mstore\n        /* \"#utility.yul\":3548:3657   */\n      pop\n      pop\n      jump\t// out\n        /* \"#utility.yul\":3663:3873   */\n    tag_32:\n        /* \"#utility.yul\":3750:3754   */\n      0x00\n        /* \"#utility.yul\":3788:3790   */\n      0x20\n        /* \"#utility.yul\":3777:3786   */\n      dup3\n        /* \"#utility.yul\":3773:3791   */\n      add\n        /* \"#utility.yul\":3765:3791   */\n      swap1\n      pop\n        /* \"#utility.yul\":3801:3866   */\n      tag_95\n        /* \"#utility.yul\":3863:3864   */\n      0x00\n        /* \"#utility.yul\":3852:3861   */\n      dup4\n        /* \"#utility.yul\":3848:3865   */\n      add\n        /* \"#utility.yul\":3839:3845   */\n      dup5\n        /* \"#utility.yul\":3801:3866   */\n      tag_50\n      jump\t// in\n    tag_95:\n        /* \"#utility.yul\":3663:3873   */\n      swap3\n      swap2\n      pop\n      pop\n      jump\t// out\n\n    auxdata: 0xa264697066735822122083bfd462d40b90d0b6f31f71c1f6ee10c8d57bad7c45442624c8e01138733e0864736f6c634300081a0033\n}\n",
				"bytecode": {
					"linkReferences": {},
					"object": "6080604052348015600e575f80fd5b5061042f8061001c5f395ff3fe60806040526004361061003e575f3560e01c80633fa4f245146100425780634e70b1dc1461006c57806367e404ce14610096578063d1e0f308146100c0575b5f80fd5b34801561004d575f80fd5b506100566100dc565b6040516100639190610257565b60405180910390f35b348015610077575f80fd5b506100806100e2565b60405161008d9190610257565b60405180910390f35b3480156100a1575f80fd5b506100aa6100e7565b6040516100b791906102af565b60405180910390f35b6100da60048036038101906100d59190610320565b61010c565b005b60025481565b5f5481565b60015f9054906101000a900473ffffffffffffffffffffffffffffffffffffffff1681565b5f808373ffffffffffffffffffffffffffffffffffffffff16836040516024016101369190610257565b6040516020818303038152906040527f6466414b000000000000000000000000000000000000000000000000000000007bffffffffffffffffffffffffffffffffffffffffffffffffffffffff19166020820180517bffffffffffffffffffffffffffffffffffffffffffffffffffffffff83818316178352505050506040516101c091906103b0565b5f60405180830381855af49150503d805f81146101f8576040519150601f19603f3d011682016040523d82523d5f602084013e6101fd565b606091505b50915091507fb85aac3f27692419c387675884f1eb4e5683739747b7808ddc5431a5912d2bc48260405161023191906103e0565b60405180910390a150505050565b5f819050919050565b6102518161023f565b82525050565b5f60208201905061026a5f830184610248565b92915050565b5f73ffffffffffffffffffffffffffffffffffffffff82169050919050565b5f61029982610270565b9050919050565b6102a98161028f565b82525050565b5f6020820190506102c25f8301846102a0565b92915050565b5f80fd5b6102d58161028f565b81146102df575f80fd5b50565b5f813590506102f0816102cc565b92915050565b6102ff8161023f565b8114610309575f80fd5b50565b5f8135905061031a816102f6565b92915050565b5f8060408385031215610336576103356102c8565b5b5f610343858286016102e2565b92505060206103548582860161030c565b9150509250929050565b5f81519050919050565b5f81905092915050565b8281835e5f83830152505050565b5f61038a8261035e565b6103948185610368565b93506103a4818560208601610372565b80840191505092915050565b5f6103bb8284610380565b915081905092915050565b5f8115159050919050565b6103da816103c6565b82525050565b5f6020820190506103f35f8301846103d1565b9291505056fea264697066735822122083bfd462d40b90d0b6f31f71c1f6ee10c8d57bad7c45442624c8e01138733e0864736f6c634300081a0033",
					"opcodes": "PUSH1 0x80 PUSH1 0x40 MSTORE CALLVALUE DUP1 ISZERO PUSH1 0xE JUMPI PUSH0 DUP1 REVERT JUMPDEST POP PUSH2 0x42F DUP1 PUSH2 0x1C PUSH0 CODECOPY PUSH0 RETURN INVALID PUSH1 0x80 PUSH1 0x40 MSTORE PUSH1 0x4 CALLDATASIZE LT PUSH2 0x3E JUMPI PUSH0 CALLDATALOAD PUSH1 0xE0 SHR DUP1 PUSH4 0x3FA4F245 EQ PUSH2 0x42 JUMPI DUP1 PUSH4 0x4E70B1DC EQ PUSH2 0x6C JUMPI DUP1 PUSH4 0x67E404CE EQ PUSH2 0x96 JUMPI DUP1 PUSH4 0xD1E0F308 EQ PUSH2 0xC0 JUMPI JUMPDEST PUSH0 DUP1 REVERT JUMPDEST CALLVALUE DUP1 ISZERO PUSH2 0x4D JUMPI PUSH0 DUP1 REVERT JUMPDEST POP PUSH2 0x56 PUSH2 0xDC JUMP JUMPDEST PUSH1 0x40 MLOAD PUSH2 0x63 SWAP2 SWAP1 PUSH2 0x257 JUMP JUMPDEST PUSH1 0x40 MLOAD DUP1 SWAP2 SUB SWAP1 RETURN JUMPDEST CALLVALUE DUP1 ISZERO PUSH2 0x77 JUMPI PUSH0 DUP1 REVERT JUMPDEST POP PUSH2 0x80 PUSH2 0xE2 JUMP JUMPDEST PUSH1 0x40 MLOAD PUSH2 0x8D SWAP2 SWAP1 PUSH2 0x257 JUMP JUMPDEST PUSH1 0x40 MLOAD DUP1 SWAP2 SUB SWAP1 RETURN JUMPDEST CALLVALUE DUP1 ISZERO PUSH2 0xA1 JUMPI PUSH0 DUP1 REVERT JUMPDEST POP PUSH2 0xAA PUSH2 0xE7 JUMP JUMPDEST PUSH1 0x40 MLOAD PUSH2 0xB7 SWAP2 SWAP1 PUSH2 0x2AF JUMP JUMPDEST PUSH1 0x40 MLOAD DUP1 SWAP2 SUB SWAP1 RETURN JUMPDEST PUSH2 0xDA PUSH1 0x4 DUP1 CALLDATASIZE SUB DUP2 ADD SWAP1 PUSH2 0xD5 SWAP2 SWAP1 PUSH2 0x320 JUMP JUMPDEST PUSH2 0x10C JUMP JUMPDEST STOP JUMPDEST PUSH1 0x2 SLOAD DUP2 JUMP JUMPDEST PUSH0 SLOAD DUP2 JUMP JUMPDEST PUSH1 0x1 PUSH0 SWAP1 SLOAD SWAP1 PUSH2 0x100 EXP SWAP1 DIV PUSH20 0xFFFFFFFFFFFFFFFFFFFFFFFFFFFFFFFFFFFFFFFF AND DUP2 JUMP JUMPDEST PUSH0 DUP1 DUP4 PUSH20 0xFFFFFFFFFFFFFFFFFFFFFFFFFFFFFFFFFFFFFFFF AND DUP4 PUSH1 0x40 MLOAD PUSH1 0x24 ADD PUSH2 0x136 SWAP2 SWAP1 PUSH2 0x257 JUMP JUMPDEST PUSH1 0x40 MLOAD PUSH1 0x20 DUP2 DUP4 SUB SUB DUP2 MSTORE SWAP1 PUSH1 0x40 MSTORE PUSH32 0x6466414B00000000000000000000000000000000000000000000000000000000 PUSH28 0xFFFFFFFFFFFFFFFFFFFFFFFFFFFFFFFFFFFFFFFFFFFFFFFFFFFFFFFF NOT AND PUSH1 0x20 DUP3 ADD DUP1 MLOAD PUSH28 0xFFFFFFFFFFFFFFFFFFFFFFFFFFFFFFFFFFFFFFFFFFFFFFFFFFFFFFFF DUP4 DUP2 DUP4 AND OR DUP4 MSTORE POP POP POP POP PUSH1 0x40 MLOAD PUSH2 0x1C0 SWAP2 SWAP1 PUSH2 0x3B0 JUMP JUMPDEST PUSH0 PUSH1 0x40 MLOAD DUP1 DUP4 SUB DUP2 DUP6 GAS DELEGATECALL SWAP2 POP POP RETURNDATASIZE DUP1 PUSH0 DUP2 EQ PUSH2 0x1F8 JUMPI PUSH1 0x40 MLOAD SWAP2 POP PUSH1 0x1F NOT PUSH1 0x3F RETURNDATASIZE ADD AND DUP3 ADD PUSH1 0x40 MSTORE RETURNDATASIZE DUP3 MSTORE RETURNDATASIZE PUSH0 PUSH1 0x20 DUP5 ADD RETURNDATACOPY PUSH2 0x1FD JUMP JUMPDEST PUSH1 0x60 SWAP2 POP JUMPDEST POP SWAP2 POP SWAP2 POP PUSH32 0xB85AAC3F27692419C387675884F1EB4E5683739747B7808DDC5431A5912D2BC4 DUP3 PUSH1 0x40 MLOAD PUSH2 0x231 SWAP2 SWAP1 PUSH2 0x3E0 JUMP JUMPDEST PUSH1 0x40 MLOAD DUP1 SWAP2 SUB SWAP1 LOG1 POP POP POP POP JUMP JUMPDEST PUSH0 DUP2 SWAP1 POP SWAP2 SWAP1 POP JUMP JUMPDEST PUSH2 0x251 DUP2 PUSH2 0x23F JUMP JUMPDEST DUP3 MSTORE POP POP JUMP JUMPDEST PUSH0 PUSH1 0x20 DUP3 ADD SWAP1 POP PUSH2 0x26A PUSH0 DUP4 ADD DUP5 PUSH2 0x248 JUMP JUMPDEST SWAP3 SWAP2 POP POP JUMP JUMPDEST PUSH0 PUSH20 0xFFFFFFFFFFFFFFFFFFFFFFFFFFFFFFFFFFFFFFFF DUP3 AND SWAP1 POP SWAP2 SWAP1 POP JUMP JUMPDEST PUSH0 PUSH2 0x299 DUP3 PUSH2 0x270 JUMP JUMPDEST SWAP1 POP SWAP2 SWAP1 POP JUMP JUMPDEST PUSH2 0x2A9 DUP2 PUSH2 0x28F JUMP JUMPDEST DUP3 MSTORE POP POP JUMP JUMPDEST PUSH0 PUSH1 0x20 DUP3 ADD SWAP1 POP PUSH2 0x2C2 PUSH0 DUP4 ADD DUP5 PUSH2 0x2A0 JUMP JUMPDEST SWAP3 SWAP2 POP POP JUMP JUMPDEST PUSH0 DUP1 REVERT JUMPDEST PUSH2 0x2D5 DUP2 PUSH2 0x28F JUMP JUMPDEST DUP2 EQ PUSH2 0x2DF JUMPI PUSH0 DUP1 REVERT JUMPDEST POP JUMP JUMPDEST PUSH0 DUP2 CALLDATALOAD SWAP1 POP PUSH2 0x2F0 DUP2 PUSH2 0x2CC JUMP JUMPDEST SWAP3 SWAP2 POP POP JUMP JUMPDEST PUSH2 0x2FF DUP2 PUSH2 0x23F JUMP JUMPDEST DUP2 EQ PUSH2 0x309 JUMPI PUSH0 DUP1 REVERT JUMPDEST POP JUMP JUMPDEST PUSH0 DUP2 CALLDATALOAD SWAP1 POP PUSH2 0x31A DUP2 PUSH2 0x2F6 JUMP JUMPDEST SWAP3 SWAP2 POP POP JUMP JUMPDEST PUSH0 DUP1 PUSH1 0x40 DUP4 DUP6 SUB SLT ISZERO PUSH2 0x336 JUMPI PUSH2 0x335 PUSH2 0x2C8 JUMP JUMPDEST JUMPDEST PUSH0 PUSH2 0x343 DUP6 DUP3 DUP7 ADD PUSH2 0x2E2 JUMP JUMPDEST SWAP3 POP POP PUSH1 0x20 PUSH2 0x354 DUP6 DUP3 DUP7 ADD PUSH2 0x30C JUMP JUMPDEST SWAP2 POP POP SWAP3 POP SWAP3 SWAP1 POP JUMP JUMPDEST PUSH0 DUP2 MLOAD SWAP1 POP SWAP2 SWAP1 POP JUMP JUMPDEST PUSH0 DUP2 SWAP1 POP SWAP3 SWAP2 POP POP JUMP JUMPDEST DUP3 DUP2 DUP4 MCOPY PUSH0 DUP4 DUP4 ADD MSTORE POP POP POP JUMP JUMPDEST PUSH0 PUSH2 0x38A DUP3 PUSH2 0x35E JUMP JUMPDEST PUSH2 0x394 DUP2 DUP6 PUSH2 0x368 JUMP JUMPDEST SWAP4 POP PUSH2 0x3A4 DUP2 DUP6 PUSH1 0x20 DUP7 ADD PUSH2 0x372 JUMP JUMPDEST DUP1 DUP5 ADD SWAP2 POP POP SWAP3 SWAP2 POP POP JUMP JUMPDEST PUSH0 PUSH2 0x3BB DUP3 DUP5 PUSH2 0x380 JUMP JUMPDEST SWAP2 POP DUP2 SWAP1 POP SWAP3 SWAP2 POP POP JUMP JUMPDEST PUSH0 DUP2 ISZERO ISZERO SWAP1 POP SWAP2 SWAP1 POP JUMP JUMPDEST PUSH2 0x3DA DUP2 PUSH2 0x3C6 JUMP JUMPDEST DUP3 MSTORE POP POP JUMP JUMPDEST PUSH0 PUSH1 0x20 DUP3 ADD SWAP1 POP PUSH2 0x3F3 PUSH0 DUP4 ADD DUP5 PUSH2 0x3D1 JUMP JUMPDEST SWAP3 SWAP2 POP POP JUMP INVALID LOG2 PUSH5 0x6970667358 0x22 SLT KECCAK256 DUP4 0xBF 0xD4 PUSH3 0xD40B90 0xD0 0xB6 RETURN 0x1F PUSH18 0xC1F6EE10C8D57BAD7C45442624C8E0113873 RETURNDATACOPY ADDMOD PUSH5 0x736F6C6343 STOP ADDMOD BYTE STOP CALLER "
				},
				"gasEstimates": {
					"creation": {
						"codeDepositCost": "214200",
						"executionCost": "255",
						"totalCost": "214455"
					},
					"external": {
						"num()": "2424",
						"sender()": "2530",
						"setVars(address,uint256)": "infinite",
						"value()": "2403"
					}
				},
				"methodIdentifiers": {
					"num()": "4e70b1dc",
					"sender()": "67e404ce",
					"setVars(address,uint256)": "d1e0f308",
					"value()": "3fa4f245"
				}
			},
			"storageLayout": {
				"storage": [
					{
						"astId": 34,
						"contract": "practise/dukedaily/day03/09delegatecall.sol:Proxy",
						"label": "num",
						"offset": 0,
						"slot": "0",
						"type": "t_uint256"
					},
					{
						"astId": 36,
						"contract": "practise/dukedaily/day03/09delegatecall.sol:Proxy",
						"label": "sender",
						"offset": 0,
						"slot": "1",
						"type": "t_address"
					},
					{
						"astId": 38,
						"contract": "practise/dukedaily/day03/09delegatecall.sol:Proxy",
						"label": "value",
						"offset": 0,
						"slot": "2",
						"type": "t_uint256"
					}
				],
				"types": {
					"t_address": {
						"encoding": "inplace",
						"label": "address",
						"numberOfBytes": "20"
					},
					"t_uint256": {
						"encoding": "inplace",
						"label": "uint256",
						"numberOfBytes": "32"
					}
				}
			},
			"userdoc": {
				"kind": "user",
				"methods": {},
				"version": 1
			}
		}
	}
}