{
	"practise/dukedaily/day03/17type.sol": {
		"TestStorage": {
			"abi": [
				{
					"inputs": [
						{
							"internalType": "contract Storage",
							"name": "_address",
							"type": "address"
						}
					],
					"stateMutability": "nonpayable",
					"type": "constructor"
				},
				{
					"inputs": [],
					"name": "getInfo",
					"outputs": [
						{
							"internalType": "bytes",
							"name": "creationCode",
							"type": "bytes"
						},
						{
							"internalType": "bytes",
							"name": "runtimeCode",
							"type": "bytes"
						}
					],
					"stateMutability": "pure",
					"type": "function"
				}
			],
			"devdoc": {
				"kind": "dev",
				"methods": {},
				"version": 1
			},
			"evm": {
				"assembly": "    /* \"practise/dukedaily/day03/17type.sol\":1238:1546  contract TestStorage {... */\n  mstore(0x40, 0x80)\n    /* \"practise/dukedaily/day03/17type.sol\":1280:1339  constructor(Storage _address) {... */\n  callvalue\n  dup1\n  iszero\n  tag_1\n  jumpi\n  0x00\n  dup1\n  revert\ntag_1:\n  pop\n  mload(0x40)\n  sub(codesize, bytecodeSize)\n  dup1\n  bytecodeSize\n  dup4\n  codecopy\n  dup2\n  dup2\n  add\n  0x40\n  mstore\n  dup2\n  add\n  swap1\n  tag_2\n  swap2\n  swap1\n  tag_3\n  jump\t// in\ntag_2:\n    /* \"practise/dukedaily/day03/17type.sol\":1324:1332  _address */\n  dup1\n    /* \"practise/dukedaily/day03/17type.sol\":1320:1321  s */\n  0x00\n  dup1\n    /* \"practise/dukedaily/day03/17type.sol\":1320:1332  s = _address */\n  0x0100\n  exp\n  dup2\n  sload\n  dup2\n  0xffffffffffffffffffffffffffffffffffffffff\n  mul\n  not\n  and\n  swap1\n  dup4\n  0xffffffffffffffffffffffffffffffffffffffff\n  and\n  mul\n  or\n  swap1\n  sstore\n  pop\n    /* \"practise/dukedaily/day03/17type.sol\":1280:1339  constructor(Storage _address) {... */\n  pop\n    /* \"practise/dukedaily/day03/17type.sol\":1238:1546  contract TestStorage {... */\n  jump(tag_6)\n    /* \"#utility.yul\":88:205   */\ntag_8:\n    /* \"#utility.yul\":197:198   */\n  0x00\n    /* \"#utility.yul\":194:195   */\n  dup1\n    /* \"#utility.yul\":187:199   */\n  revert\n    /* \"#utility.yul\":334:460   */\ntag_10:\n    /* \"#utility.yul\":371:378   */\n  0x00\n    /* \"#utility.yul\":411:453   */\n  0xffffffffffffffffffffffffffffffffffffffff\n    /* \"#utility.yul\":404:409   */\n  dup3\n    /* \"#utility.yul\":400:454   */\n  and\n    /* \"#utility.yul\":389:454   */\n  swap1\n  pop\n    /* \"#utility.yul\":334:460   */\n  swap2\n  swap1\n  pop\n  jump\t// out\n    /* \"#utility.yul\":466:562   */\ntag_11:\n    /* \"#utility.yul\":503:510   */\n  0x00\n    /* \"#utility.yul\":532:556   */\n  tag_21\n    /* \"#utility.yul\":550:555   */\n  dup3\n    /* \"#utility.yul\":532:556   */\n  tag_10\n  jump\t// in\ntag_21:\n    /* \"#utility.yul\":521:556   */\n  swap1\n  pop\n    /* \"#utility.yul\":466:562   */\n  swap2\n  swap1\n  pop\n  jump\t// out\n    /* \"#utility.yul\":568:678   */\ntag_12:\n    /* \"#utility.yul\":619:626   */\n  0x00\n    /* \"#utility.yul\":648:672   */\n  tag_23\n    /* \"#utility.yul\":666:671   */\n  dup3\n    /* \"#utility.yul\":648:672   */\n  tag_11\n  jump\t// in\ntag_23:\n    /* \"#utility.yul\":637:672   */\n  swap1\n  pop\n    /* \"#utility.yul\":568:678   */\n  swap2\n  swap1\n  pop\n  jump\t// out\n    /* \"#utility.yul\":684:834   */\ntag_13:\n    /* \"#utility.yul\":771:809   */\n  tag_25\n    /* \"#utility.yul\":803:808   */\n  dup2\n    /* \"#utility.yul\":771:809   */\n  tag_12\n  jump\t// in\ntag_25:\n    /* \"#utility.yul\":764:769   */\n  dup2\n    /* \"#utility.yul\":761:810   */\n  eq\n    /* \"#utility.yul\":751:828   */\n  tag_26\n  jumpi\n    /* \"#utility.yul\":824:825   */\n  0x00\n    /* \"#utility.yul\":821:822   */\n  dup1\n    /* \"#utility.yul\":814:826   */\n  revert\n    /* \"#utility.yul\":751:828   */\ntag_26:\n    /* \"#utility.yul\":684:834   */\n  pop\n  jump\t// out\n    /* \"#utility.yul\":840:1011   */\ntag_14:\n    /* \"#utility.yul\":911:916   */\n  0x00\n    /* \"#utility.yul\":942:948   */\n  dup2\n    /* \"#utility.yul\":936:949   */\n  mload\n    /* \"#utility.yul\":927:949   */\n  swap1\n  pop\n    /* \"#utility.yul\":958:1005   */\n  tag_28\n    /* \"#utility.yul\":999:1004   */\n  dup2\n    /* \"#utility.yul\":958:1005   */\n  tag_13\n  jump\t// in\ntag_28:\n    /* \"#utility.yul\":840:1011   */\n  swap3\n  swap2\n  pop\n  pop\n  jump\t// out\n    /* \"#utility.yul\":1017:1396   */\ntag_3:\n    /* \"#utility.yul\":1101:1107   */\n  0x00\n    /* \"#utility.yul\":1150:1152   */\n  0x20\n    /* \"#utility.yul\":1138:1147   */\n  dup3\n    /* \"#utility.yul\":1129:1136   */\n  dup5\n    /* \"#utility.yul\":1125:1148   */\n  sub\n    /* \"#utility.yul\":1121:1153   */\n  slt\n    /* \"#utility.yul\":1118:1237   */\n  iszero\n  tag_30\n  jumpi\n    /* \"#utility.yul\":1156:1235   */\n  tag_31\n  tag_8\n  jump\t// in\ntag_31:\n    /* \"#utility.yul\":1118:1237   */\ntag_30:\n    /* \"#utility.yul\":1276:1277   */\n  0x00\n    /* \"#utility.yul\":1301:1379   */\n  tag_32\n    /* \"#utility.yul\":1371:1378   */\n  dup5\n    /* \"#utility.yul\":1362:1368   */\n  dup3\n    /* \"#utility.yul\":1351:1360   */\n  dup6\n    /* \"#utility.yul\":1347:1369   */\n  add\n    /* \"#utility.yul\":1301:1379   */\n  tag_14\n  jump\t// in\ntag_32:\n    /* \"#utility.yul\":1291:1379   */\n  swap2\n  pop\n    /* \"#utility.yul\":1247:1389   */\n  pop\n    /* \"#utility.yul\":1017:1396   */\n  swap3\n  swap2\n  pop\n  pop\n  jump\t// out\n    /* \"practise/dukedaily/day03/17type.sol\":1238:1546  contract TestStorage {... */\ntag_6:\n  dataSize(sub_0)\n  dup1\n  dataOffset(sub_0)\n  0x00\n  codecopy\n  0x00\n  return\nstop\n\nsub_0: assembly {\n        /* \"practise/dukedaily/day03/17type.sol\":1238:1546  contract TestStorage {... */\n      mstore(0x40, 0x80)\n      callvalue\n      dup1\n      iszero\n      tag_1\n      jumpi\n      0x00\n      dup1\n      revert\n    tag_1:\n      pop\n      jumpi(tag_2, lt(calldatasize, 0x04))\n      shr(0xe0, calldataload(0x00))\n      dup1\n      0x5a9b0b89\n      eq\n      tag_3\n      jumpi\n    tag_2:\n      0x00\n      dup1\n      revert\n        /* \"practise/dukedaily/day03/17type.sol\":1345:1544  function getInfo() public pure returns(bytes memory creationCode, bytes memory runtimeCode) {... */\n    tag_3:\n      tag_4\n      tag_5\n      jump\t// in\n    tag_4:\n      mload(0x40)\n      tag_6\n      swap3\n      swap2\n      swap1\n      tag_7\n      jump\t// in\n    tag_6:\n      mload(0x40)\n      dup1\n      swap2\n      sub\n      swap1\n      return\n    tag_5:\n        /* \"practise/dukedaily/day03/17type.sol\":1384:1409  bytes memory creationCode */\n      0x60\n        /* \"practise/dukedaily/day03/17type.sol\":1411:1435  bytes memory runtimeCode */\n      dup1\n        /* \"practise/dukedaily/day03/17type.sol\":1462:1488  type(Storage).creationCode */\n      mload(0x40)\n      dup1\n      0x20\n      add\n      tag_9\n      swap1\n      tag_10\n      jump\t// in\n    tag_9:\n      0x20\n      dup3\n      add\n      dup2\n      sub\n      dup3\n      mstore\n      not(0x1f)\n      0x1f\n      dup3\n      add\n      and\n      0x40\n      mstore\n      pop\n        /* \"practise/dukedaily/day03/17type.sol\":1447:1488  creationCode = type(Storage).creationCode */\n      swap2\n      pop\n        /* \"practise/dukedaily/day03/17type.sol\":1512:1537  type(Storage).runtimeCode */\n      mload(0x40)\n      dup1\n      0x20\n      add\n      tag_11\n      swap1\n      tag_12\n      jump\t// in\n    tag_11:\n      0x20\n      dup3\n      add\n      dup2\n      sub\n      dup3\n      mstore\n      not(0x1f)\n      0x1f\n      dup3\n      add\n      and\n      0x40\n      mstore\n      pop\n        /* \"practise/dukedaily/day03/17type.sol\":1498:1537  runtimeCode = type(Storage).runtimeCode */\n      swap1\n      pop\n        /* \"practise/dukedaily/day03/17type.sol\":1345:1544  function getInfo() public pure returns(bytes memory creationCode, bytes memory runtimeCode) {... */\n      swap1\n      swap2\n      jump\t// out\n    tag_10:\n      dataSize(sub_0)\n      dup1\n      dataOffset(sub_0)\n      dup4\n      codecopy\n      add\n      swap1\n      jump\t// out\n    tag_12:\n      dataSize(sub_1)\n      dup1\n      dataOffset(sub_1)\n      dup4\n      codecopy\n      add\n      swap1\n      jump\t// out\n        /* \"#utility.yul\":7:105   */\n    tag_13:\n        /* \"#utility.yul\":58:64   */\n      0x00\n        /* \"#utility.yul\":92:97   */\n      dup2\n        /* \"#utility.yul\":86:98   */\n      mload\n        /* \"#utility.yul\":76:98   */\n      swap1\n      pop\n        /* \"#utility.yul\":7:105   */\n      swap2\n      swap1\n      pop\n      jump\t// out\n        /* \"#utility.yul\":111:279   */\n    tag_14:\n        /* \"#utility.yul\":194:205   */\n      0x00\n        /* \"#utility.yul\":228:234   */\n      dup3\n        /* \"#utility.yul\":223:226   */\n      dup3\n        /* \"#utility.yul\":216:235   */\n      mstore\n        /* \"#utility.yul\":268:272   */\n      0x20\n        /* \"#utility.yul\":263:266   */\n      dup3\n        /* \"#utility.yul\":259:273   */\n      add\n        /* \"#utility.yul\":244:273   */\n      swap1\n      pop\n        /* \"#utility.yul\":111:279   */\n      swap3\n      swap2\n      pop\n      pop\n      jump\t// out\n        /* \"#utility.yul\":285:424   */\n    tag_15:\n        /* \"#utility.yul\":374:380   */\n      dup3\n        /* \"#utility.yul\":369:372   */\n      dup2\n        /* \"#utility.yul\":364:367   */\n      dup4\n        /* \"#utility.yul\":358:381   */\n      mcopy\n        /* \"#utility.yul\":415:416   */\n      0x00\n        /* \"#utility.yul\":406:412   */\n      dup4\n        /* \"#utility.yul\":401:404   */\n      dup4\n        /* \"#utility.yul\":397:413   */\n      add\n        /* \"#utility.yul\":390:417   */\n      mstore\n        /* \"#utility.yul\":285:424   */\n      pop\n      pop\n      pop\n      jump\t// out\n        /* \"#utility.yul\":430:532   */\n    tag_16:\n        /* \"#utility.yul\":471:477   */\n      0x00\n        /* \"#utility.yul\":522:524   */\n      0x1f\n        /* \"#utility.yul\":518:525   */\n      not\n        /* \"#utility.yul\":513:515   */\n      0x1f\n        /* \"#utility.yul\":506:511   */\n      dup4\n        /* \"#utility.yul\":502:516   */\n      add\n        /* \"#utility.yul\":498:526   */\n      and\n        /* \"#utility.yul\":488:526   */\n      swap1\n      pop\n        /* \"#utility.yul\":430:532   */\n      swap2\n      swap1\n      pop\n      jump\t// out\n        /* \"#utility.yul\":538:911   */\n    tag_17:\n        /* \"#utility.yul\":624:627   */\n      0x00\n        /* \"#utility.yul\":652:690   */\n      tag_24\n        /* \"#utility.yul\":684:689   */\n      dup3\n        /* \"#utility.yul\":652:690   */\n      tag_13\n      jump\t// in\n    tag_24:\n        /* \"#utility.yul\":706:776   */\n      tag_25\n        /* \"#utility.yul\":769:775   */\n      dup2\n        /* \"#utility.yul\":764:767   */\n      dup6\n        /* \"#utility.yul\":706:776   */\n      tag_14\n      jump\t// in\n    tag_25:\n        /* \"#utility.yul\":699:776   */\n      swap4\n      pop\n        /* \"#utility.yul\":785:850   */\n      tag_26\n        /* \"#utility.yul\":843:849   */\n      dup2\n        /* \"#utility.yul\":838:841   */\n      dup6\n        /* \"#utility.yul\":831:835   */\n      0x20\n        /* \"#utility.yul\":824:829   */\n      dup7\n        /* \"#utility.yul\":820:836   */\n      add\n        /* \"#utility.yul\":785:850   */\n      tag_15\n      jump\t// in\n    tag_26:\n        /* \"#utility.yul\":875:904   */\n      tag_27\n        /* \"#utility.yul\":897:903   */\n      dup2\n        /* \"#utility.yul\":875:904   */\n      tag_16\n      jump\t// in\n    tag_27:\n        /* \"#utility.yul\":870:873   */\n      dup5\n        /* \"#utility.yul\":866:905   */\n      add\n        /* \"#utility.yul\":859:905   */\n      swap2\n      pop\n        /* \"#utility.yul\":628:911   */\n      pop\n        /* \"#utility.yul\":538:911   */\n      swap3\n      swap2\n      pop\n      pop\n      jump\t// out\n        /* \"#utility.yul\":917:1423   */\n    tag_7:\n        /* \"#utility.yul\":1074:1078   */\n      0x00\n        /* \"#utility.yul\":1112:1114   */\n      0x40\n        /* \"#utility.yul\":1101:1110   */\n      dup3\n        /* \"#utility.yul\":1097:1115   */\n      add\n        /* \"#utility.yul\":1089:1115   */\n      swap1\n      pop\n        /* \"#utility.yul\":1161:1170   */\n      dup2\n        /* \"#utility.yul\":1155:1159   */\n      dup2\n        /* \"#utility.yul\":1151:1171   */\n      sub\n        /* \"#utility.yul\":1147:1148   */\n      0x00\n        /* \"#utility.yul\":1136:1145   */\n      dup4\n        /* \"#utility.yul\":1132:1149   */\n      add\n        /* \"#utility.yul\":1125:1172   */\n      mstore\n        /* \"#utility.yul\":1189:1265   */\n      tag_29\n        /* \"#utility.yul\":1260:1264   */\n      dup2\n        /* \"#utility.yul\":1251:1257   */\n      dup6\n        /* \"#utility.yul\":1189:1265   */\n      tag_17\n      jump\t// in\n    tag_29:\n        /* \"#utility.yul\":1181:1265   */\n      swap1\n      pop\n        /* \"#utility.yul\":1312:1321   */\n      dup2\n        /* \"#utility.yul\":1306:1310   */\n      dup2\n        /* \"#utility.yul\":1302:1322   */\n      sub\n        /* \"#utility.yul\":1297:1299   */\n      0x20\n        /* \"#utility.yul\":1286:1295   */\n      dup4\n        /* \"#utility.yul\":1282:1300   */\n      add\n        /* \"#utility.yul\":1275:1323   */\n      mstore\n        /* \"#utility.yul\":1340:1416   */\n      tag_30\n        /* \"#utility.yul\":1411:1415   */\n      dup2\n        /* \"#utility.yul\":1402:1408   */\n      dup5\n        /* \"#utility.yul\":1340:1416   */\n      tag_17\n      jump\t// in\n    tag_30:\n        /* \"#utility.yul\":1332:1416   */\n      swap1\n      pop\n        /* \"#utility.yul\":917:1423   */\n      swap4\n      swap3\n      pop\n      pop\n      pop\n      jump\t// out\n    stop\n\n    sub_0: assembly {\n            /* \"practise/dukedaily/day03/17type.sol\":459:1236  contract Storage {... */\n          mstore(0x40, 0x80)\n            /* \"practise/dukedaily/day03/17type.sol\":505:564  constructor(string memory _str) {... */\n          callvalue\n          dup1\n          iszero\n          tag_1\n          jumpi\n          0x00\n          dup1\n          revert\n        tag_1:\n          pop\n          mload(0x40)\n          sub(codesize, bytecodeSize)\n          dup1\n          bytecodeSize\n          dup4\n          codecopy\n          dup2\n          dup2\n          add\n          0x40\n          mstore\n          dup2\n          add\n          swap1\n          tag_2\n          swap2\n          swap1\n          tag_3\n          jump\t// in\n        tag_2:\n            /* \"practise/dukedaily/day03/17type.sol\":553:557  _str */\n          dup1\n            /* \"practise/dukedaily/day03/17type.sol\":547:550  str */\n          0x00\n            /* \"practise/dukedaily/day03/17type.sol\":547:557  str = _str */\n          swap1\n          dup2\n          tag_6\n          swap2\n          swap1\n          tag_7\n          jump\t// in\n        tag_6:\n          pop\n            /* \"practise/dukedaily/day03/17type.sol\":505:564  constructor(string memory _str) {... */\n          pop\n            /* \"practise/dukedaily/day03/17type.sol\":459:1236  contract Storage {... */\n          jump(tag_8)\n            /* \"#utility.yul\":7:82   */\n        tag_9:\n            /* \"#utility.yul\":40:46   */\n          0x00\n            /* \"#utility.yul\":73:75   */\n          0x40\n            /* \"#utility.yul\":67:76   */\n          mload\n            /* \"#utility.yul\":57:76   */\n          swap1\n          pop\n            /* \"#utility.yul\":7:82   */\n          swap1\n          jump\t// out\n            /* \"#utility.yul\":88:205   */\n        tag_10:\n            /* \"#utility.yul\":197:198   */\n          0x00\n            /* \"#utility.yul\":194:195   */\n          dup1\n            /* \"#utility.yul\":187:199   */\n          revert\n            /* \"#utility.yul\":211:328   */\n        tag_11:\n            /* \"#utility.yul\":320:321   */\n          0x00\n            /* \"#utility.yul\":317:318   */\n          dup1\n            /* \"#utility.yul\":310:322   */\n          revert\n            /* \"#utility.yul\":334:451   */\n        tag_12:\n            /* \"#utility.yul\":443:444   */\n          0x00\n            /* \"#utility.yul\":440:441   */\n          dup1\n            /* \"#utility.yul\":433:445   */\n          revert\n            /* \"#utility.yul\":457:574   */\n        tag_13:\n            /* \"#utility.yul\":566:567   */\n          0x00\n            /* \"#utility.yul\":563:564   */\n          dup1\n            /* \"#utility.yul\":556:568   */\n          revert\n            /* \"#utility.yul\":580:682   */\n        tag_14:\n            /* \"#utility.yul\":621:627   */\n          0x00\n            /* \"#utility.yul\":672:674   */\n          0x1f\n            /* \"#utility.yul\":668:675   */\n          not\n            /* \"#utility.yul\":663:665   */\n          0x1f\n            /* \"#utility.yul\":656:661   */\n          dup4\n            /* \"#utility.yul\":652:666   */\n          add\n            /* \"#utility.yul\":648:676   */\n          and\n            /* \"#utility.yul\":638:676   */\n          swap1\n          pop\n            /* \"#utility.yul\":580:682   */\n          swap2\n          swap1\n          pop\n          jump\t// out\n            /* \"#utility.yul\":688:868   */\n        tag_15:\n            /* \"#utility.yul\":736:813   */\n          0x4e487b7100000000000000000000000000000000000000000000000000000000\n            /* \"#utility.yul\":733:734   */\n          0x00\n            /* \"#utility.yul\":726:814   */\n          mstore\n            /* \"#utility.yul\":833:837   */\n          0x41\n            /* \"#utility.yul\":830:831   */\n          0x04\n            /* \"#utility.yul\":823:838   */\n          mstore\n            /* \"#utility.yul\":857:861   */\n          0x24\n            /* \"#utility.yul\":854:855   */\n          0x00\n            /* \"#utility.yul\":847:862   */\n          revert\n            /* \"#utility.yul\":874:1155   */\n        tag_16:\n            /* \"#utility.yul\":957:984   */\n          tag_50\n            /* \"#utility.yul\":979:983   */\n          dup3\n            /* \"#utility.yul\":957:984   */\n          tag_14\n          jump\t// in\n        tag_50:\n            /* \"#utility.yul\":949:955   */\n          dup2\n            /* \"#utility.yul\":945:985   */\n          add\n            /* \"#utility.yul\":1087:1093   */\n          dup2\n            /* \"#utility.yul\":1075:1085   */\n          dup2\n            /* \"#utility.yul\":1072:1094   */\n          lt\n            /* \"#utility.yul\":1051:1069   */\n          0xffffffffffffffff\n            /* \"#utility.yul\":1039:1049   */\n          dup3\n            /* \"#utility.yul\":1036:1070   */\n          gt\n            /* \"#utility.yul\":1033:1095   */\n          or\n            /* \"#utility.yul\":1030:1118   */\n          iszero\n          tag_51\n          jumpi\n            /* \"#utility.yul\":1098:1116   */\n          tag_52\n          tag_15\n          jump\t// in\n        tag_52:\n            /* \"#utility.yul\":1030:1118   */\n        tag_51:\n            /* \"#utility.yul\":1138:1148   */\n          dup1\n            /* \"#utility.yul\":1134:1136   */\n          0x40\n            /* \"#utility.yul\":1127:1149   */\n          mstore\n            /* \"#utility.yul\":917:1155   */\n          pop\n            /* \"#utility.yul\":874:1155   */\n          pop\n          pop\n          jump\t// out\n            /* \"#utility.yul\":1161:1290   */\n        tag_17:\n            /* \"#utility.yul\":1195:1201   */\n          0x00\n            /* \"#utility.yul\":1222:1242   */\n          tag_54\n          tag_9\n          jump\t// in\n        tag_54:\n            /* \"#utility.yul\":1212:1242   */\n          swap1\n          pop\n            /* \"#utility.yul\":1251:1284   */\n          tag_55\n            /* \"#utility.yul\":1279:1283   */\n          dup3\n            /* \"#utility.yul\":1271:1277   */\n          dup3\n            /* \"#utility.yul\":1251:1284   */\n          tag_16\n          jump\t// in\n        tag_55:\n            /* \"#utility.yul\":1161:1290   */\n          swap2\n          swap1\n          pop\n          jump\t// out\n            /* \"#utility.yul\":1296:1604   */\n        tag_18:\n            /* \"#utility.yul\":1358:1362   */\n          0x00\n            /* \"#utility.yul\":1448:1466   */\n          0xffffffffffffffff\n            /* \"#utility.yul\":1440:1446   */\n          dup3\n            /* \"#utility.yul\":1437:1467   */\n          gt\n            /* \"#utility.yul\":1434:1490   */\n          iszero\n          tag_57\n          jumpi\n            /* \"#utility.yul\":1470:1488   */\n          tag_58\n          tag_15\n          jump\t// in\n        tag_58:\n            /* \"#utility.yul\":1434:1490   */\n        tag_57:\n            /* \"#utility.yul\":1508:1537   */\n          tag_59\n            /* \"#utility.yul\":1530:1536   */\n          dup3\n            /* \"#utility.yul\":1508:1537   */\n          tag_14\n          jump\t// in\n        tag_59:\n            /* \"#utility.yul\":1500:1537   */\n          swap1\n          pop\n            /* \"#utility.yul\":1592:1596   */\n          0x20\n            /* \"#utility.yul\":1586:1590   */\n          dup2\n            /* \"#utility.yul\":1582:1597   */\n          add\n            /* \"#utility.yul\":1574:1597   */\n          swap1\n          pop\n            /* \"#utility.yul\":1296:1604   */\n          swap2\n          swap1\n          pop\n          jump\t// out\n            /* \"#utility.yul\":1610:1749   */\n        tag_19:\n            /* \"#utility.yul\":1699:1705   */\n          dup3\n            /* \"#utility.yul\":1694:1697   */\n          dup2\n            /* \"#utility.yul\":1689:1692   */\n          dup4\n            /* \"#utility.yul\":1683:1706   */\n          mcopy\n            /* \"#utility.yul\":1740:1741   */\n          0x00\n            /* \"#utility.yul\":1731:1737   */\n          dup4\n            /* \"#utility.yul\":1726:1729   */\n          dup4\n            /* \"#utility.yul\":1722:1738   */\n          add\n            /* \"#utility.yul\":1715:1742   */\n          mstore\n            /* \"#utility.yul\":1610:1749   */\n          pop\n          pop\n          pop\n          jump\t// out\n            /* \"#utility.yul\":1755:2189   */\n        tag_20:\n            /* \"#utility.yul\":1844:1849   */\n          0x00\n            /* \"#utility.yul\":1869:1935   */\n          tag_62\n            /* \"#utility.yul\":1885:1934   */\n          tag_63\n            /* \"#utility.yul\":1927:1933   */\n          dup5\n            /* \"#utility.yul\":1885:1934   */\n          tag_18\n          jump\t// in\n        tag_63:\n            /* \"#utility.yul\":1869:1935   */\n          tag_17\n          jump\t// in\n        tag_62:\n            /* \"#utility.yul\":1860:1935   */\n          swap1\n          pop\n            /* \"#utility.yul\":1958:1964   */\n          dup3\n            /* \"#utility.yul\":1951:1956   */\n          dup2\n            /* \"#utility.yul\":1944:1965   */\n          mstore\n            /* \"#utility.yul\":1996:2000   */\n          0x20\n            /* \"#utility.yul\":1989:1994   */\n          dup2\n            /* \"#utility.yul\":1985:2001   */\n          add\n            /* \"#utility.yul\":2034:2037   */\n          dup5\n            /* \"#utility.yul\":2025:2031   */\n          dup5\n            /* \"#utility.yul\":2020:2023   */\n          dup5\n            /* \"#utility.yul\":2016:2032   */\n          add\n            /* \"#utility.yul\":2013:2038   */\n          gt\n            /* \"#utility.yul\":2010:2122   */\n          iszero\n          tag_64\n          jumpi\n            /* \"#utility.yul\":2041:2120   */\n          tag_65\n          tag_13\n          jump\t// in\n        tag_65:\n            /* \"#utility.yul\":2010:2122   */\n        tag_64:\n            /* \"#utility.yul\":2131:2183   */\n          tag_66\n            /* \"#utility.yul\":2176:2182   */\n          dup5\n            /* \"#utility.yul\":2171:2174   */\n          dup3\n            /* \"#utility.yul\":2166:2169   */\n          dup6\n            /* \"#utility.yul\":2131:2183   */\n          tag_19\n          jump\t// in\n        tag_66:\n            /* \"#utility.yul\":1850:2189   */\n          pop\n            /* \"#utility.yul\":1755:2189   */\n          swap4\n          swap3\n          pop\n          pop\n          pop\n          jump\t// out\n            /* \"#utility.yul\":2209:2564   */\n        tag_21:\n            /* \"#utility.yul\":2276:2281   */\n          0x00\n            /* \"#utility.yul\":2325:2328   */\n          dup3\n            /* \"#utility.yul\":2318:2322   */\n          0x1f\n            /* \"#utility.yul\":2310:2316   */\n          dup4\n            /* \"#utility.yul\":2306:2323   */\n          add\n            /* \"#utility.yul\":2302:2329   */\n          slt\n            /* \"#utility.yul\":2292:2414   */\n          tag_68\n          jumpi\n            /* \"#utility.yul\":2333:2412   */\n          tag_69\n          tag_12\n          jump\t// in\n        tag_69:\n            /* \"#utility.yul\":2292:2414   */\n        tag_68:\n            /* \"#utility.yul\":2443:2449   */\n          dup2\n            /* \"#utility.yul\":2437:2450   */\n          mload\n            /* \"#utility.yul\":2468:2558   */\n          tag_70\n            /* \"#utility.yul\":2554:2557   */\n          dup5\n            /* \"#utility.yul\":2546:2552   */\n          dup3\n            /* \"#utility.yul\":2539:2543   */\n          0x20\n            /* \"#utility.yul\":2531:2537   */\n          dup7\n            /* \"#utility.yul\":2527:2544   */\n          add\n            /* \"#utility.yul\":2468:2558   */\n          tag_20\n          jump\t// in\n        tag_70:\n            /* \"#utility.yul\":2459:2558   */\n          swap2\n          pop\n            /* \"#utility.yul\":2282:2564   */\n          pop\n            /* \"#utility.yul\":2209:2564   */\n          swap3\n          swap2\n          pop\n          pop\n          jump\t// out\n            /* \"#utility.yul\":2570:3094   */\n        tag_3:\n            /* \"#utility.yul\":2650:2656   */\n          0x00\n            /* \"#utility.yul\":2699:2701   */\n          0x20\n            /* \"#utility.yul\":2687:2696   */\n          dup3\n            /* \"#utility.yul\":2678:2685   */\n          dup5\n            /* \"#utility.yul\":2674:2697   */\n          sub\n            /* \"#utility.yul\":2670:2702   */\n          slt\n            /* \"#utility.yul\":2667:2786   */\n          iszero\n          tag_72\n          jumpi\n            /* \"#utility.yul\":2705:2784   */\n          tag_73\n          tag_10\n          jump\t// in\n        tag_73:\n            /* \"#utility.yul\":2667:2786   */\n        tag_72:\n            /* \"#utility.yul\":2846:2847   */\n          0x00\n            /* \"#utility.yul\":2835:2844   */\n          dup3\n            /* \"#utility.yul\":2831:2848   */\n          add\n            /* \"#utility.yul\":2825:2849   */\n          mload\n            /* \"#utility.yul\":2876:2894   */\n          0xffffffffffffffff\n            /* \"#utility.yul\":2868:2874   */\n          dup2\n            /* \"#utility.yul\":2865:2895   */\n          gt\n            /* \"#utility.yul\":2862:2979   */\n          iszero\n          tag_74\n          jumpi\n            /* \"#utility.yul\":2898:2977   */\n          tag_75\n          tag_11\n          jump\t// in\n        tag_75:\n            /* \"#utility.yul\":2862:2979   */\n        tag_74:\n            /* \"#utility.yul\":3003:3077   */\n          tag_76\n            /* \"#utility.yul\":3069:3076   */\n          dup5\n            /* \"#utility.yul\":3060:3066   */\n          dup3\n            /* \"#utility.yul\":3049:3058   */\n          dup6\n            /* \"#utility.yul\":3045:3067   */\n          add\n            /* \"#utility.yul\":3003:3077   */\n          tag_21\n          jump\t// in\n        tag_76:\n            /* \"#utility.yul\":2993:3077   */\n          swap2\n          pop\n            /* \"#utility.yul\":2796:3087   */\n          pop\n            /* \"#utility.yul\":2570:3094   */\n          swap3\n          swap2\n          pop\n          pop\n          jump\t// out\n            /* \"#utility.yul\":3100:3199   */\n        tag_22:\n            /* \"#utility.yul\":3152:3158   */\n          0x00\n            /* \"#utility.yul\":3186:3191   */\n          dup2\n            /* \"#utility.yul\":3180:3192   */\n          mload\n            /* \"#utility.yul\":3170:3192   */\n          swap1\n          pop\n            /* \"#utility.yul\":3100:3199   */\n          swap2\n          swap1\n          pop\n          jump\t// out\n            /* \"#utility.yul\":3205:3385   */\n        tag_23:\n            /* \"#utility.yul\":3253:3330   */\n          0x4e487b7100000000000000000000000000000000000000000000000000000000\n            /* \"#utility.yul\":3250:3251   */\n          0x00\n            /* \"#utility.yul\":3243:3331   */\n          mstore\n            /* \"#utility.yul\":3350:3354   */\n          0x22\n            /* \"#utility.yul\":3347:3348   */\n          0x04\n            /* \"#utility.yul\":3340:3355   */\n          mstore\n            /* \"#utility.yul\":3374:3378   */\n          0x24\n            /* \"#utility.yul\":3371:3372   */\n          0x00\n            /* \"#utility.yul\":3364:3379   */\n          revert\n            /* \"#utility.yul\":3391:3711   */\n        tag_24:\n            /* \"#utility.yul\":3435:3441   */\n          0x00\n            /* \"#utility.yul\":3472:3473   */\n          0x02\n            /* \"#utility.yul\":3466:3470   */\n          dup3\n            /* \"#utility.yul\":3462:3474   */\n          div\n            /* \"#utility.yul\":3452:3474   */\n          swap1\n          pop\n            /* \"#utility.yul\":3519:3520   */\n          0x01\n            /* \"#utility.yul\":3513:3517   */\n          dup3\n            /* \"#utility.yul\":3509:3521   */\n          and\n            /* \"#utility.yul\":3540:3558   */\n          dup1\n            /* \"#utility.yul\":3530:3611   */\n          tag_80\n          jumpi\n            /* \"#utility.yul\":3596:3600   */\n          0x7f\n            /* \"#utility.yul\":3588:3594   */\n          dup3\n            /* \"#utility.yul\":3584:3601   */\n          and\n            /* \"#utility.yul\":3574:3601   */\n          swap2\n          pop\n            /* \"#utility.yul\":3530:3611   */\n        tag_80:\n            /* \"#utility.yul\":3658:3660   */\n          0x20\n            /* \"#utility.yul\":3650:3656   */\n          dup3\n            /* \"#utility.yul\":3647:3661   */\n          lt\n            /* \"#utility.yul\":3627:3645   */\n          dup2\n            /* \"#utility.yul\":3624:3662   */\n          sub\n            /* \"#utility.yul\":3621:3705   */\n          tag_81\n          jumpi\n            /* \"#utility.yul\":3677:3695   */\n          tag_82\n          tag_23\n          jump\t// in\n        tag_82:\n            /* \"#utility.yul\":3621:3705   */\n        tag_81:\n            /* \"#utility.yul\":3442:3711   */\n          pop\n            /* \"#utility.yul\":3391:3711   */\n          swap2\n          swap1\n          pop\n          jump\t// out\n            /* \"#utility.yul\":3717:3858   */\n        tag_25:\n            /* \"#utility.yul\":3766:3770   */\n          0x00\n            /* \"#utility.yul\":3789:3792   */\n          dup2\n            /* \"#utility.yul\":3781:3792   */\n          swap1\n          pop\n            /* \"#utility.yul\":3812:3815   */\n          dup2\n            /* \"#utility.yul\":3809:3810   */\n          0x00\n            /* \"#utility.yul\":3802:3816   */\n          mstore\n            /* \"#utility.yul\":3846:3850   */\n          0x20\n            /* \"#utility.yul\":3843:3844   */\n          0x00\n            /* \"#utility.yul\":3833:3851   */\n          keccak256\n            /* \"#utility.yul\":3825:3851   */\n          swap1\n          pop\n            /* \"#utility.yul\":3717:3858   */\n          swap2\n          swap1\n          pop\n          jump\t// out\n            /* \"#utility.yul\":3864:3957   */\n        tag_26:\n            /* \"#utility.yul\":3901:3907   */\n          0x00\n            /* \"#utility.yul\":3948:3950   */\n          0x20\n            /* \"#utility.yul\":3943:3945   */\n          0x1f\n            /* \"#utility.yul\":3936:3941   */\n          dup4\n            /* \"#utility.yul\":3932:3946   */\n          add\n            /* \"#utility.yul\":3928:3951   */\n          div\n            /* \"#utility.yul\":3918:3951   */\n          swap1\n          pop\n            /* \"#utility.yul\":3864:3957   */\n          swap2\n          swap1\n          pop\n          jump\t// out\n            /* \"#utility.yul\":3963:4070   */\n        tag_27:\n            /* \"#utility.yul\":4007:4015   */\n          0x00\n            /* \"#utility.yul\":4057:4062   */\n          dup3\n            /* \"#utility.yul\":4051:4055   */\n          dup3\n            /* \"#utility.yul\":4047:4063   */\n          shl\n            /* \"#utility.yul\":4026:4063   */\n          swap1\n          pop\n            /* \"#utility.yul\":3963:4070   */\n          swap3\n          swap2\n          pop\n          pop\n          jump\t// out\n            /* \"#utility.yul\":4076:4469   */\n        tag_28:\n            /* \"#utility.yul\":4145:4151   */\n          0x00\n            /* \"#utility.yul\":4195:4196   */\n          0x08\n            /* \"#utility.yul\":4183:4193   */\n          dup4\n            /* \"#utility.yul\":4179:4197   */\n          mul\n            /* \"#utility.yul\":4218:4315   */\n          tag_87\n            /* \"#utility.yul\":4248:4314   */\n          0xffffffffffffffffffffffffffffffffffffffffffffffffffffffffffffffff\n            /* \"#utility.yul\":4237:4246   */\n          dup3\n            /* \"#utility.yul\":4218:4315   */\n          tag_27\n          jump\t// in\n        tag_87:\n            /* \"#utility.yul\":4336:4375   */\n          tag_88\n            /* \"#utility.yul\":4366:4374   */\n          dup7\n            /* \"#utility.yul\":4355:4364   */\n          dup4\n            /* \"#utility.yul\":4336:4375   */\n          tag_27\n          jump\t// in\n        tag_88:\n            /* \"#utility.yul\":4324:4375   */\n          swap6\n          pop\n            /* \"#utility.yul\":4408:4412   */\n          dup1\n            /* \"#utility.yul\":4404:4413   */\n          not\n            /* \"#utility.yul\":4397:4402   */\n          dup5\n            /* \"#utility.yul\":4393:4414   */\n          and\n            /* \"#utility.yul\":4384:4414   */\n          swap4\n          pop\n            /* \"#utility.yul\":4457:4461   */\n          dup1\n            /* \"#utility.yul\":4447:4455   */\n          dup7\n            /* \"#utility.yul\":4443:4462   */\n          and\n            /* \"#utility.yul\":4436:4441   */\n          dup5\n            /* \"#utility.yul\":4433:4463   */\n          or\n            /* \"#utility.yul\":4423:4463   */\n          swap3\n          pop\n            /* \"#utility.yul\":4152:4469   */\n          pop\n          pop\n            /* \"#utility.yul\":4076:4469   */\n          swap4\n          swap3\n          pop\n          pop\n          pop\n          jump\t// out\n            /* \"#utility.yul\":4475:4552   */\n        tag_29:\n            /* \"#utility.yul\":4512:4519   */\n          0x00\n            /* \"#utility.yul\":4541:4546   */\n          dup2\n            /* \"#utility.yul\":4530:4546   */\n          swap1\n          pop\n            /* \"#utility.yul\":4475:4552   */\n          swap2\n          swap1\n          pop\n          jump\t// out\n            /* \"#utility.yul\":4558:4618   */\n        tag_30:\n            /* \"#utility.yul\":4586:4589   */\n          0x00\n            /* \"#utility.yul\":4607:4612   */\n          dup2\n            /* \"#utility.yul\":4600:4612   */\n          swap1\n          pop\n            /* \"#utility.yul\":4558:4618   */\n          swap2\n          swap1\n          pop\n          jump\t// out\n            /* \"#utility.yul\":4624:4766   */\n        tag_31:\n            /* \"#utility.yul\":4674:4683   */\n          0x00\n            /* \"#utility.yul\":4707:4760   */\n          tag_92\n            /* \"#utility.yul\":4725:4759   */\n          tag_93\n            /* \"#utility.yul\":4734:4758   */\n          tag_94\n            /* \"#utility.yul\":4752:4757   */\n          dup5\n            /* \"#utility.yul\":4734:4758   */\n          tag_29\n          jump\t// in\n        tag_94:\n            /* \"#utility.yul\":4725:4759   */\n          tag_30\n          jump\t// in\n        tag_93:\n            /* \"#utility.yul\":4707:4760   */\n          tag_29\n          jump\t// in\n        tag_92:\n            /* \"#utility.yul\":4694:4760   */\n          swap1\n          pop\n            /* \"#utility.yul\":4624:4766   */\n          swap2\n          swap1\n          pop\n          jump\t// out\n            /* \"#utility.yul\":4772:4847   */\n        tag_32:\n            /* \"#utility.yul\":4815:4818   */\n          0x00\n            /* \"#utility.yul\":4836:4841   */\n          dup2\n            /* \"#utility.yul\":4829:4841   */\n          swap1\n          pop\n            /* \"#utility.yul\":4772:4847   */\n          swap2\n          swap1\n          pop\n          jump\t// out\n            /* \"#utility.yul\":4853:5122   */\n        tag_33:\n            /* \"#utility.yul\":4963:5002   */\n          tag_97\n            /* \"#utility.yul\":4994:5001   */\n          dup4\n            /* \"#utility.yul\":4963:5002   */\n          tag_31\n          jump\t// in\n        tag_97:\n            /* \"#utility.yul\":5024:5115   */\n          tag_98\n            /* \"#utility.yul\":5073:5114   */\n          tag_99\n            /* \"#utility.yul\":5097:5113   */\n          dup3\n            /* \"#utility.yul\":5073:5114   */\n          tag_32\n          jump\t// in\n        tag_99:\n            /* \"#utility.yul\":5065:5071   */\n          dup5\n            /* \"#utility.yul\":5058:5062   */\n          dup5\n            /* \"#utility.yul\":5052:5063   */\n          sload\n            /* \"#utility.yul\":5024:5115   */\n          tag_28\n          jump\t// in\n        tag_98:\n            /* \"#utility.yul\":5018:5022   */\n          dup3\n            /* \"#utility.yul\":5011:5116   */\n          sstore\n            /* \"#utility.yul\":4929:5122   */\n          pop\n            /* \"#utility.yul\":4853:5122   */\n          pop\n          pop\n          pop\n          jump\t// out\n            /* \"#utility.yul\":5128:5201   */\n        tag_34:\n            /* \"#utility.yul\":5173:5176   */\n          0x00\n            /* \"#utility.yul\":5128:5201   */\n          swap1\n          jump\t// out\n            /* \"#utility.yul\":5207:5396   */\n        tag_35:\n            /* \"#utility.yul\":5284:5316   */\n          tag_102\n          tag_34\n          jump\t// in\n        tag_102:\n            /* \"#utility.yul\":5325:5390   */\n          tag_103\n            /* \"#utility.yul\":5383:5389   */\n          dup2\n            /* \"#utility.yul\":5375:5381   */\n          dup5\n            /* \"#utility.yul\":5369:5373   */\n          dup5\n            /* \"#utility.yul\":5325:5390   */\n          tag_33\n          jump\t// in\n        tag_103:\n            /* \"#utility.yul\":5260:5396   */\n          pop\n            /* \"#utility.yul\":5207:5396   */\n          pop\n          pop\n          jump\t// out\n            /* \"#utility.yul\":5402:5588   */\n        tag_36:\n            /* \"#utility.yul\":5462:5582   */\n        tag_105:\n            /* \"#utility.yul\":5479:5482   */\n          dup2\n            /* \"#utility.yul\":5472:5477   */\n          dup2\n            /* \"#utility.yul\":5469:5483   */\n          lt\n            /* \"#utility.yul\":5462:5582   */\n          iszero\n          tag_107\n          jumpi\n            /* \"#utility.yul\":5533:5572   */\n          tag_108\n            /* \"#utility.yul\":5570:5571   */\n          0x00\n            /* \"#utility.yul\":5563:5568   */\n          dup3\n            /* \"#utility.yul\":5533:5572   */\n          tag_35\n          jump\t// in\n        tag_108:\n            /* \"#utility.yul\":5506:5507   */\n          0x01\n            /* \"#utility.yul\":5499:5504   */\n          dup2\n            /* \"#utility.yul\":5495:5508   */\n          add\n            /* \"#utility.yul\":5486:5508   */\n          swap1\n          pop\n            /* \"#utility.yul\":5462:5582   */\n          jump(tag_105)\n        tag_107:\n            /* \"#utility.yul\":5402:5588   */\n          pop\n          pop\n          jump\t// out\n            /* \"#utility.yul\":5594:6137   */\n        tag_37:\n            /* \"#utility.yul\":5695:5697   */\n          0x1f\n            /* \"#utility.yul\":5690:5693   */\n          dup3\n            /* \"#utility.yul\":5687:5698   */\n          gt\n            /* \"#utility.yul\":5684:6130   */\n          iszero\n          tag_110\n          jumpi\n            /* \"#utility.yul\":5729:5767   */\n          tag_111\n            /* \"#utility.yul\":5761:5766   */\n          dup2\n            /* \"#utility.yul\":5729:5767   */\n          tag_25\n          jump\t// in\n        tag_111:\n            /* \"#utility.yul\":5813:5842   */\n          tag_112\n            /* \"#utility.yul\":5831:5841   */\n          dup5\n            /* \"#utility.yul\":5813:5842   */\n          tag_26\n          jump\t// in\n        tag_112:\n            /* \"#utility.yul\":5803:5811   */\n          dup2\n            /* \"#utility.yul\":5799:5843   */\n          add\n            /* \"#utility.yul\":5996:5998   */\n          0x20\n            /* \"#utility.yul\":5984:5994   */\n          dup6\n            /* \"#utility.yul\":5981:5999   */\n          lt\n            /* \"#utility.yul\":5978:6027   */\n          iszero\n          tag_113\n          jumpi\n            /* \"#utility.yul\":6017:6025   */\n          dup2\n            /* \"#utility.yul\":6002:6025   */\n          swap1\n          pop\n            /* \"#utility.yul\":5978:6027   */\n        tag_113:\n            /* \"#utility.yul\":6040:6120   */\n          tag_114\n            /* \"#utility.yul\":6096:6118   */\n          tag_115\n            /* \"#utility.yul\":6114:6117   */\n          dup6\n            /* \"#utility.yul\":6096:6118   */\n          tag_26\n          jump\t// in\n        tag_115:\n            /* \"#utility.yul\":6086:6094   */\n          dup4\n            /* \"#utility.yul\":6082:6119   */\n          add\n            /* \"#utility.yul\":6069:6080   */\n          dup3\n            /* \"#utility.yul\":6040:6120   */\n          tag_36\n          jump\t// in\n        tag_114:\n            /* \"#utility.yul\":5699:6130   */\n          pop\n          pop\n            /* \"#utility.yul\":5684:6130   */\n        tag_110:\n            /* \"#utility.yul\":5594:6137   */\n          pop\n          pop\n          pop\n          jump\t// out\n            /* \"#utility.yul\":6143:6260   */\n        tag_38:\n            /* \"#utility.yul\":6197:6205   */\n          0x00\n            /* \"#utility.yul\":6247:6252   */\n          dup3\n            /* \"#utility.yul\":6241:6245   */\n          dup3\n            /* \"#utility.yul\":6237:6253   */\n          shr\n            /* \"#utility.yul\":6216:6253   */\n          swap1\n          pop\n            /* \"#utility.yul\":6143:6260   */\n          swap3\n          swap2\n          pop\n          pop\n          jump\t// out\n            /* \"#utility.yul\":6266:6435   */\n        tag_39:\n            /* \"#utility.yul\":6310:6316   */\n          0x00\n            /* \"#utility.yul\":6343:6394   */\n          tag_118\n            /* \"#utility.yul\":6391:6392   */\n          0x00\n            /* \"#utility.yul\":6387:6393   */\n          not\n            /* \"#utility.yul\":6379:6384   */\n          dup5\n            /* \"#utility.yul\":6376:6377   */\n          0x08\n            /* \"#utility.yul\":6372:6385   */\n          mul\n            /* \"#utility.yul\":6343:6394   */\n          tag_38\n          jump\t// in\n        tag_118:\n            /* \"#utility.yul\":6339:6395   */\n          not\n            /* \"#utility.yul\":6424:6428   */\n          dup1\n            /* \"#utility.yul\":6418:6422   */\n          dup4\n            /* \"#utility.yul\":6414:6429   */\n          and\n            /* \"#utility.yul\":6404:6429   */\n          swap2\n          pop\n            /* \"#utility.yul\":6317:6435   */\n          pop\n            /* \"#utility.yul\":6266:6435   */\n          swap3\n          swap2\n          pop\n          pop\n          jump\t// out\n            /* \"#utility.yul\":6440:6735   */\n        tag_40:\n            /* \"#utility.yul\":6516:6520   */\n          0x00\n            /* \"#utility.yul\":6662:6691   */\n          tag_120\n            /* \"#utility.yul\":6687:6690   */\n          dup4\n            /* \"#utility.yul\":6681:6685   */\n          dup4\n            /* \"#utility.yul\":6662:6691   */\n          tag_39\n          jump\t// in\n        tag_120:\n            /* \"#utility.yul\":6654:6691   */\n          swap2\n          pop\n            /* \"#utility.yul\":6724:6727   */\n          dup3\n            /* \"#utility.yul\":6721:6722   */\n          0x02\n            /* \"#utility.yul\":6717:6728   */\n          mul\n            /* \"#utility.yul\":6711:6715   */\n          dup3\n            /* \"#utility.yul\":6708:6729   */\n          or\n            /* \"#utility.yul\":6700:6729   */\n          swap1\n          pop\n            /* \"#utility.yul\":6440:6735   */\n          swap3\n          swap2\n          pop\n          pop\n          jump\t// out\n            /* \"#utility.yul\":6740:8135   */\n        tag_7:\n            /* \"#utility.yul\":6857:6894   */\n          tag_122\n            /* \"#utility.yul\":6890:6893   */\n          dup3\n            /* \"#utility.yul\":6857:6894   */\n          tag_22\n          jump\t// in\n        tag_122:\n            /* \"#utility.yul\":6959:6977   */\n          0xffffffffffffffff\n            /* \"#utility.yul\":6951:6957   */\n          dup2\n            /* \"#utility.yul\":6948:6978   */\n          gt\n            /* \"#utility.yul\":6945:7001   */\n          iszero\n          tag_123\n          jumpi\n            /* \"#utility.yul\":6981:6999   */\n          tag_124\n          tag_15\n          jump\t// in\n        tag_124:\n            /* \"#utility.yul\":6945:7001   */\n        tag_123:\n            /* \"#utility.yul\":7025:7063   */\n          tag_125\n            /* \"#utility.yul\":7057:7061   */\n          dup3\n            /* \"#utility.yul\":7051:7062   */\n          sload\n            /* \"#utility.yul\":7025:7063   */\n          tag_24\n          jump\t// in\n        tag_125:\n            /* \"#utility.yul\":7110:7177   */\n          tag_126\n            /* \"#utility.yul\":7170:7176   */\n          dup3\n            /* \"#utility.yul\":7162:7168   */\n          dup3\n            /* \"#utility.yul\":7156:7160   */\n          dup6\n            /* \"#utility.yul\":7110:7177   */\n          tag_37\n          jump\t// in\n        tag_126:\n            /* \"#utility.yul\":7204:7205   */\n          0x00\n            /* \"#utility.yul\":7228:7232   */\n          0x20\n            /* \"#utility.yul\":7215:7232   */\n          swap1\n          pop\n            /* \"#utility.yul\":7260:7262   */\n          0x1f\n            /* \"#utility.yul\":7252:7258   */\n          dup4\n            /* \"#utility.yul\":7249:7263   */\n          gt\n            /* \"#utility.yul\":7277:7278   */\n          0x01\n            /* \"#utility.yul\":7272:7890   */\n          dup2\n          eq\n          tag_128\n          jumpi\n            /* \"#utility.yul\":7934:7935   */\n          0x00\n            /* \"#utility.yul\":7951:7957   */\n          dup5\n            /* \"#utility.yul\":7948:8025   */\n          iszero\n          tag_129\n          jumpi\n            /* \"#utility.yul\":8000:8009   */\n          dup3\n            /* \"#utility.yul\":7995:7998   */\n          dup8\n            /* \"#utility.yul\":7991:8010   */\n          add\n            /* \"#utility.yul\":7985:8011   */\n          mload\n            /* \"#utility.yul\":7976:8011   */\n          swap1\n          pop\n            /* \"#utility.yul\":7948:8025   */\n        tag_129:\n            /* \"#utility.yul\":8051:8118   */\n          tag_130\n            /* \"#utility.yul\":8111:8117   */\n          dup6\n            /* \"#utility.yul\":8104:8109   */\n          dup3\n            /* \"#utility.yul\":8051:8118   */\n          tag_40\n          jump\t// in\n        tag_130:\n            /* \"#utility.yul\":8045:8049   */\n          dup7\n            /* \"#utility.yul\":8038:8119   */\n          sstore\n            /* \"#utility.yul\":7907:8129   */\n          pop\n            /* \"#utility.yul\":7242:8129   */\n          jump(tag_127)\n            /* \"#utility.yul\":7272:7890   */\n        tag_128:\n            /* \"#utility.yul\":7324:7328   */\n          0x1f\n            /* \"#utility.yul\":7320:7329   */\n          not\n            /* \"#utility.yul\":7312:7318   */\n          dup5\n            /* \"#utility.yul\":7308:7330   */\n          and\n            /* \"#utility.yul\":7358:7395   */\n          tag_131\n            /* \"#utility.yul\":7390:7394   */\n          dup7\n            /* \"#utility.yul\":7358:7395   */\n          tag_25\n          jump\t// in\n        tag_131:\n            /* \"#utility.yul\":7417:7418   */\n          0x00\n            /* \"#utility.yul\":7431:7639   */\n        tag_132:\n            /* \"#utility.yul\":7445:7452   */\n          dup3\n            /* \"#utility.yul\":7442:7443   */\n          dup2\n            /* \"#utility.yul\":7439:7453   */\n          lt\n            /* \"#utility.yul\":7431:7639   */\n          iszero\n          tag_134\n          jumpi\n            /* \"#utility.yul\":7524:7533   */\n          dup5\n            /* \"#utility.yul\":7519:7522   */\n          dup10\n            /* \"#utility.yul\":7515:7534   */\n          add\n            /* \"#utility.yul\":7509:7535   */\n          mload\n            /* \"#utility.yul\":7501:7507   */\n          dup3\n            /* \"#utility.yul\":7494:7536   */\n          sstore\n            /* \"#utility.yul\":7575:7576   */\n          0x01\n            /* \"#utility.yul\":7567:7573   */\n          dup3\n            /* \"#utility.yul\":7563:7577   */\n          add\n            /* \"#utility.yul\":7553:7577   */\n          swap2\n          pop\n            /* \"#utility.yul\":7622:7624   */\n          0x20\n            /* \"#utility.yul\":7611:7620   */\n          dup6\n            /* \"#utility.yul\":7607:7625   */\n          add\n            /* \"#utility.yul\":7594:7625   */\n          swap5\n          pop\n            /* \"#utility.yul\":7468:7472   */\n          0x20\n            /* \"#utility.yul\":7465:7466   */\n          dup2\n            /* \"#utility.yul\":7461:7473   */\n          add\n            /* \"#utility.yul\":7456:7473   */\n          swap1\n          pop\n            /* \"#utility.yul\":7431:7639   */\n          jump(tag_132)\n        tag_134:\n            /* \"#utility.yul\":7667:7673   */\n          dup7\n            /* \"#utility.yul\":7658:7665   */\n          dup4\n            /* \"#utility.yul\":7655:7674   */\n          lt\n            /* \"#utility.yul\":7652:7831   */\n          iszero\n          tag_135\n          jumpi\n            /* \"#utility.yul\":7725:7734   */\n          dup5\n            /* \"#utility.yul\":7720:7723   */\n          dup10\n            /* \"#utility.yul\":7716:7735   */\n          add\n            /* \"#utility.yul\":7710:7736   */\n          mload\n            /* \"#utility.yul\":7768:7816   */\n          tag_136\n            /* \"#utility.yul\":7810:7814   */\n          0x1f\n            /* \"#utility.yul\":7802:7808   */\n          dup10\n            /* \"#utility.yul\":7798:7815   */\n          and\n            /* \"#utility.yul\":7787:7796   */\n          dup3\n            /* \"#utility.yul\":7768:7816   */\n          tag_39\n          jump\t// in\n        tag_136:\n            /* \"#utility.yul\":7760:7766   */\n          dup4\n            /* \"#utility.yul\":7753:7817   */\n          sstore\n            /* \"#utility.yul\":7675:7831   */\n          pop\n            /* \"#utility.yul\":7652:7831   */\n        tag_135:\n            /* \"#utility.yul\":7877:7878   */\n          0x01\n            /* \"#utility.yul\":7873:7874   */\n          0x02\n            /* \"#utility.yul\":7865:7871   */\n          dup9\n            /* \"#utility.yul\":7861:7875   */\n          mul\n            /* \"#utility.yul\":7857:7879   */\n          add\n            /* \"#utility.yul\":7851:7855   */\n          dup9\n            /* \"#utility.yul\":7844:7880   */\n          sstore\n            /* \"#utility.yul\":7279:7890   */\n          pop\n          pop\n          pop\n            /* \"#utility.yul\":7242:8129   */\n        tag_127:\n          pop\n            /* \"#utility.yul\":6832:8135   */\n          pop\n          pop\n          pop\n            /* \"#utility.yul\":6740:8135   */\n          pop\n          pop\n          jump\t// out\n            /* \"practise/dukedaily/day03/17type.sol\":459:1236  contract Storage {... */\n        tag_8:\n          dataSize(sub_0)\n          dup1\n          dataOffset(sub_0)\n          0x00\n          codecopy\n          0x00\n          return\n        stop\n\n        sub_0: assembly {\n                /* \"practise/dukedaily/day03/17type.sol\":459:1236  contract Storage {... */\n              mstore(0x40, 0x80)\n              callvalue\n              dup1\n              iszero\n              tag_1\n              jumpi\n              0x00\n              dup1\n              revert\n            tag_1:\n              pop\n              jumpi(tag_2, lt(calldatasize, 0x04))\n              shr(0xe0, calldataload(0x00))\n              dup1\n              0x2e64cec1\n              eq\n              tag_3\n              jumpi\n              dup1\n              0x5a9b0b89\n              eq\n              tag_4\n              jumpi\n              dup1\n              0x6057361d\n              eq\n              tag_5\n              jumpi\n              dup1\n              0xc15bae84\n              eq\n              tag_6\n              jumpi\n            tag_2:\n              0x00\n              dup1\n              revert\n                /* \"practise/dukedaily/day03/17type.sol\":822:901  function retrieve() public view returns (uint256){... */\n            tag_3:\n              tag_7\n              tag_8\n              jump\t// in\n            tag_7:\n              mload(0x40)\n              tag_9\n              swap2\n              swap1\n              tag_10\n              jump\t// in\n            tag_9:\n              mload(0x40)\n              dup1\n              swap2\n              sub\n              swap1\n              return\n                /* \"practise/dukedaily/day03/17type.sol\":907:1234  function getInfo() public pure returns(string memory name) {... */\n            tag_4:\n              tag_11\n              tag_12\n              jump\t// in\n            tag_11:\n              mload(0x40)\n              tag_13\n              swap2\n              swap1\n              tag_14\n              jump\t// in\n            tag_13:\n              mload(0x40)\n              dup1\n              swap2\n              sub\n              swap1\n              return\n                /* \"practise/dukedaily/day03/17type.sol\":677:741  function store(uint256 num) public {... */\n            tag_5:\n              tag_15\n              0x04\n              dup1\n              calldatasize\n              sub\n              dup2\n              add\n              swap1\n              tag_16\n              swap2\n              swap1\n              tag_17\n              jump\t// in\n            tag_16:\n              tag_18\n              jump\t// in\n            tag_15:\n              stop\n                /* \"practise/dukedaily/day03/17type.sol\":482:499  string public str */\n            tag_6:\n              tag_19\n              tag_20\n              jump\t// in\n            tag_19:\n              mload(0x40)\n              tag_21\n              swap2\n              swap1\n              tag_14\n              jump\t// in\n            tag_21:\n              mload(0x40)\n              dup1\n              swap2\n              sub\n              swap1\n              return\n                /* \"practise/dukedaily/day03/17type.sol\":822:901  function retrieve() public view returns (uint256){... */\n            tag_8:\n                /* \"practise/dukedaily/day03/17type.sol\":863:870  uint256 */\n              0x00\n                /* \"practise/dukedaily/day03/17type.sol\":888:894  number */\n              sload(0x01)\n                /* \"practise/dukedaily/day03/17type.sol\":881:894  return number */\n              swap1\n              pop\n                /* \"practise/dukedaily/day03/17type.sol\":822:901  function retrieve() public view returns (uint256){... */\n              swap1\n              jump\t// out\n                /* \"practise/dukedaily/day03/17type.sol\":907:1234  function getInfo() public pure returns(string memory name) {... */\n            tag_12:\n                /* \"practise/dukedaily/day03/17type.sol\":946:964  string memory name */\n              0x60\n                /* \"practise/dukedaily/day03/17type.sol\":983:1001  type(Storage).name */\n              mload(0x40)\n              dup1\n              0x40\n              add\n              0x40\n              mstore\n              0x07\n              dup2\n              mstore\n              dup1\n              0x20\n              add\n              0x53746f7261676500000000000000000000000000000000000000000000000000\n              dup2\n              mstore\n              pop\n                /* \"practise/dukedaily/day03/17type.sol\":976:1001  name = type(Storage).name */\n              swap1\n              pop\n                /* \"practise/dukedaily/day03/17type.sol\":907:1234  function getInfo() public pure returns(string memory name) {... */\n              swap1\n              jump\t// out\n                /* \"practise/dukedaily/day03/17type.sol\":677:741  function store(uint256 num) public {... */\n            tag_18:\n                /* \"practise/dukedaily/day03/17type.sol\":731:734  num */\n              dup1\n                /* \"practise/dukedaily/day03/17type.sol\":722:728  number */\n              0x01\n                /* \"practise/dukedaily/day03/17type.sol\":722:734  number = num */\n              dup2\n              swap1\n              sstore\n              pop\n                /* \"practise/dukedaily/day03/17type.sol\":677:741  function store(uint256 num) public {... */\n              pop\n              jump\t// out\n                /* \"practise/dukedaily/day03/17type.sol\":482:499  string public str */\n            tag_20:\n              0x00\n              dup1\n              sload\n              tag_25\n              swap1\n              tag_26\n              jump\t// in\n            tag_25:\n              dup1\n              0x1f\n              add\n              0x20\n              dup1\n              swap2\n              div\n              mul\n              0x20\n              add\n              mload(0x40)\n              swap1\n              dup2\n              add\n              0x40\n              mstore\n              dup1\n              swap3\n              swap2\n              swap1\n              dup2\n              dup2\n              mstore\n              0x20\n              add\n              dup3\n              dup1\n              sload\n              tag_27\n              swap1\n              tag_26\n              jump\t// in\n            tag_27:\n              dup1\n              iszero\n              tag_28\n              jumpi\n              dup1\n              0x1f\n              lt\n              tag_29\n              jumpi\n              0x0100\n              dup1\n              dup4\n              sload\n              div\n              mul\n              dup4\n              mstore\n              swap2\n              0x20\n              add\n              swap2\n              jump(tag_28)\n            tag_29:\n              dup3\n              add\n              swap2\n              swap1\n              0x00\n              mstore\n              keccak256(0x00, 0x20)\n              swap1\n            tag_30:\n              dup2\n              sload\n              dup2\n              mstore\n              swap1\n              0x01\n              add\n              swap1\n              0x20\n              add\n              dup1\n              dup4\n              gt\n              tag_30\n              jumpi\n              dup3\n              swap1\n              sub\n              0x1f\n              and\n              dup3\n              add\n              swap2\n            tag_28:\n              pop\n              pop\n              pop\n              pop\n              pop\n              dup2\n              jump\t// out\n                /* \"#utility.yul\":7:84   */\n            tag_31:\n                /* \"#utility.yul\":44:51   */\n              0x00\n                /* \"#utility.yul\":73:78   */\n              dup2\n                /* \"#utility.yul\":62:78   */\n              swap1\n              pop\n                /* \"#utility.yul\":7:84   */\n              swap2\n              swap1\n              pop\n              jump\t// out\n                /* \"#utility.yul\":90:208   */\n            tag_32:\n                /* \"#utility.yul\":177:201   */\n              tag_47\n                /* \"#utility.yul\":195:200   */\n              dup2\n                /* \"#utility.yul\":177:201   */\n              tag_31\n              jump\t// in\n            tag_47:\n                /* \"#utility.yul\":172:175   */\n              dup3\n                /* \"#utility.yul\":165:202   */\n              mstore\n                /* \"#utility.yul\":90:208   */\n              pop\n              pop\n              jump\t// out\n                /* \"#utility.yul\":214:436   */\n            tag_10:\n                /* \"#utility.yul\":307:311   */\n              0x00\n                /* \"#utility.yul\":345:347   */\n              0x20\n                /* \"#utility.yul\":334:343   */\n              dup3\n                /* \"#utility.yul\":330:348   */\n              add\n                /* \"#utility.yul\":322:348   */\n              swap1\n              pop\n                /* \"#utility.yul\":358:429   */\n              tag_49\n                /* \"#utility.yul\":426:427   */\n              0x00\n                /* \"#utility.yul\":415:424   */\n              dup4\n                /* \"#utility.yul\":411:428   */\n              add\n                /* \"#utility.yul\":402:408   */\n              dup5\n                /* \"#utility.yul\":358:429   */\n              tag_32\n              jump\t// in\n            tag_49:\n                /* \"#utility.yul\":214:436   */\n              swap3\n              swap2\n              pop\n              pop\n              jump\t// out\n                /* \"#utility.yul\":442:541   */\n            tag_33:\n                /* \"#utility.yul\":494:500   */\n              0x00\n                /* \"#utility.yul\":528:533   */\n              dup2\n                /* \"#utility.yul\":522:534   */\n              mload\n                /* \"#utility.yul\":512:534   */\n              swap1\n              pop\n                /* \"#utility.yul\":442:541   */\n              swap2\n              swap1\n              pop\n              jump\t// out\n                /* \"#utility.yul\":547:716   */\n            tag_34:\n                /* \"#utility.yul\":631:642   */\n              0x00\n                /* \"#utility.yul\":665:671   */\n              dup3\n                /* \"#utility.yul\":660:663   */\n              dup3\n                /* \"#utility.yul\":653:672   */\n              mstore\n                /* \"#utility.yul\":705:709   */\n              0x20\n                /* \"#utility.yul\":700:703   */\n              dup3\n                /* \"#utility.yul\":696:710   */\n              add\n                /* \"#utility.yul\":681:710   */\n              swap1\n              pop\n                /* \"#utility.yul\":547:716   */\n              swap3\n              swap2\n              pop\n              pop\n              jump\t// out\n                /* \"#utility.yul\":722:861   */\n            tag_35:\n                /* \"#utility.yul\":811:817   */\n              dup3\n                /* \"#utility.yul\":806:809   */\n              dup2\n                /* \"#utility.yul\":801:804   */\n              dup4\n                /* \"#utility.yul\":795:818   */\n              mcopy\n                /* \"#utility.yul\":852:853   */\n              0x00\n                /* \"#utility.yul\":843:849   */\n              dup4\n                /* \"#utility.yul\":838:841   */\n              dup4\n                /* \"#utility.yul\":834:850   */\n              add\n                /* \"#utility.yul\":827:854   */\n              mstore\n                /* \"#utility.yul\":722:861   */\n              pop\n              pop\n              pop\n              jump\t// out\n                /* \"#utility.yul\":867:969   */\n            tag_36:\n                /* \"#utility.yul\":908:914   */\n              0x00\n                /* \"#utility.yul\":959:961   */\n              0x1f\n                /* \"#utility.yul\":955:962   */\n              not\n                /* \"#utility.yul\":950:952   */\n              0x1f\n                /* \"#utility.yul\":943:948   */\n              dup4\n                /* \"#utility.yul\":939:953   */\n              add\n                /* \"#utility.yul\":935:963   */\n              and\n                /* \"#utility.yul\":925:963   */\n              swap1\n              pop\n                /* \"#utility.yul\":867:969   */\n              swap2\n              swap1\n              pop\n              jump\t// out\n                /* \"#utility.yul\":975:1352   */\n            tag_37:\n                /* \"#utility.yul\":1063:1066   */\n              0x00\n                /* \"#utility.yul\":1091:1130   */\n              tag_55\n                /* \"#utility.yul\":1124:1129   */\n              dup3\n                /* \"#utility.yul\":1091:1130   */\n              tag_33\n              jump\t// in\n            tag_55:\n                /* \"#utility.yul\":1146:1217   */\n              tag_56\n                /* \"#utility.yul\":1210:1216   */\n              dup2\n                /* \"#utility.yul\":1205:1208   */\n              dup6\n                /* \"#utility.yul\":1146:1217   */\n              tag_34\n              jump\t// in\n            tag_56:\n                /* \"#utility.yul\":1139:1217   */\n              swap4\n              pop\n                /* \"#utility.yul\":1226:1291   */\n              tag_57\n                /* \"#utility.yul\":1284:1290   */\n              dup2\n                /* \"#utility.yul\":1279:1282   */\n              dup6\n                /* \"#utility.yul\":1272:1276   */\n              0x20\n                /* \"#utility.yul\":1265:1270   */\n              dup7\n                /* \"#utility.yul\":1261:1277   */\n              add\n                /* \"#utility.yul\":1226:1291   */\n              tag_35\n              jump\t// in\n            tag_57:\n                /* \"#utility.yul\":1316:1345   */\n              tag_58\n                /* \"#utility.yul\":1338:1344   */\n              dup2\n                /* \"#utility.yul\":1316:1345   */\n              tag_36\n              jump\t// in\n            tag_58:\n                /* \"#utility.yul\":1311:1314   */\n              dup5\n                /* \"#utility.yul\":1307:1346   */\n              add\n                /* \"#utility.yul\":1300:1346   */\n              swap2\n              pop\n                /* \"#utility.yul\":1067:1352   */\n              pop\n                /* \"#utility.yul\":975:1352   */\n              swap3\n              swap2\n              pop\n              pop\n              jump\t// out\n                /* \"#utility.yul\":1358:1671   */\n            tag_14:\n                /* \"#utility.yul\":1471:1475   */\n              0x00\n                /* \"#utility.yul\":1509:1511   */\n              0x20\n                /* \"#utility.yul\":1498:1507   */\n              dup3\n                /* \"#utility.yul\":1494:1512   */\n              add\n                /* \"#utility.yul\":1486:1512   */\n              swap1\n              pop\n                /* \"#utility.yul\":1558:1567   */\n              dup2\n                /* \"#utility.yul\":1552:1556   */\n              dup2\n                /* \"#utility.yul\":1548:1568   */\n              sub\n                /* \"#utility.yul\":1544:1545   */\n              0x00\n                /* \"#utility.yul\":1533:1542   */\n              dup4\n                /* \"#utility.yul\":1529:1546   */\n              add\n                /* \"#utility.yul\":1522:1569   */\n              mstore\n                /* \"#utility.yul\":1586:1664   */\n              tag_60\n                /* \"#utility.yul\":1659:1663   */\n              dup2\n                /* \"#utility.yul\":1650:1656   */\n              dup5\n                /* \"#utility.yul\":1586:1664   */\n              tag_37\n              jump\t// in\n            tag_60:\n                /* \"#utility.yul\":1578:1664   */\n              swap1\n              pop\n                /* \"#utility.yul\":1358:1671   */\n              swap3\n              swap2\n              pop\n              pop\n              jump\t// out\n                /* \"#utility.yul\":1758:1875   */\n            tag_39:\n                /* \"#utility.yul\":1867:1868   */\n              0x00\n                /* \"#utility.yul\":1864:1865   */\n              dup1\n                /* \"#utility.yul\":1857:1869   */\n              revert\n                /* \"#utility.yul\":2004:2126   */\n            tag_41:\n                /* \"#utility.yul\":2077:2101   */\n              tag_65\n                /* \"#utility.yul\":2095:2100   */\n              dup2\n                /* \"#utility.yul\":2077:2101   */\n              tag_31\n              jump\t// in\n            tag_65:\n                /* \"#utility.yul\":2070:2075   */\n              dup2\n                /* \"#utility.yul\":2067:2102   */\n              eq\n                /* \"#utility.yul\":2057:2120   */\n              tag_66\n              jumpi\n                /* \"#utility.yul\":2116:2117   */\n              0x00\n                /* \"#utility.yul\":2113:2114   */\n              dup1\n                /* \"#utility.yul\":2106:2118   */\n              revert\n                /* \"#utility.yul\":2057:2120   */\n            tag_66:\n                /* \"#utility.yul\":2004:2126   */\n              pop\n              jump\t// out\n                /* \"#utility.yul\":2132:2271   */\n            tag_42:\n                /* \"#utility.yul\":2178:2183   */\n              0x00\n                /* \"#utility.yul\":2216:2222   */\n              dup2\n                /* \"#utility.yul\":2203:2223   */\n              calldataload\n                /* \"#utility.yul\":2194:2223   */\n              swap1\n              pop\n                /* \"#utility.yul\":2232:2265   */\n              tag_68\n                /* \"#utility.yul\":2259:2264   */\n              dup2\n                /* \"#utility.yul\":2232:2265   */\n              tag_41\n              jump\t// in\n            tag_68:\n                /* \"#utility.yul\":2132:2271   */\n              swap3\n              swap2\n              pop\n              pop\n              jump\t// out\n                /* \"#utility.yul\":2277:2606   */\n            tag_17:\n                /* \"#utility.yul\":2336:2342   */\n              0x00\n                /* \"#utility.yul\":2385:2387   */\n              0x20\n                /* \"#utility.yul\":2373:2382   */\n              dup3\n                /* \"#utility.yul\":2364:2371   */\n              dup5\n                /* \"#utility.yul\":2360:2383   */\n              sub\n                /* \"#utility.yul\":2356:2388   */\n              slt\n                /* \"#utility.yul\":2353:2472   */\n              iszero\n              tag_70\n              jumpi\n                /* \"#utility.yul\":2391:2470   */\n              tag_71\n              tag_39\n              jump\t// in\n            tag_71:\n                /* \"#utility.yul\":2353:2472   */\n            tag_70:\n                /* \"#utility.yul\":2511:2512   */\n              0x00\n                /* \"#utility.yul\":2536:2589   */\n              tag_72\n                /* \"#utility.yul\":2581:2588   */\n              dup5\n                /* \"#utility.yul\":2572:2578   */\n              dup3\n                /* \"#utility.yul\":2561:2570   */\n              dup6\n                /* \"#utility.yul\":2557:2579   */\n              add\n                /* \"#utility.yul\":2536:2589   */\n              tag_42\n              jump\t// in\n            tag_72:\n                /* \"#utility.yul\":2526:2589   */\n              swap2\n              pop\n                /* \"#utility.yul\":2482:2599   */\n              pop\n                /* \"#utility.yul\":2277:2606   */\n              swap3\n              swap2\n              pop\n              pop\n              jump\t// out\n                /* \"#utility.yul\":2612:2792   */\n            tag_43:\n                /* \"#utility.yul\":2660:2737   */\n              0x4e487b7100000000000000000000000000000000000000000000000000000000\n                /* \"#utility.yul\":2657:2658   */\n              0x00\n                /* \"#utility.yul\":2650:2738   */\n              mstore\n                /* \"#utility.yul\":2757:2761   */\n              0x22\n                /* \"#utility.yul\":2754:2755   */\n              0x04\n                /* \"#utility.yul\":2747:2762   */\n              mstore\n                /* \"#utility.yul\":2781:2785   */\n              0x24\n                /* \"#utility.yul\":2778:2779   */\n              0x00\n                /* \"#utility.yul\":2771:2786   */\n              revert\n                /* \"#utility.yul\":2798:3118   */\n            tag_26:\n                /* \"#utility.yul\":2842:2848   */\n              0x00\n                /* \"#utility.yul\":2879:2880   */\n              0x02\n                /* \"#utility.yul\":2873:2877   */\n              dup3\n                /* \"#utility.yul\":2869:2881   */\n              div\n                /* \"#utility.yul\":2859:2881   */\n              swap1\n              pop\n                /* \"#utility.yul\":2926:2927   */\n              0x01\n                /* \"#utility.yul\":2920:2924   */\n              dup3\n                /* \"#utility.yul\":2916:2928   */\n              and\n                /* \"#utility.yul\":2947:2965   */\n              dup1\n                /* \"#utility.yul\":2937:3018   */\n              tag_75\n              jumpi\n                /* \"#utility.yul\":3003:3007   */\n              0x7f\n                /* \"#utility.yul\":2995:3001   */\n              dup3\n                /* \"#utility.yul\":2991:3008   */\n              and\n                /* \"#utility.yul\":2981:3008   */\n              swap2\n              pop\n                /* \"#utility.yul\":2937:3018   */\n            tag_75:\n                /* \"#utility.yul\":3065:3067   */\n              0x20\n                /* \"#utility.yul\":3057:3063   */\n              dup3\n                /* \"#utility.yul\":3054:3068   */\n              lt\n                /* \"#utility.yul\":3034:3052   */\n              dup2\n                /* \"#utility.yul\":3031:3069   */\n              sub\n                /* \"#utility.yul\":3028:3112   */\n              tag_76\n              jumpi\n                /* \"#utility.yul\":3084:3102   */\n              tag_77\n              tag_43\n              jump\t// in\n            tag_77:\n                /* \"#utility.yul\":3028:3112   */\n            tag_76:\n                /* \"#utility.yul\":2849:3118   */\n              pop\n                /* \"#utility.yul\":2798:3118   */\n              swap2\n              swap1\n              pop\n              jump\t// out\n\n            auxdata: 0xa26469706673582212204690ce51a79eb3d82b570bf50f429911ebc7da5c7f5ddef545a0c719c5290e4b64736f6c634300081a0033\n        }\n    }\n\n    sub_1: assembly {\n            /* \"practise/dukedaily/day03/17type.sol\":459:1236  contract Storage {... */\n          mstore(0x40, 0x80)\n          callvalue\n          dup1\n          iszero\n          tag_1\n          jumpi\n          0x00\n          dup1\n          revert\n        tag_1:\n          pop\n          jumpi(tag_2, lt(calldatasize, 0x04))\n          shr(0xe0, calldataload(0x00))\n          dup1\n          0x2e64cec1\n          eq\n          tag_3\n          jumpi\n          dup1\n          0x5a9b0b89\n          eq\n          tag_4\n          jumpi\n          dup1\n          0x6057361d\n          eq\n          tag_5\n          jumpi\n          dup1\n          0xc15bae84\n          eq\n          tag_6\n          jumpi\n        tag_2:\n          0x00\n          dup1\n          revert\n            /* \"practise/dukedaily/day03/17type.sol\":822:901  function retrieve() public view returns (uint256){... */\n        tag_3:\n          tag_7\n          tag_8\n          jump\t// in\n        tag_7:\n          mload(0x40)\n          tag_9\n          swap2\n          swap1\n          tag_10\n          jump\t// in\n        tag_9:\n          mload(0x40)\n          dup1\n          swap2\n          sub\n          swap1\n          return\n            /* \"practise/dukedaily/day03/17type.sol\":907:1234  function getInfo() public pure returns(string memory name) {... */\n        tag_4:\n          tag_11\n          tag_12\n          jump\t// in\n        tag_11:\n          mload(0x40)\n          tag_13\n          swap2\n          swap1\n          tag_14\n          jump\t// in\n        tag_13:\n          mload(0x40)\n          dup1\n          swap2\n          sub\n          swap1\n          return\n            /* \"practise/dukedaily/day03/17type.sol\":677:741  function store(uint256 num) public {... */\n        tag_5:\n          tag_15\n          0x04\n          dup1\n          calldatasize\n          sub\n          dup2\n          add\n          swap1\n          tag_16\n          swap2\n          swap1\n          tag_17\n          jump\t// in\n        tag_16:\n          tag_18\n          jump\t// in\n        tag_15:\n          stop\n            /* \"practise/dukedaily/day03/17type.sol\":482:499  string public str */\n        tag_6:\n          tag_19\n          tag_20\n          jump\t// in\n        tag_19:\n          mload(0x40)\n          tag_21\n          swap2\n          swap1\n          tag_14\n          jump\t// in\n        tag_21:\n          mload(0x40)\n          dup1\n          swap2\n          sub\n          swap1\n          return\n            /* \"practise/dukedaily/day03/17type.sol\":822:901  function retrieve() public view returns (uint256){... */\n        tag_8:\n            /* \"practise/dukedaily/day03/17type.sol\":863:870  uint256 */\n          0x00\n            /* \"practise/dukedaily/day03/17type.sol\":888:894  number */\n          sload(0x01)\n            /* \"practise/dukedaily/day03/17type.sol\":881:894  return number */\n          swap1\n          pop\n            /* \"practise/dukedaily/day03/17type.sol\":822:901  function retrieve() public view returns (uint256){... */\n          swap1\n          jump\t// out\n            /* \"practise/dukedaily/day03/17type.sol\":907:1234  function getInfo() public pure returns(string memory name) {... */\n        tag_12:\n            /* \"practise/dukedaily/day03/17type.sol\":946:964  string memory name */\n          0x60\n            /* \"practise/dukedaily/day03/17type.sol\":983:1001  type(Storage).name */\n          mload(0x40)\n          dup1\n          0x40\n          add\n          0x40\n          mstore\n          0x07\n          dup2\n          mstore\n          dup1\n          0x20\n          add\n          0x53746f7261676500000000000000000000000000000000000000000000000000\n          dup2\n          mstore\n          pop\n            /* \"practise/dukedaily/day03/17type.sol\":976:1001  name = type(Storage).name */\n          swap1\n          pop\n            /* \"practise/dukedaily/day03/17type.sol\":907:1234  function getInfo() public pure returns(string memory name) {... */\n          swap1\n          jump\t// out\n            /* \"practise/dukedaily/day03/17type.sol\":677:741  function store(uint256 num) public {... */\n        tag_18:\n            /* \"practise/dukedaily/day03/17type.sol\":731:734  num */\n          dup1\n            /* \"practise/dukedaily/day03/17type.sol\":722:728  number */\n          0x01\n            /* \"practise/dukedaily/day03/17type.sol\":722:734  number = num */\n          dup2\n          swap1\n          sstore\n          pop\n            /* \"practise/dukedaily/day03/17type.sol\":677:741  function store(uint256 num) public {... */\n          pop\n          jump\t// out\n            /* \"practise/dukedaily/day03/17type.sol\":482:499  string public str */\n        tag_20:\n          0x00\n          dup1\n          sload\n          tag_25\n          swap1\n          tag_26\n          jump\t// in\n        tag_25:\n          dup1\n          0x1f\n          add\n          0x20\n          dup1\n          swap2\n          div\n          mul\n          0x20\n          add\n          mload(0x40)\n          swap1\n          dup2\n          add\n          0x40\n          mstore\n          dup1\n          swap3\n          swap2\n          swap1\n          dup2\n          dup2\n          mstore\n          0x20\n          add\n          dup3\n          dup1\n          sload\n          tag_27\n          swap1\n          tag_26\n          jump\t// in\n        tag_27:\n          dup1\n          iszero\n          tag_28\n          jumpi\n          dup1\n          0x1f\n          lt\n          tag_29\n          jumpi\n          0x0100\n          dup1\n          dup4\n          sload\n          div\n          mul\n          dup4\n          mstore\n          swap2\n          0x20\n          add\n          swap2\n          jump(tag_28)\n        tag_29:\n          dup3\n          add\n          swap2\n          swap1\n          0x00\n          mstore\n          keccak256(0x00, 0x20)\n          swap1\n        tag_30:\n          dup2\n          sload\n          dup2\n          mstore\n          swap1\n          0x01\n          add\n          swap1\n          0x20\n          add\n          dup1\n          dup4\n          gt\n          tag_30\n          jumpi\n          dup3\n          swap1\n          sub\n          0x1f\n          and\n          dup3\n          add\n          swap2\n        tag_28:\n          pop\n          pop\n          pop\n          pop\n          pop\n          dup2\n          jump\t// out\n            /* \"#utility.yul\":7:84   */\n        tag_31:\n            /* \"#utility.yul\":44:51   */\n          0x00\n            /* \"#utility.yul\":73:78   */\n          dup2\n            /* \"#utility.yul\":62:78   */\n          swap1\n          pop\n            /* \"#utility.yul\":7:84   */\n          swap2\n          swap1\n          pop\n          jump\t// out\n            /* \"#utility.yul\":90:208   */\n        tag_32:\n            /* \"#utility.yul\":177:201   */\n          tag_47\n            /* \"#utility.yul\":195:200   */\n          dup2\n            /* \"#utility.yul\":177:201   */\n          tag_31\n          jump\t// in\n        tag_47:\n            /* \"#utility.yul\":172:175   */\n          dup3\n            /* \"#utility.yul\":165:202   */\n          mstore\n            /* \"#utility.yul\":90:208   */\n          pop\n          pop\n          jump\t// out\n            /* \"#utility.yul\":214:436   */\n        tag_10:\n            /* \"#utility.yul\":307:311   */\n          0x00\n            /* \"#utility.yul\":345:347   */\n          0x20\n            /* \"#utility.yul\":334:343   */\n          dup3\n            /* \"#utility.yul\":330:348   */\n          add\n            /* \"#utility.yul\":322:348   */\n          swap1\n          pop\n            /* \"#utility.yul\":358:429   */\n          tag_49\n            /* \"#utility.yul\":426:427   */\n          0x00\n            /* \"#utility.yul\":415:424   */\n          dup4\n            /* \"#utility.yul\":411:428   */\n          add\n            /* \"#utility.yul\":402:408   */\n          dup5\n            /* \"#utility.yul\":358:429   */\n          tag_32\n          jump\t// in\n        tag_49:\n            /* \"#utility.yul\":214:436   */\n          swap3\n          swap2\n          pop\n          pop\n          jump\t// out\n            /* \"#utility.yul\":442:541   */\n        tag_33:\n            /* \"#utility.yul\":494:500   */\n          0x00\n            /* \"#utility.yul\":528:533   */\n          dup2\n            /* \"#utility.yul\":522:534   */\n          mload\n            /* \"#utility.yul\":512:534   */\n          swap1\n          pop\n            /* \"#utility.yul\":442:541   */\n          swap2\n          swap1\n          pop\n          jump\t// out\n            /* \"#utility.yul\":547:716   */\n        tag_34:\n            /* \"#utility.yul\":631:642   */\n          0x00\n            /* \"#utility.yul\":665:671   */\n          dup3\n            /* \"#utility.yul\":660:663   */\n          dup3\n            /* \"#utility.yul\":653:672   */\n          mstore\n            /* \"#utility.yul\":705:709   */\n          0x20\n            /* \"#utility.yul\":700:703   */\n          dup3\n            /* \"#utility.yul\":696:710   */\n          add\n            /* \"#utility.yul\":681:710   */\n          swap1\n          pop\n            /* \"#utility.yul\":547:716   */\n          swap3\n          swap2\n          pop\n          pop\n          jump\t// out\n            /* \"#utility.yul\":722:861   */\n        tag_35:\n            /* \"#utility.yul\":811:817   */\n          dup3\n            /* \"#utility.yul\":806:809   */\n          dup2\n            /* \"#utility.yul\":801:804   */\n          dup4\n            /* \"#utility.yul\":795:818   */\n          mcopy\n            /* \"#utility.yul\":852:853   */\n          0x00\n            /* \"#utility.yul\":843:849   */\n          dup4\n            /* \"#utility.yul\":838:841   */\n          dup4\n            /* \"#utility.yul\":834:850   */\n          add\n            /* \"#utility.yul\":827:854   */\n          mstore\n            /* \"#utility.yul\":722:861   */\n          pop\n          pop\n          pop\n          jump\t// out\n            /* \"#utility.yul\":867:969   */\n        tag_36:\n            /* \"#utility.yul\":908:914   */\n          0x00\n            /* \"#utility.yul\":959:961   */\n          0x1f\n            /* \"#utility.yul\":955:962   */\n          not\n            /* \"#utility.yul\":950:952   */\n          0x1f\n            /* \"#utility.yul\":943:948   */\n          dup4\n            /* \"#utility.yul\":939:953   */\n          add\n            /* \"#utility.yul\":935:963   */\n          and\n            /* \"#utility.yul\":925:963   */\n          swap1\n          pop\n            /* \"#utility.yul\":867:969   */\n          swap2\n          swap1\n          pop\n          jump\t// out\n            /* \"#utility.yul\":975:1352   */\n        tag_37:\n            /* \"#utility.yul\":1063:1066   */\n          0x00\n            /* \"#utility.yul\":1091:1130   */\n          tag_55\n            /* \"#utility.yul\":1124:1129   */\n          dup3\n            /* \"#utility.yul\":1091:1130   */\n          tag_33\n          jump\t// in\n        tag_55:\n            /* \"#utility.yul\":1146:1217   */\n          tag_56\n            /* \"#utility.yul\":1210:1216   */\n          dup2\n            /* \"#utility.yul\":1205:1208   */\n          dup6\n            /* \"#utility.yul\":1146:1217   */\n          tag_34\n          jump\t// in\n        tag_56:\n            /* \"#utility.yul\":1139:1217   */\n          swap4\n          pop\n            /* \"#utility.yul\":1226:1291   */\n          tag_57\n            /* \"#utility.yul\":1284:1290   */\n          dup2\n            /* \"#utility.yul\":1279:1282   */\n          dup6\n            /* \"#utility.yul\":1272:1276   */\n          0x20\n            /* \"#utility.yul\":1265:1270   */\n          dup7\n            /* \"#utility.yul\":1261:1277   */\n          add\n            /* \"#utility.yul\":1226:1291   */\n          tag_35\n          jump\t// in\n        tag_57:\n            /* \"#utility.yul\":1316:1345   */\n          tag_58\n            /* \"#utility.yul\":1338:1344   */\n          dup2\n            /* \"#utility.yul\":1316:1345   */\n          tag_36\n          jump\t// in\n        tag_58:\n            /* \"#utility.yul\":1311:1314   */\n          dup5\n            /* \"#utility.yul\":1307:1346   */\n          add\n            /* \"#utility.yul\":1300:1346   */\n          swap2\n          pop\n            /* \"#utility.yul\":1067:1352   */\n          pop\n            /* \"#utility.yul\":975:1352   */\n          swap3\n          swap2\n          pop\n          pop\n          jump\t// out\n            /* \"#utility.yul\":1358:1671   */\n        tag_14:\n            /* \"#utility.yul\":1471:1475   */\n          0x00\n            /* \"#utility.yul\":1509:1511   */\n          0x20\n            /* \"#utility.yul\":1498:1507   */\n          dup3\n            /* \"#utility.yul\":1494:1512   */\n          add\n            /* \"#utility.yul\":1486:1512   */\n          swap1\n          pop\n            /* \"#utility.yul\":1558:1567   */\n          dup2\n            /* \"#utility.yul\":1552:1556   */\n          dup2\n            /* \"#utility.yul\":1548:1568   */\n          sub\n            /* \"#utility.yul\":1544:1545   */\n          0x00\n            /* \"#utility.yul\":1533:1542   */\n          dup4\n            /* \"#utility.yul\":1529:1546   */\n          add\n            /* \"#utility.yul\":1522:1569   */\n          mstore\n            /* \"#utility.yul\":1586:1664   */\n          tag_60\n            /* \"#utility.yul\":1659:1663   */\n          dup2\n            /* \"#utility.yul\":1650:1656   */\n          dup5\n            /* \"#utility.yul\":1586:1664   */\n          tag_37\n          jump\t// in\n        tag_60:\n            /* \"#utility.yul\":1578:1664   */\n          swap1\n          pop\n            /* \"#utility.yul\":1358:1671   */\n          swap3\n          swap2\n          pop\n          pop\n          jump\t// out\n            /* \"#utility.yul\":1758:1875   */\n        tag_39:\n            /* \"#utility.yul\":1867:1868   */\n          0x00\n            /* \"#utility.yul\":1864:1865   */\n          dup1\n            /* \"#utility.yul\":1857:1869   */\n          revert\n            /* \"#utility.yul\":2004:2126   */\n        tag_41:\n            /* \"#utility.yul\":2077:2101   */\n          tag_65\n            /* \"#utility.yul\":2095:2100   */\n          dup2\n            /* \"#utility.yul\":2077:2101   */\n          tag_31\n          jump\t// in\n        tag_65:\n            /* \"#utility.yul\":2070:2075   */\n          dup2\n            /* \"#utility.yul\":2067:2102   */\n          eq\n            /* \"#utility.yul\":2057:2120   */\n          tag_66\n          jumpi\n            /* \"#utility.yul\":2116:2117   */\n          0x00\n            /* \"#utility.yul\":2113:2114   */\n          dup1\n            /* \"#utility.yul\":2106:2118   */\n          revert\n            /* \"#utility.yul\":2057:2120   */\n        tag_66:\n            /* \"#utility.yul\":2004:2126   */\n          pop\n          jump\t// out\n            /* \"#utility.yul\":2132:2271   */\n        tag_42:\n            /* \"#utility.yul\":2178:2183   */\n          0x00\n            /* \"#utility.yul\":2216:2222   */\n          dup2\n            /* \"#utility.yul\":2203:2223   */\n          calldataload\n            /* \"#utility.yul\":2194:2223   */\n          swap1\n          pop\n            /* \"#utility.yul\":2232:2265   */\n          tag_68\n            /* \"#utility.yul\":2259:2264   */\n          dup2\n            /* \"#utility.yul\":2232:2265   */\n          tag_41\n          jump\t// in\n        tag_68:\n            /* \"#utility.yul\":2132:2271   */\n          swap3\n          swap2\n          pop\n          pop\n          jump\t// out\n            /* \"#utility.yul\":2277:2606   */\n        tag_17:\n            /* \"#utility.yul\":2336:2342   */\n          0x00\n            /* \"#utility.yul\":2385:2387   */\n          0x20\n            /* \"#utility.yul\":2373:2382   */\n          dup3\n            /* \"#utility.yul\":2364:2371   */\n          dup5\n            /* \"#utility.yul\":2360:2383   */\n          sub\n            /* \"#utility.yul\":2356:2388   */\n          slt\n            /* \"#utility.yul\":2353:2472   */\n          iszero\n          tag_70\n          jumpi\n            /* \"#utility.yul\":2391:2470   */\n          tag_71\n          tag_39\n          jump\t// in\n        tag_71:\n            /* \"#utility.yul\":2353:2472   */\n        tag_70:\n            /* \"#utility.yul\":2511:2512   */\n          0x00\n            /* \"#utility.yul\":2536:2589   */\n          tag_72\n            /* \"#utility.yul\":2581:2588   */\n          dup5\n            /* \"#utility.yul\":2572:2578   */\n          dup3\n            /* \"#utility.yul\":2561:2570   */\n          dup6\n            /* \"#utility.yul\":2557:2579   */\n          add\n            /* \"#utility.yul\":2536:2589   */\n          tag_42\n          jump\t// in\n        tag_72:\n            /* \"#utility.yul\":2526:2589   */\n          swap2\n          pop\n            /* \"#utility.yul\":2482:2599   */\n          pop\n            /* \"#utility.yul\":2277:2606   */\n          swap3\n          swap2\n          pop\n          pop\n          jump\t// out\n            /* \"#utility.yul\":2612:2792   */\n        tag_43:\n            /* \"#utility.yul\":2660:2737   */\n          0x4e487b7100000000000000000000000000000000000000000000000000000000\n            /* \"#utility.yul\":2657:2658   */\n          0x00\n            /* \"#utility.yul\":2650:2738   */\n          mstore\n            /* \"#utility.yul\":2757:2761   */\n          0x22\n            /* \"#utility.yul\":2754:2755   */\n          0x04\n            /* \"#utility.yul\":2747:2762   */\n          mstore\n            /* \"#utility.yul\":2781:2785   */\n          0x24\n            /* \"#utility.yul\":2778:2779   */\n          0x00\n            /* \"#utility.yul\":2771:2786   */\n          revert\n            /* \"#utility.yul\":2798:3118   */\n        tag_26:\n            /* \"#utility.yul\":2842:2848   */\n          0x00\n            /* \"#utility.yul\":2879:2880   */\n          0x02\n            /* \"#utility.yul\":2873:2877   */\n          dup3\n            /* \"#utility.yul\":2869:2881   */\n          div\n            /* \"#utility.yul\":2859:2881   */\n          swap1\n          pop\n            /* \"#utility.yul\":2926:2927   */\n          0x01\n            /* \"#utility.yul\":2920:2924   */\n          dup3\n            /* \"#utility.yul\":2916:2928   */\n          and\n            /* \"#utility.yul\":2947:2965   */\n          dup1\n            /* \"#utility.yul\":2937:3018   */\n          tag_75\n          jumpi\n            /* \"#utility.yul\":3003:3007   */\n          0x7f\n            /* \"#utility.yul\":2995:3001   */\n          dup3\n            /* \"#utility.yul\":2991:3008   */\n          and\n            /* \"#utility.yul\":2981:3008   */\n          swap2\n          pop\n            /* \"#utility.yul\":2937:3018   */\n        tag_75:\n            /* \"#utility.yul\":3065:3067   */\n          0x20\n            /* \"#utility.yul\":3057:3063   */\n          dup3\n            /* \"#utility.yul\":3054:3068   */\n          lt\n            /* \"#utility.yul\":3034:3052   */\n          dup2\n            /* \"#utility.yul\":3031:3069   */\n          sub\n            /* \"#utility.yul\":3028:3112   */\n          tag_76\n          jumpi\n            /* \"#utility.yul\":3084:3102   */\n          tag_77\n          tag_43\n          jump\t// in\n        tag_77:\n            /* \"#utility.yul\":3028:3112   */\n        tag_76:\n            /* \"#utility.yul\":2849:3118   */\n          pop\n            /* \"#utility.yul\":2798:3118   */\n          swap2\n          swap1\n          pop\n          jump\t// out\n\n        auxdata: 0xa26469706673582212204690ce51a79eb3d82b570bf50f429911ebc7da5c7f5ddef545a0c719c5290e4b64736f6c634300081a0033\n    }\n\n    auxdata: 0xa26469706673582212207809cfd560bd1f0ba1056e785932ba267005ee4be5e498443f76747d23b216a464736f6c634300081a0033\n}\n",
				"bytecode": {
					"linkReferences": {},
					"object": "608060405234801561000f575f80fd5b50604051610e0c380380610e0c833981810160405281019061003191906100e5565b805f806101000a81548173ffffffffffffffffffffffffffffffffffffffff021916908373ffffffffffffffffffffffffffffffffffffffff16021790555050610110565b5f80fd5b5f73ffffffffffffffffffffffffffffffffffffffff82169050919050565b5f6100a38261007a565b9050919050565b5f6100b482610099565b9050919050565b6100c4816100aa565b81146100ce575f80fd5b50565b5f815190506100df816100bb565b92915050565b5f602082840312156100fa576100f9610076565b5b5f610107848285016100d1565b91505092915050565b610cef8061011d5f395ff3fe608060405234801561000f575f80fd5b5060043610610029575f3560e01c80635a9b0b891461002d575b5f80fd5b61003561004c565b604051610043929190610129565b60405180910390f35b6060806040518060200161005f9061009f565b6020820181038252601f19601f82011660405250915060405180602001610085906100ac565b6020820181038252601f19601f8201166040525090509091565b61080f8061015f83390190565b61034c8061096e83390190565b5f81519050919050565b5f82825260208201905092915050565b8281835e5f83830152505050565b5f601f19601f8301169050919050565b5f6100fb826100b9565b61010581856100c3565b93506101158185602086016100d3565b61011e816100e1565b840191505092915050565b5f6040820190508181035f83015261014181856100f1565b9050818103602083015261015581846100f1565b9050939250505056fe608060405234801561000f575f80fd5b5060405161080f38038061080f83398181016040528101906100319190610193565b805f908161003f91906103e7565b50506104b6565b5f604051905090565b5f80fd5b5f80fd5b5f80fd5b5f80fd5b5f601f19601f8301169050919050565b7f4e487b71000000000000000000000000000000000000000000000000000000005f52604160045260245ffd5b6100a58261005f565b810181811067ffffffffffffffff821117156100c4576100c361006f565b5b80604052505050565b5f6100d6610046565b90506100e2828261009c565b919050565b5f67ffffffffffffffff8211156101015761010061006f565b5b61010a8261005f565b9050602081019050919050565b8281835e5f83830152505050565b5f610137610132846100e7565b6100cd565b9050828152602081018484840111156101535761015261005b565b5b61015e848285610117565b509392505050565b5f82601f83011261017a57610179610057565b5b815161018a848260208601610125565b91505092915050565b5f602082840312156101a8576101a761004f565b5b5f82015167ffffffffffffffff8111156101c5576101c4610053565b5b6101d184828501610166565b91505092915050565b5f81519050919050565b7f4e487b71000000000000000000000000000000000000000000000000000000005f52602260045260245ffd5b5f600282049050600182168061022857607f821691505b60208210810361023b5761023a6101e4565b5b50919050565b5f819050815f5260205f209050919050565b5f6020601f8301049050919050565b5f82821b905092915050565b5f6008830261029d7fffffffffffffffffffffffffffffffffffffffffffffffffffffffffffffffff82610262565b6102a78683610262565b95508019841693508086168417925050509392505050565b5f819050919050565b5f819050919050565b5f6102eb6102e66102e1846102bf565b6102c8565b6102bf565b9050919050565b5f819050919050565b610304836102d1565b610318610310826102f2565b84845461026e565b825550505050565b5f90565b61032c610320565b6103378184846102fb565b505050565b5b8181101561035a5761034f5f82610324565b60018101905061033d565b5050565b601f82111561039f5761037081610241565b61037984610253565b81016020851015610388578190505b61039c61039485610253565b83018261033c565b50505b505050565b5f82821c905092915050565b5f6103bf5f19846008026103a4565b1980831691505092915050565b5f6103d783836103b0565b9150826002028217905092915050565b6103f0826101da565b67ffffffffffffffff8111156104095761040861006f565b5b6104138254610211565b61041e82828561035e565b5f60209050601f83116001811461044f575f841561043d578287015190505b61044785826103cc565b8655506104ae565b601f19841661045d86610241565b5f5b828110156104845784890151825560018201915060208501945060208101905061045f565b868310156104a1578489015161049d601f8916826103b0565b8355505b6001600288020188555050505b505050505050565b61034c806104c35f395ff3fe608060405234801561000f575f80fd5b506004361061004a575f3560e01c80632e64cec11461004e5780635a9b0b891461006c5780636057361d1461008a578063c15bae84146100a6575b5f80fd5b6100566100c4565b60405161006391906101b7565b60405180910390f35b6100746100cd565b6040516100819190610240565b60405180910390f35b6100a4600480360381019061009f919061028e565b61010a565b005b6100ae610114565b6040516100bb9190610240565b60405180910390f35b5f600154905090565b60606040518060400160405260078152806020017f53746f7261676500000000000000000000000000000000000000000000000000815250905090565b8060018190555050565b5f8054610120906102e6565b80601f016020809104026020016040519081016040528092919081815260200182805461014c906102e6565b80156101975780601f1061016e57610100808354040283529160200191610197565b820191905f5260205f20905b81548152906001019060200180831161017a57829003601f168201915b505050505081565b5f819050919050565b6101b18161019f565b82525050565b5f6020820190506101ca5f8301846101a8565b92915050565b5f81519050919050565b5f82825260208201905092915050565b8281835e5f83830152505050565b5f601f19601f8301169050919050565b5f610212826101d0565b61021c81856101da565b935061022c8185602086016101ea565b610235816101f8565b840191505092915050565b5f6020820190508181035f8301526102588184610208565b905092915050565b5f80fd5b61026d8161019f565b8114610277575f80fd5b50565b5f8135905061028881610264565b92915050565b5f602082840312156102a3576102a2610260565b5b5f6102b08482850161027a565b91505092915050565b7f4e487b71000000000000000000000000000000000000000000000000000000005f52602260045260245ffd5b5f60028204905060018216806102fd57607f821691505b6020821081036103105761030f6102b9565b5b5091905056fea26469706673582212204690ce51a79eb3d82b570bf50f429911ebc7da5c7f5ddef545a0c719c5290e4b64736f6c634300081a0033608060405234801561000f575f80fd5b506004361061004a575f3560e01c80632e64cec11461004e5780635a9b0b891461006c5780636057361d1461008a578063c15bae84146100a6575b5f80fd5b6100566100c4565b60405161006391906101b7565b60405180910390f35b6100746100cd565b6040516100819190610240565b60405180910390f35b6100a4600480360381019061009f919061028e565b61010a565b005b6100ae610114565b6040516100bb9190610240565b60405180910390f35b5f600154905090565b60606040518060400160405260078152806020017f53746f7261676500000000000000000000000000000000000000000000000000815250905090565b8060018190555050565b5f8054610120906102e6565b80601f016020809104026020016040519081016040528092919081815260200182805461014c906102e6565b80156101975780601f1061016e57610100808354040283529160200191610197565b820191905f5260205f20905b81548152906001019060200180831161017a57829003601f168201915b505050505081565b5f819050919050565b6101b18161019f565b82525050565b5f6020820190506101ca5f8301846101a8565b92915050565b5f81519050919050565b5f82825260208201905092915050565b8281835e5f83830152505050565b5f601f19601f8301169050919050565b5f610212826101d0565b61021c81856101da565b935061022c8185602086016101ea565b610235816101f8565b840191505092915050565b5f6020820190508181035f8301526102588184610208565b905092915050565b5f80fd5b61026d8161019f565b8114610277575f80fd5b50565b5f8135905061028881610264565b92915050565b5f602082840312156102a3576102a2610260565b5b5f6102b08482850161027a565b91505092915050565b7f4e487b71000000000000000000000000000000000000000000000000000000005f52602260045260245ffd5b5f60028204905060018216806102fd57607f821691505b6020821081036103105761030f6102b9565b5b5091905056fea26469706673582212204690ce51a79eb3d82b570bf50f429911ebc7da5c7f5ddef545a0c719c5290e4b64736f6c634300081a0033a26469706673582212207809cfd560bd1f0ba1056e785932ba267005ee4be5e498443f76747d23b216a464736f6c634300081a0033",
					"opcodes": "PUSH1 0x80 PUSH1 0x40 MSTORE CALLVALUE DUP1 ISZERO PUSH2 0xF JUMPI PUSH0 DUP1 REVERT JUMPDEST POP PUSH1 0x40 MLOAD PUSH2 0xE0C CODESIZE SUB DUP1 PUSH2 0xE0C DUP4 CODECOPY DUP2 DUP2 ADD PUSH1 0x40 MSTORE DUP2 ADD SWAP1 PUSH2 0x31 SWAP2 SWAP1 PUSH2 0xE5 JUMP JUMPDEST DUP1 PUSH0 DUP1 PUSH2 0x100 EXP DUP2 SLOAD DUP2 PUSH20 0xFFFFFFFFFFFFFFFFFFFFFFFFFFFFFFFFFFFFFFFF MUL NOT AND SWAP1 DUP4 PUSH20 0xFFFFFFFFFFFFFFFFFFFFFFFFFFFFFFFFFFFFFFFF AND MUL OR SWAP1 SSTORE POP POP PUSH2 0x110 JUMP JUMPDEST PUSH0 DUP1 REVERT JUMPDEST PUSH0 PUSH20 0xFFFFFFFFFFFFFFFFFFFFFFFFFFFFFFFFFFFFFFFF DUP3 AND SWAP1 POP SWAP2 SWAP1 POP JUMP JUMPDEST PUSH0 PUSH2 0xA3 DUP3 PUSH2 0x7A JUMP JUMPDEST SWAP1 POP SWAP2 SWAP1 POP JUMP JUMPDEST PUSH0 PUSH2 0xB4 DUP3 PUSH2 0x99 JUMP JUMPDEST SWAP1 POP SWAP2 SWAP1 POP JUMP JUMPDEST PUSH2 0xC4 DUP2 PUSH2 0xAA JUMP JUMPDEST DUP2 EQ PUSH2 0xCE JUMPI PUSH0 DUP1 REVERT JUMPDEST POP JUMP JUMPDEST PUSH0 DUP2 MLOAD SWAP1 POP PUSH2 0xDF DUP2 PUSH2 0xBB JUMP JUMPDEST SWAP3 SWAP2 POP POP JUMP JUMPDEST PUSH0 PUSH1 0x20 DUP3 DUP5 SUB SLT ISZERO PUSH2 0xFA JUMPI PUSH2 0xF9 PUSH2 0x76 JUMP JUMPDEST JUMPDEST PUSH0 PUSH2 0x107 DUP5 DUP3 DUP6 ADD PUSH2 0xD1 JUMP JUMPDEST SWAP2 POP POP SWAP3 SWAP2 POP POP JUMP JUMPDEST PUSH2 0xCEF DUP1 PUSH2 0x11D PUSH0 CODECOPY PUSH0 RETURN INVALID PUSH1 0x80 PUSH1 0x40 MSTORE CALLVALUE DUP1 ISZERO PUSH2 0xF JUMPI PUSH0 DUP1 REVERT JUMPDEST POP PUSH1 0x4 CALLDATASIZE LT PUSH2 0x29 JUMPI PUSH0 CALLDATALOAD PUSH1 0xE0 SHR DUP1 PUSH4 0x5A9B0B89 EQ PUSH2 0x2D JUMPI JUMPDEST PUSH0 DUP1 REVERT JUMPDEST PUSH2 0x35 PUSH2 0x4C JUMP JUMPDEST PUSH1 0x40 MLOAD PUSH2 0x43 SWAP3 SWAP2 SWAP1 PUSH2 0x129 JUMP JUMPDEST PUSH1 0x40 MLOAD DUP1 SWAP2 SUB SWAP1 RETURN JUMPDEST PUSH1 0x60 DUP1 PUSH1 0x40 MLOAD DUP1 PUSH1 0x20 ADD PUSH2 0x5F SWAP1 PUSH2 0x9F JUMP JUMPDEST PUSH1 0x20 DUP3 ADD DUP2 SUB DUP3 MSTORE PUSH1 0x1F NOT PUSH1 0x1F DUP3 ADD AND PUSH1 0x40 MSTORE POP SWAP2 POP PUSH1 0x40 MLOAD DUP1 PUSH1 0x20 ADD PUSH2 0x85 SWAP1 PUSH2 0xAC JUMP JUMPDEST PUSH1 0x20 DUP3 ADD DUP2 SUB DUP3 MSTORE PUSH1 0x1F NOT PUSH1 0x1F DUP3 ADD AND PUSH1 0x40 MSTORE POP SWAP1 POP SWAP1 SWAP2 JUMP JUMPDEST PUSH2 0x80F DUP1 PUSH2 0x15F DUP4 CODECOPY ADD SWAP1 JUMP JUMPDEST PUSH2 0x34C DUP1 PUSH2 0x96E DUP4 CODECOPY ADD SWAP1 JUMP JUMPDEST PUSH0 DUP2 MLOAD SWAP1 POP SWAP2 SWAP1 POP JUMP JUMPDEST PUSH0 DUP3 DUP3 MSTORE PUSH1 0x20 DUP3 ADD SWAP1 POP SWAP3 SWAP2 POP POP JUMP JUMPDEST DUP3 DUP2 DUP4 MCOPY PUSH0 DUP4 DUP4 ADD MSTORE POP POP POP JUMP JUMPDEST PUSH0 PUSH1 0x1F NOT PUSH1 0x1F DUP4 ADD AND SWAP1 POP SWAP2 SWAP1 POP JUMP JUMPDEST PUSH0 PUSH2 0xFB DUP3 PUSH2 0xB9 JUMP JUMPDEST PUSH2 0x105 DUP2 DUP6 PUSH2 0xC3 JUMP JUMPDEST SWAP4 POP PUSH2 0x115 DUP2 DUP6 PUSH1 0x20 DUP7 ADD PUSH2 0xD3 JUMP JUMPDEST PUSH2 0x11E DUP2 PUSH2 0xE1 JUMP JUMPDEST DUP5 ADD SWAP2 POP POP SWAP3 SWAP2 POP POP JUMP JUMPDEST PUSH0 PUSH1 0x40 DUP3 ADD SWAP1 POP DUP2 DUP2 SUB PUSH0 DUP4 ADD MSTORE PUSH2 0x141 DUP2 DUP6 PUSH2 0xF1 JUMP JUMPDEST SWAP1 POP DUP2 DUP2 SUB PUSH1 0x20 DUP4 ADD MSTORE PUSH2 0x155 DUP2 DUP5 PUSH2 0xF1 JUMP JUMPDEST SWAP1 POP SWAP4 SWAP3 POP POP POP JUMP INVALID PUSH1 0x80 PUSH1 0x40 MSTORE CALLVALUE DUP1 ISZERO PUSH2 0xF JUMPI PUSH0 DUP1 REVERT JUMPDEST POP PUSH1 0x40 MLOAD PUSH2 0x80F CODESIZE SUB DUP1 PUSH2 0x80F DUP4 CODECOPY DUP2 DUP2 ADD PUSH1 0x40 MSTORE DUP2 ADD SWAP1 PUSH2 0x31 SWAP2 SWAP1 PUSH2 0x193 JUMP JUMPDEST DUP1 PUSH0 SWAP1 DUP2 PUSH2 0x3F SWAP2 SWAP1 PUSH2 0x3E7 JUMP JUMPDEST POP POP PUSH2 0x4B6 JUMP JUMPDEST PUSH0 PUSH1 0x40 MLOAD SWAP1 POP SWAP1 JUMP JUMPDEST PUSH0 DUP1 REVERT JUMPDEST PUSH0 DUP1 REVERT JUMPDEST PUSH0 DUP1 REVERT JUMPDEST PUSH0 DUP1 REVERT JUMPDEST PUSH0 PUSH1 0x1F NOT PUSH1 0x1F DUP4 ADD AND SWAP1 POP SWAP2 SWAP1 POP JUMP JUMPDEST PUSH32 0x4E487B7100000000000000000000000000000000000000000000000000000000 PUSH0 MSTORE PUSH1 0x41 PUSH1 0x4 MSTORE PUSH1 0x24 PUSH0 REVERT JUMPDEST PUSH2 0xA5 DUP3 PUSH2 0x5F JUMP JUMPDEST DUP2 ADD DUP2 DUP2 LT PUSH8 0xFFFFFFFFFFFFFFFF DUP3 GT OR ISZERO PUSH2 0xC4 JUMPI PUSH2 0xC3 PUSH2 0x6F JUMP JUMPDEST JUMPDEST DUP1 PUSH1 0x40 MSTORE POP POP POP JUMP JUMPDEST PUSH0 PUSH2 0xD6 PUSH2 0x46 JUMP JUMPDEST SWAP1 POP PUSH2 0xE2 DUP3 DUP3 PUSH2 0x9C JUMP JUMPDEST SWAP2 SWAP1 POP JUMP JUMPDEST PUSH0 PUSH8 0xFFFFFFFFFFFFFFFF DUP3 GT ISZERO PUSH2 0x101 JUMPI PUSH2 0x100 PUSH2 0x6F JUMP JUMPDEST JUMPDEST PUSH2 0x10A DUP3 PUSH2 0x5F JUMP JUMPDEST SWAP1 POP PUSH1 0x20 DUP2 ADD SWAP1 POP SWAP2 SWAP1 POP JUMP JUMPDEST DUP3 DUP2 DUP4 MCOPY PUSH0 DUP4 DUP4 ADD MSTORE POP POP POP JUMP JUMPDEST PUSH0 PUSH2 0x137 PUSH2 0x132 DUP5 PUSH2 0xE7 JUMP JUMPDEST PUSH2 0xCD JUMP JUMPDEST SWAP1 POP DUP3 DUP2 MSTORE PUSH1 0x20 DUP2 ADD DUP5 DUP5 DUP5 ADD GT ISZERO PUSH2 0x153 JUMPI PUSH2 0x152 PUSH2 0x5B JUMP JUMPDEST JUMPDEST PUSH2 0x15E DUP5 DUP3 DUP6 PUSH2 0x117 JUMP JUMPDEST POP SWAP4 SWAP3 POP POP POP JUMP JUMPDEST PUSH0 DUP3 PUSH1 0x1F DUP4 ADD SLT PUSH2 0x17A JUMPI PUSH2 0x179 PUSH2 0x57 JUMP JUMPDEST JUMPDEST DUP2 MLOAD PUSH2 0x18A DUP5 DUP3 PUSH1 0x20 DUP7 ADD PUSH2 0x125 JUMP JUMPDEST SWAP2 POP POP SWAP3 SWAP2 POP POP JUMP JUMPDEST PUSH0 PUSH1 0x20 DUP3 DUP5 SUB SLT ISZERO PUSH2 0x1A8 JUMPI PUSH2 0x1A7 PUSH2 0x4F JUMP JUMPDEST JUMPDEST PUSH0 DUP3 ADD MLOAD PUSH8 0xFFFFFFFFFFFFFFFF DUP2 GT ISZERO PUSH2 0x1C5 JUMPI PUSH2 0x1C4 PUSH2 0x53 JUMP JUMPDEST JUMPDEST PUSH2 0x1D1 DUP5 DUP3 DUP6 ADD PUSH2 0x166 JUMP JUMPDEST SWAP2 POP POP SWAP3 SWAP2 POP POP JUMP JUMPDEST PUSH0 DUP2 MLOAD SWAP1 POP SWAP2 SWAP1 POP JUMP JUMPDEST PUSH32 0x4E487B7100000000000000000000000000000000000000000000000000000000 PUSH0 MSTORE PUSH1 0x22 PUSH1 0x4 MSTORE PUSH1 0x24 PUSH0 REVERT JUMPDEST PUSH0 PUSH1 0x2 DUP3 DIV SWAP1 POP PUSH1 0x1 DUP3 AND DUP1 PUSH2 0x228 JUMPI PUSH1 0x7F DUP3 AND SWAP2 POP JUMPDEST PUSH1 0x20 DUP3 LT DUP2 SUB PUSH2 0x23B JUMPI PUSH2 0x23A PUSH2 0x1E4 JUMP JUMPDEST JUMPDEST POP SWAP2 SWAP1 POP JUMP JUMPDEST PUSH0 DUP2 SWAP1 POP DUP2 PUSH0 MSTORE PUSH1 0x20 PUSH0 KECCAK256 SWAP1 POP SWAP2 SWAP1 POP JUMP JUMPDEST PUSH0 PUSH1 0x20 PUSH1 0x1F DUP4 ADD DIV SWAP1 POP SWAP2 SWAP1 POP JUMP JUMPDEST PUSH0 DUP3 DUP3 SHL SWAP1 POP SWAP3 SWAP2 POP POP JUMP JUMPDEST PUSH0 PUSH1 0x8 DUP4 MUL PUSH2 0x29D PUSH32 0xFFFFFFFFFFFFFFFFFFFFFFFFFFFFFFFFFFFFFFFFFFFFFFFFFFFFFFFFFFFFFFFF DUP3 PUSH2 0x262 JUMP JUMPDEST PUSH2 0x2A7 DUP7 DUP4 PUSH2 0x262 JUMP JUMPDEST SWAP6 POP DUP1 NOT DUP5 AND SWAP4 POP DUP1 DUP7 AND DUP5 OR SWAP3 POP POP POP SWAP4 SWAP3 POP POP POP JUMP JUMPDEST PUSH0 DUP2 SWAP1 POP SWAP2 SWAP1 POP JUMP JUMPDEST PUSH0 DUP2 SWAP1 POP SWAP2 SWAP1 POP JUMP JUMPDEST PUSH0 PUSH2 0x2EB PUSH2 0x2E6 PUSH2 0x2E1 DUP5 PUSH2 0x2BF JUMP JUMPDEST PUSH2 0x2C8 JUMP JUMPDEST PUSH2 0x2BF JUMP JUMPDEST SWAP1 POP SWAP2 SWAP1 POP JUMP JUMPDEST PUSH0 DUP2 SWAP1 POP SWAP2 SWAP1 POP JUMP JUMPDEST PUSH2 0x304 DUP4 PUSH2 0x2D1 JUMP JUMPDEST PUSH2 0x318 PUSH2 0x310 DUP3 PUSH2 0x2F2 JUMP JUMPDEST DUP5 DUP5 SLOAD PUSH2 0x26E JUMP JUMPDEST DUP3 SSTORE POP POP POP POP JUMP JUMPDEST PUSH0 SWAP1 JUMP JUMPDEST PUSH2 0x32C PUSH2 0x320 JUMP JUMPDEST PUSH2 0x337 DUP2 DUP5 DUP5 PUSH2 0x2FB JUMP JUMPDEST POP POP POP JUMP JUMPDEST JUMPDEST DUP2 DUP2 LT ISZERO PUSH2 0x35A JUMPI PUSH2 0x34F PUSH0 DUP3 PUSH2 0x324 JUMP JUMPDEST PUSH1 0x1 DUP2 ADD SWAP1 POP PUSH2 0x33D JUMP JUMPDEST POP POP JUMP JUMPDEST PUSH1 0x1F DUP3 GT ISZERO PUSH2 0x39F JUMPI PUSH2 0x370 DUP2 PUSH2 0x241 JUMP JUMPDEST PUSH2 0x379 DUP5 PUSH2 0x253 JUMP JUMPDEST DUP2 ADD PUSH1 0x20 DUP6 LT ISZERO PUSH2 0x388 JUMPI DUP2 SWAP1 POP JUMPDEST PUSH2 0x39C PUSH2 0x394 DUP6 PUSH2 0x253 JUMP JUMPDEST DUP4 ADD DUP3 PUSH2 0x33C JUMP JUMPDEST POP POP JUMPDEST POP POP POP JUMP JUMPDEST PUSH0 DUP3 DUP3 SHR SWAP1 POP SWAP3 SWAP2 POP POP JUMP JUMPDEST PUSH0 PUSH2 0x3BF PUSH0 NOT DUP5 PUSH1 0x8 MUL PUSH2 0x3A4 JUMP JUMPDEST NOT DUP1 DUP4 AND SWAP2 POP POP SWAP3 SWAP2 POP POP JUMP JUMPDEST PUSH0 PUSH2 0x3D7 DUP4 DUP4 PUSH2 0x3B0 JUMP JUMPDEST SWAP2 POP DUP3 PUSH1 0x2 MUL DUP3 OR SWAP1 POP SWAP3 SWAP2 POP POP JUMP JUMPDEST PUSH2 0x3F0 DUP3 PUSH2 0x1DA JUMP JUMPDEST PUSH8 0xFFFFFFFFFFFFFFFF DUP2 GT ISZERO PUSH2 0x409 JUMPI PUSH2 0x408 PUSH2 0x6F JUMP JUMPDEST JUMPDEST PUSH2 0x413 DUP3 SLOAD PUSH2 0x211 JUMP JUMPDEST PUSH2 0x41E DUP3 DUP3 DUP6 PUSH2 0x35E JUMP JUMPDEST PUSH0 PUSH1 0x20 SWAP1 POP PUSH1 0x1F DUP4 GT PUSH1 0x1 DUP2 EQ PUSH2 0x44F JUMPI PUSH0 DUP5 ISZERO PUSH2 0x43D JUMPI DUP3 DUP8 ADD MLOAD SWAP1 POP JUMPDEST PUSH2 0x447 DUP6 DUP3 PUSH2 0x3CC JUMP JUMPDEST DUP7 SSTORE POP PUSH2 0x4AE JUMP JUMPDEST PUSH1 0x1F NOT DUP5 AND PUSH2 0x45D DUP7 PUSH2 0x241 JUMP JUMPDEST PUSH0 JUMPDEST DUP3 DUP2 LT ISZERO PUSH2 0x484 JUMPI DUP5 DUP10 ADD MLOAD DUP3 SSTORE PUSH1 0x1 DUP3 ADD SWAP2 POP PUSH1 0x20 DUP6 ADD SWAP5 POP PUSH1 0x20 DUP2 ADD SWAP1 POP PUSH2 0x45F JUMP JUMPDEST DUP7 DUP4 LT ISZERO PUSH2 0x4A1 JUMPI DUP5 DUP10 ADD MLOAD PUSH2 0x49D PUSH1 0x1F DUP10 AND DUP3 PUSH2 0x3B0 JUMP JUMPDEST DUP4 SSTORE POP JUMPDEST PUSH1 0x1 PUSH1 0x2 DUP9 MUL ADD DUP9 SSTORE POP POP POP JUMPDEST POP POP POP POP POP POP JUMP JUMPDEST PUSH2 0x34C DUP1 PUSH2 0x4C3 PUSH0 CODECOPY PUSH0 RETURN INVALID PUSH1 0x80 PUSH1 0x40 MSTORE CALLVALUE DUP1 ISZERO PUSH2 0xF JUMPI PUSH0 DUP1 REVERT JUMPDEST POP PUSH1 0x4 CALLDATASIZE LT PUSH2 0x4A JUMPI PUSH0 CALLDATALOAD PUSH1 0xE0 SHR DUP1 PUSH4 0x2E64CEC1 EQ PUSH2 0x4E JUMPI DUP1 PUSH4 0x5A9B0B89 EQ PUSH2 0x6C JUMPI DUP1 PUSH4 0x6057361D EQ PUSH2 0x8A JUMPI DUP1 PUSH4 0xC15BAE84 EQ PUSH2 0xA6 JUMPI JUMPDEST PUSH0 DUP1 REVERT JUMPDEST PUSH2 0x56 PUSH2 0xC4 JUMP JUMPDEST PUSH1 0x40 MLOAD PUSH2 0x63 SWAP2 SWAP1 PUSH2 0x1B7 JUMP JUMPDEST PUSH1 0x40 MLOAD DUP1 SWAP2 SUB SWAP1 RETURN JUMPDEST PUSH2 0x74 PUSH2 0xCD JUMP JUMPDEST PUSH1 0x40 MLOAD PUSH2 0x81 SWAP2 SWAP1 PUSH2 0x240 JUMP JUMPDEST PUSH1 0x40 MLOAD DUP1 SWAP2 SUB SWAP1 RETURN JUMPDEST PUSH2 0xA4 PUSH1 0x4 DUP1 CALLDATASIZE SUB DUP2 ADD SWAP1 PUSH2 0x9F SWAP2 SWAP1 PUSH2 0x28E JUMP JUMPDEST PUSH2 0x10A JUMP JUMPDEST STOP JUMPDEST PUSH2 0xAE PUSH2 0x114 JUMP JUMPDEST PUSH1 0x40 MLOAD PUSH2 0xBB SWAP2 SWAP1 PUSH2 0x240 JUMP JUMPDEST PUSH1 0x40 MLOAD DUP1 SWAP2 SUB SWAP1 RETURN JUMPDEST PUSH0 PUSH1 0x1 SLOAD SWAP1 POP SWAP1 JUMP JUMPDEST PUSH1 0x60 PUSH1 0x40 MLOAD DUP1 PUSH1 0x40 ADD PUSH1 0x40 MSTORE PUSH1 0x7 DUP2 MSTORE DUP1 PUSH1 0x20 ADD PUSH32 0x53746F7261676500000000000000000000000000000000000000000000000000 DUP2 MSTORE POP SWAP1 POP SWAP1 JUMP JUMPDEST DUP1 PUSH1 0x1 DUP2 SWAP1 SSTORE POP POP JUMP JUMPDEST PUSH0 DUP1 SLOAD PUSH2 0x120 SWAP1 PUSH2 0x2E6 JUMP JUMPDEST DUP1 PUSH1 0x1F ADD PUSH1 0x20 DUP1 SWAP2 DIV MUL PUSH1 0x20 ADD PUSH1 0x40 MLOAD SWAP1 DUP2 ADD PUSH1 0x40 MSTORE DUP1 SWAP3 SWAP2 SWAP1 DUP2 DUP2 MSTORE PUSH1 0x20 ADD DUP3 DUP1 SLOAD PUSH2 0x14C SWAP1 PUSH2 0x2E6 JUMP JUMPDEST DUP1 ISZERO PUSH2 0x197 JUMPI DUP1 PUSH1 0x1F LT PUSH2 0x16E JUMPI PUSH2 0x100 DUP1 DUP4 SLOAD DIV MUL DUP4 MSTORE SWAP2 PUSH1 0x20 ADD SWAP2 PUSH2 0x197 JUMP JUMPDEST DUP3 ADD SWAP2 SWAP1 PUSH0 MSTORE PUSH1 0x20 PUSH0 KECCAK256 SWAP1 JUMPDEST DUP2 SLOAD DUP2 MSTORE SWAP1 PUSH1 0x1 ADD SWAP1 PUSH1 0x20 ADD DUP1 DUP4 GT PUSH2 0x17A JUMPI DUP3 SWAP1 SUB PUSH1 0x1F AND DUP3 ADD SWAP2 JUMPDEST POP POP POP POP POP DUP2 JUMP JUMPDEST PUSH0 DUP2 SWAP1 POP SWAP2 SWAP1 POP JUMP JUMPDEST PUSH2 0x1B1 DUP2 PUSH2 0x19F JUMP JUMPDEST DUP3 MSTORE POP POP JUMP JUMPDEST PUSH0 PUSH1 0x20 DUP3 ADD SWAP1 POP PUSH2 0x1CA PUSH0 DUP4 ADD DUP5 PUSH2 0x1A8 JUMP JUMPDEST SWAP3 SWAP2 POP POP JUMP JUMPDEST PUSH0 DUP2 MLOAD SWAP1 POP SWAP2 SWAP1 POP JUMP JUMPDEST PUSH0 DUP3 DUP3 MSTORE PUSH1 0x20 DUP3 ADD SWAP1 POP SWAP3 SWAP2 POP POP JUMP JUMPDEST DUP3 DUP2 DUP4 MCOPY PUSH0 DUP4 DUP4 ADD MSTORE POP POP POP JUMP JUMPDEST PUSH0 PUSH1 0x1F NOT PUSH1 0x1F DUP4 ADD AND SWAP1 POP SWAP2 SWAP1 POP JUMP JUMPDEST PUSH0 PUSH2 0x212 DUP3 PUSH2 0x1D0 JUMP JUMPDEST PUSH2 0x21C DUP2 DUP6 PUSH2 0x1DA JUMP JUMPDEST SWAP4 POP PUSH2 0x22C DUP2 DUP6 PUSH1 0x20 DUP7 ADD PUSH2 0x1EA JUMP JUMPDEST PUSH2 0x235 DUP2 PUSH2 0x1F8 JUMP JUMPDEST DUP5 ADD SWAP2 POP POP SWAP3 SWAP2 POP POP JUMP JUMPDEST PUSH0 PUSH1 0x20 DUP3 ADD SWAP1 POP DUP2 DUP2 SUB PUSH0 DUP4 ADD MSTORE PUSH2 0x258 DUP2 DUP5 PUSH2 0x208 JUMP JUMPDEST SWAP1 POP SWAP3 SWAP2 POP POP JUMP JUMPDEST PUSH0 DUP1 REVERT JUMPDEST PUSH2 0x26D DUP2 PUSH2 0x19F JUMP JUMPDEST DUP2 EQ PUSH2 0x277 JUMPI PUSH0 DUP1 REVERT JUMPDEST POP JUMP JUMPDEST PUSH0 DUP2 CALLDATALOAD SWAP1 POP PUSH2 0x288 DUP2 PUSH2 0x264 JUMP JUMPDEST SWAP3 SWAP2 POP POP JUMP JUMPDEST PUSH0 PUSH1 0x20 DUP3 DUP5 SUB SLT ISZERO PUSH2 0x2A3 JUMPI PUSH2 0x2A2 PUSH2 0x260 JUMP JUMPDEST JUMPDEST PUSH0 PUSH2 0x2B0 DUP5 DUP3 DUP6 ADD PUSH2 0x27A JUMP JUMPDEST SWAP2 POP POP SWAP3 SWAP2 POP POP JUMP JUMPDEST PUSH32 0x4E487B7100000000000000000000000000000000000000000000000000000000 PUSH0 MSTORE PUSH1 0x22 PUSH1 0x4 MSTORE PUSH1 0x24 PUSH0 REVERT JUMPDEST PUSH0 PUSH1 0x2 DUP3 DIV SWAP1 POP PUSH1 0x1 DUP3 AND DUP1 PUSH2 0x2FD JUMPI PUSH1 0x7F DUP3 AND SWAP2 POP JUMPDEST PUSH1 0x20 DUP3 LT DUP2 SUB PUSH2 0x310 JUMPI PUSH2 0x30F PUSH2 0x2B9 JUMP JUMPDEST JUMPDEST POP SWAP2 SWAP1 POP JUMP INVALID LOG2 PUSH5 0x6970667358 0x22 SLT KECCAK256 CHAINID SWAP1 0xCE MLOAD 0xA7 SWAP15 0xB3 0xD8 0x2B JUMPI SIGNEXTEND CREATE2 0xF TIMESTAMP SWAP10 GT 0xEB 0xC7 0xDA TLOAD PUSH32 0x5DDEF545A0C719C5290E4B64736F6C634300081A003360806040523480156100 0xF JUMPI PUSH0 DUP1 REVERT JUMPDEST POP PUSH1 0x4 CALLDATASIZE LT PUSH2 0x4A JUMPI PUSH0 CALLDATALOAD PUSH1 0xE0 SHR DUP1 PUSH4 0x2E64CEC1 EQ PUSH2 0x4E JUMPI DUP1 PUSH4 0x5A9B0B89 EQ PUSH2 0x6C JUMPI DUP1 PUSH4 0x6057361D EQ PUSH2 0x8A JUMPI DUP1 PUSH4 0xC15BAE84 EQ PUSH2 0xA6 JUMPI JUMPDEST PUSH0 DUP1 REVERT JUMPDEST PUSH2 0x56 PUSH2 0xC4 JUMP JUMPDEST PUSH1 0x40 MLOAD PUSH2 0x63 SWAP2 SWAP1 PUSH2 0x1B7 JUMP JUMPDEST PUSH1 0x40 MLOAD DUP1 SWAP2 SUB SWAP1 RETURN JUMPDEST PUSH2 0x74 PUSH2 0xCD JUMP JUMPDEST PUSH1 0x40 MLOAD PUSH2 0x81 SWAP2 SWAP1 PUSH2 0x240 JUMP JUMPDEST PUSH1 0x40 MLOAD DUP1 SWAP2 SUB SWAP1 RETURN JUMPDEST PUSH2 0xA4 PUSH1 0x4 DUP1 CALLDATASIZE SUB DUP2 ADD SWAP1 PUSH2 0x9F SWAP2 SWAP1 PUSH2 0x28E JUMP JUMPDEST PUSH2 0x10A JUMP JUMPDEST STOP JUMPDEST PUSH2 0xAE PUSH2 0x114 JUMP JUMPDEST PUSH1 0x40 MLOAD PUSH2 0xBB SWAP2 SWAP1 PUSH2 0x240 JUMP JUMPDEST PUSH1 0x40 MLOAD DUP1 SWAP2 SUB SWAP1 RETURN JUMPDEST PUSH0 PUSH1 0x1 SLOAD SWAP1 POP SWAP1 JUMP JUMPDEST PUSH1 0x60 PUSH1 0x40 MLOAD DUP1 PUSH1 0x40 ADD PUSH1 0x40 MSTORE PUSH1 0x7 DUP2 MSTORE DUP1 PUSH1 0x20 ADD PUSH32 0x53746F7261676500000000000000000000000000000000000000000000000000 DUP2 MSTORE POP SWAP1 POP SWAP1 JUMP JUMPDEST DUP1 PUSH1 0x1 DUP2 SWAP1 SSTORE POP POP JUMP JUMPDEST PUSH0 DUP1 SLOAD PUSH2 0x120 SWAP1 PUSH2 0x2E6 JUMP JUMPDEST DUP1 PUSH1 0x1F ADD PUSH1 0x20 DUP1 SWAP2 DIV MUL PUSH1 0x20 ADD PUSH1 0x40 MLOAD SWAP1 DUP2 ADD PUSH1 0x40 MSTORE DUP1 SWAP3 SWAP2 SWAP1 DUP2 DUP2 MSTORE PUSH1 0x20 ADD DUP3 DUP1 SLOAD PUSH2 0x14C SWAP1 PUSH2 0x2E6 JUMP JUMPDEST DUP1 ISZERO PUSH2 0x197 JUMPI DUP1 PUSH1 0x1F LT PUSH2 0x16E JUMPI PUSH2 0x100 DUP1 DUP4 SLOAD DIV MUL DUP4 MSTORE SWAP2 PUSH1 0x20 ADD SWAP2 PUSH2 0x197 JUMP JUMPDEST DUP3 ADD SWAP2 SWAP1 PUSH0 MSTORE PUSH1 0x20 PUSH0 KECCAK256 SWAP1 JUMPDEST DUP2 SLOAD DUP2 MSTORE SWAP1 PUSH1 0x1 ADD SWAP1 PUSH1 0x20 ADD DUP1 DUP4 GT PUSH2 0x17A JUMPI DUP3 SWAP1 SUB PUSH1 0x1F AND DUP3 ADD SWAP2 JUMPDEST POP POP POP POP POP DUP2 JUMP JUMPDEST PUSH0 DUP2 SWAP1 POP SWAP2 SWAP1 POP JUMP JUMPDEST PUSH2 0x1B1 DUP2 PUSH2 0x19F JUMP JUMPDEST DUP3 MSTORE POP POP JUMP JUMPDEST PUSH0 PUSH1 0x20 DUP3 ADD SWAP1 POP PUSH2 0x1CA PUSH0 DUP4 ADD DUP5 PUSH2 0x1A8 JUMP JUMPDEST SWAP3 SWAP2 POP POP JUMP JUMPDEST PUSH0 DUP2 MLOAD SWAP1 POP SWAP2 SWAP1 POP JUMP JUMPDEST PUSH0 DUP3 DUP3 MSTORE PUSH1 0x20 DUP3 ADD SWAP1 POP SWAP3 SWAP2 POP POP JUMP JUMPDEST DUP3 DUP2 DUP4 MCOPY PUSH0 DUP4 DUP4 ADD MSTORE POP POP POP JUMP JUMPDEST PUSH0 PUSH1 0x1F NOT PUSH1 0x1F DUP4 ADD AND SWAP1 POP SWAP2 SWAP1 POP JUMP JUMPDEST PUSH0 PUSH2 0x212 DUP3 PUSH2 0x1D0 JUMP JUMPDEST PUSH2 0x21C DUP2 DUP6 PUSH2 0x1DA JUMP JUMPDEST SWAP4 POP PUSH2 0x22C DUP2 DUP6 PUSH1 0x20 DUP7 ADD PUSH2 0x1EA JUMP JUMPDEST PUSH2 0x235 DUP2 PUSH2 0x1F8 JUMP JUMPDEST DUP5 ADD SWAP2 POP POP SWAP3 SWAP2 POP POP JUMP JUMPDEST PUSH0 PUSH1 0x20 DUP3 ADD SWAP1 POP DUP2 DUP2 SUB PUSH0 DUP4 ADD MSTORE PUSH2 0x258 DUP2 DUP5 PUSH2 0x208 JUMP JUMPDEST SWAP1 POP SWAP3 SWAP2 POP POP JUMP JUMPDEST PUSH0 DUP1 REVERT JUMPDEST PUSH2 0x26D DUP2 PUSH2 0x19F JUMP JUMPDEST DUP2 EQ PUSH2 0x277 JUMPI PUSH0 DUP1 REVERT JUMPDEST POP JUMP JUMPDEST PUSH0 DUP2 CALLDATALOAD SWAP1 POP PUSH2 0x288 DUP2 PUSH2 0x264 JUMP JUMPDEST SWAP3 SWAP2 POP POP JUMP JUMPDEST PUSH0 PUSH1 0x20 DUP3 DUP5 SUB SLT ISZERO PUSH2 0x2A3 JUMPI PUSH2 0x2A2 PUSH2 0x260 JUMP JUMPDEST JUMPDEST PUSH0 PUSH2 0x2B0 DUP5 DUP3 DUP6 ADD PUSH2 0x27A JUMP JUMPDEST SWAP2 POP POP SWAP3 SWAP2 POP POP JUMP JUMPDEST PUSH32 0x4E487B7100000000000000000000000000000000000000000000000000000000 PUSH0 MSTORE PUSH1 0x22 PUSH1 0x4 MSTORE PUSH1 0x24 PUSH0 REVERT JUMPDEST PUSH0 PUSH1 0x2 DUP3 DIV SWAP1 POP PUSH1 0x1 DUP3 AND DUP1 PUSH2 0x2FD JUMPI PUSH1 0x7F DUP3 AND SWAP2 POP JUMPDEST PUSH1 0x20 DUP3 LT DUP2 SUB PUSH2 0x310 JUMPI PUSH2 0x30F PUSH2 0x2B9 JUMP JUMPDEST JUMPDEST POP SWAP2 SWAP1 POP JUMP INVALID LOG2 PUSH5 0x6970667358 0x22 SLT KECCAK256 CHAINID SWAP1 0xCE MLOAD 0xA7 SWAP15 0xB3 0xD8 0x2B JUMPI SIGNEXTEND CREATE2 0xF TIMESTAMP SWAP10 GT 0xEB 0xC7 0xDA TLOAD PUSH32 0x5DDEF545A0C719C5290E4B64736F6C634300081A0033A2646970667358221220 PUSH25 0x9CFD560BD1F0BA1056E785932BA267005EE4BE5E498443F76 PUSH21 0x7D23B216A464736F6C634300081A00330000000000 "
				},
				"gasEstimates": {
					"creation": {
						"codeDepositCost": "662200",
						"executionCost": "infinite",
						"totalCost": "infinite"
					},
					"external": {
						"getInfo()": "infinite"
					}
				},
				"methodIdentifiers": {
					"getInfo()": "5a9b0b89"
				}
			},
			"storageLayout": {
				"storage": [
					{
						"astId": 53,
						"contract": "practise/dukedaily/day03/17type.sol:TestStorage",
						"label": "s",
						"offset": 0,
						"slot": "0",
						"type": "t_contract(Storage)50"
					}
				],
				"types": {
					"t_contract(Storage)50": {
						"encoding": "inplace",
						"label": "contract Storage",
						"numberOfBytes": "20"
					}
				}
			},
			"userdoc": {
				"kind": "user",
				"methods": {},
				"version": 1
			}
		}
	}
}