{
	"practise/dukedaily/day03/08send_ether.sol": {
		"ReceiveEther": {
			"abi": [
				{
					"stateMutability": "payable",
					"type": "fallback"
				},
				{
					"inputs": [],
					"name": "getBalance",
					"outputs": [
						{
							"internalType": "uint256",
							"name": "",
							"type": "uint256"
						}
					],
					"stateMutability": "view",
					"type": "function"
				},
				{
					"inputs": [],
					"name": "message",
					"outputs": [
						{
							"internalType": "string",
							"name": "",
							"type": "string"
						}
					],
					"stateMutability": "view",
					"type": "function"
				},
				{
					"inputs": [
						{
							"internalType": "string",
							"name": "_msg",
							"type": "string"
						}
					],
					"name": "setMsg",
					"outputs": [],
					"stateMutability": "nonpayable",
					"type": "function"
				},
				{
					"stateMutability": "payable",
					"type": "receive"
				}
			],
			"devdoc": {
				"kind": "dev",
				"methods": {},
				"version": 1
			},
			"evm": {
				"assembly": "    /* \"practise/dukedaily/day03/08send_ether.sol\":845:1711  contract ReceiveEther {... */\n  mstore(0x40, 0x80)\n  callvalue\n  dup1\n  iszero\n  tag_1\n  jumpi\n  0x00\n  dup1\n  revert\ntag_1:\n  pop\n  dataSize(sub_0)\n  dup1\n  dataOffset(sub_0)\n  0x00\n  codecopy\n  0x00\n  return\nstop\n\nsub_0: assembly {\n        /* \"practise/dukedaily/day03/08send_ether.sol\":845:1711  contract ReceiveEther {... */\n      mstore(0x40, 0x80)\n      jumpi(tag_1, lt(calldatasize, 0x04))\n      shr(0xe0, calldataload(0x00))\n      dup1\n      0x12065fe0\n      eq\n      tag_3\n      jumpi\n      dup1\n      0xc4784fd4\n      eq\n      tag_4\n      jumpi\n      dup1\n      0xe21f37ce\n      eq\n      tag_5\n      jumpi\n      jump(tag_2)\n    tag_1:\n      jumpi(tag_2, calldatasize)\n        /* \"practise/dukedaily/day03/08send_ether.sol\":1356:1382  message = \"receive called\" */\n      mload(0x40)\n      dup1\n      0x40\n      add\n      0x40\n      mstore\n      dup1\n      0x0e\n      dup2\n      mstore\n      0x20\n      add\n      0x726563656976652063616c6c6564000000000000000000000000000000000000\n      dup2\n      mstore\n      pop\n        /* \"practise/dukedaily/day03/08send_ether.sol\":1356:1363  message */\n      0x00\n        /* \"practise/dukedaily/day03/08send_ether.sol\":1356:1382  message = \"receive called\" */\n      swap1\n      dup2\n      tag_8\n      swap2\n      swap1\n      tag_9\n      jump\t// in\n    tag_8:\n      stop\n        /* \"practise/dukedaily/day03/08send_ether.sol\":845:1711  contract ReceiveEther {... */\n    tag_2:\n        /* \"practise/dukedaily/day03/08send_ether.sol\":1495:1522  message = \"fallback called\" */\n      mload(0x40)\n      dup1\n      0x40\n      add\n      0x40\n      mstore\n      dup1\n      0x0f\n      dup2\n      mstore\n      0x20\n      add\n      0x66616c6c6261636b2063616c6c65640000000000000000000000000000000000\n      dup2\n      mstore\n      pop\n        /* \"practise/dukedaily/day03/08send_ether.sol\":1495:1502  message */\n      0x00\n        /* \"practise/dukedaily/day03/08send_ether.sol\":1495:1522  message = \"fallback called\" */\n      swap1\n      dup2\n      tag_12\n      swap2\n      swap1\n      tag_9\n      jump\t// in\n    tag_12:\n      stop\n        /* \"practise/dukedaily/day03/08send_ether.sol\":1535:1629  function getBalance() public view returns (uint) {... */\n    tag_3:\n      callvalue\n      dup1\n      iszero\n      tag_13\n      jumpi\n      0x00\n      dup1\n      revert\n    tag_13:\n      pop\n      tag_14\n      tag_15\n      jump\t// in\n    tag_14:\n      mload(0x40)\n      tag_16\n      swap2\n      swap1\n      tag_17\n      jump\t// in\n    tag_16:\n      mload(0x40)\n      dup1\n      swap2\n      sub\n      swap1\n      return\n        /* \"practise/dukedaily/day03/08send_ether.sol\":1635:1709  function setMsg(string memory _msg) public {... */\n    tag_4:\n      callvalue\n      dup1\n      iszero\n      tag_18\n      jumpi\n      0x00\n      dup1\n      revert\n    tag_18:\n      pop\n      tag_19\n      0x04\n      dup1\n      calldatasize\n      sub\n      dup2\n      add\n      swap1\n      tag_20\n      swap2\n      swap1\n      tag_21\n      jump\t// in\n    tag_20:\n      tag_22\n      jump\t// in\n    tag_19:\n      stop\n        /* \"practise/dukedaily/day03/08send_ether.sol\":1234:1255  string public message */\n    tag_5:\n      callvalue\n      dup1\n      iszero\n      tag_23\n      jumpi\n      0x00\n      dup1\n      revert\n    tag_23:\n      pop\n      tag_24\n      tag_25\n      jump\t// in\n    tag_24:\n      mload(0x40)\n      tag_26\n      swap2\n      swap1\n      tag_27\n      jump\t// in\n    tag_26:\n      mload(0x40)\n      dup1\n      swap2\n      sub\n      swap1\n      return\n        /* \"practise/dukedaily/day03/08send_ether.sol\":1535:1629  function getBalance() public view returns (uint) {... */\n    tag_15:\n        /* \"practise/dukedaily/day03/08send_ether.sol\":1578:1582  uint */\n      0x00\n        /* \"practise/dukedaily/day03/08send_ether.sol\":1601:1622  address(this).balance */\n      selfbalance\n        /* \"practise/dukedaily/day03/08send_ether.sol\":1594:1622  return address(this).balance */\n      swap1\n      pop\n        /* \"practise/dukedaily/day03/08send_ether.sol\":1535:1629  function getBalance() public view returns (uint) {... */\n      swap1\n      jump\t// out\n        /* \"practise/dukedaily/day03/08send_ether.sol\":1635:1709  function setMsg(string memory _msg) public {... */\n    tag_22:\n        /* \"practise/dukedaily/day03/08send_ether.sol\":1698:1702  _msg */\n      dup1\n        /* \"practise/dukedaily/day03/08send_ether.sol\":1688:1695  message */\n      0x00\n        /* \"practise/dukedaily/day03/08send_ether.sol\":1688:1702  message = _msg */\n      swap1\n      dup2\n      tag_30\n      swap2\n      swap1\n      tag_9\n      jump\t// in\n    tag_30:\n      pop\n        /* \"practise/dukedaily/day03/08send_ether.sol\":1635:1709  function setMsg(string memory _msg) public {... */\n      pop\n      jump\t// out\n        /* \"practise/dukedaily/day03/08send_ether.sol\":1234:1255  string public message */\n    tag_25:\n      0x00\n      dup1\n      sload\n      tag_31\n      swap1\n      tag_32\n      jump\t// in\n    tag_31:\n      dup1\n      0x1f\n      add\n      0x20\n      dup1\n      swap2\n      div\n      mul\n      0x20\n      add\n      mload(0x40)\n      swap1\n      dup2\n      add\n      0x40\n      mstore\n      dup1\n      swap3\n      swap2\n      swap1\n      dup2\n      dup2\n      mstore\n      0x20\n      add\n      dup3\n      dup1\n      sload\n      tag_33\n      swap1\n      tag_32\n      jump\t// in\n    tag_33:\n      dup1\n      iszero\n      tag_34\n      jumpi\n      dup1\n      0x1f\n      lt\n      tag_35\n      jumpi\n      0x0100\n      dup1\n      dup4\n      sload\n      div\n      mul\n      dup4\n      mstore\n      swap2\n      0x20\n      add\n      swap2\n      jump(tag_34)\n    tag_35:\n      dup3\n      add\n      swap2\n      swap1\n      0x00\n      mstore\n      keccak256(0x00, 0x20)\n      swap1\n    tag_36:\n      dup2\n      sload\n      dup2\n      mstore\n      swap1\n      0x01\n      add\n      swap1\n      0x20\n      add\n      dup1\n      dup4\n      gt\n      tag_36\n      jumpi\n      dup3\n      swap1\n      sub\n      0x1f\n      and\n      dup3\n      add\n      swap2\n    tag_34:\n      pop\n      pop\n      pop\n      pop\n      pop\n      dup2\n      jump\t// out\n        /* \"#utility.yul\":7:106   */\n    tag_37:\n        /* \"#utility.yul\":59:65   */\n      0x00\n        /* \"#utility.yul\":93:98   */\n      dup2\n        /* \"#utility.yul\":87:99   */\n      mload\n        /* \"#utility.yul\":77:99   */\n      swap1\n      pop\n        /* \"#utility.yul\":7:106   */\n      swap2\n      swap1\n      pop\n      jump\t// out\n        /* \"#utility.yul\":112:292   */\n    tag_38:\n        /* \"#utility.yul\":160:237   */\n      0x4e487b7100000000000000000000000000000000000000000000000000000000\n        /* \"#utility.yul\":157:158   */\n      0x00\n        /* \"#utility.yul\":150:238   */\n      mstore\n        /* \"#utility.yul\":257:261   */\n      0x41\n        /* \"#utility.yul\":254:255   */\n      0x04\n        /* \"#utility.yul\":247:262   */\n      mstore\n        /* \"#utility.yul\":281:285   */\n      0x24\n        /* \"#utility.yul\":278:279   */\n      0x00\n        /* \"#utility.yul\":271:286   */\n      revert\n        /* \"#utility.yul\":298:478   */\n    tag_39:\n        /* \"#utility.yul\":346:423   */\n      0x4e487b7100000000000000000000000000000000000000000000000000000000\n        /* \"#utility.yul\":343:344   */\n      0x00\n        /* \"#utility.yul\":336:424   */\n      mstore\n        /* \"#utility.yul\":443:447   */\n      0x22\n        /* \"#utility.yul\":440:441   */\n      0x04\n        /* \"#utility.yul\":433:448   */\n      mstore\n        /* \"#utility.yul\":467:471   */\n      0x24\n        /* \"#utility.yul\":464:465   */\n      0x00\n        /* \"#utility.yul\":457:472   */\n      revert\n        /* \"#utility.yul\":484:804   */\n    tag_32:\n        /* \"#utility.yul\":528:534   */\n      0x00\n        /* \"#utility.yul\":565:566   */\n      0x02\n        /* \"#utility.yul\":559:563   */\n      dup3\n        /* \"#utility.yul\":555:567   */\n      div\n        /* \"#utility.yul\":545:567   */\n      swap1\n      pop\n        /* \"#utility.yul\":612:613   */\n      0x01\n        /* \"#utility.yul\":606:610   */\n      dup3\n        /* \"#utility.yul\":602:614   */\n      and\n        /* \"#utility.yul\":633:651   */\n      dup1\n        /* \"#utility.yul\":623:704   */\n      tag_77\n      jumpi\n        /* \"#utility.yul\":689:693   */\n      0x7f\n        /* \"#utility.yul\":681:687   */\n      dup3\n        /* \"#utility.yul\":677:694   */\n      and\n        /* \"#utility.yul\":667:694   */\n      swap2\n      pop\n        /* \"#utility.yul\":623:704   */\n    tag_77:\n        /* \"#utility.yul\":751:753   */\n      0x20\n        /* \"#utility.yul\":743:749   */\n      dup3\n        /* \"#utility.yul\":740:754   */\n      lt\n        /* \"#utility.yul\":720:738   */\n      dup2\n        /* \"#utility.yul\":717:755   */\n      sub\n        /* \"#utility.yul\":714:798   */\n      tag_78\n      jumpi\n        /* \"#utility.yul\":770:788   */\n      tag_79\n      tag_39\n      jump\t// in\n    tag_79:\n        /* \"#utility.yul\":714:798   */\n    tag_78:\n        /* \"#utility.yul\":535:804   */\n      pop\n        /* \"#utility.yul\":484:804   */\n      swap2\n      swap1\n      pop\n      jump\t// out\n        /* \"#utility.yul\":810:951   */\n    tag_40:\n        /* \"#utility.yul\":859:863   */\n      0x00\n        /* \"#utility.yul\":882:885   */\n      dup2\n        /* \"#utility.yul\":874:885   */\n      swap1\n      pop\n        /* \"#utility.yul\":905:908   */\n      dup2\n        /* \"#utility.yul\":902:903   */\n      0x00\n        /* \"#utility.yul\":895:909   */\n      mstore\n        /* \"#utility.yul\":939:943   */\n      0x20\n        /* \"#utility.yul\":936:937   */\n      0x00\n        /* \"#utility.yul\":926:944   */\n      keccak256\n        /* \"#utility.yul\":918:944   */\n      swap1\n      pop\n        /* \"#utility.yul\":810:951   */\n      swap2\n      swap1\n      pop\n      jump\t// out\n        /* \"#utility.yul\":957:1050   */\n    tag_41:\n        /* \"#utility.yul\":994:1000   */\n      0x00\n        /* \"#utility.yul\":1041:1043   */\n      0x20\n        /* \"#utility.yul\":1036:1038   */\n      0x1f\n        /* \"#utility.yul\":1029:1034   */\n      dup4\n        /* \"#utility.yul\":1025:1039   */\n      add\n        /* \"#utility.yul\":1021:1044   */\n      div\n        /* \"#utility.yul\":1011:1044   */\n      swap1\n      pop\n        /* \"#utility.yul\":957:1050   */\n      swap2\n      swap1\n      pop\n      jump\t// out\n        /* \"#utility.yul\":1056:1163   */\n    tag_42:\n        /* \"#utility.yul\":1100:1108   */\n      0x00\n        /* \"#utility.yul\":1150:1155   */\n      dup3\n        /* \"#utility.yul\":1144:1148   */\n      dup3\n        /* \"#utility.yul\":1140:1156   */\n      shl\n        /* \"#utility.yul\":1119:1156   */\n      swap1\n      pop\n        /* \"#utility.yul\":1056:1163   */\n      swap3\n      swap2\n      pop\n      pop\n      jump\t// out\n        /* \"#utility.yul\":1169:1562   */\n    tag_43:\n        /* \"#utility.yul\":1238:1244   */\n      0x00\n        /* \"#utility.yul\":1288:1289   */\n      0x08\n        /* \"#utility.yul\":1276:1286   */\n      dup4\n        /* \"#utility.yul\":1272:1290   */\n      mul\n        /* \"#utility.yul\":1311:1408   */\n      tag_84\n        /* \"#utility.yul\":1341:1407   */\n      0xffffffffffffffffffffffffffffffffffffffffffffffffffffffffffffffff\n        /* \"#utility.yul\":1330:1339   */\n      dup3\n        /* \"#utility.yul\":1311:1408   */\n      tag_42\n      jump\t// in\n    tag_84:\n        /* \"#utility.yul\":1429:1468   */\n      tag_85\n        /* \"#utility.yul\":1459:1467   */\n      dup7\n        /* \"#utility.yul\":1448:1457   */\n      dup4\n        /* \"#utility.yul\":1429:1468   */\n      tag_42\n      jump\t// in\n    tag_85:\n        /* \"#utility.yul\":1417:1468   */\n      swap6\n      pop\n        /* \"#utility.yul\":1501:1505   */\n      dup1\n        /* \"#utility.yul\":1497:1506   */\n      not\n        /* \"#utility.yul\":1490:1495   */\n      dup5\n        /* \"#utility.yul\":1486:1507   */\n      and\n        /* \"#utility.yul\":1477:1507   */\n      swap4\n      pop\n        /* \"#utility.yul\":1550:1554   */\n      dup1\n        /* \"#utility.yul\":1540:1548   */\n      dup7\n        /* \"#utility.yul\":1536:1555   */\n      and\n        /* \"#utility.yul\":1529:1534   */\n      dup5\n        /* \"#utility.yul\":1526:1556   */\n      or\n        /* \"#utility.yul\":1516:1556   */\n      swap3\n      pop\n        /* \"#utility.yul\":1245:1562   */\n      pop\n      pop\n        /* \"#utility.yul\":1169:1562   */\n      swap4\n      swap3\n      pop\n      pop\n      pop\n      jump\t// out\n        /* \"#utility.yul\":1568:1645   */\n    tag_44:\n        /* \"#utility.yul\":1605:1612   */\n      0x00\n        /* \"#utility.yul\":1634:1639   */\n      dup2\n        /* \"#utility.yul\":1623:1639   */\n      swap1\n      pop\n        /* \"#utility.yul\":1568:1645   */\n      swap2\n      swap1\n      pop\n      jump\t// out\n        /* \"#utility.yul\":1651:1711   */\n    tag_45:\n        /* \"#utility.yul\":1679:1682   */\n      0x00\n        /* \"#utility.yul\":1700:1705   */\n      dup2\n        /* \"#utility.yul\":1693:1705   */\n      swap1\n      pop\n        /* \"#utility.yul\":1651:1711   */\n      swap2\n      swap1\n      pop\n      jump\t// out\n        /* \"#utility.yul\":1717:1859   */\n    tag_46:\n        /* \"#utility.yul\":1767:1776   */\n      0x00\n        /* \"#utility.yul\":1800:1853   */\n      tag_89\n        /* \"#utility.yul\":1818:1852   */\n      tag_90\n        /* \"#utility.yul\":1827:1851   */\n      tag_91\n        /* \"#utility.yul\":1845:1850   */\n      dup5\n        /* \"#utility.yul\":1827:1851   */\n      tag_44\n      jump\t// in\n    tag_91:\n        /* \"#utility.yul\":1818:1852   */\n      tag_45\n      jump\t// in\n    tag_90:\n        /* \"#utility.yul\":1800:1853   */\n      tag_44\n      jump\t// in\n    tag_89:\n        /* \"#utility.yul\":1787:1853   */\n      swap1\n      pop\n        /* \"#utility.yul\":1717:1859   */\n      swap2\n      swap1\n      pop\n      jump\t// out\n        /* \"#utility.yul\":1865:1940   */\n    tag_47:\n        /* \"#utility.yul\":1908:1911   */\n      0x00\n        /* \"#utility.yul\":1929:1934   */\n      dup2\n        /* \"#utility.yul\":1922:1934   */\n      swap1\n      pop\n        /* \"#utility.yul\":1865:1940   */\n      swap2\n      swap1\n      pop\n      jump\t// out\n        /* \"#utility.yul\":1946:2215   */\n    tag_48:\n        /* \"#utility.yul\":2056:2095   */\n      tag_94\n        /* \"#utility.yul\":2087:2094   */\n      dup4\n        /* \"#utility.yul\":2056:2095   */\n      tag_46\n      jump\t// in\n    tag_94:\n        /* \"#utility.yul\":2117:2208   */\n      tag_95\n        /* \"#utility.yul\":2166:2207   */\n      tag_96\n        /* \"#utility.yul\":2190:2206   */\n      dup3\n        /* \"#utility.yul\":2166:2207   */\n      tag_47\n      jump\t// in\n    tag_96:\n        /* \"#utility.yul\":2158:2164   */\n      dup5\n        /* \"#utility.yul\":2151:2155   */\n      dup5\n        /* \"#utility.yul\":2145:2156   */\n      sload\n        /* \"#utility.yul\":2117:2208   */\n      tag_43\n      jump\t// in\n    tag_95:\n        /* \"#utility.yul\":2111:2115   */\n      dup3\n        /* \"#utility.yul\":2104:2209   */\n      sstore\n        /* \"#utility.yul\":2022:2215   */\n      pop\n        /* \"#utility.yul\":1946:2215   */\n      pop\n      pop\n      pop\n      jump\t// out\n        /* \"#utility.yul\":2221:2294   */\n    tag_49:\n        /* \"#utility.yul\":2266:2269   */\n      0x00\n        /* \"#utility.yul\":2221:2294   */\n      swap1\n      jump\t// out\n        /* \"#utility.yul\":2300:2489   */\n    tag_50:\n        /* \"#utility.yul\":2377:2409   */\n      tag_99\n      tag_49\n      jump\t// in\n    tag_99:\n        /* \"#utility.yul\":2418:2483   */\n      tag_100\n        /* \"#utility.yul\":2476:2482   */\n      dup2\n        /* \"#utility.yul\":2468:2474   */\n      dup5\n        /* \"#utility.yul\":2462:2466   */\n      dup5\n        /* \"#utility.yul\":2418:2483   */\n      tag_48\n      jump\t// in\n    tag_100:\n        /* \"#utility.yul\":2353:2489   */\n      pop\n        /* \"#utility.yul\":2300:2489   */\n      pop\n      pop\n      jump\t// out\n        /* \"#utility.yul\":2495:2681   */\n    tag_51:\n        /* \"#utility.yul\":2555:2675   */\n    tag_102:\n        /* \"#utility.yul\":2572:2575   */\n      dup2\n        /* \"#utility.yul\":2565:2570   */\n      dup2\n        /* \"#utility.yul\":2562:2576   */\n      lt\n        /* \"#utility.yul\":2555:2675   */\n      iszero\n      tag_104\n      jumpi\n        /* \"#utility.yul\":2626:2665   */\n      tag_105\n        /* \"#utility.yul\":2663:2664   */\n      0x00\n        /* \"#utility.yul\":2656:2661   */\n      dup3\n        /* \"#utility.yul\":2626:2665   */\n      tag_50\n      jump\t// in\n    tag_105:\n        /* \"#utility.yul\":2599:2600   */\n      0x01\n        /* \"#utility.yul\":2592:2597   */\n      dup2\n        /* \"#utility.yul\":2588:2601   */\n      add\n        /* \"#utility.yul\":2579:2601   */\n      swap1\n      pop\n        /* \"#utility.yul\":2555:2675   */\n      jump(tag_102)\n    tag_104:\n        /* \"#utility.yul\":2495:2681   */\n      pop\n      pop\n      jump\t// out\n        /* \"#utility.yul\":2687:3230   */\n    tag_52:\n        /* \"#utility.yul\":2788:2790   */\n      0x1f\n        /* \"#utility.yul\":2783:2786   */\n      dup3\n        /* \"#utility.yul\":2780:2791   */\n      gt\n        /* \"#utility.yul\":2777:3223   */\n      iszero\n      tag_107\n      jumpi\n        /* \"#utility.yul\":2822:2860   */\n      tag_108\n        /* \"#utility.yul\":2854:2859   */\n      dup2\n        /* \"#utility.yul\":2822:2860   */\n      tag_40\n      jump\t// in\n    tag_108:\n        /* \"#utility.yul\":2906:2935   */\n      tag_109\n        /* \"#utility.yul\":2924:2934   */\n      dup5\n        /* \"#utility.yul\":2906:2935   */\n      tag_41\n      jump\t// in\n    tag_109:\n        /* \"#utility.yul\":2896:2904   */\n      dup2\n        /* \"#utility.yul\":2892:2936   */\n      add\n        /* \"#utility.yul\":3089:3091   */\n      0x20\n        /* \"#utility.yul\":3077:3087   */\n      dup6\n        /* \"#utility.yul\":3074:3092   */\n      lt\n        /* \"#utility.yul\":3071:3120   */\n      iszero\n      tag_110\n      jumpi\n        /* \"#utility.yul\":3110:3118   */\n      dup2\n        /* \"#utility.yul\":3095:3118   */\n      swap1\n      pop\n        /* \"#utility.yul\":3071:3120   */\n    tag_110:\n        /* \"#utility.yul\":3133:3213   */\n      tag_111\n        /* \"#utility.yul\":3189:3211   */\n      tag_112\n        /* \"#utility.yul\":3207:3210   */\n      dup6\n        /* \"#utility.yul\":3189:3211   */\n      tag_41\n      jump\t// in\n    tag_112:\n        /* \"#utility.yul\":3179:3187   */\n      dup4\n        /* \"#utility.yul\":3175:3212   */\n      add\n        /* \"#utility.yul\":3162:3173   */\n      dup3\n        /* \"#utility.yul\":3133:3213   */\n      tag_51\n      jump\t// in\n    tag_111:\n        /* \"#utility.yul\":2792:3223   */\n      pop\n      pop\n        /* \"#utility.yul\":2777:3223   */\n    tag_107:\n        /* \"#utility.yul\":2687:3230   */\n      pop\n      pop\n      pop\n      jump\t// out\n        /* \"#utility.yul\":3236:3353   */\n    tag_53:\n        /* \"#utility.yul\":3290:3298   */\n      0x00\n        /* \"#utility.yul\":3340:3345   */\n      dup3\n        /* \"#utility.yul\":3334:3338   */\n      dup3\n        /* \"#utility.yul\":3330:3346   */\n      shr\n        /* \"#utility.yul\":3309:3346   */\n      swap1\n      pop\n        /* \"#utility.yul\":3236:3353   */\n      swap3\n      swap2\n      pop\n      pop\n      jump\t// out\n        /* \"#utility.yul\":3359:3528   */\n    tag_54:\n        /* \"#utility.yul\":3403:3409   */\n      0x00\n        /* \"#utility.yul\":3436:3487   */\n      tag_115\n        /* \"#utility.yul\":3484:3485   */\n      0x00\n        /* \"#utility.yul\":3480:3486   */\n      not\n        /* \"#utility.yul\":3472:3477   */\n      dup5\n        /* \"#utility.yul\":3469:3470   */\n      0x08\n        /* \"#utility.yul\":3465:3478   */\n      mul\n        /* \"#utility.yul\":3436:3487   */\n      tag_53\n      jump\t// in\n    tag_115:\n        /* \"#utility.yul\":3432:3488   */\n      not\n        /* \"#utility.yul\":3517:3521   */\n      dup1\n        /* \"#utility.yul\":3511:3515   */\n      dup4\n        /* \"#utility.yul\":3507:3522   */\n      and\n        /* \"#utility.yul\":3497:3522   */\n      swap2\n      pop\n        /* \"#utility.yul\":3410:3528   */\n      pop\n        /* \"#utility.yul\":3359:3528   */\n      swap3\n      swap2\n      pop\n      pop\n      jump\t// out\n        /* \"#utility.yul\":3533:3828   */\n    tag_55:\n        /* \"#utility.yul\":3609:3613   */\n      0x00\n        /* \"#utility.yul\":3755:3784   */\n      tag_117\n        /* \"#utility.yul\":3780:3783   */\n      dup4\n        /* \"#utility.yul\":3774:3778   */\n      dup4\n        /* \"#utility.yul\":3755:3784   */\n      tag_54\n      jump\t// in\n    tag_117:\n        /* \"#utility.yul\":3747:3784   */\n      swap2\n      pop\n        /* \"#utility.yul\":3817:3820   */\n      dup3\n        /* \"#utility.yul\":3814:3815   */\n      0x02\n        /* \"#utility.yul\":3810:3821   */\n      mul\n        /* \"#utility.yul\":3804:3808   */\n      dup3\n        /* \"#utility.yul\":3801:3822   */\n      or\n        /* \"#utility.yul\":3793:3822   */\n      swap1\n      pop\n        /* \"#utility.yul\":3533:3828   */\n      swap3\n      swap2\n      pop\n      pop\n      jump\t// out\n        /* \"#utility.yul\":3833:5228   */\n    tag_9:\n        /* \"#utility.yul\":3950:3987   */\n      tag_119\n        /* \"#utility.yul\":3983:3986   */\n      dup3\n        /* \"#utility.yul\":3950:3987   */\n      tag_37\n      jump\t// in\n    tag_119:\n        /* \"#utility.yul\":4052:4070   */\n      0xffffffffffffffff\n        /* \"#utility.yul\":4044:4050   */\n      dup2\n        /* \"#utility.yul\":4041:4071   */\n      gt\n        /* \"#utility.yul\":4038:4094   */\n      iszero\n      tag_120\n      jumpi\n        /* \"#utility.yul\":4074:4092   */\n      tag_121\n      tag_38\n      jump\t// in\n    tag_121:\n        /* \"#utility.yul\":4038:4094   */\n    tag_120:\n        /* \"#utility.yul\":4118:4156   */\n      tag_122\n        /* \"#utility.yul\":4150:4154   */\n      dup3\n        /* \"#utility.yul\":4144:4155   */\n      sload\n        /* \"#utility.yul\":4118:4156   */\n      tag_32\n      jump\t// in\n    tag_122:\n        /* \"#utility.yul\":4203:4270   */\n      tag_123\n        /* \"#utility.yul\":4263:4269   */\n      dup3\n        /* \"#utility.yul\":4255:4261   */\n      dup3\n        /* \"#utility.yul\":4249:4253   */\n      dup6\n        /* \"#utility.yul\":4203:4270   */\n      tag_52\n      jump\t// in\n    tag_123:\n        /* \"#utility.yul\":4297:4298   */\n      0x00\n        /* \"#utility.yul\":4321:4325   */\n      0x20\n        /* \"#utility.yul\":4308:4325   */\n      swap1\n      pop\n        /* \"#utility.yul\":4353:4355   */\n      0x1f\n        /* \"#utility.yul\":4345:4351   */\n      dup4\n        /* \"#utility.yul\":4342:4356   */\n      gt\n        /* \"#utility.yul\":4370:4371   */\n      0x01\n        /* \"#utility.yul\":4365:4983   */\n      dup2\n      eq\n      tag_125\n      jumpi\n        /* \"#utility.yul\":5027:5028   */\n      0x00\n        /* \"#utility.yul\":5044:5050   */\n      dup5\n        /* \"#utility.yul\":5041:5118   */\n      iszero\n      tag_126\n      jumpi\n        /* \"#utility.yul\":5093:5102   */\n      dup3\n        /* \"#utility.yul\":5088:5091   */\n      dup8\n        /* \"#utility.yul\":5084:5103   */\n      add\n        /* \"#utility.yul\":5078:5104   */\n      mload\n        /* \"#utility.yul\":5069:5104   */\n      swap1\n      pop\n        /* \"#utility.yul\":5041:5118   */\n    tag_126:\n        /* \"#utility.yul\":5144:5211   */\n      tag_127\n        /* \"#utility.yul\":5204:5210   */\n      dup6\n        /* \"#utility.yul\":5197:5202   */\n      dup3\n        /* \"#utility.yul\":5144:5211   */\n      tag_55\n      jump\t// in\n    tag_127:\n        /* \"#utility.yul\":5138:5142   */\n      dup7\n        /* \"#utility.yul\":5131:5212   */\n      sstore\n        /* \"#utility.yul\":5000:5222   */\n      pop\n        /* \"#utility.yul\":4335:5222   */\n      jump(tag_124)\n        /* \"#utility.yul\":4365:4983   */\n    tag_125:\n        /* \"#utility.yul\":4417:4421   */\n      0x1f\n        /* \"#utility.yul\":4413:4422   */\n      not\n        /* \"#utility.yul\":4405:4411   */\n      dup5\n        /* \"#utility.yul\":4401:4423   */\n      and\n        /* \"#utility.yul\":4451:4488   */\n      tag_128\n        /* \"#utility.yul\":4483:4487   */\n      dup7\n        /* \"#utility.yul\":4451:4488   */\n      tag_40\n      jump\t// in\n    tag_128:\n        /* \"#utility.yul\":4510:4511   */\n      0x00\n        /* \"#utility.yul\":4524:4732   */\n    tag_129:\n        /* \"#utility.yul\":4538:4545   */\n      dup3\n        /* \"#utility.yul\":4535:4536   */\n      dup2\n        /* \"#utility.yul\":4532:4546   */\n      lt\n        /* \"#utility.yul\":4524:4732   */\n      iszero\n      tag_131\n      jumpi\n        /* \"#utility.yul\":4617:4626   */\n      dup5\n        /* \"#utility.yul\":4612:4615   */\n      dup10\n        /* \"#utility.yul\":4608:4627   */\n      add\n        /* \"#utility.yul\":4602:4628   */\n      mload\n        /* \"#utility.yul\":4594:4600   */\n      dup3\n        /* \"#utility.yul\":4587:4629   */\n      sstore\n        /* \"#utility.yul\":4668:4669   */\n      0x01\n        /* \"#utility.yul\":4660:4666   */\n      dup3\n        /* \"#utility.yul\":4656:4670   */\n      add\n        /* \"#utility.yul\":4646:4670   */\n      swap2\n      pop\n        /* \"#utility.yul\":4715:4717   */\n      0x20\n        /* \"#utility.yul\":4704:4713   */\n      dup6\n        /* \"#utility.yul\":4700:4718   */\n      add\n        /* \"#utility.yul\":4687:4718   */\n      swap5\n      pop\n        /* \"#utility.yul\":4561:4565   */\n      0x20\n        /* \"#utility.yul\":4558:4559   */\n      dup2\n        /* \"#utility.yul\":4554:4566   */\n      add\n        /* \"#utility.yul\":4549:4566   */\n      swap1\n      pop\n        /* \"#utility.yul\":4524:4732   */\n      jump(tag_129)\n    tag_131:\n        /* \"#utility.yul\":4760:4766   */\n      dup7\n        /* \"#utility.yul\":4751:4758   */\n      dup4\n        /* \"#utility.yul\":4748:4767   */\n      lt\n        /* \"#utility.yul\":4745:4924   */\n      iszero\n      tag_132\n      jumpi\n        /* \"#utility.yul\":4818:4827   */\n      dup5\n        /* \"#utility.yul\":4813:4816   */\n      dup10\n        /* \"#utility.yul\":4809:4828   */\n      add\n        /* \"#utility.yul\":4803:4829   */\n      mload\n        /* \"#utility.yul\":4861:4909   */\n      tag_133\n        /* \"#utility.yul\":4903:4907   */\n      0x1f\n        /* \"#utility.yul\":4895:4901   */\n      dup10\n        /* \"#utility.yul\":4891:4908   */\n      and\n        /* \"#utility.yul\":4880:4889   */\n      dup3\n        /* \"#utility.yul\":4861:4909   */\n      tag_54\n      jump\t// in\n    tag_133:\n        /* \"#utility.yul\":4853:4859   */\n      dup4\n        /* \"#utility.yul\":4846:4910   */\n      sstore\n        /* \"#utility.yul\":4768:4924   */\n      pop\n        /* \"#utility.yul\":4745:4924   */\n    tag_132:\n        /* \"#utility.yul\":4970:4971   */\n      0x01\n        /* \"#utility.yul\":4966:4967   */\n      0x02\n        /* \"#utility.yul\":4958:4964   */\n      dup9\n        /* \"#utility.yul\":4954:4968   */\n      mul\n        /* \"#utility.yul\":4950:4972   */\n      add\n        /* \"#utility.yul\":4944:4948   */\n      dup9\n        /* \"#utility.yul\":4937:4973   */\n      sstore\n        /* \"#utility.yul\":4372:4983   */\n      pop\n      pop\n      pop\n        /* \"#utility.yul\":4335:5222   */\n    tag_124:\n      pop\n        /* \"#utility.yul\":3925:5228   */\n      pop\n      pop\n      pop\n        /* \"#utility.yul\":3833:5228   */\n      pop\n      pop\n      jump\t// out\n        /* \"#utility.yul\":5234:5352   */\n    tag_56:\n        /* \"#utility.yul\":5321:5345   */\n      tag_135\n        /* \"#utility.yul\":5339:5344   */\n      dup2\n        /* \"#utility.yul\":5321:5345   */\n      tag_44\n      jump\t// in\n    tag_135:\n        /* \"#utility.yul\":5316:5319   */\n      dup3\n        /* \"#utility.yul\":5309:5346   */\n      mstore\n        /* \"#utility.yul\":5234:5352   */\n      pop\n      pop\n      jump\t// out\n        /* \"#utility.yul\":5358:5580   */\n    tag_17:\n        /* \"#utility.yul\":5451:5455   */\n      0x00\n        /* \"#utility.yul\":5489:5491   */\n      0x20\n        /* \"#utility.yul\":5478:5487   */\n      dup3\n        /* \"#utility.yul\":5474:5492   */\n      add\n        /* \"#utility.yul\":5466:5492   */\n      swap1\n      pop\n        /* \"#utility.yul\":5502:5573   */\n      tag_137\n        /* \"#utility.yul\":5570:5571   */\n      0x00\n        /* \"#utility.yul\":5559:5568   */\n      dup4\n        /* \"#utility.yul\":5555:5572   */\n      add\n        /* \"#utility.yul\":5546:5552   */\n      dup5\n        /* \"#utility.yul\":5502:5573   */\n      tag_56\n      jump\t// in\n    tag_137:\n        /* \"#utility.yul\":5358:5580   */\n      swap3\n      swap2\n      pop\n      pop\n      jump\t// out\n        /* \"#utility.yul\":5586:5661   */\n    tag_57:\n        /* \"#utility.yul\":5619:5625   */\n      0x00\n        /* \"#utility.yul\":5652:5654   */\n      0x40\n        /* \"#utility.yul\":5646:5655   */\n      mload\n        /* \"#utility.yul\":5636:5655   */\n      swap1\n      pop\n        /* \"#utility.yul\":5586:5661   */\n      swap1\n      jump\t// out\n        /* \"#utility.yul\":5667:5784   */\n    tag_58:\n        /* \"#utility.yul\":5776:5777   */\n      0x00\n        /* \"#utility.yul\":5773:5774   */\n      dup1\n        /* \"#utility.yul\":5766:5778   */\n      revert\n        /* \"#utility.yul\":5790:5907   */\n    tag_59:\n        /* \"#utility.yul\":5899:5900   */\n      0x00\n        /* \"#utility.yul\":5896:5897   */\n      dup1\n        /* \"#utility.yul\":5889:5901   */\n      revert\n        /* \"#utility.yul\":5913:6030   */\n    tag_60:\n        /* \"#utility.yul\":6022:6023   */\n      0x00\n        /* \"#utility.yul\":6019:6020   */\n      dup1\n        /* \"#utility.yul\":6012:6024   */\n      revert\n        /* \"#utility.yul\":6036:6153   */\n    tag_61:\n        /* \"#utility.yul\":6145:6146   */\n      0x00\n        /* \"#utility.yul\":6142:6143   */\n      dup1\n        /* \"#utility.yul\":6135:6147   */\n      revert\n        /* \"#utility.yul\":6159:6261   */\n    tag_62:\n        /* \"#utility.yul\":6200:6206   */\n      0x00\n        /* \"#utility.yul\":6251:6253   */\n      0x1f\n        /* \"#utility.yul\":6247:6254   */\n      not\n        /* \"#utility.yul\":6242:6244   */\n      0x1f\n        /* \"#utility.yul\":6235:6240   */\n      dup4\n        /* \"#utility.yul\":6231:6245   */\n      add\n        /* \"#utility.yul\":6227:6255   */\n      and\n        /* \"#utility.yul\":6217:6255   */\n      swap1\n      pop\n        /* \"#utility.yul\":6159:6261   */\n      swap2\n      swap1\n      pop\n      jump\t// out\n        /* \"#utility.yul\":6267:6548   */\n    tag_63:\n        /* \"#utility.yul\":6350:6377   */\n      tag_145\n        /* \"#utility.yul\":6372:6376   */\n      dup3\n        /* \"#utility.yul\":6350:6377   */\n      tag_62\n      jump\t// in\n    tag_145:\n        /* \"#utility.yul\":6342:6348   */\n      dup2\n        /* \"#utility.yul\":6338:6378   */\n      add\n        /* \"#utility.yul\":6480:6486   */\n      dup2\n        /* \"#utility.yul\":6468:6478   */\n      dup2\n        /* \"#utility.yul\":6465:6487   */\n      lt\n        /* \"#utility.yul\":6444:6462   */\n      0xffffffffffffffff\n        /* \"#utility.yul\":6432:6442   */\n      dup3\n        /* \"#utility.yul\":6429:6463   */\n      gt\n        /* \"#utility.yul\":6426:6488   */\n      or\n        /* \"#utility.yul\":6423:6511   */\n      iszero\n      tag_146\n      jumpi\n        /* \"#utility.yul\":6491:6509   */\n      tag_147\n      tag_38\n      jump\t// in\n    tag_147:\n        /* \"#utility.yul\":6423:6511   */\n    tag_146:\n        /* \"#utility.yul\":6531:6541   */\n      dup1\n        /* \"#utility.yul\":6527:6529   */\n      0x40\n        /* \"#utility.yul\":6520:6542   */\n      mstore\n        /* \"#utility.yul\":6310:6548   */\n      pop\n        /* \"#utility.yul\":6267:6548   */\n      pop\n      pop\n      jump\t// out\n        /* \"#utility.yul\":6554:6683   */\n    tag_64:\n        /* \"#utility.yul\":6588:6594   */\n      0x00\n        /* \"#utility.yul\":6615:6635   */\n      tag_149\n      tag_57\n      jump\t// in\n    tag_149:\n        /* \"#utility.yul\":6605:6635   */\n      swap1\n      pop\n        /* \"#utility.yul\":6644:6677   */\n      tag_150\n        /* \"#utility.yul\":6672:6676   */\n      dup3\n        /* \"#utility.yul\":6664:6670   */\n      dup3\n        /* \"#utility.yul\":6644:6677   */\n      tag_63\n      jump\t// in\n    tag_150:\n        /* \"#utility.yul\":6554:6683   */\n      swap2\n      swap1\n      pop\n      jump\t// out\n        /* \"#utility.yul\":6689:6997   */\n    tag_65:\n        /* \"#utility.yul\":6751:6755   */\n      0x00\n        /* \"#utility.yul\":6841:6859   */\n      0xffffffffffffffff\n        /* \"#utility.yul\":6833:6839   */\n      dup3\n        /* \"#utility.yul\":6830:6860   */\n      gt\n        /* \"#utility.yul\":6827:6883   */\n      iszero\n      tag_152\n      jumpi\n        /* \"#utility.yul\":6863:6881   */\n      tag_153\n      tag_38\n      jump\t// in\n    tag_153:\n        /* \"#utility.yul\":6827:6883   */\n    tag_152:\n        /* \"#utility.yul\":6901:6930   */\n      tag_154\n        /* \"#utility.yul\":6923:6929   */\n      dup3\n        /* \"#utility.yul\":6901:6930   */\n      tag_62\n      jump\t// in\n    tag_154:\n        /* \"#utility.yul\":6893:6930   */\n      swap1\n      pop\n        /* \"#utility.yul\":6985:6989   */\n      0x20\n        /* \"#utility.yul\":6979:6983   */\n      dup2\n        /* \"#utility.yul\":6975:6990   */\n      add\n        /* \"#utility.yul\":6967:6990   */\n      swap1\n      pop\n        /* \"#utility.yul\":6689:6997   */\n      swap2\n      swap1\n      pop\n      jump\t// out\n        /* \"#utility.yul\":7003:7151   */\n    tag_66:\n        /* \"#utility.yul\":7101:7107   */\n      dup3\n        /* \"#utility.yul\":7096:7099   */\n      dup2\n        /* \"#utility.yul\":7091:7094   */\n      dup4\n        /* \"#utility.yul\":7078:7108   */\n      calldatacopy\n        /* \"#utility.yul\":7142:7143   */\n      0x00\n        /* \"#utility.yul\":7133:7139   */\n      dup4\n        /* \"#utility.yul\":7128:7131   */\n      dup4\n        /* \"#utility.yul\":7124:7140   */\n      add\n        /* \"#utility.yul\":7117:7144   */\n      mstore\n        /* \"#utility.yul\":7003:7151   */\n      pop\n      pop\n      pop\n      jump\t// out\n        /* \"#utility.yul\":7157:7582   */\n    tag_67:\n        /* \"#utility.yul\":7235:7240   */\n      0x00\n        /* \"#utility.yul\":7260:7326   */\n      tag_157\n        /* \"#utility.yul\":7276:7325   */\n      tag_158\n        /* \"#utility.yul\":7318:7324   */\n      dup5\n        /* \"#utility.yul\":7276:7325   */\n      tag_65\n      jump\t// in\n    tag_158:\n        /* \"#utility.yul\":7260:7326   */\n      tag_64\n      jump\t// in\n    tag_157:\n        /* \"#utility.yul\":7251:7326   */\n      swap1\n      pop\n        /* \"#utility.yul\":7349:7355   */\n      dup3\n        /* \"#utility.yul\":7342:7347   */\n      dup2\n        /* \"#utility.yul\":7335:7356   */\n      mstore\n        /* \"#utility.yul\":7387:7391   */\n      0x20\n        /* \"#utility.yul\":7380:7385   */\n      dup2\n        /* \"#utility.yul\":7376:7392   */\n      add\n        /* \"#utility.yul\":7425:7428   */\n      dup5\n        /* \"#utility.yul\":7416:7422   */\n      dup5\n        /* \"#utility.yul\":7411:7414   */\n      dup5\n        /* \"#utility.yul\":7407:7423   */\n      add\n        /* \"#utility.yul\":7404:7429   */\n      gt\n        /* \"#utility.yul\":7401:7513   */\n      iszero\n      tag_159\n      jumpi\n        /* \"#utility.yul\":7432:7511   */\n      tag_160\n      tag_61\n      jump\t// in\n    tag_160:\n        /* \"#utility.yul\":7401:7513   */\n    tag_159:\n        /* \"#utility.yul\":7522:7576   */\n      tag_161\n        /* \"#utility.yul\":7569:7575   */\n      dup5\n        /* \"#utility.yul\":7564:7567   */\n      dup3\n        /* \"#utility.yul\":7559:7562   */\n      dup6\n        /* \"#utility.yul\":7522:7576   */\n      tag_66\n      jump\t// in\n    tag_161:\n        /* \"#utility.yul\":7241:7582   */\n      pop\n        /* \"#utility.yul\":7157:7582   */\n      swap4\n      swap3\n      pop\n      pop\n      pop\n      jump\t// out\n        /* \"#utility.yul\":7602:7942   */\n    tag_68:\n        /* \"#utility.yul\":7658:7663   */\n      0x00\n        /* \"#utility.yul\":7707:7710   */\n      dup3\n        /* \"#utility.yul\":7700:7704   */\n      0x1f\n        /* \"#utility.yul\":7692:7698   */\n      dup4\n        /* \"#utility.yul\":7688:7705   */\n      add\n        /* \"#utility.yul\":7684:7711   */\n      slt\n        /* \"#utility.yul\":7674:7796   */\n      tag_163\n      jumpi\n        /* \"#utility.yul\":7715:7794   */\n      tag_164\n      tag_60\n      jump\t// in\n    tag_164:\n        /* \"#utility.yul\":7674:7796   */\n    tag_163:\n        /* \"#utility.yul\":7832:7838   */\n      dup2\n        /* \"#utility.yul\":7819:7839   */\n      calldataload\n        /* \"#utility.yul\":7857:7936   */\n      tag_165\n        /* \"#utility.yul\":7932:7935   */\n      dup5\n        /* \"#utility.yul\":7924:7930   */\n      dup3\n        /* \"#utility.yul\":7917:7921   */\n      0x20\n        /* \"#utility.yul\":7909:7915   */\n      dup7\n        /* \"#utility.yul\":7905:7922   */\n      add\n        /* \"#utility.yul\":7857:7936   */\n      tag_67\n      jump\t// in\n    tag_165:\n        /* \"#utility.yul\":7848:7936   */\n      swap2\n      pop\n        /* \"#utility.yul\":7664:7942   */\n      pop\n        /* \"#utility.yul\":7602:7942   */\n      swap3\n      swap2\n      pop\n      pop\n      jump\t// out\n        /* \"#utility.yul\":7948:8457   */\n    tag_21:\n        /* \"#utility.yul\":8017:8023   */\n      0x00\n        /* \"#utility.yul\":8066:8068   */\n      0x20\n        /* \"#utility.yul\":8054:8063   */\n      dup3\n        /* \"#utility.yul\":8045:8052   */\n      dup5\n        /* \"#utility.yul\":8041:8064   */\n      sub\n        /* \"#utility.yul\":8037:8069   */\n      slt\n        /* \"#utility.yul\":8034:8153   */\n      iszero\n      tag_167\n      jumpi\n        /* \"#utility.yul\":8072:8151   */\n      tag_168\n      tag_58\n      jump\t// in\n    tag_168:\n        /* \"#utility.yul\":8034:8153   */\n    tag_167:\n        /* \"#utility.yul\":8220:8221   */\n      0x00\n        /* \"#utility.yul\":8209:8218   */\n      dup3\n        /* \"#utility.yul\":8205:8222   */\n      add\n        /* \"#utility.yul\":8192:8223   */\n      calldataload\n        /* \"#utility.yul\":8250:8268   */\n      0xffffffffffffffff\n        /* \"#utility.yul\":8242:8248   */\n      dup2\n        /* \"#utility.yul\":8239:8269   */\n      gt\n        /* \"#utility.yul\":8236:8353   */\n      iszero\n      tag_169\n      jumpi\n        /* \"#utility.yul\":8272:8351   */\n      tag_170\n      tag_59\n      jump\t// in\n    tag_170:\n        /* \"#utility.yul\":8236:8353   */\n    tag_169:\n        /* \"#utility.yul\":8377:8440   */\n      tag_171\n        /* \"#utility.yul\":8432:8439   */\n      dup5\n        /* \"#utility.yul\":8423:8429   */\n      dup3\n        /* \"#utility.yul\":8412:8421   */\n      dup6\n        /* \"#utility.yul\":8408:8430   */\n      add\n        /* \"#utility.yul\":8377:8440   */\n      tag_68\n      jump\t// in\n    tag_171:\n        /* \"#utility.yul\":8367:8440   */\n      swap2\n      pop\n        /* \"#utility.yul\":8163:8450   */\n      pop\n        /* \"#utility.yul\":7948:8457   */\n      swap3\n      swap2\n      pop\n      pop\n      jump\t// out\n        /* \"#utility.yul\":8463:8632   */\n    tag_69:\n        /* \"#utility.yul\":8547:8558   */\n      0x00\n        /* \"#utility.yul\":8581:8587   */\n      dup3\n        /* \"#utility.yul\":8576:8579   */\n      dup3\n        /* \"#utility.yul\":8569:8588   */\n      mstore\n        /* \"#utility.yul\":8621:8625   */\n      0x20\n        /* \"#utility.yul\":8616:8619   */\n      dup3\n        /* \"#utility.yul\":8612:8626   */\n      add\n        /* \"#utility.yul\":8597:8626   */\n      swap1\n      pop\n        /* \"#utility.yul\":8463:8632   */\n      swap3\n      swap2\n      pop\n      pop\n      jump\t// out\n        /* \"#utility.yul\":8638:8777   */\n    tag_70:\n        /* \"#utility.yul\":8727:8733   */\n      dup3\n        /* \"#utility.yul\":8722:8725   */\n      dup2\n        /* \"#utility.yul\":8717:8720   */\n      dup4\n        /* \"#utility.yul\":8711:8734   */\n      mcopy\n        /* \"#utility.yul\":8768:8769   */\n      0x00\n        /* \"#utility.yul\":8759:8765   */\n      dup4\n        /* \"#utility.yul\":8754:8757   */\n      dup4\n        /* \"#utility.yul\":8750:8766   */\n      add\n        /* \"#utility.yul\":8743:8770   */\n      mstore\n        /* \"#utility.yul\":8638:8777   */\n      pop\n      pop\n      pop\n      jump\t// out\n        /* \"#utility.yul\":8783:9160   */\n    tag_71:\n        /* \"#utility.yul\":8871:8874   */\n      0x00\n        /* \"#utility.yul\":8899:8938   */\n      tag_175\n        /* \"#utility.yul\":8932:8937   */\n      dup3\n        /* \"#utility.yul\":8899:8938   */\n      tag_37\n      jump\t// in\n    tag_175:\n        /* \"#utility.yul\":8954:9025   */\n      tag_176\n        /* \"#utility.yul\":9018:9024   */\n      dup2\n        /* \"#utility.yul\":9013:9016   */\n      dup6\n        /* \"#utility.yul\":8954:9025   */\n      tag_69\n      jump\t// in\n    tag_176:\n        /* \"#utility.yul\":8947:9025   */\n      swap4\n      pop\n        /* \"#utility.yul\":9034:9099   */\n      tag_177\n        /* \"#utility.yul\":9092:9098   */\n      dup2\n        /* \"#utility.yul\":9087:9090   */\n      dup6\n        /* \"#utility.yul\":9080:9084   */\n      0x20\n        /* \"#utility.yul\":9073:9078   */\n      dup7\n        /* \"#utility.yul\":9069:9085   */\n      add\n        /* \"#utility.yul\":9034:9099   */\n      tag_70\n      jump\t// in\n    tag_177:\n        /* \"#utility.yul\":9124:9153   */\n      tag_178\n        /* \"#utility.yul\":9146:9152   */\n      dup2\n        /* \"#utility.yul\":9124:9153   */\n      tag_62\n      jump\t// in\n    tag_178:\n        /* \"#utility.yul\":9119:9122   */\n      dup5\n        /* \"#utility.yul\":9115:9154   */\n      add\n        /* \"#utility.yul\":9108:9154   */\n      swap2\n      pop\n        /* \"#utility.yul\":8875:9160   */\n      pop\n        /* \"#utility.yul\":8783:9160   */\n      swap3\n      swap2\n      pop\n      pop\n      jump\t// out\n        /* \"#utility.yul\":9166:9479   */\n    tag_27:\n        /* \"#utility.yul\":9279:9283   */\n      0x00\n        /* \"#utility.yul\":9317:9319   */\n      0x20\n        /* \"#utility.yul\":9306:9315   */\n      dup3\n        /* \"#utility.yul\":9302:9320   */\n      add\n        /* \"#utility.yul\":9294:9320   */\n      swap1\n      pop\n        /* \"#utility.yul\":9366:9375   */\n      dup2\n        /* \"#utility.yul\":9360:9364   */\n      dup2\n        /* \"#utility.yul\":9356:9376   */\n      sub\n        /* \"#utility.yul\":9352:9353   */\n      0x00\n        /* \"#utility.yul\":9341:9350   */\n      dup4\n        /* \"#utility.yul\":9337:9354   */\n      add\n        /* \"#utility.yul\":9330:9377   */\n      mstore\n        /* \"#utility.yul\":9394:9472   */\n      tag_180\n        /* \"#utility.yul\":9467:9471   */\n      dup2\n        /* \"#utility.yul\":9458:9464   */\n      dup5\n        /* \"#utility.yul\":9394:9472   */\n      tag_71\n      jump\t// in\n    tag_180:\n        /* \"#utility.yul\":9386:9472   */\n      swap1\n      pop\n        /* \"#utility.yul\":9166:9479   */\n      swap3\n      swap2\n      pop\n      pop\n      jump\t// out\n\n    auxdata: 0xa2646970667358221220ab2a3d2ab39d4e115a2082d351c8b50dcc37956014d0cb3e95a162f5262ce62e64736f6c634300081a0033\n}\n",
				"bytecode": {
					"linkReferences": {},
					"object": "6080604052348015600e575f80fd5b5061072a8061001c5f395ff3fe608060405260043610610037575f3560e01c806312065fe0146100c6578063c4784fd4146100f0578063e21f37ce1461011857610081565b36610081576040518060400160405280600e81526020017f726563656976652063616c6c65640000000000000000000000000000000000008152505f908161007f9190610420565b005b6040518060400160405280600f81526020017f66616c6c6261636b2063616c6c656400000000000000000000000000000000008152505f90816100c49190610420565b005b3480156100d1575f80fd5b506100da610142565b6040516100e791906104fe565b60405180910390f35b3480156100fb575f80fd5b5061011660048036038101906101119190610637565b610149565b005b348015610123575f80fd5b5061012c61015b565b60405161013991906106d4565b60405180910390f35b5f47905090565b805f90816101579190610420565b5050565b5f80546101679061024a565b80601f01602080910402602001604051908101604052809291908181526020018280546101939061024a565b80156101de5780601f106101b5576101008083540402835291602001916101de565b820191905f5260205f20905b8154815290600101906020018083116101c157829003601f168201915b505050505081565b5f81519050919050565b7f4e487b71000000000000000000000000000000000000000000000000000000005f52604160045260245ffd5b7f4e487b71000000000000000000000000000000000000000000000000000000005f52602260045260245ffd5b5f600282049050600182168061026157607f821691505b6020821081036102745761027361021d565b5b50919050565b5f819050815f5260205f209050919050565b5f6020601f8301049050919050565b5f82821b905092915050565b5f600883026102d67fffffffffffffffffffffffffffffffffffffffffffffffffffffffffffffffff8261029b565b6102e0868361029b565b95508019841693508086168417925050509392505050565b5f819050919050565b5f819050919050565b5f61032461031f61031a846102f8565b610301565b6102f8565b9050919050565b5f819050919050565b61033d8361030a565b6103516103498261032b565b8484546102a7565b825550505050565b5f90565b610365610359565b610370818484610334565b505050565b5b81811015610393576103885f8261035d565b600181019050610376565b5050565b601f8211156103d8576103a98161027a565b6103b28461028c565b810160208510156103c1578190505b6103d56103cd8561028c565b830182610375565b50505b505050565b5f82821c905092915050565b5f6103f85f19846008026103dd565b1980831691505092915050565b5f61041083836103e9565b9150826002028217905092915050565b610429826101e6565b67ffffffffffffffff811115610442576104416101f0565b5b61044c825461024a565b610457828285610397565b5f60209050601f831160018114610488575f8415610476578287015190505b6104808582610405565b8655506104e7565b601f1984166104968661027a565b5f5b828110156104bd57848901518255600182019150602085019450602081019050610498565b868310156104da57848901516104d6601f8916826103e9565b8355505b6001600288020188555050505b505050505050565b6104f8816102f8565b82525050565b5f6020820190506105115f8301846104ef565b92915050565b5f604051905090565b5f80fd5b5f80fd5b5f80fd5b5f80fd5b5f601f19601f8301169050919050565b61054982610530565b810181811067ffffffffffffffff82111715610568576105676101f0565b5b80604052505050565b5f61057a610517565b90506105868282610540565b919050565b5f67ffffffffffffffff8211156105a5576105a46101f0565b5b6105ae82610530565b9050602081019050919050565b828183375f83830152505050565b5f6105db6105d68461058b565b610571565b9050828152602081018484840111156105f7576105f661052c565b5b6106028482856105bb565b509392505050565b5f82601f83011261061e5761061d610528565b5b813561062e8482602086016105c9565b91505092915050565b5f6020828403121561064c5761064b610520565b5b5f82013567ffffffffffffffff81111561066957610668610524565b5b6106758482850161060a565b91505092915050565b5f82825260208201905092915050565b8281835e5f83830152505050565b5f6106a6826101e6565b6106b0818561067e565b93506106c081856020860161068e565b6106c981610530565b840191505092915050565b5f6020820190508181035f8301526106ec818461069c565b90509291505056fea2646970667358221220ab2a3d2ab39d4e115a2082d351c8b50dcc37956014d0cb3e95a162f5262ce62e64736f6c634300081a0033",
					"opcodes": "PUSH1 0x80 PUSH1 0x40 MSTORE CALLVALUE DUP1 ISZERO PUSH1 0xE JUMPI PUSH0 DUP1 REVERT JUMPDEST POP PUSH2 0x72A DUP1 PUSH2 0x1C PUSH0 CODECOPY PUSH0 RETURN INVALID PUSH1 0x80 PUSH1 0x40 MSTORE PUSH1 0x4 CALLDATASIZE LT PUSH2 0x37 JUMPI PUSH0 CALLDATALOAD PUSH1 0xE0 SHR DUP1 PUSH4 0x12065FE0 EQ PUSH2 0xC6 JUMPI DUP1 PUSH4 0xC4784FD4 EQ PUSH2 0xF0 JUMPI DUP1 PUSH4 0xE21F37CE EQ PUSH2 0x118 JUMPI PUSH2 0x81 JUMP JUMPDEST CALLDATASIZE PUSH2 0x81 JUMPI PUSH1 0x40 MLOAD DUP1 PUSH1 0x40 ADD PUSH1 0x40 MSTORE DUP1 PUSH1 0xE DUP2 MSTORE PUSH1 0x20 ADD PUSH32 0x726563656976652063616C6C6564000000000000000000000000000000000000 DUP2 MSTORE POP PUSH0 SWAP1 DUP2 PUSH2 0x7F SWAP2 SWAP1 PUSH2 0x420 JUMP JUMPDEST STOP JUMPDEST PUSH1 0x40 MLOAD DUP1 PUSH1 0x40 ADD PUSH1 0x40 MSTORE DUP1 PUSH1 0xF DUP2 MSTORE PUSH1 0x20 ADD PUSH32 0x66616C6C6261636B2063616C6C65640000000000000000000000000000000000 DUP2 MSTORE POP PUSH0 SWAP1 DUP2 PUSH2 0xC4 SWAP2 SWAP1 PUSH2 0x420 JUMP JUMPDEST STOP JUMPDEST CALLVALUE DUP1 ISZERO PUSH2 0xD1 JUMPI PUSH0 DUP1 REVERT JUMPDEST POP PUSH2 0xDA PUSH2 0x142 JUMP JUMPDEST PUSH1 0x40 MLOAD PUSH2 0xE7 SWAP2 SWAP1 PUSH2 0x4FE JUMP JUMPDEST PUSH1 0x40 MLOAD DUP1 SWAP2 SUB SWAP1 RETURN JUMPDEST CALLVALUE DUP1 ISZERO PUSH2 0xFB JUMPI PUSH0 DUP1 REVERT JUMPDEST POP PUSH2 0x116 PUSH1 0x4 DUP1 CALLDATASIZE SUB DUP2 ADD SWAP1 PUSH2 0x111 SWAP2 SWAP1 PUSH2 0x637 JUMP JUMPDEST PUSH2 0x149 JUMP JUMPDEST STOP JUMPDEST CALLVALUE DUP1 ISZERO PUSH2 0x123 JUMPI PUSH0 DUP1 REVERT JUMPDEST POP PUSH2 0x12C PUSH2 0x15B JUMP JUMPDEST PUSH1 0x40 MLOAD PUSH2 0x139 SWAP2 SWAP1 PUSH2 0x6D4 JUMP JUMPDEST PUSH1 0x40 MLOAD DUP1 SWAP2 SUB SWAP1 RETURN JUMPDEST PUSH0 SELFBALANCE SWAP1 POP SWAP1 JUMP JUMPDEST DUP1 PUSH0 SWAP1 DUP2 PUSH2 0x157 SWAP2 SWAP1 PUSH2 0x420 JUMP JUMPDEST POP POP JUMP JUMPDEST PUSH0 DUP1 SLOAD PUSH2 0x167 SWAP1 PUSH2 0x24A JUMP JUMPDEST DUP1 PUSH1 0x1F ADD PUSH1 0x20 DUP1 SWAP2 DIV MUL PUSH1 0x20 ADD PUSH1 0x40 MLOAD SWAP1 DUP2 ADD PUSH1 0x40 MSTORE DUP1 SWAP3 SWAP2 SWAP1 DUP2 DUP2 MSTORE PUSH1 0x20 ADD DUP3 DUP1 SLOAD PUSH2 0x193 SWAP1 PUSH2 0x24A JUMP JUMPDEST DUP1 ISZERO PUSH2 0x1DE JUMPI DUP1 PUSH1 0x1F LT PUSH2 0x1B5 JUMPI PUSH2 0x100 DUP1 DUP4 SLOAD DIV MUL DUP4 MSTORE SWAP2 PUSH1 0x20 ADD SWAP2 PUSH2 0x1DE JUMP JUMPDEST DUP3 ADD SWAP2 SWAP1 PUSH0 MSTORE PUSH1 0x20 PUSH0 KECCAK256 SWAP1 JUMPDEST DUP2 SLOAD DUP2 MSTORE SWAP1 PUSH1 0x1 ADD SWAP1 PUSH1 0x20 ADD DUP1 DUP4 GT PUSH2 0x1C1 JUMPI DUP3 SWAP1 SUB PUSH1 0x1F AND DUP3 ADD SWAP2 JUMPDEST POP POP POP POP POP DUP2 JUMP JUMPDEST PUSH0 DUP2 MLOAD SWAP1 POP SWAP2 SWAP1 POP JUMP JUMPDEST PUSH32 0x4E487B7100000000000000000000000000000000000000000000000000000000 PUSH0 MSTORE PUSH1 0x41 PUSH1 0x4 MSTORE PUSH1 0x24 PUSH0 REVERT JUMPDEST PUSH32 0x4E487B7100000000000000000000000000000000000000000000000000000000 PUSH0 MSTORE PUSH1 0x22 PUSH1 0x4 MSTORE PUSH1 0x24 PUSH0 REVERT JUMPDEST PUSH0 PUSH1 0x2 DUP3 DIV SWAP1 POP PUSH1 0x1 DUP3 AND DUP1 PUSH2 0x261 JUMPI PUSH1 0x7F DUP3 AND SWAP2 POP JUMPDEST PUSH1 0x20 DUP3 LT DUP2 SUB PUSH2 0x274 JUMPI PUSH2 0x273 PUSH2 0x21D JUMP JUMPDEST JUMPDEST POP SWAP2 SWAP1 POP JUMP JUMPDEST PUSH0 DUP2 SWAP1 POP DUP2 PUSH0 MSTORE PUSH1 0x20 PUSH0 KECCAK256 SWAP1 POP SWAP2 SWAP1 POP JUMP JUMPDEST PUSH0 PUSH1 0x20 PUSH1 0x1F DUP4 ADD DIV SWAP1 POP SWAP2 SWAP1 POP JUMP JUMPDEST PUSH0 DUP3 DUP3 SHL SWAP1 POP SWAP3 SWAP2 POP POP JUMP JUMPDEST PUSH0 PUSH1 0x8 DUP4 MUL PUSH2 0x2D6 PUSH32 0xFFFFFFFFFFFFFFFFFFFFFFFFFFFFFFFFFFFFFFFFFFFFFFFFFFFFFFFFFFFFFFFF DUP3 PUSH2 0x29B JUMP JUMPDEST PUSH2 0x2E0 DUP7 DUP4 PUSH2 0x29B JUMP JUMPDEST SWAP6 POP DUP1 NOT DUP5 AND SWAP4 POP DUP1 DUP7 AND DUP5 OR SWAP3 POP POP POP SWAP4 SWAP3 POP POP POP JUMP JUMPDEST PUSH0 DUP2 SWAP1 POP SWAP2 SWAP1 POP JUMP JUMPDEST PUSH0 DUP2 SWAP1 POP SWAP2 SWAP1 POP JUMP JUMPDEST PUSH0 PUSH2 0x324 PUSH2 0x31F PUSH2 0x31A DUP5 PUSH2 0x2F8 JUMP JUMPDEST PUSH2 0x301 JUMP JUMPDEST PUSH2 0x2F8 JUMP JUMPDEST SWAP1 POP SWAP2 SWAP1 POP JUMP JUMPDEST PUSH0 DUP2 SWAP1 POP SWAP2 SWAP1 POP JUMP JUMPDEST PUSH2 0x33D DUP4 PUSH2 0x30A JUMP JUMPDEST PUSH2 0x351 PUSH2 0x349 DUP3 PUSH2 0x32B JUMP JUMPDEST DUP5 DUP5 SLOAD PUSH2 0x2A7 JUMP JUMPDEST DUP3 SSTORE POP POP POP POP JUMP JUMPDEST PUSH0 SWAP1 JUMP JUMPDEST PUSH2 0x365 PUSH2 0x359 JUMP JUMPDEST PUSH2 0x370 DUP2 DUP5 DUP5 PUSH2 0x334 JUMP JUMPDEST POP POP POP JUMP JUMPDEST JUMPDEST DUP2 DUP2 LT ISZERO PUSH2 0x393 JUMPI PUSH2 0x388 PUSH0 DUP3 PUSH2 0x35D JUMP JUMPDEST PUSH1 0x1 DUP2 ADD SWAP1 POP PUSH2 0x376 JUMP JUMPDEST POP POP JUMP JUMPDEST PUSH1 0x1F DUP3 GT ISZERO PUSH2 0x3D8 JUMPI PUSH2 0x3A9 DUP2 PUSH2 0x27A JUMP JUMPDEST PUSH2 0x3B2 DUP5 PUSH2 0x28C JUMP JUMPDEST DUP2 ADD PUSH1 0x20 DUP6 LT ISZERO PUSH2 0x3C1 JUMPI DUP2 SWAP1 POP JUMPDEST PUSH2 0x3D5 PUSH2 0x3CD DUP6 PUSH2 0x28C JUMP JUMPDEST DUP4 ADD DUP3 PUSH2 0x375 JUMP JUMPDEST POP POP JUMPDEST POP POP POP JUMP JUMPDEST PUSH0 DUP3 DUP3 SHR SWAP1 POP SWAP3 SWAP2 POP POP JUMP JUMPDEST PUSH0 PUSH2 0x3F8 PUSH0 NOT DUP5 PUSH1 0x8 MUL PUSH2 0x3DD JUMP JUMPDEST NOT DUP1 DUP4 AND SWAP2 POP POP SWAP3 SWAP2 POP POP JUMP JUMPDEST PUSH0 PUSH2 0x410 DUP4 DUP4 PUSH2 0x3E9 JUMP JUMPDEST SWAP2 POP DUP3 PUSH1 0x2 MUL DUP3 OR SWAP1 POP SWAP3 SWAP2 POP POP JUMP JUMPDEST PUSH2 0x429 DUP3 PUSH2 0x1E6 JUMP JUMPDEST PUSH8 0xFFFFFFFFFFFFFFFF DUP2 GT ISZERO PUSH2 0x442 JUMPI PUSH2 0x441 PUSH2 0x1F0 JUMP JUMPDEST JUMPDEST PUSH2 0x44C DUP3 SLOAD PUSH2 0x24A JUMP JUMPDEST PUSH2 0x457 DUP3 DUP3 DUP6 PUSH2 0x397 JUMP JUMPDEST PUSH0 PUSH1 0x20 SWAP1 POP PUSH1 0x1F DUP4 GT PUSH1 0x1 DUP2 EQ PUSH2 0x488 JUMPI PUSH0 DUP5 ISZERO PUSH2 0x476 JUMPI DUP3 DUP8 ADD MLOAD SWAP1 POP JUMPDEST PUSH2 0x480 DUP6 DUP3 PUSH2 0x405 JUMP JUMPDEST DUP7 SSTORE POP PUSH2 0x4E7 JUMP JUMPDEST PUSH1 0x1F NOT DUP5 AND PUSH2 0x496 DUP7 PUSH2 0x27A JUMP JUMPDEST PUSH0 JUMPDEST DUP3 DUP2 LT ISZERO PUSH2 0x4BD JUMPI DUP5 DUP10 ADD MLOAD DUP3 SSTORE PUSH1 0x1 DUP3 ADD SWAP2 POP PUSH1 0x20 DUP6 ADD SWAP5 POP PUSH1 0x20 DUP2 ADD SWAP1 POP PUSH2 0x498 JUMP JUMPDEST DUP7 DUP4 LT ISZERO PUSH2 0x4DA JUMPI DUP5 DUP10 ADD MLOAD PUSH2 0x4D6 PUSH1 0x1F DUP10 AND DUP3 PUSH2 0x3E9 JUMP JUMPDEST DUP4 SSTORE POP JUMPDEST PUSH1 0x1 PUSH1 0x2 DUP9 MUL ADD DUP9 SSTORE POP POP POP JUMPDEST POP POP POP POP POP POP JUMP JUMPDEST PUSH2 0x4F8 DUP2 PUSH2 0x2F8 JUMP JUMPDEST DUP3 MSTORE POP POP JUMP JUMPDEST PUSH0 PUSH1 0x20 DUP3 ADD SWAP1 POP PUSH2 0x511 PUSH0 DUP4 ADD DUP5 PUSH2 0x4EF JUMP JUMPDEST SWAP3 SWAP2 POP POP JUMP JUMPDEST PUSH0 PUSH1 0x40 MLOAD SWAP1 POP SWAP1 JUMP JUMPDEST PUSH0 DUP1 REVERT JUMPDEST PUSH0 DUP1 REVERT JUMPDEST PUSH0 DUP1 REVERT JUMPDEST PUSH0 DUP1 REVERT JUMPDEST PUSH0 PUSH1 0x1F NOT PUSH1 0x1F DUP4 ADD AND SWAP1 POP SWAP2 SWAP1 POP JUMP JUMPDEST PUSH2 0x549 DUP3 PUSH2 0x530 JUMP JUMPDEST DUP2 ADD DUP2 DUP2 LT PUSH8 0xFFFFFFFFFFFFFFFF DUP3 GT OR ISZERO PUSH2 0x568 JUMPI PUSH2 0x567 PUSH2 0x1F0 JUMP JUMPDEST JUMPDEST DUP1 PUSH1 0x40 MSTORE POP POP POP JUMP JUMPDEST PUSH0 PUSH2 0x57A PUSH2 0x517 JUMP JUMPDEST SWAP1 POP PUSH2 0x586 DUP3 DUP3 PUSH2 0x540 JUMP JUMPDEST SWAP2 SWAP1 POP JUMP JUMPDEST PUSH0 PUSH8 0xFFFFFFFFFFFFFFFF DUP3 GT ISZERO PUSH2 0x5A5 JUMPI PUSH2 0x5A4 PUSH2 0x1F0 JUMP JUMPDEST JUMPDEST PUSH2 0x5AE DUP3 PUSH2 0x530 JUMP JUMPDEST SWAP1 POP PUSH1 0x20 DUP2 ADD SWAP1 POP SWAP2 SWAP1 POP JUMP JUMPDEST DUP3 DUP2 DUP4 CALLDATACOPY PUSH0 DUP4 DUP4 ADD MSTORE POP POP POP JUMP JUMPDEST PUSH0 PUSH2 0x5DB PUSH2 0x5D6 DUP5 PUSH2 0x58B JUMP JUMPDEST PUSH2 0x571 JUMP JUMPDEST SWAP1 POP DUP3 DUP2 MSTORE PUSH1 0x20 DUP2 ADD DUP5 DUP5 DUP5 ADD GT ISZERO PUSH2 0x5F7 JUMPI PUSH2 0x5F6 PUSH2 0x52C JUMP JUMPDEST JUMPDEST PUSH2 0x602 DUP5 DUP3 DUP6 PUSH2 0x5BB JUMP JUMPDEST POP SWAP4 SWAP3 POP POP POP JUMP JUMPDEST PUSH0 DUP3 PUSH1 0x1F DUP4 ADD SLT PUSH2 0x61E JUMPI PUSH2 0x61D PUSH2 0x528 JUMP JUMPDEST JUMPDEST DUP2 CALLDATALOAD PUSH2 0x62E DUP5 DUP3 PUSH1 0x20 DUP7 ADD PUSH2 0x5C9 JUMP JUMPDEST SWAP2 POP POP SWAP3 SWAP2 POP POP JUMP JUMPDEST PUSH0 PUSH1 0x20 DUP3 DUP5 SUB SLT ISZERO PUSH2 0x64C JUMPI PUSH2 0x64B PUSH2 0x520 JUMP JUMPDEST JUMPDEST PUSH0 DUP3 ADD CALLDATALOAD PUSH8 0xFFFFFFFFFFFFFFFF DUP2 GT ISZERO PUSH2 0x669 JUMPI PUSH2 0x668 PUSH2 0x524 JUMP JUMPDEST JUMPDEST PUSH2 0x675 DUP5 DUP3 DUP6 ADD PUSH2 0x60A JUMP JUMPDEST SWAP2 POP POP SWAP3 SWAP2 POP POP JUMP JUMPDEST PUSH0 DUP3 DUP3 MSTORE PUSH1 0x20 DUP3 ADD SWAP1 POP SWAP3 SWAP2 POP POP JUMP JUMPDEST DUP3 DUP2 DUP4 MCOPY PUSH0 DUP4 DUP4 ADD MSTORE POP POP POP JUMP JUMPDEST PUSH0 PUSH2 0x6A6 DUP3 PUSH2 0x1E6 JUMP JUMPDEST PUSH2 0x6B0 DUP2 DUP6 PUSH2 0x67E JUMP JUMPDEST SWAP4 POP PUSH2 0x6C0 DUP2 DUP6 PUSH1 0x20 DUP7 ADD PUSH2 0x68E JUMP JUMPDEST PUSH2 0x6C9 DUP2 PUSH2 0x530 JUMP JUMPDEST DUP5 ADD SWAP2 POP POP SWAP3 SWAP2 POP POP JUMP JUMPDEST PUSH0 PUSH1 0x20 DUP3 ADD SWAP1 POP DUP2 DUP2 SUB PUSH0 DUP4 ADD MSTORE PUSH2 0x6EC DUP2 DUP5 PUSH2 0x69C JUMP JUMPDEST SWAP1 POP SWAP3 SWAP2 POP POP JUMP INVALID LOG2 PUSH5 0x6970667358 0x22 SLT KECCAK256 0xAB 0x2A RETURNDATASIZE 0x2A 0xB3 SWAP14 0x4E GT GAS KECCAK256 DUP3 0xD3 MLOAD 0xC8 0xB5 0xD 0xCC CALLDATACOPY SWAP6 PUSH1 0x14 0xD0 0xCB RETURNDATACOPY SWAP6 LOG1 PUSH3 0xF5262C 0xE6 0x2E PUSH5 0x736F6C6343 STOP ADDMOD BYTE STOP CALLER "
				},
				"gasEstimates": {
					"creation": {
						"codeDepositCost": "366800",
						"executionCost": "403",
						"totalCost": "367203"
					},
					"external": {
						"": "infinite",
						"getBalance()": "312",
						"message()": "infinite",
						"setMsg(string)": "infinite"
					}
				},
				"methodIdentifiers": {
					"getBalance()": "12065fe0",
					"message()": "e21f37ce",
					"setMsg(string)": "c4784fd4"
				}
			},
			"storageLayout": {
				"storage": [
					{
						"astId": 3,
						"contract": "practise/dukedaily/day03/08send_ether.sol:ReceiveEther",
						"label": "message",
						"offset": 0,
						"slot": "0",
						"type": "t_string_storage"
					}
				],
				"types": {
					"t_string_storage": {
						"encoding": "bytes",
						"label": "string",
						"numberOfBytes": "32"
					}
				}
			},
			"userdoc": {
				"kind": "user",
				"methods": {},
				"version": 1
			}
		}
	}
}