{
	"practise/dukedaily/day03/05call_staticcall.sol": {
		"Receiver": {
			"abi": [
				{
					"anonymous": false,
					"inputs": [
						{
							"indexed": false,
							"internalType": "address",
							"name": "caller",
							"type": "address"
						},
						{
							"indexed": false,
							"internalType": "uint256",
							"name": "amount",
							"type": "uint256"
						},
						{
							"indexed": false,
							"internalType": "string",
							"name": "message",
							"type": "string"
						}
					],
					"name": "Received",
					"type": "event"
				},
				{
					"inputs": [
						{
							"internalType": "string",
							"name": "_message",
							"type": "string"
						},
						{
							"internalType": "uint256",
							"name": "_x",
							"type": "uint256"
						}
					],
					"name": "foo",
					"outputs": [
						{
							"internalType": "uint256",
							"name": "",
							"type": "uint256"
						}
					],
					"stateMutability": "payable",
					"type": "function"
				}
			],
			"devdoc": {
				"kind": "dev",
				"methods": {},
				"version": 1
			},
			"evm": {
				"assembly": "    /* \"practise/dukedaily/day03/05call_staticcall.sol\":1095:1354  contract Receiver {... */\n  mstore(0x40, 0x80)\n  callvalue\n  dup1\n  iszero\n  tag_1\n  jumpi\n  0x00\n  dup1\n  revert\ntag_1:\n  pop\n  dataSize(sub_0)\n  dup1\n  dataOffset(sub_0)\n  0x00\n  codecopy\n  0x00\n  return\nstop\n\nsub_0: assembly {\n        /* \"practise/dukedaily/day03/05call_staticcall.sol\":1095:1354  contract Receiver {... */\n      mstore(0x40, 0x80)\n      jumpi(tag_1, lt(calldatasize, 0x04))\n      shr(0xe0, calldataload(0x00))\n      dup1\n      0x24ccab8f\n      eq\n      tag_2\n      jumpi\n    tag_1:\n      0x00\n      dup1\n      revert\n        /* \"practise/dukedaily/day03/05call_staticcall.sol\":1189:1352  function foo(string memory _message, uint _x) public payable returns (uint) {... */\n    tag_2:\n      tag_3\n      0x04\n      dup1\n      calldatasize\n      sub\n      dup2\n      add\n      swap1\n      tag_4\n      swap2\n      swap1\n      tag_5\n      jump\t// in\n    tag_4:\n      tag_6\n      jump\t// in\n    tag_3:\n      mload(0x40)\n      tag_7\n      swap2\n      swap1\n      tag_8\n      jump\t// in\n    tag_7:\n      mload(0x40)\n      dup1\n      swap2\n      sub\n      swap1\n      return\n    tag_6:\n        /* \"practise/dukedaily/day03/05call_staticcall.sol\":1259:1263  uint */\n      0x00\n        /* \"practise/dukedaily/day03/05call_staticcall.sol\":1280:1321  Received(msg.sender, msg.value, _message) */\n      0x59e04c3f0d44b7caf6e8ef854b61d9a51cf1960d7a88ff6356cc5e946b4b5832\n        /* \"practise/dukedaily/day03/05call_staticcall.sol\":1289:1299  msg.sender */\n      caller\n        /* \"practise/dukedaily/day03/05call_staticcall.sol\":1301:1310  msg.value */\n      callvalue\n        /* \"practise/dukedaily/day03/05call_staticcall.sol\":1312:1320  _message */\n      dup6\n        /* \"practise/dukedaily/day03/05call_staticcall.sol\":1280:1321  Received(msg.sender, msg.value, _message) */\n      mload(0x40)\n      tag_10\n      swap4\n      swap3\n      swap2\n      swap1\n      tag_11\n      jump\t// in\n    tag_10:\n      mload(0x40)\n      dup1\n      swap2\n      sub\n      swap1\n      log1\n        /* \"practise/dukedaily/day03/05call_staticcall.sol\":1344:1345  1 */\n      0x01\n        /* \"practise/dukedaily/day03/05call_staticcall.sol\":1339:1341  _x */\n      dup3\n        /* \"practise/dukedaily/day03/05call_staticcall.sol\":1339:1345  _x + 1 */\n      tag_12\n      swap2\n      swap1\n      tag_13\n      jump\t// in\n    tag_12:\n        /* \"practise/dukedaily/day03/05call_staticcall.sol\":1332:1345  return _x + 1 */\n      swap1\n      pop\n        /* \"practise/dukedaily/day03/05call_staticcall.sol\":1189:1352  function foo(string memory _message, uint _x) public payable returns (uint) {... */\n      swap3\n      swap2\n      pop\n      pop\n      jump\t// out\n        /* \"#utility.yul\":7:82   */\n    tag_14:\n        /* \"#utility.yul\":40:46   */\n      0x00\n        /* \"#utility.yul\":73:75   */\n      0x40\n        /* \"#utility.yul\":67:76   */\n      mload\n        /* \"#utility.yul\":57:76   */\n      swap1\n      pop\n        /* \"#utility.yul\":7:82   */\n      swap1\n      jump\t// out\n        /* \"#utility.yul\":88:205   */\n    tag_15:\n        /* \"#utility.yul\":197:198   */\n      0x00\n        /* \"#utility.yul\":194:195   */\n      dup1\n        /* \"#utility.yul\":187:199   */\n      revert\n        /* \"#utility.yul\":211:328   */\n    tag_16:\n        /* \"#utility.yul\":320:321   */\n      0x00\n        /* \"#utility.yul\":317:318   */\n      dup1\n        /* \"#utility.yul\":310:322   */\n      revert\n        /* \"#utility.yul\":334:451   */\n    tag_17:\n        /* \"#utility.yul\":443:444   */\n      0x00\n        /* \"#utility.yul\":440:441   */\n      dup1\n        /* \"#utility.yul\":433:445   */\n      revert\n        /* \"#utility.yul\":457:574   */\n    tag_18:\n        /* \"#utility.yul\":566:567   */\n      0x00\n        /* \"#utility.yul\":563:564   */\n      dup1\n        /* \"#utility.yul\":556:568   */\n      revert\n        /* \"#utility.yul\":580:682   */\n    tag_19:\n        /* \"#utility.yul\":621:627   */\n      0x00\n        /* \"#utility.yul\":672:674   */\n      0x1f\n        /* \"#utility.yul\":668:675   */\n      not\n        /* \"#utility.yul\":663:665   */\n      0x1f\n        /* \"#utility.yul\":656:661   */\n      dup4\n        /* \"#utility.yul\":652:666   */\n      add\n        /* \"#utility.yul\":648:676   */\n      and\n        /* \"#utility.yul\":638:676   */\n      swap1\n      pop\n        /* \"#utility.yul\":580:682   */\n      swap2\n      swap1\n      pop\n      jump\t// out\n        /* \"#utility.yul\":688:868   */\n    tag_20:\n        /* \"#utility.yul\":736:813   */\n      0x4e487b7100000000000000000000000000000000000000000000000000000000\n        /* \"#utility.yul\":733:734   */\n      0x00\n        /* \"#utility.yul\":726:814   */\n      mstore\n        /* \"#utility.yul\":833:837   */\n      0x41\n        /* \"#utility.yul\":830:831   */\n      0x04\n        /* \"#utility.yul\":823:838   */\n      mstore\n        /* \"#utility.yul\":857:861   */\n      0x24\n        /* \"#utility.yul\":854:855   */\n      0x00\n        /* \"#utility.yul\":847:862   */\n      revert\n        /* \"#utility.yul\":874:1155   */\n    tag_21:\n        /* \"#utility.yul\":957:984   */\n      tag_48\n        /* \"#utility.yul\":979:983   */\n      dup3\n        /* \"#utility.yul\":957:984   */\n      tag_19\n      jump\t// in\n    tag_48:\n        /* \"#utility.yul\":949:955   */\n      dup2\n        /* \"#utility.yul\":945:985   */\n      add\n        /* \"#utility.yul\":1087:1093   */\n      dup2\n        /* \"#utility.yul\":1075:1085   */\n      dup2\n        /* \"#utility.yul\":1072:1094   */\n      lt\n        /* \"#utility.yul\":1051:1069   */\n      0xffffffffffffffff\n        /* \"#utility.yul\":1039:1049   */\n      dup3\n        /* \"#utility.yul\":1036:1070   */\n      gt\n        /* \"#utility.yul\":1033:1095   */\n      or\n        /* \"#utility.yul\":1030:1118   */\n      iszero\n      tag_49\n      jumpi\n        /* \"#utility.yul\":1098:1116   */\n      tag_50\n      tag_20\n      jump\t// in\n    tag_50:\n        /* \"#utility.yul\":1030:1118   */\n    tag_49:\n        /* \"#utility.yul\":1138:1148   */\n      dup1\n        /* \"#utility.yul\":1134:1136   */\n      0x40\n        /* \"#utility.yul\":1127:1149   */\n      mstore\n        /* \"#utility.yul\":917:1155   */\n      pop\n        /* \"#utility.yul\":874:1155   */\n      pop\n      pop\n      jump\t// out\n        /* \"#utility.yul\":1161:1290   */\n    tag_22:\n        /* \"#utility.yul\":1195:1201   */\n      0x00\n        /* \"#utility.yul\":1222:1242   */\n      tag_52\n      tag_14\n      jump\t// in\n    tag_52:\n        /* \"#utility.yul\":1212:1242   */\n      swap1\n      pop\n        /* \"#utility.yul\":1251:1284   */\n      tag_53\n        /* \"#utility.yul\":1279:1283   */\n      dup3\n        /* \"#utility.yul\":1271:1277   */\n      dup3\n        /* \"#utility.yul\":1251:1284   */\n      tag_21\n      jump\t// in\n    tag_53:\n        /* \"#utility.yul\":1161:1290   */\n      swap2\n      swap1\n      pop\n      jump\t// out\n        /* \"#utility.yul\":1296:1604   */\n    tag_23:\n        /* \"#utility.yul\":1358:1362   */\n      0x00\n        /* \"#utility.yul\":1448:1466   */\n      0xffffffffffffffff\n        /* \"#utility.yul\":1440:1446   */\n      dup3\n        /* \"#utility.yul\":1437:1467   */\n      gt\n        /* \"#utility.yul\":1434:1490   */\n      iszero\n      tag_55\n      jumpi\n        /* \"#utility.yul\":1470:1488   */\n      tag_56\n      tag_20\n      jump\t// in\n    tag_56:\n        /* \"#utility.yul\":1434:1490   */\n    tag_55:\n        /* \"#utility.yul\":1508:1537   */\n      tag_57\n        /* \"#utility.yul\":1530:1536   */\n      dup3\n        /* \"#utility.yul\":1508:1537   */\n      tag_19\n      jump\t// in\n    tag_57:\n        /* \"#utility.yul\":1500:1537   */\n      swap1\n      pop\n        /* \"#utility.yul\":1592:1596   */\n      0x20\n        /* \"#utility.yul\":1586:1590   */\n      dup2\n        /* \"#utility.yul\":1582:1597   */\n      add\n        /* \"#utility.yul\":1574:1597   */\n      swap1\n      pop\n        /* \"#utility.yul\":1296:1604   */\n      swap2\n      swap1\n      pop\n      jump\t// out\n        /* \"#utility.yul\":1610:1758   */\n    tag_24:\n        /* \"#utility.yul\":1708:1714   */\n      dup3\n        /* \"#utility.yul\":1703:1706   */\n      dup2\n        /* \"#utility.yul\":1698:1701   */\n      dup4\n        /* \"#utility.yul\":1685:1715   */\n      calldatacopy\n        /* \"#utility.yul\":1749:1750   */\n      0x00\n        /* \"#utility.yul\":1740:1746   */\n      dup4\n        /* \"#utility.yul\":1735:1738   */\n      dup4\n        /* \"#utility.yul\":1731:1747   */\n      add\n        /* \"#utility.yul\":1724:1751   */\n      mstore\n        /* \"#utility.yul\":1610:1758   */\n      pop\n      pop\n      pop\n      jump\t// out\n        /* \"#utility.yul\":1764:2189   */\n    tag_25:\n        /* \"#utility.yul\":1842:1847   */\n      0x00\n        /* \"#utility.yul\":1867:1933   */\n      tag_60\n        /* \"#utility.yul\":1883:1932   */\n      tag_61\n        /* \"#utility.yul\":1925:1931   */\n      dup5\n        /* \"#utility.yul\":1883:1932   */\n      tag_23\n      jump\t// in\n    tag_61:\n        /* \"#utility.yul\":1867:1933   */\n      tag_22\n      jump\t// in\n    tag_60:\n        /* \"#utility.yul\":1858:1933   */\n      swap1\n      pop\n        /* \"#utility.yul\":1956:1962   */\n      dup3\n        /* \"#utility.yul\":1949:1954   */\n      dup2\n        /* \"#utility.yul\":1942:1963   */\n      mstore\n        /* \"#utility.yul\":1994:1998   */\n      0x20\n        /* \"#utility.yul\":1987:1992   */\n      dup2\n        /* \"#utility.yul\":1983:1999   */\n      add\n        /* \"#utility.yul\":2032:2035   */\n      dup5\n        /* \"#utility.yul\":2023:2029   */\n      dup5\n        /* \"#utility.yul\":2018:2021   */\n      dup5\n        /* \"#utility.yul\":2014:2030   */\n      add\n        /* \"#utility.yul\":2011:2036   */\n      gt\n        /* \"#utility.yul\":2008:2120   */\n      iszero\n      tag_62\n      jumpi\n        /* \"#utility.yul\":2039:2118   */\n      tag_63\n      tag_18\n      jump\t// in\n    tag_63:\n        /* \"#utility.yul\":2008:2120   */\n    tag_62:\n        /* \"#utility.yul\":2129:2183   */\n      tag_64\n        /* \"#utility.yul\":2176:2182   */\n      dup5\n        /* \"#utility.yul\":2171:2174   */\n      dup3\n        /* \"#utility.yul\":2166:2169   */\n      dup6\n        /* \"#utility.yul\":2129:2183   */\n      tag_24\n      jump\t// in\n    tag_64:\n        /* \"#utility.yul\":1848:2189   */\n      pop\n        /* \"#utility.yul\":1764:2189   */\n      swap4\n      swap3\n      pop\n      pop\n      pop\n      jump\t// out\n        /* \"#utility.yul\":2209:2549   */\n    tag_26:\n        /* \"#utility.yul\":2265:2270   */\n      0x00\n        /* \"#utility.yul\":2314:2317   */\n      dup3\n        /* \"#utility.yul\":2307:2311   */\n      0x1f\n        /* \"#utility.yul\":2299:2305   */\n      dup4\n        /* \"#utility.yul\":2295:2312   */\n      add\n        /* \"#utility.yul\":2291:2318   */\n      slt\n        /* \"#utility.yul\":2281:2403   */\n      tag_66\n      jumpi\n        /* \"#utility.yul\":2322:2401   */\n      tag_67\n      tag_17\n      jump\t// in\n    tag_67:\n        /* \"#utility.yul\":2281:2403   */\n    tag_66:\n        /* \"#utility.yul\":2439:2445   */\n      dup2\n        /* \"#utility.yul\":2426:2446   */\n      calldataload\n        /* \"#utility.yul\":2464:2543   */\n      tag_68\n        /* \"#utility.yul\":2539:2542   */\n      dup5\n        /* \"#utility.yul\":2531:2537   */\n      dup3\n        /* \"#utility.yul\":2524:2528   */\n      0x20\n        /* \"#utility.yul\":2516:2522   */\n      dup7\n        /* \"#utility.yul\":2512:2529   */\n      add\n        /* \"#utility.yul\":2464:2543   */\n      tag_25\n      jump\t// in\n    tag_68:\n        /* \"#utility.yul\":2455:2543   */\n      swap2\n      pop\n        /* \"#utility.yul\":2271:2549   */\n      pop\n        /* \"#utility.yul\":2209:2549   */\n      swap3\n      swap2\n      pop\n      pop\n      jump\t// out\n        /* \"#utility.yul\":2555:2632   */\n    tag_27:\n        /* \"#utility.yul\":2592:2599   */\n      0x00\n        /* \"#utility.yul\":2621:2626   */\n      dup2\n        /* \"#utility.yul\":2610:2626   */\n      swap1\n      pop\n        /* \"#utility.yul\":2555:2632   */\n      swap2\n      swap1\n      pop\n      jump\t// out\n        /* \"#utility.yul\":2638:2760   */\n    tag_28:\n        /* \"#utility.yul\":2711:2735   */\n      tag_71\n        /* \"#utility.yul\":2729:2734   */\n      dup2\n        /* \"#utility.yul\":2711:2735   */\n      tag_27\n      jump\t// in\n    tag_71:\n        /* \"#utility.yul\":2704:2709   */\n      dup2\n        /* \"#utility.yul\":2701:2736   */\n      eq\n        /* \"#utility.yul\":2691:2754   */\n      tag_72\n      jumpi\n        /* \"#utility.yul\":2750:2751   */\n      0x00\n        /* \"#utility.yul\":2747:2748   */\n      dup1\n        /* \"#utility.yul\":2740:2752   */\n      revert\n        /* \"#utility.yul\":2691:2754   */\n    tag_72:\n        /* \"#utility.yul\":2638:2760   */\n      pop\n      jump\t// out\n        /* \"#utility.yul\":2766:2905   */\n    tag_29:\n        /* \"#utility.yul\":2812:2817   */\n      0x00\n        /* \"#utility.yul\":2850:2856   */\n      dup2\n        /* \"#utility.yul\":2837:2857   */\n      calldataload\n        /* \"#utility.yul\":2828:2857   */\n      swap1\n      pop\n        /* \"#utility.yul\":2866:2899   */\n      tag_74\n        /* \"#utility.yul\":2893:2898   */\n      dup2\n        /* \"#utility.yul\":2866:2899   */\n      tag_28\n      jump\t// in\n    tag_74:\n        /* \"#utility.yul\":2766:2905   */\n      swap3\n      swap2\n      pop\n      pop\n      jump\t// out\n        /* \"#utility.yul\":2911:3565   */\n    tag_5:\n        /* \"#utility.yul\":2989:2995   */\n      0x00\n        /* \"#utility.yul\":2997:3003   */\n      dup1\n        /* \"#utility.yul\":3046:3048   */\n      0x40\n        /* \"#utility.yul\":3034:3043   */\n      dup4\n        /* \"#utility.yul\":3025:3032   */\n      dup6\n        /* \"#utility.yul\":3021:3044   */\n      sub\n        /* \"#utility.yul\":3017:3049   */\n      slt\n        /* \"#utility.yul\":3014:3133   */\n      iszero\n      tag_76\n      jumpi\n        /* \"#utility.yul\":3052:3131   */\n      tag_77\n      tag_15\n      jump\t// in\n    tag_77:\n        /* \"#utility.yul\":3014:3133   */\n    tag_76:\n        /* \"#utility.yul\":3200:3201   */\n      0x00\n        /* \"#utility.yul\":3189:3198   */\n      dup4\n        /* \"#utility.yul\":3185:3202   */\n      add\n        /* \"#utility.yul\":3172:3203   */\n      calldataload\n        /* \"#utility.yul\":3230:3248   */\n      0xffffffffffffffff\n        /* \"#utility.yul\":3222:3228   */\n      dup2\n        /* \"#utility.yul\":3219:3249   */\n      gt\n        /* \"#utility.yul\":3216:3333   */\n      iszero\n      tag_78\n      jumpi\n        /* \"#utility.yul\":3252:3331   */\n      tag_79\n      tag_16\n      jump\t// in\n    tag_79:\n        /* \"#utility.yul\":3216:3333   */\n    tag_78:\n        /* \"#utility.yul\":3357:3420   */\n      tag_80\n        /* \"#utility.yul\":3412:3419   */\n      dup6\n        /* \"#utility.yul\":3403:3409   */\n      dup3\n        /* \"#utility.yul\":3392:3401   */\n      dup7\n        /* \"#utility.yul\":3388:3410   */\n      add\n        /* \"#utility.yul\":3357:3420   */\n      tag_26\n      jump\t// in\n    tag_80:\n        /* \"#utility.yul\":3347:3420   */\n      swap3\n      pop\n        /* \"#utility.yul\":3143:3430   */\n      pop\n        /* \"#utility.yul\":3469:3471   */\n      0x20\n        /* \"#utility.yul\":3495:3548   */\n      tag_81\n        /* \"#utility.yul\":3540:3547   */\n      dup6\n        /* \"#utility.yul\":3531:3537   */\n      dup3\n        /* \"#utility.yul\":3520:3529   */\n      dup7\n        /* \"#utility.yul\":3516:3538   */\n      add\n        /* \"#utility.yul\":3495:3548   */\n      tag_29\n      jump\t// in\n    tag_81:\n        /* \"#utility.yul\":3485:3548   */\n      swap2\n      pop\n        /* \"#utility.yul\":3440:3558   */\n      pop\n        /* \"#utility.yul\":2911:3565   */\n      swap3\n      pop\n      swap3\n      swap1\n      pop\n      jump\t// out\n        /* \"#utility.yul\":3571:3689   */\n    tag_30:\n        /* \"#utility.yul\":3658:3682   */\n      tag_83\n        /* \"#utility.yul\":3676:3681   */\n      dup2\n        /* \"#utility.yul\":3658:3682   */\n      tag_27\n      jump\t// in\n    tag_83:\n        /* \"#utility.yul\":3653:3656   */\n      dup3\n        /* \"#utility.yul\":3646:3683   */\n      mstore\n        /* \"#utility.yul\":3571:3689   */\n      pop\n      pop\n      jump\t// out\n        /* \"#utility.yul\":3695:3917   */\n    tag_8:\n        /* \"#utility.yul\":3788:3792   */\n      0x00\n        /* \"#utility.yul\":3826:3828   */\n      0x20\n        /* \"#utility.yul\":3815:3824   */\n      dup3\n        /* \"#utility.yul\":3811:3829   */\n      add\n        /* \"#utility.yul\":3803:3829   */\n      swap1\n      pop\n        /* \"#utility.yul\":3839:3910   */\n      tag_85\n        /* \"#utility.yul\":3907:3908   */\n      0x00\n        /* \"#utility.yul\":3896:3905   */\n      dup4\n        /* \"#utility.yul\":3892:3909   */\n      add\n        /* \"#utility.yul\":3883:3889   */\n      dup5\n        /* \"#utility.yul\":3839:3910   */\n      tag_30\n      jump\t// in\n    tag_85:\n        /* \"#utility.yul\":3695:3917   */\n      swap3\n      swap2\n      pop\n      pop\n      jump\t// out\n        /* \"#utility.yul\":3923:4049   */\n    tag_31:\n        /* \"#utility.yul\":3960:3967   */\n      0x00\n        /* \"#utility.yul\":4000:4042   */\n      0xffffffffffffffffffffffffffffffffffffffff\n        /* \"#utility.yul\":3993:3998   */\n      dup3\n        /* \"#utility.yul\":3989:4043   */\n      and\n        /* \"#utility.yul\":3978:4043   */\n      swap1\n      pop\n        /* \"#utility.yul\":3923:4049   */\n      swap2\n      swap1\n      pop\n      jump\t// out\n        /* \"#utility.yul\":4055:4151   */\n    tag_32:\n        /* \"#utility.yul\":4092:4099   */\n      0x00\n        /* \"#utility.yul\":4121:4145   */\n      tag_88\n        /* \"#utility.yul\":4139:4144   */\n      dup3\n        /* \"#utility.yul\":4121:4145   */\n      tag_31\n      jump\t// in\n    tag_88:\n        /* \"#utility.yul\":4110:4145   */\n      swap1\n      pop\n        /* \"#utility.yul\":4055:4151   */\n      swap2\n      swap1\n      pop\n      jump\t// out\n        /* \"#utility.yul\":4157:4275   */\n    tag_33:\n        /* \"#utility.yul\":4244:4268   */\n      tag_90\n        /* \"#utility.yul\":4262:4267   */\n      dup2\n        /* \"#utility.yul\":4244:4268   */\n      tag_32\n      jump\t// in\n    tag_90:\n        /* \"#utility.yul\":4239:4242   */\n      dup3\n        /* \"#utility.yul\":4232:4269   */\n      mstore\n        /* \"#utility.yul\":4157:4275   */\n      pop\n      pop\n      jump\t// out\n        /* \"#utility.yul\":4281:4380   */\n    tag_34:\n        /* \"#utility.yul\":4333:4339   */\n      0x00\n        /* \"#utility.yul\":4367:4372   */\n      dup2\n        /* \"#utility.yul\":4361:4373   */\n      mload\n        /* \"#utility.yul\":4351:4373   */\n      swap1\n      pop\n        /* \"#utility.yul\":4281:4380   */\n      swap2\n      swap1\n      pop\n      jump\t// out\n        /* \"#utility.yul\":4386:4555   */\n    tag_35:\n        /* \"#utility.yul\":4470:4481   */\n      0x00\n        /* \"#utility.yul\":4504:4510   */\n      dup3\n        /* \"#utility.yul\":4499:4502   */\n      dup3\n        /* \"#utility.yul\":4492:4511   */\n      mstore\n        /* \"#utility.yul\":4544:4548   */\n      0x20\n        /* \"#utility.yul\":4539:4542   */\n      dup3\n        /* \"#utility.yul\":4535:4549   */\n      add\n        /* \"#utility.yul\":4520:4549   */\n      swap1\n      pop\n        /* \"#utility.yul\":4386:4555   */\n      swap3\n      swap2\n      pop\n      pop\n      jump\t// out\n        /* \"#utility.yul\":4561:4700   */\n    tag_36:\n        /* \"#utility.yul\":4650:4656   */\n      dup3\n        /* \"#utility.yul\":4645:4648   */\n      dup2\n        /* \"#utility.yul\":4640:4643   */\n      dup4\n        /* \"#utility.yul\":4634:4657   */\n      mcopy\n        /* \"#utility.yul\":4691:4692   */\n      0x00\n        /* \"#utility.yul\":4682:4688   */\n      dup4\n        /* \"#utility.yul\":4677:4680   */\n      dup4\n        /* \"#utility.yul\":4673:4689   */\n      add\n        /* \"#utility.yul\":4666:4693   */\n      mstore\n        /* \"#utility.yul\":4561:4700   */\n      pop\n      pop\n      pop\n      jump\t// out\n        /* \"#utility.yul\":4706:5083   */\n    tag_37:\n        /* \"#utility.yul\":4794:4797   */\n      0x00\n        /* \"#utility.yul\":4822:4861   */\n      tag_95\n        /* \"#utility.yul\":4855:4860   */\n      dup3\n        /* \"#utility.yul\":4822:4861   */\n      tag_34\n      jump\t// in\n    tag_95:\n        /* \"#utility.yul\":4877:4948   */\n      tag_96\n        /* \"#utility.yul\":4941:4947   */\n      dup2\n        /* \"#utility.yul\":4936:4939   */\n      dup6\n        /* \"#utility.yul\":4877:4948   */\n      tag_35\n      jump\t// in\n    tag_96:\n        /* \"#utility.yul\":4870:4948   */\n      swap4\n      pop\n        /* \"#utility.yul\":4957:5022   */\n      tag_97\n        /* \"#utility.yul\":5015:5021   */\n      dup2\n        /* \"#utility.yul\":5010:5013   */\n      dup6\n        /* \"#utility.yul\":5003:5007   */\n      0x20\n        /* \"#utility.yul\":4996:5001   */\n      dup7\n        /* \"#utility.yul\":4992:5008   */\n      add\n        /* \"#utility.yul\":4957:5022   */\n      tag_36\n      jump\t// in\n    tag_97:\n        /* \"#utility.yul\":5047:5076   */\n      tag_98\n        /* \"#utility.yul\":5069:5075   */\n      dup2\n        /* \"#utility.yul\":5047:5076   */\n      tag_19\n      jump\t// in\n    tag_98:\n        /* \"#utility.yul\":5042:5045   */\n      dup5\n        /* \"#utility.yul\":5038:5077   */\n      add\n        /* \"#utility.yul\":5031:5077   */\n      swap2\n      pop\n        /* \"#utility.yul\":4798:5083   */\n      pop\n        /* \"#utility.yul\":4706:5083   */\n      swap3\n      swap2\n      pop\n      pop\n      jump\t// out\n        /* \"#utility.yul\":5089:5622   */\n    tag_11:\n        /* \"#utility.yul\":5258:5262   */\n      0x00\n        /* \"#utility.yul\":5296:5298   */\n      0x60\n        /* \"#utility.yul\":5285:5294   */\n      dup3\n        /* \"#utility.yul\":5281:5299   */\n      add\n        /* \"#utility.yul\":5273:5299   */\n      swap1\n      pop\n        /* \"#utility.yul\":5309:5380   */\n      tag_100\n        /* \"#utility.yul\":5377:5378   */\n      0x00\n        /* \"#utility.yul\":5366:5375   */\n      dup4\n        /* \"#utility.yul\":5362:5379   */\n      add\n        /* \"#utility.yul\":5353:5359   */\n      dup7\n        /* \"#utility.yul\":5309:5380   */\n      tag_33\n      jump\t// in\n    tag_100:\n        /* \"#utility.yul\":5390:5462   */\n      tag_101\n        /* \"#utility.yul\":5458:5460   */\n      0x20\n        /* \"#utility.yul\":5447:5456   */\n      dup4\n        /* \"#utility.yul\":5443:5461   */\n      add\n        /* \"#utility.yul\":5434:5440   */\n      dup6\n        /* \"#utility.yul\":5390:5462   */\n      tag_30\n      jump\t// in\n    tag_101:\n        /* \"#utility.yul\":5509:5518   */\n      dup2\n        /* \"#utility.yul\":5503:5507   */\n      dup2\n        /* \"#utility.yul\":5499:5519   */\n      sub\n        /* \"#utility.yul\":5494:5496   */\n      0x40\n        /* \"#utility.yul\":5483:5492   */\n      dup4\n        /* \"#utility.yul\":5479:5497   */\n      add\n        /* \"#utility.yul\":5472:5520   */\n      mstore\n        /* \"#utility.yul\":5537:5615   */\n      tag_102\n        /* \"#utility.yul\":5610:5614   */\n      dup2\n        /* \"#utility.yul\":5601:5607   */\n      dup5\n        /* \"#utility.yul\":5537:5615   */\n      tag_37\n      jump\t// in\n    tag_102:\n        /* \"#utility.yul\":5529:5615   */\n      swap1\n      pop\n        /* \"#utility.yul\":5089:5622   */\n      swap5\n      swap4\n      pop\n      pop\n      pop\n      pop\n      jump\t// out\n        /* \"#utility.yul\":5628:5808   */\n    tag_38:\n        /* \"#utility.yul\":5676:5753   */\n      0x4e487b7100000000000000000000000000000000000000000000000000000000\n        /* \"#utility.yul\":5673:5674   */\n      0x00\n        /* \"#utility.yul\":5666:5754   */\n      mstore\n        /* \"#utility.yul\":5773:5777   */\n      0x11\n        /* \"#utility.yul\":5770:5771   */\n      0x04\n        /* \"#utility.yul\":5763:5778   */\n      mstore\n        /* \"#utility.yul\":5797:5801   */\n      0x24\n        /* \"#utility.yul\":5794:5795   */\n      0x00\n        /* \"#utility.yul\":5787:5802   */\n      revert\n        /* \"#utility.yul\":5814:6005   */\n    tag_13:\n        /* \"#utility.yul\":5854:5857   */\n      0x00\n        /* \"#utility.yul\":5873:5893   */\n      tag_105\n        /* \"#utility.yul\":5891:5892   */\n      dup3\n        /* \"#utility.yul\":5873:5893   */\n      tag_27\n      jump\t// in\n    tag_105:\n        /* \"#utility.yul\":5868:5893   */\n      swap2\n      pop\n        /* \"#utility.yul\":5907:5927   */\n      tag_106\n        /* \"#utility.yul\":5925:5926   */\n      dup4\n        /* \"#utility.yul\":5907:5927   */\n      tag_27\n      jump\t// in\n    tag_106:\n        /* \"#utility.yul\":5902:5927   */\n      swap3\n      pop\n        /* \"#utility.yul\":5950:5951   */\n      dup3\n        /* \"#utility.yul\":5947:5948   */\n      dup3\n        /* \"#utility.yul\":5943:5952   */\n      add\n        /* \"#utility.yul\":5936:5952   */\n      swap1\n      pop\n        /* \"#utility.yul\":5971:5974   */\n      dup1\n        /* \"#utility.yul\":5968:5969   */\n      dup3\n        /* \"#utility.yul\":5965:5975   */\n      gt\n        /* \"#utility.yul\":5962:5998   */\n      iszero\n      tag_107\n      jumpi\n        /* \"#utility.yul\":5978:5996   */\n      tag_108\n      tag_38\n      jump\t// in\n    tag_108:\n        /* \"#utility.yul\":5962:5998   */\n    tag_107:\n        /* \"#utility.yul\":5814:6005   */\n      swap3\n      swap2\n      pop\n      pop\n      jump\t// out\n\n    auxdata: 0xa2646970667358221220723d6274061fb51364d7f58b3d38a4464c5f29329797a8f62d6ea16fdd0fc3b564736f6c634300081a0033\n}\n",
				"bytecode": {
					"linkReferences": {},
					"object": "6080604052348015600e575f80fd5b506104158061001c5f395ff3fe60806040526004361061001d575f3560e01c806324ccab8f14610021575b5f80fd5b61003b60048036038101906100369190610222565b610051565b604051610048919061028b565b60405180910390f35b5f7f59e04c3f0d44b7caf6e8ef854b61d9a51cf1960d7a88ff6356cc5e946b4b583233348560405161008593929190610343565b60405180910390a160018261009a91906103ac565b905092915050565b5f604051905090565b5f80fd5b5f80fd5b5f80fd5b5f80fd5b5f601f19601f8301169050919050565b7f4e487b71000000000000000000000000000000000000000000000000000000005f52604160045260245ffd5b610101826100bb565b810181811067ffffffffffffffff821117156101205761011f6100cb565b5b80604052505050565b5f6101326100a2565b905061013e82826100f8565b919050565b5f67ffffffffffffffff82111561015d5761015c6100cb565b5b610166826100bb565b9050602081019050919050565b828183375f83830152505050565b5f61019361018e84610143565b610129565b9050828152602081018484840111156101af576101ae6100b7565b5b6101ba848285610173565b509392505050565b5f82601f8301126101d6576101d56100b3565b5b81356101e6848260208601610181565b91505092915050565b5f819050919050565b610201816101ef565b811461020b575f80fd5b50565b5f8135905061021c816101f8565b92915050565b5f8060408385031215610238576102376100ab565b5b5f83013567ffffffffffffffff811115610255576102546100af565b5b610261858286016101c2565b92505060206102728582860161020e565b9150509250929050565b610285816101ef565b82525050565b5f60208201905061029e5f83018461027c565b92915050565b5f73ffffffffffffffffffffffffffffffffffffffff82169050919050565b5f6102cd826102a4565b9050919050565b6102dd816102c3565b82525050565b5f81519050919050565b5f82825260208201905092915050565b8281835e5f83830152505050565b5f610315826102e3565b61031f81856102ed565b935061032f8185602086016102fd565b610338816100bb565b840191505092915050565b5f6060820190506103565f8301866102d4565b610363602083018561027c565b8181036040830152610375818461030b565b9050949350505050565b7f4e487b71000000000000000000000000000000000000000000000000000000005f52601160045260245ffd5b5f6103b6826101ef565b91506103c1836101ef565b92508282019050808211156103d9576103d861037f565b5b9291505056fea2646970667358221220723d6274061fb51364d7f58b3d38a4464c5f29329797a8f62d6ea16fdd0fc3b564736f6c634300081a0033",
					"opcodes": "PUSH1 0x80 PUSH1 0x40 MSTORE CALLVALUE DUP1 ISZERO PUSH1 0xE JUMPI PUSH0 DUP1 REVERT JUMPDEST POP PUSH2 0x415 DUP1 PUSH2 0x1C PUSH0 CODECOPY PUSH0 RETURN INVALID PUSH1 0x80 PUSH1 0x40 MSTORE PUSH1 0x4 CALLDATASIZE LT PUSH2 0x1D JUMPI PUSH0 CALLDATALOAD PUSH1 0xE0 SHR DUP1 PUSH4 0x24CCAB8F EQ PUSH2 0x21 JUMPI JUMPDEST PUSH0 DUP1 REVERT JUMPDEST PUSH2 0x3B PUSH1 0x4 DUP1 CALLDATASIZE SUB DUP2 ADD SWAP1 PUSH2 0x36 SWAP2 SWAP1 PUSH2 0x222 JUMP JUMPDEST PUSH2 0x51 JUMP JUMPDEST PUSH1 0x40 MLOAD PUSH2 0x48 SWAP2 SWAP1 PUSH2 0x28B JUMP JUMPDEST PUSH1 0x40 MLOAD DUP1 SWAP2 SUB SWAP1 RETURN JUMPDEST PUSH0 PUSH32 0x59E04C3F0D44B7CAF6E8EF854B61D9A51CF1960D7A88FF6356CC5E946B4B5832 CALLER CALLVALUE DUP6 PUSH1 0x40 MLOAD PUSH2 0x85 SWAP4 SWAP3 SWAP2 SWAP1 PUSH2 0x343 JUMP JUMPDEST PUSH1 0x40 MLOAD DUP1 SWAP2 SUB SWAP1 LOG1 PUSH1 0x1 DUP3 PUSH2 0x9A SWAP2 SWAP1 PUSH2 0x3AC JUMP JUMPDEST SWAP1 POP SWAP3 SWAP2 POP POP JUMP JUMPDEST PUSH0 PUSH1 0x40 MLOAD SWAP1 POP SWAP1 JUMP JUMPDEST PUSH0 DUP1 REVERT JUMPDEST PUSH0 DUP1 REVERT JUMPDEST PUSH0 DUP1 REVERT JUMPDEST PUSH0 DUP1 REVERT JUMPDEST PUSH0 PUSH1 0x1F NOT PUSH1 0x1F DUP4 ADD AND SWAP1 POP SWAP2 SWAP1 POP JUMP JUMPDEST PUSH32 0x4E487B7100000000000000000000000000000000000000000000000000000000 PUSH0 MSTORE PUSH1 0x41 PUSH1 0x4 MSTORE PUSH1 0x24 PUSH0 REVERT JUMPDEST PUSH2 0x101 DUP3 PUSH2 0xBB JUMP JUMPDEST DUP2 ADD DUP2 DUP2 LT PUSH8 0xFFFFFFFFFFFFFFFF DUP3 GT OR ISZERO PUSH2 0x120 JUMPI PUSH2 0x11F PUSH2 0xCB JUMP JUMPDEST JUMPDEST DUP1 PUSH1 0x40 MSTORE POP POP POP JUMP JUMPDEST PUSH0 PUSH2 0x132 PUSH2 0xA2 JUMP JUMPDEST SWAP1 POP PUSH2 0x13E DUP3 DUP3 PUSH2 0xF8 JUMP JUMPDEST SWAP2 SWAP1 POP JUMP JUMPDEST PUSH0 PUSH8 0xFFFFFFFFFFFFFFFF DUP3 GT ISZERO PUSH2 0x15D JUMPI PUSH2 0x15C PUSH2 0xCB JUMP JUMPDEST JUMPDEST PUSH2 0x166 DUP3 PUSH2 0xBB JUMP JUMPDEST SWAP1 POP PUSH1 0x20 DUP2 ADD SWAP1 POP SWAP2 SWAP1 POP JUMP JUMPDEST DUP3 DUP2 DUP4 CALLDATACOPY PUSH0 DUP4 DUP4 ADD MSTORE POP POP POP JUMP JUMPDEST PUSH0 PUSH2 0x193 PUSH2 0x18E DUP5 PUSH2 0x143 JUMP JUMPDEST PUSH2 0x129 JUMP JUMPDEST SWAP1 POP DUP3 DUP2 MSTORE PUSH1 0x20 DUP2 ADD DUP5 DUP5 DUP5 ADD GT ISZERO PUSH2 0x1AF JUMPI PUSH2 0x1AE PUSH2 0xB7 JUMP JUMPDEST JUMPDEST PUSH2 0x1BA DUP5 DUP3 DUP6 PUSH2 0x173 JUMP JUMPDEST POP SWAP4 SWAP3 POP POP POP JUMP JUMPDEST PUSH0 DUP3 PUSH1 0x1F DUP4 ADD SLT PUSH2 0x1D6 JUMPI PUSH2 0x1D5 PUSH2 0xB3 JUMP JUMPDEST JUMPDEST DUP2 CALLDATALOAD PUSH2 0x1E6 DUP5 DUP3 PUSH1 0x20 DUP7 ADD PUSH2 0x181 JUMP JUMPDEST SWAP2 POP POP SWAP3 SWAP2 POP POP JUMP JUMPDEST PUSH0 DUP2 SWAP1 POP SWAP2 SWAP1 POP JUMP JUMPDEST PUSH2 0x201 DUP2 PUSH2 0x1EF JUMP JUMPDEST DUP2 EQ PUSH2 0x20B JUMPI PUSH0 DUP1 REVERT JUMPDEST POP JUMP JUMPDEST PUSH0 DUP2 CALLDATALOAD SWAP1 POP PUSH2 0x21C DUP2 PUSH2 0x1F8 JUMP JUMPDEST SWAP3 SWAP2 POP POP JUMP JUMPDEST PUSH0 DUP1 PUSH1 0x40 DUP4 DUP6 SUB SLT ISZERO PUSH2 0x238 JUMPI PUSH2 0x237 PUSH2 0xAB JUMP JUMPDEST JUMPDEST PUSH0 DUP4 ADD CALLDATALOAD PUSH8 0xFFFFFFFFFFFFFFFF DUP2 GT ISZERO PUSH2 0x255 JUMPI PUSH2 0x254 PUSH2 0xAF JUMP JUMPDEST JUMPDEST PUSH2 0x261 DUP6 DUP3 DUP7 ADD PUSH2 0x1C2 JUMP JUMPDEST SWAP3 POP POP PUSH1 0x20 PUSH2 0x272 DUP6 DUP3 DUP7 ADD PUSH2 0x20E JUMP JUMPDEST SWAP2 POP POP SWAP3 POP SWAP3 SWAP1 POP JUMP JUMPDEST PUSH2 0x285 DUP2 PUSH2 0x1EF JUMP JUMPDEST DUP3 MSTORE POP POP JUMP JUMPDEST PUSH0 PUSH1 0x20 DUP3 ADD SWAP1 POP PUSH2 0x29E PUSH0 DUP4 ADD DUP5 PUSH2 0x27C JUMP JUMPDEST SWAP3 SWAP2 POP POP JUMP JUMPDEST PUSH0 PUSH20 0xFFFFFFFFFFFFFFFFFFFFFFFFFFFFFFFFFFFFFFFF DUP3 AND SWAP1 POP SWAP2 SWAP1 POP JUMP JUMPDEST PUSH0 PUSH2 0x2CD DUP3 PUSH2 0x2A4 JUMP JUMPDEST SWAP1 POP SWAP2 SWAP1 POP JUMP JUMPDEST PUSH2 0x2DD DUP2 PUSH2 0x2C3 JUMP JUMPDEST DUP3 MSTORE POP POP JUMP JUMPDEST PUSH0 DUP2 MLOAD SWAP1 POP SWAP2 SWAP1 POP JUMP JUMPDEST PUSH0 DUP3 DUP3 MSTORE PUSH1 0x20 DUP3 ADD SWAP1 POP SWAP3 SWAP2 POP POP JUMP JUMPDEST DUP3 DUP2 DUP4 MCOPY PUSH0 DUP4 DUP4 ADD MSTORE POP POP POP JUMP JUMPDEST PUSH0 PUSH2 0x315 DUP3 PUSH2 0x2E3 JUMP JUMPDEST PUSH2 0x31F DUP2 DUP6 PUSH2 0x2ED JUMP JUMPDEST SWAP4 POP PUSH2 0x32F DUP2 DUP6 PUSH1 0x20 DUP7 ADD PUSH2 0x2FD JUMP JUMPDEST PUSH2 0x338 DUP2 PUSH2 0xBB JUMP JUMPDEST DUP5 ADD SWAP2 POP POP SWAP3 SWAP2 POP POP JUMP JUMPDEST PUSH0 PUSH1 0x60 DUP3 ADD SWAP1 POP PUSH2 0x356 PUSH0 DUP4 ADD DUP7 PUSH2 0x2D4 JUMP JUMPDEST PUSH2 0x363 PUSH1 0x20 DUP4 ADD DUP6 PUSH2 0x27C JUMP JUMPDEST DUP2 DUP2 SUB PUSH1 0x40 DUP4 ADD MSTORE PUSH2 0x375 DUP2 DUP5 PUSH2 0x30B JUMP JUMPDEST SWAP1 POP SWAP5 SWAP4 POP POP POP POP JUMP JUMPDEST PUSH32 0x4E487B7100000000000000000000000000000000000000000000000000000000 PUSH0 MSTORE PUSH1 0x11 PUSH1 0x4 MSTORE PUSH1 0x24 PUSH0 REVERT JUMPDEST PUSH0 PUSH2 0x3B6 DUP3 PUSH2 0x1EF JUMP JUMPDEST SWAP2 POP PUSH2 0x3C1 DUP4 PUSH2 0x1EF JUMP JUMPDEST SWAP3 POP DUP3 DUP3 ADD SWAP1 POP DUP1 DUP3 GT ISZERO PUSH2 0x3D9 JUMPI PUSH2 0x3D8 PUSH2 0x37F JUMP JUMPDEST JUMPDEST SWAP3 SWAP2 POP POP JUMP INVALID LOG2 PUSH5 0x6970667358 0x22 SLT KECCAK256 PUSH19 0x3D6274061FB51364D7F58B3D38A4464C5F2932 SWAP8 SWAP8 0xA8 0xF6 0x2D PUSH15 0xA16FDD0FC3B564736F6C634300081A STOP CALLER "
				},
				"gasEstimates": {
					"creation": {
						"codeDepositCost": "209000",
						"executionCost": "249",
						"totalCost": "209249"
					},
					"external": {
						"foo(string,uint256)": "infinite"
					}
				},
				"methodIdentifiers": {
					"foo(string,uint256)": "24ccab8f"
				}
			},
			"storageLayout": {
				"storage": [],
				"types": null
			},
			"userdoc": {
				"kind": "user",
				"methods": {},
				"version": 1
			}
		}
	}
}