{
	"practise/dukedaily/day03/04abi.sol": {
		"AbiDecode": {
			"abi": [
				{
					"inputs": [
						{
							"internalType": "bytes",
							"name": "data",
							"type": "bytes"
						}
					],
					"name": "decode",
					"outputs": [
						{
							"internalType": "uint256",
							"name": "x",
							"type": "uint256"
						},
						{
							"internalType": "address",
							"name": "addr",
							"type": "address"
						},
						{
							"internalType": "uint256[]",
							"name": "arr",
							"type": "uint256[]"
						},
						{
							"components": [
								{
									"internalType": "string",
									"name": "name",
									"type": "string"
								},
								{
									"internalType": "uint256[2]",
									"name": "nums",
									"type": "uint256[2]"
								}
							],
							"internalType": "struct AbiDecode.MyStruct",
							"name": "myStruct",
							"type": "tuple"
						}
					],
					"stateMutability": "pure",
					"type": "function"
				},
				{
					"inputs": [
						{
							"internalType": "bytes",
							"name": "data",
							"type": "bytes"
						}
					],
					"name": "decodeLess",
					"outputs": [
						{
							"internalType": "uint256",
							"name": "x",
							"type": "uint256"
						},
						{
							"internalType": "address",
							"name": "addr",
							"type": "address"
						},
						{
							"internalType": "uint256[]",
							"name": "arr",
							"type": "uint256[]"
						},
						{
							"components": [
								{
									"internalType": "string",
									"name": "name",
									"type": "string"
								},
								{
									"internalType": "uint256[2]",
									"name": "nums",
									"type": "uint256[2]"
								}
							],
							"internalType": "struct AbiDecode.MyStruct",
							"name": "myStruct",
							"type": "tuple"
						}
					],
					"stateMutability": "pure",
					"type": "function"
				},
				{
					"inputs": [
						{
							"internalType": "uint256",
							"name": "x",
							"type": "uint256"
						},
						{
							"internalType": "address",
							"name": "addr",
							"type": "address"
						},
						{
							"internalType": "uint256[]",
							"name": "arr",
							"type": "uint256[]"
						},
						{
							"components": [
								{
									"internalType": "string",
									"name": "name",
									"type": "string"
								},
								{
									"internalType": "uint256[2]",
									"name": "nums",
									"type": "uint256[2]"
								}
							],
							"internalType": "struct AbiDecode.MyStruct",
							"name": "myStruct",
							"type": "tuple"
						}
					],
					"name": "encode",
					"outputs": [
						{
							"internalType": "bytes",
							"name": "",
							"type": "bytes"
						}
					],
					"stateMutability": "pure",
					"type": "function"
				},
				{
					"inputs": [
						{
							"internalType": "int16",
							"name": "x",
							"type": "int16"
						},
						{
							"internalType": "bytes1",
							"name": "y",
							"type": "bytes1"
						},
						{
							"internalType": "uint16",
							"name": "z",
							"type": "uint16"
						},
						{
							"internalType": "string",
							"name": "s",
							"type": "string"
						}
					],
					"name": "encodePacked",
					"outputs": [
						{
							"internalType": "bytes",
							"name": "",
							"type": "bytes"
						}
					],
					"stateMutability": "view",
					"type": "function"
				},
				{
					"inputs": [],
					"name": "encodePackedTest",
					"outputs": [
						{
							"internalType": "string",
							"name": "",
							"type": "string"
						}
					],
					"stateMutability": "pure",
					"type": "function"
				}
			],
			"devdoc": {
				"kind": "dev",
				"methods": {},
				"version": 1
			},
			"evm": {
				"assembly": "    /* \"practise/dukedaily/day03/04abi.sol\":561:4095  contract AbiDecode {... */\n  mstore(0x40, 0x80)\n  callvalue\n  dup1\n  iszero\n  tag_1\n  jumpi\n  0x00\n  dup1\n  revert\ntag_1:\n  pop\n  dataSize(sub_0)\n  dup1\n  dataOffset(sub_0)\n  0x00\n  codecopy\n  0x00\n  return\nstop\n\nsub_0: assembly {\n        /* \"practise/dukedaily/day03/04abi.sol\":561:4095  contract AbiDecode {... */\n      mstore(0x40, 0x80)\n      callvalue\n      dup1\n      iszero\n      tag_1\n      jumpi\n      0x00\n      dup1\n      revert\n    tag_1:\n      pop\n      jumpi(tag_2, lt(calldatasize, 0x04))\n      shr(0xe0, calldataload(0x00))\n      dup1\n      0x1278f07c\n      eq\n      tag_3\n      jumpi\n      dup1\n      0x7049e087\n      eq\n      tag_4\n      jumpi\n      dup1\n      0xe5c5e9a3\n      eq\n      tag_5\n      jumpi\n      dup1\n      0xebf9292f\n      eq\n      tag_6\n      jumpi\n      dup1\n      0xfb39553c\n      eq\n      tag_7\n      jumpi\n    tag_2:\n      0x00\n      dup1\n      revert\n        /* \"practise/dukedaily/day03/04abi.sol\":3175:3762  function encodePacked(... */\n    tag_3:\n      tag_8\n      0x04\n      dup1\n      calldatasize\n      sub\n      dup2\n      add\n      swap1\n      tag_9\n      swap2\n      swap1\n      tag_10\n      jump\t// in\n    tag_9:\n      tag_11\n      jump\t// in\n    tag_8:\n      mload(0x40)\n      tag_12\n      swap2\n      swap1\n      tag_13\n      jump\t// in\n    tag_12:\n      mload(0x40)\n      dup1\n      swap2\n      sub\n      swap1\n      return\n        /* \"practise/dukedaily/day03/04abi.sol\":1721:1941  function encode(... */\n    tag_4:\n      tag_14\n      0x04\n      dup1\n      calldatasize\n      sub\n      dup2\n      add\n      swap1\n      tag_15\n      swap2\n      swap1\n      tag_16\n      jump\t// in\n    tag_15:\n      tag_17\n      jump\t// in\n    tag_14:\n      mload(0x40)\n      tag_18\n      swap2\n      swap1\n      tag_13\n      jump\t// in\n    tag_18:\n      mload(0x40)\n      dup1\n      swap2\n      sub\n      swap1\n      return\n        /* \"practise/dukedaily/day03/04abi.sol\":1947:2488  function decode(bytes calldata data)... */\n    tag_5:\n      tag_19\n      0x04\n      dup1\n      calldatasize\n      sub\n      dup2\n      add\n      swap1\n      tag_20\n      swap2\n      swap1\n      tag_21\n      jump\t// in\n    tag_20:\n      tag_22\n      jump\t// in\n    tag_19:\n      mload(0x40)\n      tag_23\n      swap5\n      swap4\n      swap3\n      swap2\n      swap1\n      tag_24\n      jump\t// in\n    tag_23:\n      mload(0x40)\n      dup1\n      swap2\n      sub\n      swap1\n      return\n        /* \"practise/dukedaily/day03/04abi.sol\":3886:4093  function encodePackedTest() public  pure returns (string memory) {... */\n    tag_6:\n      tag_25\n      tag_26\n      jump\t// in\n    tag_25:\n      mload(0x40)\n      tag_27\n      swap2\n      swap1\n      tag_28\n      jump\t// in\n    tag_27:\n      mload(0x40)\n      dup1\n      swap2\n      sub\n      swap1\n      return\n        /* \"practise/dukedaily/day03/04abi.sol\":2634:3123  function decodeLess(bytes calldata data)... */\n    tag_7:\n      tag_29\n      0x04\n      dup1\n      calldatasize\n      sub\n      dup2\n      add\n      swap1\n      tag_30\n      swap2\n      swap1\n      tag_21\n      jump\t// in\n    tag_30:\n      tag_31\n      jump\t// in\n    tag_29:\n      mload(0x40)\n      tag_32\n      swap5\n      swap4\n      swap3\n      swap2\n      swap1\n      tag_24\n      jump\t// in\n    tag_32:\n      mload(0x40)\n      dup1\n      swap2\n      sub\n      swap1\n      return\n        /* \"practise/dukedaily/day03/04abi.sol\":3175:3762  function encodePacked(... */\n    tag_11:\n        /* \"practise/dukedaily/day03/04abi.sol\":3304:3316  bytes memory */\n      0x60\n        /* \"practise/dukedaily/day03/04abi.sol\":3403:3404  x */\n      dup5\n        /* \"practise/dukedaily/day03/04abi.sol\":3406:3407  y */\n      dup5\n        /* \"practise/dukedaily/day03/04abi.sol\":3409:3410  z */\n      dup5\n        /* \"practise/dukedaily/day03/04abi.sol\":3412:3413  s */\n      dup5\n        /* \"practise/dukedaily/day03/04abi.sol\":3386:3414  abi.encodePacked(x, y, z, s) */\n      add(0x20, mload(0x40))\n      tag_34\n      swap5\n      swap4\n      swap3\n      swap2\n      swap1\n      tag_35\n      jump\t// in\n    tag_34:\n      mload(0x40)\n      0x20\n      dup2\n      dup4\n      sub\n      sub\n      dup2\n      mstore\n      swap1\n      0x40\n      mstore\n        /* \"practise/dukedaily/day03/04abi.sol\":3379:3414  return abi.encodePacked(x, y, z, s) */\n      swap1\n      pop\n        /* \"practise/dukedaily/day03/04abi.sol\":3175:3762  function encodePacked(... */\n      swap5\n      swap4\n      pop\n      pop\n      pop\n      pop\n      jump\t// out\n        /* \"practise/dukedaily/day03/04abi.sol\":1721:1941  function encode(... */\n    tag_17:\n        /* \"practise/dukedaily/day03/04abi.sol\":1869:1881  bytes memory */\n      0x60\n        /* \"practise/dukedaily/day03/04abi.sol\":1911:1912  x */\n      dup6\n        /* \"practise/dukedaily/day03/04abi.sol\":1914:1918  addr */\n      dup6\n        /* \"practise/dukedaily/day03/04abi.sol\":1920:1923  arr */\n      dup6\n      dup6\n        /* \"practise/dukedaily/day03/04abi.sol\":1925:1933  myStruct */\n      dup6\n        /* \"practise/dukedaily/day03/04abi.sol\":1900:1934  abi.encode(x, addr, arr, myStruct) */\n      add(0x20, mload(0x40))\n      tag_37\n      swap6\n      swap5\n      swap4\n      swap3\n      swap2\n      swap1\n      tag_38\n      jump\t// in\n    tag_37:\n      mload(0x40)\n      0x20\n      dup2\n      dup4\n      sub\n      sub\n      dup2\n      mstore\n      swap1\n      0x40\n      mstore\n        /* \"practise/dukedaily/day03/04abi.sol\":1893:1934  return abi.encode(x, addr, arr, myStruct) */\n      swap1\n      pop\n        /* \"practise/dukedaily/day03/04abi.sol\":1721:1941  function encode(... */\n      swap6\n      swap5\n      pop\n      pop\n      pop\n      pop\n      pop\n      jump\t// out\n        /* \"practise/dukedaily/day03/04abi.sol\":1947:2488  function decode(bytes calldata data)... */\n    tag_22:\n        /* \"practise/dukedaily/day03/04abi.sol\":2044:2050  uint x */\n      0x00\n        /* \"practise/dukedaily/day03/04abi.sol\":2064:2076  address addr */\n      dup1\n        /* \"practise/dukedaily/day03/04abi.sol\":2090:2107  uint[] memory arr */\n      0x60\n        /* \"practise/dukedaily/day03/04abi.sol\":2121:2145  MyStruct memory myStruct */\n      tag_39\n      tag_40\n      jump\t// in\n    tag_39:\n        /* \"practise/dukedaily/day03/04abi.sol\":2208:2212  data */\n      dup6\n      dup6\n        /* \"practise/dukedaily/day03/04abi.sol\":2197:2248  abi.decode(data, (uint, address, uint[], MyStruct)) */\n      dup2\n      add\n      swap1\n      tag_42\n      swap2\n      swap1\n      tag_43\n      jump\t// in\n    tag_42:\n        /* \"practise/dukedaily/day03/04abi.sol\":2170:2248  (x, addr, arr, myStruct) = abi.decode(data, (uint, address, uint[], MyStruct)) */\n      dup1\n      swap5\n      pop\n      dup2\n      swap6\n      pop\n      dup3\n      swap7\n      pop\n      dup4\n      swap8\n      pop\n      pop\n      pop\n      pop\n      pop\n        /* \"practise/dukedaily/day03/04abi.sol\":1947:2488  function decode(bytes calldata data)... */\n      swap3\n      swap6\n      swap2\n      swap5\n      pop\n      swap3\n      pop\n      jump\t// out\n        /* \"practise/dukedaily/day03/04abi.sol\":3886:4093  function encodePackedTest() public  pure returns (string memory) {... */\n    tag_26:\n        /* \"practise/dukedaily/day03/04abi.sol\":3936:3949  string memory */\n      0x60\n        /* \"practise/dukedaily/day03/04abi.sol\":3961:3978  string memory uri */\n      0x00\n        /* \"practise/dukedaily/day03/04abi.sol\":3961:4024  string memory uri = \"ipfs://bafybeidmrsvehl4ehipm5qqvgegi33r6/\" */\n      mload(0x40)\n      dup1\n      0x60\n      add\n      0x40\n      mstore\n      dup1\n      0x29\n      dup2\n      mstore\n      0x20\n      add\n      data_78f5984cd48107fa85e24c79ba072c0a56e5a8f628e6616efbb314b74aa2d4b2\n      0x29\n      swap2\n      codecopy\n      swap1\n      pop\n        /* \"practise/dukedaily/day03/04abi.sol\":4065:4068  uri */\n      dup1\n        /* \"practise/dukedaily/day03/04abi.sol\":4048:4085  abi.encodePacked(uri, \"100\", \".json\") */\n      add(0x20, mload(0x40))\n      tag_45\n      swap2\n      swap1\n      tag_46\n      jump\t// in\n    tag_45:\n      mload(0x40)\n      0x20\n      dup2\n      dup4\n      sub\n      sub\n      dup2\n      mstore\n      swap1\n      0x40\n      mstore\n        /* \"practise/dukedaily/day03/04abi.sol\":4034:4086  return string(abi.encodePacked(uri, \"100\", \".json\")) */\n      swap2\n      pop\n      pop\n        /* \"practise/dukedaily/day03/04abi.sol\":3886:4093  function encodePackedTest() public  pure returns (string memory) {... */\n      swap1\n      jump\t// out\n        /* \"practise/dukedaily/day03/04abi.sol\":2634:3123  function decodeLess(bytes calldata data)... */\n    tag_31:\n        /* \"practise/dukedaily/day03/04abi.sol\":2735:2741  uint x */\n      0x00\n        /* \"practise/dukedaily/day03/04abi.sol\":2755:2767  address addr */\n      dup1\n        /* \"practise/dukedaily/day03/04abi.sol\":2781:2798  uint[] memory arr */\n      0x60\n        /* \"practise/dukedaily/day03/04abi.sol\":2812:2836  MyStruct memory myStruct */\n      tag_47\n      tag_40\n      jump\t// in\n    tag_47:\n        /* \"practise/dukedaily/day03/04abi.sol\":2878:2882  data */\n      dup6\n      dup6\n        /* \"practise/dukedaily/day03/04abi.sol\":2867:2891  abi.decode(data, (uint)) */\n      dup2\n      add\n      swap1\n      tag_49\n      swap2\n      swap1\n      tag_50\n      jump\t// in\n    tag_49:\n        /* \"practise/dukedaily/day03/04abi.sol\":2861:2891  (x) = abi.decode(data, (uint)) */\n      swap4\n      pop\n        /* \"practise/dukedaily/day03/04abi.sol\":2634:3123  function decodeLess(bytes calldata data)... */\n      swap3\n      swap6\n      swap2\n      swap5\n      pop\n      swap3\n      pop\n      jump\t// out\n    tag_40:\n      mload(0x40)\n      dup1\n      0x40\n      add\n      0x40\n      mstore\n      dup1\n      0x60\n      dup2\n      mstore\n      0x20\n      add\n      tag_51\n      tag_52\n      jump\t// in\n    tag_51:\n      dup2\n      mstore\n      pop\n      swap1\n      jump\t// out\n    tag_52:\n      mload(0x40)\n      dup1\n      0x40\n      add\n      0x40\n      mstore\n      dup1\n      0x02\n      swap1\n      0x20\n      dup3\n      mul\n      dup1\n      calldatasize\n      dup4\n      calldatacopy\n      dup1\n      dup3\n      add\n      swap2\n      pop\n      pop\n      swap1\n      pop\n      pop\n      swap1\n      jump\t// out\n        /* \"#utility.yul\":7:82   */\n    tag_53:\n        /* \"#utility.yul\":40:46   */\n      0x00\n        /* \"#utility.yul\":73:75   */\n      0x40\n        /* \"#utility.yul\":67:76   */\n      mload\n        /* \"#utility.yul\":57:76   */\n      swap1\n      pop\n        /* \"#utility.yul\":7:82   */\n      swap1\n      jump\t// out\n        /* \"#utility.yul\":88:205   */\n    tag_54:\n        /* \"#utility.yul\":197:198   */\n      0x00\n        /* \"#utility.yul\":194:195   */\n      dup1\n        /* \"#utility.yul\":187:199   */\n      revert\n        /* \"#utility.yul\":211:328   */\n    tag_55:\n        /* \"#utility.yul\":320:321   */\n      0x00\n        /* \"#utility.yul\":317:318   */\n      dup1\n        /* \"#utility.yul\":310:322   */\n      revert\n        /* \"#utility.yul\":334:424   */\n    tag_56:\n        /* \"#utility.yul\":369:376   */\n      0x00\n        /* \"#utility.yul\":412:417   */\n      dup2\n        /* \"#utility.yul\":409:410   */\n      0x01\n        /* \"#utility.yul\":398:418   */\n      signextend\n        /* \"#utility.yul\":387:418   */\n      swap1\n      pop\n        /* \"#utility.yul\":334:424   */\n      swap2\n      swap1\n      pop\n      jump\t// out\n        /* \"#utility.yul\":430:548   */\n    tag_57:\n        /* \"#utility.yul\":501:523   */\n      tag_154\n        /* \"#utility.yul\":517:522   */\n      dup2\n        /* \"#utility.yul\":501:523   */\n      tag_56\n      jump\t// in\n    tag_154:\n        /* \"#utility.yul\":494:499   */\n      dup2\n        /* \"#utility.yul\":491:524   */\n      eq\n        /* \"#utility.yul\":481:542   */\n      tag_155\n      jumpi\n        /* \"#utility.yul\":538:539   */\n      0x00\n        /* \"#utility.yul\":535:536   */\n      dup1\n        /* \"#utility.yul\":528:540   */\n      revert\n        /* \"#utility.yul\":481:542   */\n    tag_155:\n        /* \"#utility.yul\":430:548   */\n      pop\n      jump\t// out\n        /* \"#utility.yul\":554:689   */\n    tag_58:\n        /* \"#utility.yul\":598:603   */\n      0x00\n        /* \"#utility.yul\":636:642   */\n      dup2\n        /* \"#utility.yul\":623:643   */\n      calldataload\n        /* \"#utility.yul\":614:643   */\n      swap1\n      pop\n        /* \"#utility.yul\":652:683   */\n      tag_157\n        /* \"#utility.yul\":677:682   */\n      dup2\n        /* \"#utility.yul\":652:683   */\n      tag_57\n      jump\t// in\n    tag_157:\n        /* \"#utility.yul\":554:689   */\n      swap3\n      swap2\n      pop\n      pop\n      jump\t// out\n        /* \"#utility.yul\":695:844   */\n    tag_59:\n        /* \"#utility.yul\":731:738   */\n      0x00\n        /* \"#utility.yul\":771:837   */\n      0xff00000000000000000000000000000000000000000000000000000000000000\n        /* \"#utility.yul\":764:769   */\n      dup3\n        /* \"#utility.yul\":760:838   */\n      and\n        /* \"#utility.yul\":749:838   */\n      swap1\n      pop\n        /* \"#utility.yul\":695:844   */\n      swap2\n      swap1\n      pop\n      jump\t// out\n        /* \"#utility.yul\":850:970   */\n    tag_60:\n        /* \"#utility.yul\":922:945   */\n      tag_160\n        /* \"#utility.yul\":939:944   */\n      dup2\n        /* \"#utility.yul\":922:945   */\n      tag_59\n      jump\t// in\n    tag_160:\n        /* \"#utility.yul\":915:920   */\n      dup2\n        /* \"#utility.yul\":912:946   */\n      eq\n        /* \"#utility.yul\":902:964   */\n      tag_161\n      jumpi\n        /* \"#utility.yul\":960:961   */\n      0x00\n        /* \"#utility.yul\":957:958   */\n      dup1\n        /* \"#utility.yul\":950:962   */\n      revert\n        /* \"#utility.yul\":902:964   */\n    tag_161:\n        /* \"#utility.yul\":850:970   */\n      pop\n      jump\t// out\n        /* \"#utility.yul\":976:1113   */\n    tag_61:\n        /* \"#utility.yul\":1021:1026   */\n      0x00\n        /* \"#utility.yul\":1059:1065   */\n      dup2\n        /* \"#utility.yul\":1046:1066   */\n      calldataload\n        /* \"#utility.yul\":1037:1066   */\n      swap1\n      pop\n        /* \"#utility.yul\":1075:1107   */\n      tag_163\n        /* \"#utility.yul\":1101:1106   */\n      dup2\n        /* \"#utility.yul\":1075:1107   */\n      tag_60\n      jump\t// in\n    tag_163:\n        /* \"#utility.yul\":976:1113   */\n      swap3\n      swap2\n      pop\n      pop\n      jump\t// out\n        /* \"#utility.yul\":1119:1208   */\n    tag_62:\n        /* \"#utility.yul\":1155:1162   */\n      0x00\n        /* \"#utility.yul\":1195:1201   */\n      0xffff\n        /* \"#utility.yul\":1188:1193   */\n      dup3\n        /* \"#utility.yul\":1184:1202   */\n      and\n        /* \"#utility.yul\":1173:1202   */\n      swap1\n      pop\n        /* \"#utility.yul\":1119:1208   */\n      swap2\n      swap1\n      pop\n      jump\t// out\n        /* \"#utility.yul\":1214:1334   */\n    tag_63:\n        /* \"#utility.yul\":1286:1309   */\n      tag_166\n        /* \"#utility.yul\":1303:1308   */\n      dup2\n        /* \"#utility.yul\":1286:1309   */\n      tag_62\n      jump\t// in\n    tag_166:\n        /* \"#utility.yul\":1279:1284   */\n      dup2\n        /* \"#utility.yul\":1276:1310   */\n      eq\n        /* \"#utility.yul\":1266:1328   */\n      tag_167\n      jumpi\n        /* \"#utility.yul\":1324:1325   */\n      0x00\n        /* \"#utility.yul\":1321:1322   */\n      dup1\n        /* \"#utility.yul\":1314:1326   */\n      revert\n        /* \"#utility.yul\":1266:1328   */\n    tag_167:\n        /* \"#utility.yul\":1214:1334   */\n      pop\n      jump\t// out\n        /* \"#utility.yul\":1340:1477   */\n    tag_64:\n        /* \"#utility.yul\":1385:1390   */\n      0x00\n        /* \"#utility.yul\":1423:1429   */\n      dup2\n        /* \"#utility.yul\":1410:1430   */\n      calldataload\n        /* \"#utility.yul\":1401:1430   */\n      swap1\n      pop\n        /* \"#utility.yul\":1439:1471   */\n      tag_169\n        /* \"#utility.yul\":1465:1470   */\n      dup2\n        /* \"#utility.yul\":1439:1471   */\n      tag_63\n      jump\t// in\n    tag_169:\n        /* \"#utility.yul\":1340:1477   */\n      swap3\n      swap2\n      pop\n      pop\n      jump\t// out\n        /* \"#utility.yul\":1483:1600   */\n    tag_65:\n        /* \"#utility.yul\":1592:1593   */\n      0x00\n        /* \"#utility.yul\":1589:1590   */\n      dup1\n        /* \"#utility.yul\":1582:1594   */\n      revert\n        /* \"#utility.yul\":1606:1723   */\n    tag_66:\n        /* \"#utility.yul\":1715:1716   */\n      0x00\n        /* \"#utility.yul\":1712:1713   */\n      dup1\n        /* \"#utility.yul\":1705:1717   */\n      revert\n        /* \"#utility.yul\":1729:1831   */\n    tag_67:\n        /* \"#utility.yul\":1770:1776   */\n      0x00\n        /* \"#utility.yul\":1821:1823   */\n      0x1f\n        /* \"#utility.yul\":1817:1824   */\n      not\n        /* \"#utility.yul\":1812:1814   */\n      0x1f\n        /* \"#utility.yul\":1805:1810   */\n      dup4\n        /* \"#utility.yul\":1801:1815   */\n      add\n        /* \"#utility.yul\":1797:1825   */\n      and\n        /* \"#utility.yul\":1787:1825   */\n      swap1\n      pop\n        /* \"#utility.yul\":1729:1831   */\n      swap2\n      swap1\n      pop\n      jump\t// out\n        /* \"#utility.yul\":1837:2017   */\n    tag_68:\n        /* \"#utility.yul\":1885:1962   */\n      0x4e487b7100000000000000000000000000000000000000000000000000000000\n        /* \"#utility.yul\":1882:1883   */\n      0x00\n        /* \"#utility.yul\":1875:1963   */\n      mstore\n        /* \"#utility.yul\":1982:1986   */\n      0x41\n        /* \"#utility.yul\":1979:1980   */\n      0x04\n        /* \"#utility.yul\":1972:1987   */\n      mstore\n        /* \"#utility.yul\":2006:2010   */\n      0x24\n        /* \"#utility.yul\":2003:2004   */\n      0x00\n        /* \"#utility.yul\":1996:2011   */\n      revert\n        /* \"#utility.yul\":2023:2304   */\n    tag_69:\n        /* \"#utility.yul\":2106:2133   */\n      tag_175\n        /* \"#utility.yul\":2128:2132   */\n      dup3\n        /* \"#utility.yul\":2106:2133   */\n      tag_67\n      jump\t// in\n    tag_175:\n        /* \"#utility.yul\":2098:2104   */\n      dup2\n        /* \"#utility.yul\":2094:2134   */\n      add\n        /* \"#utility.yul\":2236:2242   */\n      dup2\n        /* \"#utility.yul\":2224:2234   */\n      dup2\n        /* \"#utility.yul\":2221:2243   */\n      lt\n        /* \"#utility.yul\":2200:2218   */\n      0xffffffffffffffff\n        /* \"#utility.yul\":2188:2198   */\n      dup3\n        /* \"#utility.yul\":2185:2219   */\n      gt\n        /* \"#utility.yul\":2182:2244   */\n      or\n        /* \"#utility.yul\":2179:2267   */\n      iszero\n      tag_176\n      jumpi\n        /* \"#utility.yul\":2247:2265   */\n      tag_177\n      tag_68\n      jump\t// in\n    tag_177:\n        /* \"#utility.yul\":2179:2267   */\n    tag_176:\n        /* \"#utility.yul\":2287:2297   */\n      dup1\n        /* \"#utility.yul\":2283:2285   */\n      0x40\n        /* \"#utility.yul\":2276:2298   */\n      mstore\n        /* \"#utility.yul\":2066:2304   */\n      pop\n        /* \"#utility.yul\":2023:2304   */\n      pop\n      pop\n      jump\t// out\n        /* \"#utility.yul\":2310:2439   */\n    tag_70:\n        /* \"#utility.yul\":2344:2350   */\n      0x00\n        /* \"#utility.yul\":2371:2391   */\n      tag_179\n      tag_53\n      jump\t// in\n    tag_179:\n        /* \"#utility.yul\":2361:2391   */\n      swap1\n      pop\n        /* \"#utility.yul\":2400:2433   */\n      tag_180\n        /* \"#utility.yul\":2428:2432   */\n      dup3\n        /* \"#utility.yul\":2420:2426   */\n      dup3\n        /* \"#utility.yul\":2400:2433   */\n      tag_69\n      jump\t// in\n    tag_180:\n        /* \"#utility.yul\":2310:2439   */\n      swap2\n      swap1\n      pop\n      jump\t// out\n        /* \"#utility.yul\":2445:2753   */\n    tag_71:\n        /* \"#utility.yul\":2507:2511   */\n      0x00\n        /* \"#utility.yul\":2597:2615   */\n      0xffffffffffffffff\n        /* \"#utility.yul\":2589:2595   */\n      dup3\n        /* \"#utility.yul\":2586:2616   */\n      gt\n        /* \"#utility.yul\":2583:2639   */\n      iszero\n      tag_182\n      jumpi\n        /* \"#utility.yul\":2619:2637   */\n      tag_183\n      tag_68\n      jump\t// in\n    tag_183:\n        /* \"#utility.yul\":2583:2639   */\n    tag_182:\n        /* \"#utility.yul\":2657:2686   */\n      tag_184\n        /* \"#utility.yul\":2679:2685   */\n      dup3\n        /* \"#utility.yul\":2657:2686   */\n      tag_67\n      jump\t// in\n    tag_184:\n        /* \"#utility.yul\":2649:2686   */\n      swap1\n      pop\n        /* \"#utility.yul\":2741:2745   */\n      0x20\n        /* \"#utility.yul\":2735:2739   */\n      dup2\n        /* \"#utility.yul\":2731:2746   */\n      add\n        /* \"#utility.yul\":2723:2746   */\n      swap1\n      pop\n        /* \"#utility.yul\":2445:2753   */\n      swap2\n      swap1\n      pop\n      jump\t// out\n        /* \"#utility.yul\":2759:2907   */\n    tag_72:\n        /* \"#utility.yul\":2857:2863   */\n      dup3\n        /* \"#utility.yul\":2852:2855   */\n      dup2\n        /* \"#utility.yul\":2847:2850   */\n      dup4\n        /* \"#utility.yul\":2834:2864   */\n      calldatacopy\n        /* \"#utility.yul\":2898:2899   */\n      0x00\n        /* \"#utility.yul\":2889:2895   */\n      dup4\n        /* \"#utility.yul\":2884:2887   */\n      dup4\n        /* \"#utility.yul\":2880:2896   */\n      add\n        /* \"#utility.yul\":2873:2900   */\n      mstore\n        /* \"#utility.yul\":2759:2907   */\n      pop\n      pop\n      pop\n      jump\t// out\n        /* \"#utility.yul\":2913:3338   */\n    tag_73:\n        /* \"#utility.yul\":2991:2996   */\n      0x00\n        /* \"#utility.yul\":3016:3082   */\n      tag_187\n        /* \"#utility.yul\":3032:3081   */\n      tag_188\n        /* \"#utility.yul\":3074:3080   */\n      dup5\n        /* \"#utility.yul\":3032:3081   */\n      tag_71\n      jump\t// in\n    tag_188:\n        /* \"#utility.yul\":3016:3082   */\n      tag_70\n      jump\t// in\n    tag_187:\n        /* \"#utility.yul\":3007:3082   */\n      swap1\n      pop\n        /* \"#utility.yul\":3105:3111   */\n      dup3\n        /* \"#utility.yul\":3098:3103   */\n      dup2\n        /* \"#utility.yul\":3091:3112   */\n      mstore\n        /* \"#utility.yul\":3143:3147   */\n      0x20\n        /* \"#utility.yul\":3136:3141   */\n      dup2\n        /* \"#utility.yul\":3132:3148   */\n      add\n        /* \"#utility.yul\":3181:3184   */\n      dup5\n        /* \"#utility.yul\":3172:3178   */\n      dup5\n        /* \"#utility.yul\":3167:3170   */\n      dup5\n        /* \"#utility.yul\":3163:3179   */\n      add\n        /* \"#utility.yul\":3160:3185   */\n      gt\n        /* \"#utility.yul\":3157:3269   */\n      iszero\n      tag_189\n      jumpi\n        /* \"#utility.yul\":3188:3267   */\n      tag_190\n      tag_66\n      jump\t// in\n    tag_190:\n        /* \"#utility.yul\":3157:3269   */\n    tag_189:\n        /* \"#utility.yul\":3278:3332   */\n      tag_191\n        /* \"#utility.yul\":3325:3331   */\n      dup5\n        /* \"#utility.yul\":3320:3323   */\n      dup3\n        /* \"#utility.yul\":3315:3318   */\n      dup6\n        /* \"#utility.yul\":3278:3332   */\n      tag_72\n      jump\t// in\n    tag_191:\n        /* \"#utility.yul\":2997:3338   */\n      pop\n        /* \"#utility.yul\":2913:3338   */\n      swap4\n      swap3\n      pop\n      pop\n      pop\n      jump\t// out\n        /* \"#utility.yul\":3358:3698   */\n    tag_74:\n        /* \"#utility.yul\":3414:3419   */\n      0x00\n        /* \"#utility.yul\":3463:3466   */\n      dup3\n        /* \"#utility.yul\":3456:3460   */\n      0x1f\n        /* \"#utility.yul\":3448:3454   */\n      dup4\n        /* \"#utility.yul\":3444:3461   */\n      add\n        /* \"#utility.yul\":3440:3467   */\n      slt\n        /* \"#utility.yul\":3430:3552   */\n      tag_193\n      jumpi\n        /* \"#utility.yul\":3471:3550   */\n      tag_194\n      tag_65\n      jump\t// in\n    tag_194:\n        /* \"#utility.yul\":3430:3552   */\n    tag_193:\n        /* \"#utility.yul\":3588:3594   */\n      dup2\n        /* \"#utility.yul\":3575:3595   */\n      calldataload\n        /* \"#utility.yul\":3613:3692   */\n      tag_195\n        /* \"#utility.yul\":3688:3691   */\n      dup5\n        /* \"#utility.yul\":3680:3686   */\n      dup3\n        /* \"#utility.yul\":3673:3677   */\n      0x20\n        /* \"#utility.yul\":3665:3671   */\n      dup7\n        /* \"#utility.yul\":3661:3678   */\n      add\n        /* \"#utility.yul\":3613:3692   */\n      tag_73\n      jump\t// in\n    tag_195:\n        /* \"#utility.yul\":3604:3692   */\n      swap2\n      pop\n        /* \"#utility.yul\":3420:3698   */\n      pop\n        /* \"#utility.yul\":3358:3698   */\n      swap3\n      swap2\n      pop\n      pop\n      jump\t// out\n        /* \"#utility.yul\":3704:4641   */\n    tag_10:\n        /* \"#utility.yul\":3796:3802   */\n      0x00\n        /* \"#utility.yul\":3804:3810   */\n      dup1\n        /* \"#utility.yul\":3812:3818   */\n      0x00\n        /* \"#utility.yul\":3820:3826   */\n      dup1\n        /* \"#utility.yul\":3869:3872   */\n      0x80\n        /* \"#utility.yul\":3857:3866   */\n      dup6\n        /* \"#utility.yul\":3848:3855   */\n      dup8\n        /* \"#utility.yul\":3844:3867   */\n      sub\n        /* \"#utility.yul\":3840:3873   */\n      slt\n        /* \"#utility.yul\":3837:3957   */\n      iszero\n      tag_197\n      jumpi\n        /* \"#utility.yul\":3876:3955   */\n      tag_198\n      tag_54\n      jump\t// in\n    tag_198:\n        /* \"#utility.yul\":3837:3957   */\n    tag_197:\n        /* \"#utility.yul\":3996:3997   */\n      0x00\n        /* \"#utility.yul\":4021:4072   */\n      tag_199\n        /* \"#utility.yul\":4064:4071   */\n      dup8\n        /* \"#utility.yul\":4055:4061   */\n      dup3\n        /* \"#utility.yul\":4044:4053   */\n      dup9\n        /* \"#utility.yul\":4040:4062   */\n      add\n        /* \"#utility.yul\":4021:4072   */\n      tag_58\n      jump\t// in\n    tag_199:\n        /* \"#utility.yul\":4011:4072   */\n      swap5\n      pop\n        /* \"#utility.yul\":3967:4082   */\n      pop\n        /* \"#utility.yul\":4121:4123   */\n      0x20\n        /* \"#utility.yul\":4147:4199   */\n      tag_200\n        /* \"#utility.yul\":4191:4198   */\n      dup8\n        /* \"#utility.yul\":4182:4188   */\n      dup3\n        /* \"#utility.yul\":4171:4180   */\n      dup9\n        /* \"#utility.yul\":4167:4189   */\n      add\n        /* \"#utility.yul\":4147:4199   */\n      tag_61\n      jump\t// in\n    tag_200:\n        /* \"#utility.yul\":4137:4199   */\n      swap4\n      pop\n        /* \"#utility.yul\":4092:4209   */\n      pop\n        /* \"#utility.yul\":4248:4250   */\n      0x40\n        /* \"#utility.yul\":4274:4326   */\n      tag_201\n        /* \"#utility.yul\":4318:4325   */\n      dup8\n        /* \"#utility.yul\":4309:4315   */\n      dup3\n        /* \"#utility.yul\":4298:4307   */\n      dup9\n        /* \"#utility.yul\":4294:4316   */\n      add\n        /* \"#utility.yul\":4274:4326   */\n      tag_64\n      jump\t// in\n    tag_201:\n        /* \"#utility.yul\":4264:4326   */\n      swap3\n      pop\n        /* \"#utility.yul\":4219:4336   */\n      pop\n        /* \"#utility.yul\":4403:4405   */\n      0x60\n        /* \"#utility.yul\":4392:4401   */\n      dup6\n        /* \"#utility.yul\":4388:4406   */\n      add\n        /* \"#utility.yul\":4375:4407   */\n      calldataload\n        /* \"#utility.yul\":4434:4452   */\n      0xffffffffffffffff\n        /* \"#utility.yul\":4426:4432   */\n      dup2\n        /* \"#utility.yul\":4423:4453   */\n      gt\n        /* \"#utility.yul\":4420:4537   */\n      iszero\n      tag_202\n      jumpi\n        /* \"#utility.yul\":4456:4535   */\n      tag_203\n      tag_55\n      jump\t// in\n    tag_203:\n        /* \"#utility.yul\":4420:4537   */\n    tag_202:\n        /* \"#utility.yul\":4561:4624   */\n      tag_204\n        /* \"#utility.yul\":4616:4623   */\n      dup8\n        /* \"#utility.yul\":4607:4613   */\n      dup3\n        /* \"#utility.yul\":4596:4605   */\n      dup9\n        /* \"#utility.yul\":4592:4614   */\n      add\n        /* \"#utility.yul\":4561:4624   */\n      tag_74\n      jump\t// in\n    tag_204:\n        /* \"#utility.yul\":4551:4624   */\n      swap2\n      pop\n        /* \"#utility.yul\":4346:4634   */\n      pop\n        /* \"#utility.yul\":3704:4641   */\n      swap3\n      swap6\n      swap2\n      swap5\n      pop\n      swap3\n      pop\n      jump\t// out\n        /* \"#utility.yul\":4647:4745   */\n    tag_75:\n        /* \"#utility.yul\":4698:4704   */\n      0x00\n        /* \"#utility.yul\":4732:4737   */\n      dup2\n        /* \"#utility.yul\":4726:4738   */\n      mload\n        /* \"#utility.yul\":4716:4738   */\n      swap1\n      pop\n        /* \"#utility.yul\":4647:4745   */\n      swap2\n      swap1\n      pop\n      jump\t// out\n        /* \"#utility.yul\":4751:4919   */\n    tag_76:\n        /* \"#utility.yul\":4834:4845   */\n      0x00\n        /* \"#utility.yul\":4868:4874   */\n      dup3\n        /* \"#utility.yul\":4863:4866   */\n      dup3\n        /* \"#utility.yul\":4856:4875   */\n      mstore\n        /* \"#utility.yul\":4908:4912   */\n      0x20\n        /* \"#utility.yul\":4903:4906   */\n      dup3\n        /* \"#utility.yul\":4899:4913   */\n      add\n        /* \"#utility.yul\":4884:4913   */\n      swap1\n      pop\n        /* \"#utility.yul\":4751:4919   */\n      swap3\n      swap2\n      pop\n      pop\n      jump\t// out\n        /* \"#utility.yul\":4925:5064   */\n    tag_77:\n        /* \"#utility.yul\":5014:5020   */\n      dup3\n        /* \"#utility.yul\":5009:5012   */\n      dup2\n        /* \"#utility.yul\":5004:5007   */\n      dup4\n        /* \"#utility.yul\":4998:5021   */\n      mcopy\n        /* \"#utility.yul\":5055:5056   */\n      0x00\n        /* \"#utility.yul\":5046:5052   */\n      dup4\n        /* \"#utility.yul\":5041:5044   */\n      dup4\n        /* \"#utility.yul\":5037:5053   */\n      add\n        /* \"#utility.yul\":5030:5057   */\n      mstore\n        /* \"#utility.yul\":4925:5064   */\n      pop\n      pop\n      pop\n      jump\t// out\n        /* \"#utility.yul\":5070:5443   */\n    tag_78:\n        /* \"#utility.yul\":5156:5159   */\n      0x00\n        /* \"#utility.yul\":5184:5222   */\n      tag_209\n        /* \"#utility.yul\":5216:5221   */\n      dup3\n        /* \"#utility.yul\":5184:5222   */\n      tag_75\n      jump\t// in\n    tag_209:\n        /* \"#utility.yul\":5238:5308   */\n      tag_210\n        /* \"#utility.yul\":5301:5307   */\n      dup2\n        /* \"#utility.yul\":5296:5299   */\n      dup6\n        /* \"#utility.yul\":5238:5308   */\n      tag_76\n      jump\t// in\n    tag_210:\n        /* \"#utility.yul\":5231:5308   */\n      swap4\n      pop\n        /* \"#utility.yul\":5317:5382   */\n      tag_211\n        /* \"#utility.yul\":5375:5381   */\n      dup2\n        /* \"#utility.yul\":5370:5373   */\n      dup6\n        /* \"#utility.yul\":5363:5367   */\n      0x20\n        /* \"#utility.yul\":5356:5361   */\n      dup7\n        /* \"#utility.yul\":5352:5368   */\n      add\n        /* \"#utility.yul\":5317:5382   */\n      tag_77\n      jump\t// in\n    tag_211:\n        /* \"#utility.yul\":5407:5436   */\n      tag_212\n        /* \"#utility.yul\":5429:5435   */\n      dup2\n        /* \"#utility.yul\":5407:5436   */\n      tag_67\n      jump\t// in\n    tag_212:\n        /* \"#utility.yul\":5402:5405   */\n      dup5\n        /* \"#utility.yul\":5398:5437   */\n      add\n        /* \"#utility.yul\":5391:5437   */\n      swap2\n      pop\n        /* \"#utility.yul\":5160:5443   */\n      pop\n        /* \"#utility.yul\":5070:5443   */\n      swap3\n      swap2\n      pop\n      pop\n      jump\t// out\n        /* \"#utility.yul\":5449:5758   */\n    tag_13:\n        /* \"#utility.yul\":5560:5564   */\n      0x00\n        /* \"#utility.yul\":5598:5600   */\n      0x20\n        /* \"#utility.yul\":5587:5596   */\n      dup3\n        /* \"#utility.yul\":5583:5601   */\n      add\n        /* \"#utility.yul\":5575:5601   */\n      swap1\n      pop\n        /* \"#utility.yul\":5647:5656   */\n      dup2\n        /* \"#utility.yul\":5641:5645   */\n      dup2\n        /* \"#utility.yul\":5637:5657   */\n      sub\n        /* \"#utility.yul\":5633:5634   */\n      0x00\n        /* \"#utility.yul\":5622:5631   */\n      dup4\n        /* \"#utility.yul\":5618:5635   */\n      add\n        /* \"#utility.yul\":5611:5658   */\n      mstore\n        /* \"#utility.yul\":5675:5751   */\n      tag_214\n        /* \"#utility.yul\":5746:5750   */\n      dup2\n        /* \"#utility.yul\":5737:5743   */\n      dup5\n        /* \"#utility.yul\":5675:5751   */\n      tag_78\n      jump\t// in\n    tag_214:\n        /* \"#utility.yul\":5667:5751   */\n      swap1\n      pop\n        /* \"#utility.yul\":5449:5758   */\n      swap3\n      swap2\n      pop\n      pop\n      jump\t// out\n        /* \"#utility.yul\":5764:5841   */\n    tag_79:\n        /* \"#utility.yul\":5801:5808   */\n      0x00\n        /* \"#utility.yul\":5830:5835   */\n      dup2\n        /* \"#utility.yul\":5819:5835   */\n      swap1\n      pop\n        /* \"#utility.yul\":5764:5841   */\n      swap2\n      swap1\n      pop\n      jump\t// out\n        /* \"#utility.yul\":5847:5969   */\n    tag_80:\n        /* \"#utility.yul\":5920:5944   */\n      tag_217\n        /* \"#utility.yul\":5938:5943   */\n      dup2\n        /* \"#utility.yul\":5920:5944   */\n      tag_79\n      jump\t// in\n    tag_217:\n        /* \"#utility.yul\":5913:5918   */\n      dup2\n        /* \"#utility.yul\":5910:5945   */\n      eq\n        /* \"#utility.yul\":5900:5963   */\n      tag_218\n      jumpi\n        /* \"#utility.yul\":5959:5960   */\n      0x00\n        /* \"#utility.yul\":5956:5957   */\n      dup1\n        /* \"#utility.yul\":5949:5961   */\n      revert\n        /* \"#utility.yul\":5900:5963   */\n    tag_218:\n        /* \"#utility.yul\":5847:5969   */\n      pop\n      jump\t// out\n        /* \"#utility.yul\":5975:6114   */\n    tag_81:\n        /* \"#utility.yul\":6021:6026   */\n      0x00\n        /* \"#utility.yul\":6059:6065   */\n      dup2\n        /* \"#utility.yul\":6046:6066   */\n      calldataload\n        /* \"#utility.yul\":6037:6066   */\n      swap1\n      pop\n        /* \"#utility.yul\":6075:6108   */\n      tag_220\n        /* \"#utility.yul\":6102:6107   */\n      dup2\n        /* \"#utility.yul\":6075:6108   */\n      tag_80\n      jump\t// in\n    tag_220:\n        /* \"#utility.yul\":5975:6114   */\n      swap3\n      swap2\n      pop\n      pop\n      jump\t// out\n        /* \"#utility.yul\":6120:6246   */\n    tag_82:\n        /* \"#utility.yul\":6157:6164   */\n      0x00\n        /* \"#utility.yul\":6197:6239   */\n      0xffffffffffffffffffffffffffffffffffffffff\n        /* \"#utility.yul\":6190:6195   */\n      dup3\n        /* \"#utility.yul\":6186:6240   */\n      and\n        /* \"#utility.yul\":6175:6240   */\n      swap1\n      pop\n        /* \"#utility.yul\":6120:6246   */\n      swap2\n      swap1\n      pop\n      jump\t// out\n        /* \"#utility.yul\":6252:6348   */\n    tag_83:\n        /* \"#utility.yul\":6289:6296   */\n      0x00\n        /* \"#utility.yul\":6318:6342   */\n      tag_223\n        /* \"#utility.yul\":6336:6341   */\n      dup3\n        /* \"#utility.yul\":6318:6342   */\n      tag_82\n      jump\t// in\n    tag_223:\n        /* \"#utility.yul\":6307:6342   */\n      swap1\n      pop\n        /* \"#utility.yul\":6252:6348   */\n      swap2\n      swap1\n      pop\n      jump\t// out\n        /* \"#utility.yul\":6354:6476   */\n    tag_84:\n        /* \"#utility.yul\":6427:6451   */\n      tag_225\n        /* \"#utility.yul\":6445:6450   */\n      dup2\n        /* \"#utility.yul\":6427:6451   */\n      tag_83\n      jump\t// in\n    tag_225:\n        /* \"#utility.yul\":6420:6425   */\n      dup2\n        /* \"#utility.yul\":6417:6452   */\n      eq\n        /* \"#utility.yul\":6407:6470   */\n      tag_226\n      jumpi\n        /* \"#utility.yul\":6466:6467   */\n      0x00\n        /* \"#utility.yul\":6463:6464   */\n      dup1\n        /* \"#utility.yul\":6456:6468   */\n      revert\n        /* \"#utility.yul\":6407:6470   */\n    tag_226:\n        /* \"#utility.yul\":6354:6476   */\n      pop\n      jump\t// out\n        /* \"#utility.yul\":6482:6621   */\n    tag_85:\n        /* \"#utility.yul\":6528:6533   */\n      0x00\n        /* \"#utility.yul\":6566:6572   */\n      dup2\n        /* \"#utility.yul\":6553:6573   */\n      calldataload\n        /* \"#utility.yul\":6544:6573   */\n      swap1\n      pop\n        /* \"#utility.yul\":6582:6615   */\n      tag_228\n        /* \"#utility.yul\":6609:6614   */\n      dup2\n        /* \"#utility.yul\":6582:6615   */\n      tag_84\n      jump\t// in\n    tag_228:\n        /* \"#utility.yul\":6482:6621   */\n      swap3\n      swap2\n      pop\n      pop\n      jump\t// out\n        /* \"#utility.yul\":6627:6744   */\n    tag_86:\n        /* \"#utility.yul\":6736:6737   */\n      0x00\n        /* \"#utility.yul\":6733:6734   */\n      dup1\n        /* \"#utility.yul\":6726:6738   */\n      revert\n        /* \"#utility.yul\":6750:6867   */\n    tag_87:\n        /* \"#utility.yul\":6859:6860   */\n      0x00\n        /* \"#utility.yul\":6856:6857   */\n      dup1\n        /* \"#utility.yul\":6849:6861   */\n      revert\n        /* \"#utility.yul\":6890:7458   */\n    tag_88:\n        /* \"#utility.yul\":6963:6971   */\n      0x00\n        /* \"#utility.yul\":6973:6979   */\n      dup1\n        /* \"#utility.yul\":7023:7026   */\n      dup4\n        /* \"#utility.yul\":7016:7020   */\n      0x1f\n        /* \"#utility.yul\":7008:7014   */\n      dup5\n        /* \"#utility.yul\":7004:7021   */\n      add\n        /* \"#utility.yul\":7000:7027   */\n      slt\n        /* \"#utility.yul\":6990:7112   */\n      tag_232\n      jumpi\n        /* \"#utility.yul\":7031:7110   */\n      tag_233\n      tag_65\n      jump\t// in\n    tag_233:\n        /* \"#utility.yul\":6990:7112   */\n    tag_232:\n        /* \"#utility.yul\":7144:7150   */\n      dup3\n        /* \"#utility.yul\":7131:7151   */\n      calldataload\n        /* \"#utility.yul\":7121:7151   */\n      swap1\n      pop\n        /* \"#utility.yul\":7174:7192   */\n      0xffffffffffffffff\n        /* \"#utility.yul\":7166:7172   */\n      dup2\n        /* \"#utility.yul\":7163:7193   */\n      gt\n        /* \"#utility.yul\":7160:7277   */\n      iszero\n      tag_234\n      jumpi\n        /* \"#utility.yul\":7196:7275   */\n      tag_235\n      tag_86\n      jump\t// in\n    tag_235:\n        /* \"#utility.yul\":7160:7277   */\n    tag_234:\n        /* \"#utility.yul\":7310:7314   */\n      0x20\n        /* \"#utility.yul\":7302:7308   */\n      dup4\n        /* \"#utility.yul\":7298:7315   */\n      add\n        /* \"#utility.yul\":7286:7315   */\n      swap2\n      pop\n        /* \"#utility.yul\":7364:7367   */\n      dup4\n        /* \"#utility.yul\":7356:7360   */\n      0x20\n        /* \"#utility.yul\":7348:7354   */\n      dup3\n        /* \"#utility.yul\":7344:7361   */\n      mul\n        /* \"#utility.yul\":7334:7342   */\n      dup4\n        /* \"#utility.yul\":7330:7362   */\n      add\n        /* \"#utility.yul\":7327:7368   */\n      gt\n        /* \"#utility.yul\":7324:7452   */\n      iszero\n      tag_236\n      jumpi\n        /* \"#utility.yul\":7371:7450   */\n      tag_237\n      tag_87\n      jump\t// in\n    tag_237:\n        /* \"#utility.yul\":7324:7452   */\n    tag_236:\n        /* \"#utility.yul\":6890:7458   */\n      swap3\n      pop\n      swap3\n      swap1\n      pop\n      jump\t// out\n        /* \"#utility.yul\":7464:7581   */\n    tag_89:\n        /* \"#utility.yul\":7573:7574   */\n      0x00\n        /* \"#utility.yul\":7570:7571   */\n      dup1\n        /* \"#utility.yul\":7563:7575   */\n      revert\n        /* \"#utility.yul\":7620:7849   */\n    tag_90:\n        /* \"#utility.yul\":7691:7696   */\n      0x00\n        /* \"#utility.yul\":7732:7734   */\n      0x60\n        /* \"#utility.yul\":7723:7729   */\n      dup3\n        /* \"#utility.yul\":7718:7721   */\n      dup5\n        /* \"#utility.yul\":7714:7730   */\n      sub\n        /* \"#utility.yul\":7710:7735   */\n      slt\n        /* \"#utility.yul\":7707:7819   */\n      iszero\n      tag_240\n      jumpi\n        /* \"#utility.yul\":7738:7817   */\n      tag_241\n      tag_89\n      jump\t// in\n    tag_241:\n        /* \"#utility.yul\":7707:7819   */\n    tag_240:\n        /* \"#utility.yul\":7837:7843   */\n      dup2\n        /* \"#utility.yul\":7828:7843   */\n      swap1\n      pop\n        /* \"#utility.yul\":7620:7849   */\n      swap3\n      swap2\n      pop\n      pop\n      jump\t// out\n        /* \"#utility.yul\":7855:9060   */\n    tag_16:\n        /* \"#utility.yul\":7993:7999   */\n      0x00\n        /* \"#utility.yul\":8001:8007   */\n      dup1\n        /* \"#utility.yul\":8009:8015   */\n      0x00\n        /* \"#utility.yul\":8017:8023   */\n      dup1\n        /* \"#utility.yul\":8025:8031   */\n      0x00\n        /* \"#utility.yul\":8074:8077   */\n      0x80\n        /* \"#utility.yul\":8062:8071   */\n      dup7\n        /* \"#utility.yul\":8053:8060   */\n      dup9\n        /* \"#utility.yul\":8049:8072   */\n      sub\n        /* \"#utility.yul\":8045:8078   */\n      slt\n        /* \"#utility.yul\":8042:8162   */\n      iszero\n      tag_243\n      jumpi\n        /* \"#utility.yul\":8081:8160   */\n      tag_244\n      tag_54\n      jump\t// in\n    tag_244:\n        /* \"#utility.yul\":8042:8162   */\n    tag_243:\n        /* \"#utility.yul\":8201:8202   */\n      0x00\n        /* \"#utility.yul\":8226:8279   */\n      tag_245\n        /* \"#utility.yul\":8271:8278   */\n      dup9\n        /* \"#utility.yul\":8262:8268   */\n      dup3\n        /* \"#utility.yul\":8251:8260   */\n      dup10\n        /* \"#utility.yul\":8247:8269   */\n      add\n        /* \"#utility.yul\":8226:8279   */\n      tag_81\n      jump\t// in\n    tag_245:\n        /* \"#utility.yul\":8216:8279   */\n      swap6\n      pop\n        /* \"#utility.yul\":8172:8289   */\n      pop\n        /* \"#utility.yul\":8328:8330   */\n      0x20\n        /* \"#utility.yul\":8354:8407   */\n      tag_246\n        /* \"#utility.yul\":8399:8406   */\n      dup9\n        /* \"#utility.yul\":8390:8396   */\n      dup3\n        /* \"#utility.yul\":8379:8388   */\n      dup10\n        /* \"#utility.yul\":8375:8397   */\n      add\n        /* \"#utility.yul\":8354:8407   */\n      tag_85\n      jump\t// in\n    tag_246:\n        /* \"#utility.yul\":8344:8407   */\n      swap5\n      pop\n        /* \"#utility.yul\":8299:8417   */\n      pop\n        /* \"#utility.yul\":8484:8486   */\n      0x40\n        /* \"#utility.yul\":8473:8482   */\n      dup7\n        /* \"#utility.yul\":8469:8487   */\n      add\n        /* \"#utility.yul\":8456:8488   */\n      calldataload\n        /* \"#utility.yul\":8515:8533   */\n      0xffffffffffffffff\n        /* \"#utility.yul\":8507:8513   */\n      dup2\n        /* \"#utility.yul\":8504:8534   */\n      gt\n        /* \"#utility.yul\":8501:8618   */\n      iszero\n      tag_247\n      jumpi\n        /* \"#utility.yul\":8537:8616   */\n      tag_248\n      tag_55\n      jump\t// in\n    tag_248:\n        /* \"#utility.yul\":8501:8618   */\n    tag_247:\n        /* \"#utility.yul\":8650:8730   */\n      tag_249\n        /* \"#utility.yul\":8722:8729   */\n      dup9\n        /* \"#utility.yul\":8713:8719   */\n      dup3\n        /* \"#utility.yul\":8702:8711   */\n      dup10\n        /* \"#utility.yul\":8698:8720   */\n      add\n        /* \"#utility.yul\":8650:8730   */\n      tag_88\n      jump\t// in\n    tag_249:\n        /* \"#utility.yul\":8632:8730   */\n      swap4\n      pop\n      swap4\n      pop\n        /* \"#utility.yul\":8427:8740   */\n      pop\n        /* \"#utility.yul\":8807:8809   */\n      0x60\n        /* \"#utility.yul\":8796:8805   */\n      dup7\n        /* \"#utility.yul\":8792:8810   */\n      add\n        /* \"#utility.yul\":8779:8811   */\n      calldataload\n        /* \"#utility.yul\":8838:8856   */\n      0xffffffffffffffff\n        /* \"#utility.yul\":8830:8836   */\n      dup2\n        /* \"#utility.yul\":8827:8857   */\n      gt\n        /* \"#utility.yul\":8824:8941   */\n      iszero\n      tag_250\n      jumpi\n        /* \"#utility.yul\":8860:8939   */\n      tag_251\n      tag_55\n      jump\t// in\n    tag_251:\n        /* \"#utility.yul\":8824:8941   */\n    tag_250:\n        /* \"#utility.yul\":8965:9043   */\n      tag_252\n        /* \"#utility.yul\":9035:9042   */\n      dup9\n        /* \"#utility.yul\":9026:9032   */\n      dup3\n        /* \"#utility.yul\":9015:9024   */\n      dup10\n        /* \"#utility.yul\":9011:9033   */\n      add\n        /* \"#utility.yul\":8965:9043   */\n      tag_90\n      jump\t// in\n    tag_252:\n        /* \"#utility.yul\":8955:9043   */\n      swap2\n      pop\n        /* \"#utility.yul\":8750:9053   */\n      pop\n        /* \"#utility.yul\":7855:9060   */\n      swap3\n      swap6\n      pop\n      swap3\n      swap6\n      swap1\n      swap4\n      pop\n      jump\t// out\n        /* \"#utility.yul\":9079:9631   */\n    tag_91:\n        /* \"#utility.yul\":9136:9144   */\n      0x00\n        /* \"#utility.yul\":9146:9152   */\n      dup1\n        /* \"#utility.yul\":9196:9199   */\n      dup4\n        /* \"#utility.yul\":9189:9193   */\n      0x1f\n        /* \"#utility.yul\":9181:9187   */\n      dup5\n        /* \"#utility.yul\":9177:9194   */\n      add\n        /* \"#utility.yul\":9173:9200   */\n      slt\n        /* \"#utility.yul\":9163:9285   */\n      tag_254\n      jumpi\n        /* \"#utility.yul\":9204:9283   */\n      tag_255\n      tag_65\n      jump\t// in\n    tag_255:\n        /* \"#utility.yul\":9163:9285   */\n    tag_254:\n        /* \"#utility.yul\":9317:9323   */\n      dup3\n        /* \"#utility.yul\":9304:9324   */\n      calldataload\n        /* \"#utility.yul\":9294:9324   */\n      swap1\n      pop\n        /* \"#utility.yul\":9347:9365   */\n      0xffffffffffffffff\n        /* \"#utility.yul\":9339:9345   */\n      dup2\n        /* \"#utility.yul\":9336:9366   */\n      gt\n        /* \"#utility.yul\":9333:9450   */\n      iszero\n      tag_256\n      jumpi\n        /* \"#utility.yul\":9369:9448   */\n      tag_257\n      tag_86\n      jump\t// in\n    tag_257:\n        /* \"#utility.yul\":9333:9450   */\n    tag_256:\n        /* \"#utility.yul\":9483:9487   */\n      0x20\n        /* \"#utility.yul\":9475:9481   */\n      dup4\n        /* \"#utility.yul\":9471:9488   */\n      add\n        /* \"#utility.yul\":9459:9488   */\n      swap2\n      pop\n        /* \"#utility.yul\":9537:9540   */\n      dup4\n        /* \"#utility.yul\":9529:9533   */\n      0x01\n        /* \"#utility.yul\":9521:9527   */\n      dup3\n        /* \"#utility.yul\":9517:9534   */\n      mul\n        /* \"#utility.yul\":9507:9515   */\n      dup4\n        /* \"#utility.yul\":9503:9535   */\n      add\n        /* \"#utility.yul\":9500:9541   */\n      gt\n        /* \"#utility.yul\":9497:9625   */\n      iszero\n      tag_258\n      jumpi\n        /* \"#utility.yul\":9544:9623   */\n      tag_259\n      tag_87\n      jump\t// in\n    tag_259:\n        /* \"#utility.yul\":9497:9625   */\n    tag_258:\n        /* \"#utility.yul\":9079:9631   */\n      swap3\n      pop\n      swap3\n      swap1\n      pop\n      jump\t// out\n        /* \"#utility.yul\":9637:10164   */\n    tag_21:\n        /* \"#utility.yul\":9707:9713   */\n      0x00\n        /* \"#utility.yul\":9715:9721   */\n      dup1\n        /* \"#utility.yul\":9764:9766   */\n      0x20\n        /* \"#utility.yul\":9752:9761   */\n      dup4\n        /* \"#utility.yul\":9743:9750   */\n      dup6\n        /* \"#utility.yul\":9739:9762   */\n      sub\n        /* \"#utility.yul\":9735:9767   */\n      slt\n        /* \"#utility.yul\":9732:9851   */\n      iszero\n      tag_261\n      jumpi\n        /* \"#utility.yul\":9770:9849   */\n      tag_262\n      tag_54\n      jump\t// in\n    tag_262:\n        /* \"#utility.yul\":9732:9851   */\n    tag_261:\n        /* \"#utility.yul\":9918:9919   */\n      0x00\n        /* \"#utility.yul\":9907:9916   */\n      dup4\n        /* \"#utility.yul\":9903:9920   */\n      add\n        /* \"#utility.yul\":9890:9921   */\n      calldataload\n        /* \"#utility.yul\":9948:9966   */\n      0xffffffffffffffff\n        /* \"#utility.yul\":9940:9946   */\n      dup2\n        /* \"#utility.yul\":9937:9967   */\n      gt\n        /* \"#utility.yul\":9934:10051   */\n      iszero\n      tag_263\n      jumpi\n        /* \"#utility.yul\":9970:10049   */\n      tag_264\n      tag_55\n      jump\t// in\n    tag_264:\n        /* \"#utility.yul\":9934:10051   */\n    tag_263:\n        /* \"#utility.yul\":10083:10147   */\n      tag_265\n        /* \"#utility.yul\":10139:10146   */\n      dup6\n        /* \"#utility.yul\":10130:10136   */\n      dup3\n        /* \"#utility.yul\":10119:10128   */\n      dup7\n        /* \"#utility.yul\":10115:10137   */\n      add\n        /* \"#utility.yul\":10083:10147   */\n      tag_91\n      jump\t// in\n    tag_265:\n        /* \"#utility.yul\":10065:10147   */\n      swap3\n      pop\n      swap3\n      pop\n        /* \"#utility.yul\":9861:10157   */\n      pop\n        /* \"#utility.yul\":9637:10164   */\n      swap3\n      pop\n      swap3\n      swap1\n      pop\n      jump\t// out\n        /* \"#utility.yul\":10170:10288   */\n    tag_92:\n        /* \"#utility.yul\":10257:10281   */\n      tag_267\n        /* \"#utility.yul\":10275:10280   */\n      dup2\n        /* \"#utility.yul\":10257:10281   */\n      tag_79\n      jump\t// in\n    tag_267:\n        /* \"#utility.yul\":10252:10255   */\n      dup3\n        /* \"#utility.yul\":10245:10282   */\n      mstore\n        /* \"#utility.yul\":10170:10288   */\n      pop\n      pop\n      jump\t// out\n        /* \"#utility.yul\":10294:10412   */\n    tag_93:\n        /* \"#utility.yul\":10381:10405   */\n      tag_269\n        /* \"#utility.yul\":10399:10404   */\n      dup2\n        /* \"#utility.yul\":10381:10405   */\n      tag_83\n      jump\t// in\n    tag_269:\n        /* \"#utility.yul\":10376:10379   */\n      dup3\n        /* \"#utility.yul\":10369:10406   */\n      mstore\n        /* \"#utility.yul\":10294:10412   */\n      pop\n      pop\n      jump\t// out\n        /* \"#utility.yul\":10418:10532   */\n    tag_94:\n        /* \"#utility.yul\":10485:10491   */\n      0x00\n        /* \"#utility.yul\":10519:10524   */\n      dup2\n        /* \"#utility.yul\":10513:10525   */\n      mload\n        /* \"#utility.yul\":10503:10525   */\n      swap1\n      pop\n        /* \"#utility.yul\":10418:10532   */\n      swap2\n      swap1\n      pop\n      jump\t// out\n        /* \"#utility.yul\":10538:10722   */\n    tag_95:\n        /* \"#utility.yul\":10637:10648   */\n      0x00\n        /* \"#utility.yul\":10671:10677   */\n      dup3\n        /* \"#utility.yul\":10666:10669   */\n      dup3\n        /* \"#utility.yul\":10659:10678   */\n      mstore\n        /* \"#utility.yul\":10711:10715   */\n      0x20\n        /* \"#utility.yul\":10706:10709   */\n      dup3\n        /* \"#utility.yul\":10702:10716   */\n      add\n        /* \"#utility.yul\":10687:10716   */\n      swap1\n      pop\n        /* \"#utility.yul\":10538:10722   */\n      swap3\n      swap2\n      pop\n      pop\n      jump\t// out\n        /* \"#utility.yul\":10728:10860   */\n    tag_96:\n        /* \"#utility.yul\":10795:10799   */\n      0x00\n        /* \"#utility.yul\":10818:10821   */\n      dup2\n        /* \"#utility.yul\":10810:10821   */\n      swap1\n      pop\n        /* \"#utility.yul\":10848:10852   */\n      0x20\n        /* \"#utility.yul\":10843:10846   */\n      dup3\n        /* \"#utility.yul\":10839:10853   */\n      add\n        /* \"#utility.yul\":10831:10853   */\n      swap1\n      pop\n        /* \"#utility.yul\":10728:10860   */\n      swap2\n      swap1\n      pop\n      jump\t// out\n        /* \"#utility.yul\":10866:10974   */\n    tag_97:\n        /* \"#utility.yul\":10943:10967   */\n      tag_274\n        /* \"#utility.yul\":10961:10966   */\n      dup2\n        /* \"#utility.yul\":10943:10967   */\n      tag_79\n      jump\t// in\n    tag_274:\n        /* \"#utility.yul\":10938:10941   */\n      dup3\n        /* \"#utility.yul\":10931:10968   */\n      mstore\n        /* \"#utility.yul\":10866:10974   */\n      pop\n      pop\n      jump\t// out\n        /* \"#utility.yul\":10980:11159   */\n    tag_98:\n        /* \"#utility.yul\":11049:11059   */\n      0x00\n        /* \"#utility.yul\":11070:11116   */\n      tag_276\n        /* \"#utility.yul\":11112:11115   */\n      dup4\n        /* \"#utility.yul\":11104:11110   */\n      dup4\n        /* \"#utility.yul\":11070:11116   */\n      tag_97\n      jump\t// in\n    tag_276:\n        /* \"#utility.yul\":11148:11152   */\n      0x20\n        /* \"#utility.yul\":11143:11146   */\n      dup4\n        /* \"#utility.yul\":11139:11153   */\n      add\n        /* \"#utility.yul\":11125:11153   */\n      swap1\n      pop\n        /* \"#utility.yul\":10980:11159   */\n      swap3\n      swap2\n      pop\n      pop\n      jump\t// out\n        /* \"#utility.yul\":11165:11278   */\n    tag_99:\n        /* \"#utility.yul\":11235:11239   */\n      0x00\n        /* \"#utility.yul\":11267:11271   */\n      0x20\n        /* \"#utility.yul\":11262:11265   */\n      dup3\n        /* \"#utility.yul\":11258:11272   */\n      add\n        /* \"#utility.yul\":11250:11272   */\n      swap1\n      pop\n        /* \"#utility.yul\":11165:11278   */\n      swap2\n      swap1\n      pop\n      jump\t// out\n        /* \"#utility.yul\":11314:12046   */\n    tag_100:\n        /* \"#utility.yul\":11433:11436   */\n      0x00\n        /* \"#utility.yul\":11462:11516   */\n      tag_279\n        /* \"#utility.yul\":11510:11515   */\n      dup3\n        /* \"#utility.yul\":11462:11516   */\n      tag_94\n      jump\t// in\n    tag_279:\n        /* \"#utility.yul\":11532:11618   */\n      tag_280\n        /* \"#utility.yul\":11611:11617   */\n      dup2\n        /* \"#utility.yul\":11606:11609   */\n      dup6\n        /* \"#utility.yul\":11532:11618   */\n      tag_95\n      jump\t// in\n    tag_280:\n        /* \"#utility.yul\":11525:11618   */\n      swap4\n      pop\n        /* \"#utility.yul\":11642:11698   */\n      tag_281\n        /* \"#utility.yul\":11692:11697   */\n      dup4\n        /* \"#utility.yul\":11642:11698   */\n      tag_96\n      jump\t// in\n    tag_281:\n        /* \"#utility.yul\":11721:11728   */\n      dup1\n        /* \"#utility.yul\":11752:11753   */\n      0x00\n        /* \"#utility.yul\":11737:12021   */\n    tag_282:\n        /* \"#utility.yul\":11762:11768   */\n      dup4\n        /* \"#utility.yul\":11759:11760   */\n      dup2\n        /* \"#utility.yul\":11756:11769   */\n      lt\n        /* \"#utility.yul\":11737:12021   */\n      iszero\n      tag_284\n      jumpi\n        /* \"#utility.yul\":11838:11844   */\n      dup2\n        /* \"#utility.yul\":11832:11845   */\n      mload\n        /* \"#utility.yul\":11865:11928   */\n      tag_285\n        /* \"#utility.yul\":11924:11927   */\n      dup9\n        /* \"#utility.yul\":11909:11922   */\n      dup3\n        /* \"#utility.yul\":11865:11928   */\n      tag_98\n      jump\t// in\n    tag_285:\n        /* \"#utility.yul\":11858:11928   */\n      swap8\n      pop\n        /* \"#utility.yul\":11951:12011   */\n      tag_286\n        /* \"#utility.yul\":12004:12010   */\n      dup4\n        /* \"#utility.yul\":11951:12011   */\n      tag_99\n      jump\t// in\n    tag_286:\n        /* \"#utility.yul\":11941:12011   */\n      swap3\n      pop\n        /* \"#utility.yul\":11797:12021   */\n      pop\n        /* \"#utility.yul\":11784:11785   */\n      0x01\n        /* \"#utility.yul\":11781:11782   */\n      dup2\n        /* \"#utility.yul\":11777:11786   */\n      add\n        /* \"#utility.yul\":11772:11786   */\n      swap1\n      pop\n        /* \"#utility.yul\":11737:12021   */\n      jump(tag_282)\n    tag_284:\n        /* \"#utility.yul\":11741:11755   */\n      pop\n        /* \"#utility.yul\":12037:12040   */\n      dup6\n        /* \"#utility.yul\":12030:12040   */\n      swap4\n      pop\n        /* \"#utility.yul\":11438:12046   */\n      pop\n      pop\n      pop\n        /* \"#utility.yul\":11314:12046   */\n      swap3\n      swap2\n      pop\n      pop\n      jump\t// out\n        /* \"#utility.yul\":12052:12151   */\n    tag_101:\n        /* \"#utility.yul\":12104:12110   */\n      0x00\n        /* \"#utility.yul\":12138:12143   */\n      dup2\n        /* \"#utility.yul\":12132:12144   */\n      mload\n        /* \"#utility.yul\":12122:12144   */\n      swap1\n      pop\n        /* \"#utility.yul\":12052:12151   */\n      swap2\n      swap1\n      pop\n      jump\t// out\n        /* \"#utility.yul\":12157:12316   */\n    tag_102:\n        /* \"#utility.yul\":12231:12242   */\n      0x00\n        /* \"#utility.yul\":12265:12271   */\n      dup3\n        /* \"#utility.yul\":12260:12263   */\n      dup3\n        /* \"#utility.yul\":12253:12272   */\n      mstore\n        /* \"#utility.yul\":12305:12309   */\n      0x20\n        /* \"#utility.yul\":12300:12303   */\n      dup3\n        /* \"#utility.yul\":12296:12310   */\n      add\n        /* \"#utility.yul\":12281:12310   */\n      swap1\n      pop\n        /* \"#utility.yul\":12157:12316   */\n      swap3\n      swap2\n      pop\n      pop\n      jump\t// out\n        /* \"#utility.yul\":12322:12679   */\n    tag_103:\n        /* \"#utility.yul\":12400:12403   */\n      0x00\n        /* \"#utility.yul\":12428:12467   */\n      tag_290\n        /* \"#utility.yul\":12461:12466   */\n      dup3\n        /* \"#utility.yul\":12428:12467   */\n      tag_101\n      jump\t// in\n    tag_290:\n        /* \"#utility.yul\":12483:12544   */\n      tag_291\n        /* \"#utility.yul\":12537:12543   */\n      dup2\n        /* \"#utility.yul\":12532:12535   */\n      dup6\n        /* \"#utility.yul\":12483:12544   */\n      tag_102\n      jump\t// in\n    tag_291:\n        /* \"#utility.yul\":12476:12544   */\n      swap4\n      pop\n        /* \"#utility.yul\":12553:12618   */\n      tag_292\n        /* \"#utility.yul\":12611:12617   */\n      dup2\n        /* \"#utility.yul\":12606:12609   */\n      dup6\n        /* \"#utility.yul\":12599:12603   */\n      0x20\n        /* \"#utility.yul\":12592:12597   */\n      dup7\n        /* \"#utility.yul\":12588:12604   */\n      add\n        /* \"#utility.yul\":12553:12618   */\n      tag_77\n      jump\t// in\n    tag_292:\n        /* \"#utility.yul\":12643:12672   */\n      tag_293\n        /* \"#utility.yul\":12665:12671   */\n      dup2\n        /* \"#utility.yul\":12643:12672   */\n      tag_67\n      jump\t// in\n    tag_293:\n        /* \"#utility.yul\":12638:12641   */\n      dup5\n        /* \"#utility.yul\":12634:12673   */\n      add\n        /* \"#utility.yul\":12627:12673   */\n      swap2\n      pop\n        /* \"#utility.yul\":12404:12679   */\n      pop\n        /* \"#utility.yul\":12322:12679   */\n      swap3\n      swap2\n      pop\n      pop\n      jump\t// out\n        /* \"#utility.yul\":12685:12789   */\n    tag_104:\n        /* \"#utility.yul\":12750:12756   */\n      0x00\n        /* \"#utility.yul\":12778:12782   */\n      0x02\n        /* \"#utility.yul\":12768:12782   */\n      swap1\n      pop\n        /* \"#utility.yul\":12685:12789   */\n      swap2\n      swap1\n      pop\n      jump\t// out\n        /* \"#utility.yul\":12795:12928   */\n    tag_105:\n        /* \"#utility.yul\":12882:12893   */\n      0x00\n        /* \"#utility.yul\":12919:12922   */\n      dup2\n        /* \"#utility.yul\":12904:12922   */\n      swap1\n      pop\n        /* \"#utility.yul\":12795:12928   */\n      swap3\n      swap2\n      pop\n      pop\n      jump\t// out\n        /* \"#utility.yul\":12934:13032   */\n    tag_106:\n        /* \"#utility.yul\":12999:13003   */\n      0x00\n        /* \"#utility.yul\":13022:13025   */\n      dup2\n        /* \"#utility.yul\":13014:13025   */\n      swap1\n      pop\n        /* \"#utility.yul\":12934:13032   */\n      swap2\n      swap1\n      pop\n      jump\t// out\n        /* \"#utility.yul\":13038:13149   */\n    tag_107:\n        /* \"#utility.yul\":13106:13110   */\n      0x00\n        /* \"#utility.yul\":13138:13142   */\n      0x20\n        /* \"#utility.yul\":13133:13136   */\n      dup3\n        /* \"#utility.yul\":13129:13143   */\n      add\n        /* \"#utility.yul\":13121:13143   */\n      swap1\n      pop\n        /* \"#utility.yul\":13038:13149   */\n      swap2\n      swap1\n      pop\n      jump\t// out\n        /* \"#utility.yul\":13187:13861   */\n    tag_108:\n        /* \"#utility.yul\":13313:13365   */\n      tag_299\n        /* \"#utility.yul\":13359:13364   */\n      dup2\n        /* \"#utility.yul\":13313:13365   */\n      tag_104\n      jump\t// in\n    tag_299:\n        /* \"#utility.yul\":13381:13455   */\n      tag_300\n        /* \"#utility.yul\":13448:13454   */\n      dup2\n        /* \"#utility.yul\":13443:13446   */\n      dup5\n        /* \"#utility.yul\":13381:13455   */\n      tag_105\n      jump\t// in\n    tag_300:\n        /* \"#utility.yul\":13374:13455   */\n      swap3\n      pop\n        /* \"#utility.yul\":13479:13533   */\n      tag_301\n        /* \"#utility.yul\":13527:13532   */\n      dup3\n        /* \"#utility.yul\":13479:13533   */\n      tag_106\n      jump\t// in\n    tag_301:\n        /* \"#utility.yul\":13556:13563   */\n      dup1\n        /* \"#utility.yul\":13587:13588   */\n      0x00\n        /* \"#utility.yul\":13572:13854   */\n    tag_302:\n        /* \"#utility.yul\":13597:13603   */\n      dup4\n        /* \"#utility.yul\":13594:13595   */\n      dup2\n        /* \"#utility.yul\":13591:13604   */\n      lt\n        /* \"#utility.yul\":13572:13854   */\n      iszero\n      tag_304\n      jumpi\n        /* \"#utility.yul\":13673:13679   */\n      dup2\n        /* \"#utility.yul\":13667:13680   */\n      mload\n        /* \"#utility.yul\":13700:13763   */\n      tag_305\n        /* \"#utility.yul\":13759:13762   */\n      dup8\n        /* \"#utility.yul\":13744:13757   */\n      dup3\n        /* \"#utility.yul\":13700:13763   */\n      tag_98\n      jump\t// in\n    tag_305:\n        /* \"#utility.yul\":13693:13763   */\n      swap7\n      pop\n        /* \"#utility.yul\":13786:13844   */\n      tag_306\n        /* \"#utility.yul\":13837:13843   */\n      dup4\n        /* \"#utility.yul\":13786:13844   */\n      tag_107\n      jump\t// in\n    tag_306:\n        /* \"#utility.yul\":13776:13844   */\n      swap3\n      pop\n        /* \"#utility.yul\":13632:13854   */\n      pop\n        /* \"#utility.yul\":13619:13620   */\n      0x01\n        /* \"#utility.yul\":13616:13617   */\n      dup2\n        /* \"#utility.yul\":13612:13621   */\n      add\n        /* \"#utility.yul\":13607:13621   */\n      swap1\n      pop\n        /* \"#utility.yul\":13572:13854   */\n      jump(tag_302)\n    tag_304:\n        /* \"#utility.yul\":13576:13590   */\n      pop\n        /* \"#utility.yul\":13289:13861   */\n      pop\n      pop\n      pop\n        /* \"#utility.yul\":13187:13861   */\n      pop\n      pop\n      jump\t// out\n        /* \"#utility.yul\":13929:14577   */\n    tag_109:\n        /* \"#utility.yul\":14044:14047   */\n      0x00\n        /* \"#utility.yul\":14080:14084   */\n      0x60\n        /* \"#utility.yul\":14075:14078   */\n      dup4\n        /* \"#utility.yul\":14071:14085   */\n      add\n        /* \"#utility.yul\":14167:14171   */\n      0x00\n        /* \"#utility.yul\":14160:14165   */\n      dup4\n        /* \"#utility.yul\":14156:14172   */\n      add\n        /* \"#utility.yul\":14150:14173   */\n      mload\n        /* \"#utility.yul\":14220:14223   */\n      dup5\n        /* \"#utility.yul\":14214:14218   */\n      dup3\n        /* \"#utility.yul\":14210:14224   */\n      sub\n        /* \"#utility.yul\":14203:14207   */\n      0x00\n        /* \"#utility.yul\":14198:14201   */\n      dup7\n        /* \"#utility.yul\":14194:14208   */\n      add\n        /* \"#utility.yul\":14187:14225   */\n      mstore\n        /* \"#utility.yul\":14246:14319   */\n      tag_308\n        /* \"#utility.yul\":14314:14318   */\n      dup3\n        /* \"#utility.yul\":14300:14312   */\n      dup3\n        /* \"#utility.yul\":14246:14319   */\n      tag_103\n      jump\t// in\n    tag_308:\n        /* \"#utility.yul\":14238:14319   */\n      swap2\n      pop\n        /* \"#utility.yul\":14095:14330   */\n      pop\n        /* \"#utility.yul\":14412:14416   */\n      0x20\n        /* \"#utility.yul\":14405:14410   */\n      dup4\n        /* \"#utility.yul\":14401:14417   */\n      add\n        /* \"#utility.yul\":14395:14418   */\n      mload\n        /* \"#utility.yul\":14431:14540   */\n      tag_309\n        /* \"#utility.yul\":14534:14538   */\n      0x20\n        /* \"#utility.yul\":14529:14532   */\n      dup7\n        /* \"#utility.yul\":14525:14539   */\n      add\n        /* \"#utility.yul\":14511:14523   */\n      dup3\n        /* \"#utility.yul\":14431:14540   */\n      tag_108\n      jump\t// in\n    tag_309:\n        /* \"#utility.yul\":14340:14550   */\n      pop\n        /* \"#utility.yul\":14567:14571   */\n      dup1\n        /* \"#utility.yul\":14560:14571   */\n      swap2\n      pop\n        /* \"#utility.yul\":14049:14577   */\n      pop\n        /* \"#utility.yul\":13929:14577   */\n      swap3\n      swap2\n      pop\n      pop\n      jump\t// out\n        /* \"#utility.yul\":14583:15430   */\n    tag_24:\n        /* \"#utility.yul\":14856:14860   */\n      0x00\n        /* \"#utility.yul\":14894:14897   */\n      0x80\n        /* \"#utility.yul\":14883:14892   */\n      dup3\n        /* \"#utility.yul\":14879:14898   */\n      add\n        /* \"#utility.yul\":14871:14898   */\n      swap1\n      pop\n        /* \"#utility.yul\":14908:14979   */\n      tag_311\n        /* \"#utility.yul\":14976:14977   */\n      0x00\n        /* \"#utility.yul\":14965:14974   */\n      dup4\n        /* \"#utility.yul\":14961:14978   */\n      add\n        /* \"#utility.yul\":14952:14958   */\n      dup8\n        /* \"#utility.yul\":14908:14979   */\n      tag_92\n      jump\t// in\n    tag_311:\n        /* \"#utility.yul\":14989:15061   */\n      tag_312\n        /* \"#utility.yul\":15057:15059   */\n      0x20\n        /* \"#utility.yul\":15046:15055   */\n      dup4\n        /* \"#utility.yul\":15042:15060   */\n      add\n        /* \"#utility.yul\":15033:15039   */\n      dup7\n        /* \"#utility.yul\":14989:15061   */\n      tag_93\n      jump\t// in\n    tag_312:\n        /* \"#utility.yul\":15108:15117   */\n      dup2\n        /* \"#utility.yul\":15102:15106   */\n      dup2\n        /* \"#utility.yul\":15098:15118   */\n      sub\n        /* \"#utility.yul\":15093:15095   */\n      0x40\n        /* \"#utility.yul\":15082:15091   */\n      dup4\n        /* \"#utility.yul\":15078:15096   */\n      add\n        /* \"#utility.yul\":15071:15119   */\n      mstore\n        /* \"#utility.yul\":15136:15244   */\n      tag_313\n        /* \"#utility.yul\":15239:15243   */\n      dup2\n        /* \"#utility.yul\":15230:15236   */\n      dup6\n        /* \"#utility.yul\":15136:15244   */\n      tag_100\n      jump\t// in\n    tag_313:\n        /* \"#utility.yul\":15128:15244   */\n      swap1\n      pop\n        /* \"#utility.yul\":15291:15300   */\n      dup2\n        /* \"#utility.yul\":15285:15289   */\n      dup2\n        /* \"#utility.yul\":15281:15301   */\n      sub\n        /* \"#utility.yul\":15276:15278   */\n      0x60\n        /* \"#utility.yul\":15265:15274   */\n      dup4\n        /* \"#utility.yul\":15261:15279   */\n      add\n        /* \"#utility.yul\":15254:15302   */\n      mstore\n        /* \"#utility.yul\":15319:15423   */\n      tag_314\n        /* \"#utility.yul\":15418:15422   */\n      dup2\n        /* \"#utility.yul\":15409:15415   */\n      dup5\n        /* \"#utility.yul\":15319:15423   */\n      tag_109\n      jump\t// in\n    tag_314:\n        /* \"#utility.yul\":15311:15423   */\n      swap1\n      pop\n        /* \"#utility.yul\":14583:15430   */\n      swap6\n      swap5\n      pop\n      pop\n      pop\n      pop\n      pop\n      jump\t// out\n        /* \"#utility.yul\":15436:15605   */\n    tag_110:\n        /* \"#utility.yul\":15520:15531   */\n      0x00\n        /* \"#utility.yul\":15554:15560   */\n      dup3\n        /* \"#utility.yul\":15549:15552   */\n      dup3\n        /* \"#utility.yul\":15542:15561   */\n      mstore\n        /* \"#utility.yul\":15594:15598   */\n      0x20\n        /* \"#utility.yul\":15589:15592   */\n      dup3\n        /* \"#utility.yul\":15585:15599   */\n      add\n        /* \"#utility.yul\":15570:15599   */\n      swap1\n      pop\n        /* \"#utility.yul\":15436:15605   */\n      swap3\n      swap2\n      pop\n      pop\n      jump\t// out\n        /* \"#utility.yul\":15611:15988   */\n    tag_111:\n        /* \"#utility.yul\":15699:15702   */\n      0x00\n        /* \"#utility.yul\":15727:15766   */\n      tag_317\n        /* \"#utility.yul\":15760:15765   */\n      dup3\n        /* \"#utility.yul\":15727:15766   */\n      tag_101\n      jump\t// in\n    tag_317:\n        /* \"#utility.yul\":15782:15853   */\n      tag_318\n        /* \"#utility.yul\":15846:15852   */\n      dup2\n        /* \"#utility.yul\":15841:15844   */\n      dup6\n        /* \"#utility.yul\":15782:15853   */\n      tag_110\n      jump\t// in\n    tag_318:\n        /* \"#utility.yul\":15775:15853   */\n      swap4\n      pop\n        /* \"#utility.yul\":15862:15927   */\n      tag_319\n        /* \"#utility.yul\":15920:15926   */\n      dup2\n        /* \"#utility.yul\":15915:15918   */\n      dup6\n        /* \"#utility.yul\":15908:15912   */\n      0x20\n        /* \"#utility.yul\":15901:15906   */\n      dup7\n        /* \"#utility.yul\":15897:15913   */\n      add\n        /* \"#utility.yul\":15862:15927   */\n      tag_77\n      jump\t// in\n    tag_319:\n        /* \"#utility.yul\":15952:15981   */\n      tag_320\n        /* \"#utility.yul\":15974:15980   */\n      dup2\n        /* \"#utility.yul\":15952:15981   */\n      tag_67\n      jump\t// in\n    tag_320:\n        /* \"#utility.yul\":15947:15950   */\n      dup5\n        /* \"#utility.yul\":15943:15982   */\n      add\n        /* \"#utility.yul\":15936:15982   */\n      swap2\n      pop\n        /* \"#utility.yul\":15703:15988   */\n      pop\n        /* \"#utility.yul\":15611:15988   */\n      swap3\n      swap2\n      pop\n      pop\n      jump\t// out\n        /* \"#utility.yul\":15994:16307   */\n    tag_28:\n        /* \"#utility.yul\":16107:16111   */\n      0x00\n        /* \"#utility.yul\":16145:16147   */\n      0x20\n        /* \"#utility.yul\":16134:16143   */\n      dup3\n        /* \"#utility.yul\":16130:16148   */\n      add\n        /* \"#utility.yul\":16122:16148   */\n      swap1\n      pop\n        /* \"#utility.yul\":16194:16203   */\n      dup2\n        /* \"#utility.yul\":16188:16192   */\n      dup2\n        /* \"#utility.yul\":16184:16204   */\n      sub\n        /* \"#utility.yul\":16180:16181   */\n      0x00\n        /* \"#utility.yul\":16169:16178   */\n      dup4\n        /* \"#utility.yul\":16165:16182   */\n      add\n        /* \"#utility.yul\":16158:16205   */\n      mstore\n        /* \"#utility.yul\":16222:16300   */\n      tag_322\n        /* \"#utility.yul\":16295:16299   */\n      dup2\n        /* \"#utility.yul\":16286:16292   */\n      dup5\n        /* \"#utility.yul\":16222:16300   */\n      tag_111\n      jump\t// in\n    tag_322:\n        /* \"#utility.yul\":16214:16300   */\n      swap1\n      pop\n        /* \"#utility.yul\":15994:16307   */\n      swap3\n      swap2\n      pop\n      pop\n      jump\t// out\n        /* \"#utility.yul\":16313:16409   */\n    tag_112:\n        /* \"#utility.yul\":16347:16355   */\n      0x00\n        /* \"#utility.yul\":16396:16401   */\n      dup2\n        /* \"#utility.yul\":16391:16394   */\n      0xf0\n        /* \"#utility.yul\":16387:16402   */\n      shl\n        /* \"#utility.yul\":16366:16402   */\n      swap1\n      pop\n        /* \"#utility.yul\":16313:16409   */\n      swap2\n      swap1\n      pop\n      jump\t// out\n        /* \"#utility.yul\":16415:16508   */\n    tag_113:\n        /* \"#utility.yul\":16452:16459   */\n      0x00\n        /* \"#utility.yul\":16481:16502   */\n      tag_325\n        /* \"#utility.yul\":16496:16501   */\n      dup3\n        /* \"#utility.yul\":16481:16502   */\n      tag_112\n      jump\t// in\n    tag_325:\n        /* \"#utility.yul\":16470:16502   */\n      swap1\n      pop\n        /* \"#utility.yul\":16415:16508   */\n      swap2\n      swap1\n      pop\n      jump\t// out\n        /* \"#utility.yul\":16514:16663   */\n    tag_114:\n        /* \"#utility.yul\":16615:16656   */\n      tag_327\n        /* \"#utility.yul\":16633:16655   */\n      tag_328\n        /* \"#utility.yul\":16649:16654   */\n      dup3\n        /* \"#utility.yul\":16633:16655   */\n      tag_56\n      jump\t// in\n    tag_328:\n        /* \"#utility.yul\":16615:16656   */\n      tag_113\n      jump\t// in\n    tag_327:\n        /* \"#utility.yul\":16610:16613   */\n      dup3\n        /* \"#utility.yul\":16603:16657   */\n      mstore\n        /* \"#utility.yul\":16514:16663   */\n      pop\n      pop\n      jump\t// out\n        /* \"#utility.yul\":16669:16747   */\n    tag_115:\n        /* \"#utility.yul\":16707:16714   */\n      0x00\n        /* \"#utility.yul\":16736:16741   */\n      dup2\n        /* \"#utility.yul\":16725:16741   */\n      swap1\n      pop\n        /* \"#utility.yul\":16669:16747   */\n      swap2\n      swap1\n      pop\n      jump\t// out\n        /* \"#utility.yul\":16753:16906   */\n    tag_116:\n        /* \"#utility.yul\":16856:16899   */\n      tag_331\n        /* \"#utility.yul\":16875:16898   */\n      tag_332\n        /* \"#utility.yul\":16892:16897   */\n      dup3\n        /* \"#utility.yul\":16875:16898   */\n      tag_59\n      jump\t// in\n    tag_332:\n        /* \"#utility.yul\":16856:16899   */\n      tag_115\n      jump\t// in\n    tag_331:\n        /* \"#utility.yul\":16851:16854   */\n      dup3\n        /* \"#utility.yul\":16844:16900   */\n      mstore\n        /* \"#utility.yul\":16753:16906   */\n      pop\n      pop\n      jump\t// out\n        /* \"#utility.yul\":16912:17006   */\n    tag_117:\n        /* \"#utility.yul\":16950:16957   */\n      0x00\n        /* \"#utility.yul\":16979:17000   */\n      tag_334\n        /* \"#utility.yul\":16994:16999   */\n      dup3\n        /* \"#utility.yul\":16979:17000   */\n      tag_112\n      jump\t// in\n    tag_334:\n        /* \"#utility.yul\":16968:17000   */\n      swap1\n      pop\n        /* \"#utility.yul\":16912:17006   */\n      swap2\n      swap1\n      pop\n      jump\t// out\n        /* \"#utility.yul\":17012:17165   */\n    tag_118:\n        /* \"#utility.yul\":17115:17158   */\n      tag_336\n        /* \"#utility.yul\":17134:17157   */\n      tag_337\n        /* \"#utility.yul\":17151:17156   */\n      dup3\n        /* \"#utility.yul\":17134:17157   */\n      tag_62\n      jump\t// in\n    tag_337:\n        /* \"#utility.yul\":17115:17158   */\n      tag_117\n      jump\t// in\n    tag_336:\n        /* \"#utility.yul\":17110:17113   */\n      dup3\n        /* \"#utility.yul\":17103:17159   */\n      mstore\n        /* \"#utility.yul\":17012:17165   */\n      pop\n      pop\n      jump\t// out\n        /* \"#utility.yul\":17171:17319   */\n    tag_119:\n        /* \"#utility.yul\":17273:17284   */\n      0x00\n        /* \"#utility.yul\":17310:17313   */\n      dup2\n        /* \"#utility.yul\":17295:17313   */\n      swap1\n      pop\n        /* \"#utility.yul\":17171:17319   */\n      swap3\n      swap2\n      pop\n      pop\n      jump\t// out\n        /* \"#utility.yul\":17325:17715   */\n    tag_120:\n        /* \"#utility.yul\":17431:17434   */\n      0x00\n        /* \"#utility.yul\":17459:17498   */\n      tag_340\n        /* \"#utility.yul\":17492:17497   */\n      dup3\n        /* \"#utility.yul\":17459:17498   */\n      tag_101\n      jump\t// in\n    tag_340:\n        /* \"#utility.yul\":17514:17603   */\n      tag_341\n        /* \"#utility.yul\":17596:17602   */\n      dup2\n        /* \"#utility.yul\":17591:17594   */\n      dup6\n        /* \"#utility.yul\":17514:17603   */\n      tag_119\n      jump\t// in\n    tag_341:\n        /* \"#utility.yul\":17507:17603   */\n      swap4\n      pop\n        /* \"#utility.yul\":17612:17677   */\n      tag_342\n        /* \"#utility.yul\":17670:17676   */\n      dup2\n        /* \"#utility.yul\":17665:17668   */\n      dup6\n        /* \"#utility.yul\":17658:17662   */\n      0x20\n        /* \"#utility.yul\":17651:17656   */\n      dup7\n        /* \"#utility.yul\":17647:17663   */\n      add\n        /* \"#utility.yul\":17612:17677   */\n      tag_77\n      jump\t// in\n    tag_342:\n        /* \"#utility.yul\":17702:17708   */\n      dup1\n        /* \"#utility.yul\":17697:17700   */\n      dup5\n        /* \"#utility.yul\":17693:17709   */\n      add\n        /* \"#utility.yul\":17686:17709   */\n      swap2\n      pop\n        /* \"#utility.yul\":17435:17715   */\n      pop\n        /* \"#utility.yul\":17325:17715   */\n      swap3\n      swap2\n      pop\n      pop\n      jump\t// out\n        /* \"#utility.yul\":17721:18400   */\n    tag_35:\n        /* \"#utility.yul\":17929:17932   */\n      0x00\n        /* \"#utility.yul\":17944:18015   */\n      tag_344\n        /* \"#utility.yul\":18011:18014   */\n      dup3\n        /* \"#utility.yul\":18002:18008   */\n      dup8\n        /* \"#utility.yul\":17944:18015   */\n      tag_114\n      jump\t// in\n    tag_344:\n        /* \"#utility.yul\":18040:18041   */\n      0x02\n        /* \"#utility.yul\":18035:18038   */\n      dup3\n        /* \"#utility.yul\":18031:18042   */\n      add\n        /* \"#utility.yul\":18024:18042   */\n      swap2\n      pop\n        /* \"#utility.yul\":18052:18125   */\n      tag_345\n        /* \"#utility.yul\":18121:18124   */\n      dup3\n        /* \"#utility.yul\":18112:18118   */\n      dup7\n        /* \"#utility.yul\":18052:18125   */\n      tag_116\n      jump\t// in\n    tag_345:\n        /* \"#utility.yul\":18150:18151   */\n      0x01\n        /* \"#utility.yul\":18145:18148   */\n      dup3\n        /* \"#utility.yul\":18141:18152   */\n      add\n        /* \"#utility.yul\":18134:18152   */\n      swap2\n      pop\n        /* \"#utility.yul\":18162:18235   */\n      tag_346\n        /* \"#utility.yul\":18231:18234   */\n      dup3\n        /* \"#utility.yul\":18222:18228   */\n      dup6\n        /* \"#utility.yul\":18162:18235   */\n      tag_118\n      jump\t// in\n    tag_346:\n        /* \"#utility.yul\":18260:18261   */\n      0x02\n        /* \"#utility.yul\":18255:18258   */\n      dup3\n        /* \"#utility.yul\":18251:18262   */\n      add\n        /* \"#utility.yul\":18244:18262   */\n      swap2\n      pop\n        /* \"#utility.yul\":18279:18374   */\n      tag_347\n        /* \"#utility.yul\":18370:18373   */\n      dup3\n        /* \"#utility.yul\":18361:18367   */\n      dup5\n        /* \"#utility.yul\":18279:18374   */\n      tag_120\n      jump\t// in\n    tag_347:\n        /* \"#utility.yul\":18272:18374   */\n      swap2\n      pop\n        /* \"#utility.yul\":18391:18394   */\n      dup2\n        /* \"#utility.yul\":18384:18394   */\n      swap1\n      pop\n        /* \"#utility.yul\":17721:18400   */\n      swap6\n      swap5\n      pop\n      pop\n      pop\n      pop\n      pop\n      jump\t// out\n        /* \"#utility.yul\":18406:18523   */\n    tag_121:\n        /* \"#utility.yul\":18515:18516   */\n      0x00\n        /* \"#utility.yul\":18512:18513   */\n      dup1\n        /* \"#utility.yul\":18505:18517   */\n      revert\n        /* \"#utility.yul\":18529:18628   */\n    tag_122:\n        /* \"#utility.yul\":18614:18620   */\n      dup3\n        /* \"#utility.yul\":18609:18612   */\n      dup2\n        /* \"#utility.yul\":18604:18607   */\n      dup4\n        /* \"#utility.yul\":18591:18621   */\n      calldatacopy\n        /* \"#utility.yul\":18529:18628   */\n      pop\n      pop\n      pop\n      jump\t// out\n        /* \"#utility.yul\":18664:19201   */\n    tag_123:\n        /* \"#utility.yul\":18792:18795   */\n      0x00\n        /* \"#utility.yul\":18813:18899   */\n      tag_351\n        /* \"#utility.yul\":18892:18898   */\n      dup4\n        /* \"#utility.yul\":18887:18890   */\n      dup6\n        /* \"#utility.yul\":18813:18899   */\n      tag_95\n      jump\t// in\n    tag_351:\n        /* \"#utility.yul\":18806:18899   */\n      swap4\n      pop\n        /* \"#utility.yul\":18923:18989   */\n      0x07ffffffffffffffffffffffffffffffffffffffffffffffffffffffffffffff\n        /* \"#utility.yul\":18915:18921   */\n      dup4\n        /* \"#utility.yul\":18912:18990   */\n      gt\n        /* \"#utility.yul\":18909:19074   */\n      iszero\n      tag_352\n      jumpi\n        /* \"#utility.yul\":18993:19072   */\n      tag_353\n      tag_121\n      jump\t// in\n    tag_353:\n        /* \"#utility.yul\":18909:19074   */\n    tag_352:\n        /* \"#utility.yul\":19105:19109   */\n      0x20\n        /* \"#utility.yul\":19097:19103   */\n      dup4\n        /* \"#utility.yul\":19093:19110   */\n      mul\n        /* \"#utility.yul\":19083:19110   */\n      swap3\n      pop\n        /* \"#utility.yul\":19120:19163   */\n      tag_354\n        /* \"#utility.yul\":19156:19162   */\n      dup4\n        /* \"#utility.yul\":19151:19154   */\n      dup6\n        /* \"#utility.yul\":19144:19149   */\n      dup5\n        /* \"#utility.yul\":19120:19163   */\n      tag_122\n      jump\t// in\n    tag_354:\n        /* \"#utility.yul\":19188:19194   */\n      dup3\n        /* \"#utility.yul\":19183:19186   */\n      dup5\n        /* \"#utility.yul\":19179:19195   */\n      add\n        /* \"#utility.yul\":19172:19195   */\n      swap1\n      pop\n        /* \"#utility.yul\":18664:19201   */\n      swap4\n      swap3\n      pop\n      pop\n      pop\n      jump\t// out\n        /* \"#utility.yul\":19207:19324   */\n    tag_124:\n        /* \"#utility.yul\":19316:19317   */\n      0x00\n        /* \"#utility.yul\":19313:19314   */\n      dup1\n        /* \"#utility.yul\":19306:19318   */\n      revert\n        /* \"#utility.yul\":19330:19447   */\n    tag_125:\n        /* \"#utility.yul\":19439:19440   */\n      0x00\n        /* \"#utility.yul\":19436:19437   */\n      dup1\n        /* \"#utility.yul\":19429:19441   */\n      revert\n        /* \"#utility.yul\":19453:19570   */\n    tag_126:\n        /* \"#utility.yul\":19562:19563   */\n      0x00\n        /* \"#utility.yul\":19559:19560   */\n      dup1\n        /* \"#utility.yul\":19552:19564   */\n      revert\n        /* \"#utility.yul\":19576:20288   */\n    tag_127:\n        /* \"#utility.yul\":19641:19646   */\n      0x00\n        /* \"#utility.yul\":19648:19654   */\n      dup1\n        /* \"#utility.yul\":19704:19707   */\n      dup4\n        /* \"#utility.yul\":19691:19708   */\n      calldataload\n        /* \"#utility.yul\":19796:19797   */\n      0x01\n        /* \"#utility.yul\":19790:19794   */\n      0x20\n        /* \"#utility.yul\":19786:19798   */\n      sub\n        /* \"#utility.yul\":19775:19783   */\n      dup5\n        /* \"#utility.yul\":19759:19773   */\n      calldatasize\n        /* \"#utility.yul\":19755:19784   */\n      sub\n        /* \"#utility.yul\":19751:19799   */\n      sub\n        /* \"#utility.yul\":19731:19749   */\n      dup2\n        /* \"#utility.yul\":19727:19800   */\n      slt\n        /* \"#utility.yul\":19717:19885   */\n      tag_359\n      jumpi\n        /* \"#utility.yul\":19804:19883   */\n      tag_360\n      tag_126\n      jump\t// in\n    tag_360:\n        /* \"#utility.yul\":19717:19885   */\n    tag_359:\n        /* \"#utility.yul\":19927:19935   */\n      dup4\n        /* \"#utility.yul\":19907:19925   */\n      dup2\n        /* \"#utility.yul\":19903:19936   */\n      add\n        /* \"#utility.yul\":19894:19936   */\n      swap3\n      pop\n        /* \"#utility.yul\":19969:19974   */\n      dup3\n        /* \"#utility.yul\":19956:19975   */\n      calldataload\n        /* \"#utility.yul\":19946:19975   */\n      swap2\n      pop\n        /* \"#utility.yul\":20004:20008   */\n      0x20\n        /* \"#utility.yul\":19997:20002   */\n      dup4\n        /* \"#utility.yul\":19993:20009   */\n      add\n        /* \"#utility.yul\":19984:20009   */\n      swap3\n      pop\n        /* \"#utility.yul\":20032:20050   */\n      0xffffffffffffffff\n        /* \"#utility.yul\":20024:20030   */\n      dup3\n        /* \"#utility.yul\":20021:20051   */\n      gt\n        /* \"#utility.yul\":20018:20135   */\n      iszero\n      tag_361\n      jumpi\n        /* \"#utility.yul\":20054:20133   */\n      tag_362\n      tag_124\n      jump\t// in\n    tag_362:\n        /* \"#utility.yul\":20018:20135   */\n    tag_361:\n        /* \"#utility.yul\":20190:20194   */\n      0x01\n        /* \"#utility.yul\":20182:20188   */\n      dup3\n        /* \"#utility.yul\":20178:20195   */\n      mul\n        /* \"#utility.yul\":20162:20176   */\n      calldatasize\n        /* \"#utility.yul\":20158:20196   */\n      sub\n        /* \"#utility.yul\":20151:20156   */\n      dup4\n        /* \"#utility.yul\":20147:20197   */\n      sgt\n        /* \"#utility.yul\":20144:20281   */\n      iszero\n      tag_363\n      jumpi\n        /* \"#utility.yul\":20200:20279   */\n      tag_364\n      tag_125\n      jump\t// in\n    tag_364:\n        /* \"#utility.yul\":20144:20281   */\n    tag_363:\n        /* \"#utility.yul\":19655:20288   */\n      pop\n        /* \"#utility.yul\":19576:20288   */\n      swap3\n      pop\n      swap3\n      swap1\n      pop\n      jump\t// out\n        /* \"#utility.yul\":20318:20615   */\n    tag_128:\n        /* \"#utility.yul\":20406:20409   */\n      0x00\n        /* \"#utility.yul\":20427:20488   */\n      tag_366\n        /* \"#utility.yul\":20481:20487   */\n      dup4\n        /* \"#utility.yul\":20476:20479   */\n      dup6\n        /* \"#utility.yul\":20427:20488   */\n      tag_102\n      jump\t// in\n    tag_366:\n        /* \"#utility.yul\":20420:20488   */\n      swap4\n      pop\n        /* \"#utility.yul\":20498:20554   */\n      tag_367\n        /* \"#utility.yul\":20547:20553   */\n      dup4\n        /* \"#utility.yul\":20542:20545   */\n      dup6\n        /* \"#utility.yul\":20535:20540   */\n      dup5\n        /* \"#utility.yul\":20498:20554   */\n      tag_72\n      jump\t// in\n    tag_367:\n        /* \"#utility.yul\":20579:20608   */\n      tag_368\n        /* \"#utility.yul\":20601:20607   */\n      dup4\n        /* \"#utility.yul\":20579:20608   */\n      tag_67\n      jump\t// in\n    tag_368:\n        /* \"#utility.yul\":20574:20577   */\n      dup5\n        /* \"#utility.yul\":20570:20609   */\n      add\n        /* \"#utility.yul\":20563:20609   */\n      swap1\n      pop\n        /* \"#utility.yul\":20318:20615   */\n      swap4\n      swap3\n      pop\n      pop\n      pop\n      jump\t// out\n        /* \"#utility.yul\":20621:20732   */\n    tag_129:\n        /* \"#utility.yul\":20698:20703   */\n      0x00\n        /* \"#utility.yul\":20723:20726   */\n      dup3\n        /* \"#utility.yul\":20714:20726   */\n      swap1\n      pop\n        /* \"#utility.yul\":20621:20732   */\n      swap3\n      swap2\n      pop\n      pop\n      jump\t// out\n        /* \"#utility.yul\":20770:20930   */\n    tag_130:\n        /* \"#utility.yul\":20883:20924   */\n      tag_371\n        /* \"#utility.yul\":20919:20923   */\n      0x40\n        /* \"#utility.yul\":20914:20917   */\n      dup4\n        /* \"#utility.yul\":20907:20912   */\n      dup4\n        /* \"#utility.yul\":20883:20924   */\n      tag_122\n      jump\t// in\n    tag_371:\n        /* \"#utility.yul\":20770:20930   */\n      pop\n      pop\n      jump\t// out\n        /* \"#utility.yul\":20998:21771   */\n    tag_131:\n        /* \"#utility.yul\":21115:21118   */\n      0x00\n        /* \"#utility.yul\":21151:21155   */\n      0x60\n        /* \"#utility.yul\":21146:21149   */\n      dup4\n        /* \"#utility.yul\":21142:21156   */\n      add\n        /* \"#utility.yul\":21235:21297   */\n      tag_373\n        /* \"#utility.yul\":21291:21295   */\n      0x00\n        /* \"#utility.yul\":21284:21289   */\n      dup5\n        /* \"#utility.yul\":21280:21296   */\n      add\n        /* \"#utility.yul\":21273:21278   */\n      dup5\n        /* \"#utility.yul\":21235:21297   */\n      tag_127\n      jump\t// in\n    tag_373:\n        /* \"#utility.yul\":21344:21347   */\n      dup6\n        /* \"#utility.yul\":21338:21342   */\n      dup4\n        /* \"#utility.yul\":21334:21348   */\n      sub\n        /* \"#utility.yul\":21327:21331   */\n      0x00\n        /* \"#utility.yul\":21322:21325   */\n      dup8\n        /* \"#utility.yul\":21318:21332   */\n      add\n        /* \"#utility.yul\":21311:21349   */\n      mstore\n        /* \"#utility.yul\":21370:21459   */\n      tag_374\n        /* \"#utility.yul\":21454:21458   */\n      dup4\n        /* \"#utility.yul\":21440:21452   */\n      dup3\n        /* \"#utility.yul\":21426:21438   */\n      dup5\n        /* \"#utility.yul\":21370:21459   */\n      tag_128\n      jump\t// in\n    tag_374:\n        /* \"#utility.yul\":21362:21459   */\n      swap3\n      pop\n        /* \"#utility.yul\":21166:21470   */\n      pop\n      pop\n        /* \"#utility.yul\":21535:21610   */\n      tag_375\n        /* \"#utility.yul\":21604:21608   */\n      0x20\n        /* \"#utility.yul\":21597:21602   */\n      dup5\n        /* \"#utility.yul\":21593:21609   */\n      add\n        /* \"#utility.yul\":21586:21591   */\n      dup5\n        /* \"#utility.yul\":21535:21610   */\n      tag_129\n      jump\t// in\n    tag_375:\n        /* \"#utility.yul\":21623:21734   */\n      tag_376\n        /* \"#utility.yul\":21728:21732   */\n      0x20\n        /* \"#utility.yul\":21723:21726   */\n      dup7\n        /* \"#utility.yul\":21719:21733   */\n      add\n        /* \"#utility.yul\":21705:21717   */\n      dup3\n        /* \"#utility.yul\":21623:21734   */\n      tag_130\n      jump\t// in\n    tag_376:\n        /* \"#utility.yul\":21480:21744   */\n      pop\n        /* \"#utility.yul\":21761:21765   */\n      dup1\n        /* \"#utility.yul\":21754:21765   */\n      swap2\n      pop\n        /* \"#utility.yul\":21120:21771   */\n      pop\n        /* \"#utility.yul\":20998:21771   */\n      swap3\n      swap2\n      pop\n      pop\n      jump\t// out\n        /* \"#utility.yul\":21777:22648   */\n    tag_38:\n        /* \"#utility.yul\":22062:22066   */\n      0x00\n        /* \"#utility.yul\":22100:22103   */\n      0x80\n        /* \"#utility.yul\":22089:22098   */\n      dup3\n        /* \"#utility.yul\":22085:22104   */\n      add\n        /* \"#utility.yul\":22077:22104   */\n      swap1\n      pop\n        /* \"#utility.yul\":22114:22185   */\n      tag_378\n        /* \"#utility.yul\":22182:22183   */\n      0x00\n        /* \"#utility.yul\":22171:22180   */\n      dup4\n        /* \"#utility.yul\":22167:22184   */\n      add\n        /* \"#utility.yul\":22158:22164   */\n      dup9\n        /* \"#utility.yul\":22114:22185   */\n      tag_92\n      jump\t// in\n    tag_378:\n        /* \"#utility.yul\":22195:22267   */\n      tag_379\n        /* \"#utility.yul\":22263:22265   */\n      0x20\n        /* \"#utility.yul\":22252:22261   */\n      dup4\n        /* \"#utility.yul\":22248:22266   */\n      add\n        /* \"#utility.yul\":22239:22245   */\n      dup8\n        /* \"#utility.yul\":22195:22267   */\n      tag_93\n      jump\t// in\n    tag_379:\n        /* \"#utility.yul\":22314:22323   */\n      dup2\n        /* \"#utility.yul\":22308:22312   */\n      dup2\n        /* \"#utility.yul\":22304:22324   */\n      sub\n        /* \"#utility.yul\":22299:22301   */\n      0x40\n        /* \"#utility.yul\":22288:22297   */\n      dup4\n        /* \"#utility.yul\":22284:22302   */\n      add\n        /* \"#utility.yul\":22277:22325   */\n      mstore\n        /* \"#utility.yul\":22342:22460   */\n      tag_380\n        /* \"#utility.yul\":22455:22459   */\n      dup2\n        /* \"#utility.yul\":22446:22452   */\n      dup6\n        /* \"#utility.yul\":22438:22444   */\n      dup8\n        /* \"#utility.yul\":22342:22460   */\n      tag_123\n      jump\t// in\n    tag_380:\n        /* \"#utility.yul\":22334:22460   */\n      swap1\n      pop\n        /* \"#utility.yul\":22507:22516   */\n      dup2\n        /* \"#utility.yul\":22501:22505   */\n      dup2\n        /* \"#utility.yul\":22497:22517   */\n      sub\n        /* \"#utility.yul\":22492:22494   */\n      0x60\n        /* \"#utility.yul\":22481:22490   */\n      dup4\n        /* \"#utility.yul\":22477:22495   */\n      add\n        /* \"#utility.yul\":22470:22518   */\n      mstore\n        /* \"#utility.yul\":22535:22641   */\n      tag_381\n        /* \"#utility.yul\":22636:22640   */\n      dup2\n        /* \"#utility.yul\":22627:22633   */\n      dup5\n        /* \"#utility.yul\":22535:22641   */\n      tag_131\n      jump\t// in\n    tag_381:\n        /* \"#utility.yul\":22527:22641   */\n      swap1\n      pop\n        /* \"#utility.yul\":21777:22648   */\n      swap7\n      swap6\n      pop\n      pop\n      pop\n      pop\n      pop\n      pop\n      jump\t// out\n        /* \"#utility.yul\":22654:22758   */\n    tag_132:\n        /* \"#utility.yul\":22699:22706   */\n      0x00\n        /* \"#utility.yul\":22728:22752   */\n      tag_383\n        /* \"#utility.yul\":22746:22751   */\n      dup3\n        /* \"#utility.yul\":22728:22752   */\n      tag_82\n      jump\t// in\n    tag_383:\n        /* \"#utility.yul\":22717:22752   */\n      swap1\n      pop\n        /* \"#utility.yul\":22654:22758   */\n      swap2\n      swap1\n      pop\n      jump\t// out\n        /* \"#utility.yul\":22764:22902   */\n    tag_133:\n        /* \"#utility.yul\":22845:22877   */\n      tag_385\n        /* \"#utility.yul\":22871:22876   */\n      dup2\n        /* \"#utility.yul\":22845:22877   */\n      tag_132\n      jump\t// in\n    tag_385:\n        /* \"#utility.yul\":22838:22843   */\n      dup2\n        /* \"#utility.yul\":22835:22878   */\n      eq\n        /* \"#utility.yul\":22825:22896   */\n      tag_386\n      jumpi\n        /* \"#utility.yul\":22892:22893   */\n      0x00\n        /* \"#utility.yul\":22889:22890   */\n      dup1\n        /* \"#utility.yul\":22882:22894   */\n      revert\n        /* \"#utility.yul\":22825:22896   */\n    tag_386:\n        /* \"#utility.yul\":22764:22902   */\n      pop\n      jump\t// out\n        /* \"#utility.yul\":22908:23063   */\n    tag_134:\n        /* \"#utility.yul\":22962:22967   */\n      0x00\n        /* \"#utility.yul\":23000:23006   */\n      dup2\n        /* \"#utility.yul\":22987:23007   */\n      calldataload\n        /* \"#utility.yul\":22978:23007   */\n      swap1\n      pop\n        /* \"#utility.yul\":23016:23057   */\n      tag_388\n        /* \"#utility.yul\":23051:23056   */\n      dup2\n        /* \"#utility.yul\":23016:23057   */\n      tag_133\n      jump\t// in\n    tag_388:\n        /* \"#utility.yul\":22908:23063   */\n      swap3\n      swap2\n      pop\n      pop\n      jump\t// out\n        /* \"#utility.yul\":23069:23380   */\n    tag_135:\n        /* \"#utility.yul\":23146:23150   */\n      0x00\n        /* \"#utility.yul\":23236:23254   */\n      0xffffffffffffffff\n        /* \"#utility.yul\":23228:23234   */\n      dup3\n        /* \"#utility.yul\":23225:23255   */\n      gt\n        /* \"#utility.yul\":23222:23278   */\n      iszero\n      tag_390\n      jumpi\n        /* \"#utility.yul\":23258:23276   */\n      tag_391\n      tag_68\n      jump\t// in\n    tag_391:\n        /* \"#utility.yul\":23222:23278   */\n    tag_390:\n        /* \"#utility.yul\":23308:23312   */\n      0x20\n        /* \"#utility.yul\":23300:23306   */\n      dup3\n        /* \"#utility.yul\":23296:23313   */\n      mul\n        /* \"#utility.yul\":23288:23313   */\n      swap1\n      pop\n        /* \"#utility.yul\":23368:23372   */\n      0x20\n        /* \"#utility.yul\":23362:23366   */\n      dup2\n        /* \"#utility.yul\":23358:23373   */\n      add\n        /* \"#utility.yul\":23350:23373   */\n      swap1\n      pop\n        /* \"#utility.yul\":23069:23380   */\n      swap2\n      swap1\n      pop\n      jump\t// out\n        /* \"#utility.yul\":23403:24113   */\n    tag_136:\n        /* \"#utility.yul\":23499:23504   */\n      0x00\n        /* \"#utility.yul\":23524:23605   */\n      tag_393\n        /* \"#utility.yul\":23540:23604   */\n      tag_394\n        /* \"#utility.yul\":23597:23603   */\n      dup5\n        /* \"#utility.yul\":23540:23604   */\n      tag_135\n      jump\t// in\n    tag_394:\n        /* \"#utility.yul\":23524:23605   */\n      tag_70\n      jump\t// in\n    tag_393:\n        /* \"#utility.yul\":23515:23605   */\n      swap1\n      pop\n        /* \"#utility.yul\":23625:23630   */\n      dup1\n        /* \"#utility.yul\":23654:23660   */\n      dup4\n        /* \"#utility.yul\":23647:23652   */\n      dup3\n        /* \"#utility.yul\":23640:23661   */\n      mstore\n        /* \"#utility.yul\":23688:23692   */\n      0x20\n        /* \"#utility.yul\":23681:23686   */\n      dup3\n        /* \"#utility.yul\":23677:23693   */\n      add\n        /* \"#utility.yul\":23670:23693   */\n      swap1\n      pop\n        /* \"#utility.yul\":23741:23745   */\n      0x20\n        /* \"#utility.yul\":23733:23739   */\n      dup5\n        /* \"#utility.yul\":23729:23746   */\n      mul\n        /* \"#utility.yul\":23721:23727   */\n      dup4\n        /* \"#utility.yul\":23717:23747   */\n      add\n        /* \"#utility.yul\":23770:23773   */\n      dup6\n        /* \"#utility.yul\":23762:23768   */\n      dup2\n        /* \"#utility.yul\":23759:23774   */\n      gt\n        /* \"#utility.yul\":23756:23878   */\n      iszero\n      tag_395\n      jumpi\n        /* \"#utility.yul\":23789:23868   */\n      tag_396\n      tag_87\n      jump\t// in\n    tag_396:\n        /* \"#utility.yul\":23756:23878   */\n    tag_395:\n        /* \"#utility.yul\":23904:23910   */\n      dup4\n        /* \"#utility.yul\":23887:24107   */\n    tag_397:\n        /* \"#utility.yul\":23921:23927   */\n      dup2\n        /* \"#utility.yul\":23916:23919   */\n      dup2\n        /* \"#utility.yul\":23913:23928   */\n      lt\n        /* \"#utility.yul\":23887:24107   */\n      iszero\n      tag_399\n      jumpi\n        /* \"#utility.yul\":23996:23999   */\n      dup1\n        /* \"#utility.yul\":24025:24062   */\n      tag_400\n        /* \"#utility.yul\":24058:24061   */\n      dup9\n        /* \"#utility.yul\":24046:24056   */\n      dup3\n        /* \"#utility.yul\":24025:24062   */\n      tag_81\n      jump\t// in\n    tag_400:\n        /* \"#utility.yul\":24020:24023   */\n      dup5\n        /* \"#utility.yul\":24013:24063   */\n      mstore\n        /* \"#utility.yul\":24092:24096   */\n      0x20\n        /* \"#utility.yul\":24087:24090   */\n      dup5\n        /* \"#utility.yul\":24083:24097   */\n      add\n        /* \"#utility.yul\":24076:24097   */\n      swap4\n      pop\n        /* \"#utility.yul\":23963:24107   */\n      pop\n        /* \"#utility.yul\":23947:23951   */\n      0x20\n        /* \"#utility.yul\":23942:23945   */\n      dup2\n        /* \"#utility.yul\":23938:23952   */\n      add\n        /* \"#utility.yul\":23931:23952   */\n      swap1\n      pop\n        /* \"#utility.yul\":23887:24107   */\n      jump(tag_397)\n    tag_399:\n        /* \"#utility.yul\":23891:23912   */\n      pop\n        /* \"#utility.yul\":23505:24113   */\n      pop\n      pop\n        /* \"#utility.yul\":23403:24113   */\n      swap4\n      swap3\n      pop\n      pop\n      pop\n      jump\t// out\n        /* \"#utility.yul\":24136:24506   */\n    tag_137:\n        /* \"#utility.yul\":24207:24212   */\n      0x00\n        /* \"#utility.yul\":24256:24259   */\n      dup3\n        /* \"#utility.yul\":24249:24253   */\n      0x1f\n        /* \"#utility.yul\":24241:24247   */\n      dup4\n        /* \"#utility.yul\":24237:24254   */\n      add\n        /* \"#utility.yul\":24233:24260   */\n      slt\n        /* \"#utility.yul\":24223:24345   */\n      tag_402\n      jumpi\n        /* \"#utility.yul\":24264:24343   */\n      tag_403\n      tag_65\n      jump\t// in\n    tag_403:\n        /* \"#utility.yul\":24223:24345   */\n    tag_402:\n        /* \"#utility.yul\":24381:24387   */\n      dup2\n        /* \"#utility.yul\":24368:24388   */\n      calldataload\n        /* \"#utility.yul\":24406:24500   */\n      tag_404\n        /* \"#utility.yul\":24496:24499   */\n      dup5\n        /* \"#utility.yul\":24488:24494   */\n      dup3\n        /* \"#utility.yul\":24481:24485   */\n      0x20\n        /* \"#utility.yul\":24473:24479   */\n      dup7\n        /* \"#utility.yul\":24469:24486   */\n      add\n        /* \"#utility.yul\":24406:24500   */\n      tag_136\n      jump\t// in\n    tag_404:\n        /* \"#utility.yul\":24397:24500   */\n      swap2\n      pop\n        /* \"#utility.yul\":24213:24506   */\n      pop\n        /* \"#utility.yul\":24136:24506   */\n      swap3\n      swap2\n      pop\n      pop\n      jump\t// out\n        /* \"#utility.yul\":24512:24629   */\n    tag_138:\n        /* \"#utility.yul\":24621:24622   */\n      0x00\n        /* \"#utility.yul\":24618:24619   */\n      dup1\n        /* \"#utility.yul\":24611:24623   */\n      revert\n        /* \"#utility.yul\":24635:24752   */\n    tag_139:\n        /* \"#utility.yul\":24744:24745   */\n      0x00\n        /* \"#utility.yul\":24741:24742   */\n      dup1\n        /* \"#utility.yul\":24734:24746   */\n      revert\n        /* \"#utility.yul\":24758:25007   */\n    tag_140:\n        /* \"#utility.yul\":24833:24837   */\n      0x00\n        /* \"#utility.yul\":24923:24941   */\n      0xffffffffffffffff\n        /* \"#utility.yul\":24915:24921   */\n      dup3\n        /* \"#utility.yul\":24912:24942   */\n      gt\n        /* \"#utility.yul\":24909:24965   */\n      iszero\n      tag_408\n      jumpi\n        /* \"#utility.yul\":24945:24963   */\n      tag_409\n      tag_68\n      jump\t// in\n    tag_409:\n        /* \"#utility.yul\":24909:24965   */\n    tag_408:\n        /* \"#utility.yul\":24995:24999   */\n      0x20\n        /* \"#utility.yul\":24987:24993   */\n      dup3\n        /* \"#utility.yul\":24983:25000   */\n      mul\n        /* \"#utility.yul\":24975:25000   */\n      swap1\n      pop\n        /* \"#utility.yul\":24758:25007   */\n      swap2\n      swap1\n      pop\n      jump\t// out\n        /* \"#utility.yul\":25031:25674   */\n    tag_141:\n        /* \"#utility.yul\":25125:25130   */\n      0x00\n        /* \"#utility.yul\":25150:25229   */\n      tag_411\n        /* \"#utility.yul\":25166:25228   */\n      tag_412\n        /* \"#utility.yul\":25221:25227   */\n      dup5\n        /* \"#utility.yul\":25166:25228   */\n      tag_140\n      jump\t// in\n    tag_412:\n        /* \"#utility.yul\":25150:25229   */\n      tag_70\n      jump\t// in\n    tag_411:\n        /* \"#utility.yul\":25141:25229   */\n      swap1\n      pop\n        /* \"#utility.yul\":25249:25254   */\n      dup1\n        /* \"#utility.yul\":25302:25306   */\n      0x20\n        /* \"#utility.yul\":25294:25300   */\n      dup5\n        /* \"#utility.yul\":25290:25307   */\n      mul\n        /* \"#utility.yul\":25282:25288   */\n      dup4\n        /* \"#utility.yul\":25278:25308   */\n      add\n        /* \"#utility.yul\":25331:25334   */\n      dup6\n        /* \"#utility.yul\":25323:25329   */\n      dup2\n        /* \"#utility.yul\":25320:25335   */\n      gt\n        /* \"#utility.yul\":25317:25439   */\n      iszero\n      tag_413\n      jumpi\n        /* \"#utility.yul\":25350:25429   */\n      tag_414\n      tag_87\n      jump\t// in\n    tag_414:\n        /* \"#utility.yul\":25317:25439   */\n    tag_413:\n        /* \"#utility.yul\":25465:25471   */\n      dup4\n        /* \"#utility.yul\":25448:25668   */\n    tag_415:\n        /* \"#utility.yul\":25482:25488   */\n      dup2\n        /* \"#utility.yul\":25477:25480   */\n      dup2\n        /* \"#utility.yul\":25474:25489   */\n      lt\n        /* \"#utility.yul\":25448:25668   */\n      iszero\n      tag_417\n      jumpi\n        /* \"#utility.yul\":25557:25560   */\n      dup1\n        /* \"#utility.yul\":25586:25623   */\n      tag_418\n        /* \"#utility.yul\":25619:25622   */\n      dup9\n        /* \"#utility.yul\":25607:25617   */\n      dup3\n        /* \"#utility.yul\":25586:25623   */\n      tag_81\n      jump\t// in\n    tag_418:\n        /* \"#utility.yul\":25581:25584   */\n      dup5\n        /* \"#utility.yul\":25574:25624   */\n      mstore\n        /* \"#utility.yul\":25653:25657   */\n      0x20\n        /* \"#utility.yul\":25648:25651   */\n      dup5\n        /* \"#utility.yul\":25644:25658   */\n      add\n        /* \"#utility.yul\":25637:25658   */\n      swap4\n      pop\n        /* \"#utility.yul\":25524:25668   */\n      pop\n        /* \"#utility.yul\":25508:25512   */\n      0x20\n        /* \"#utility.yul\":25503:25506   */\n      dup2\n        /* \"#utility.yul\":25499:25513   */\n      add\n        /* \"#utility.yul\":25492:25513   */\n      swap1\n      pop\n        /* \"#utility.yul\":25448:25668   */\n      jump(tag_415)\n    tag_417:\n        /* \"#utility.yul\":25452:25473   */\n      pop\n        /* \"#utility.yul\":25131:25674   */\n      pop\n      pop\n        /* \"#utility.yul\":25031:25674   */\n      swap4\n      swap3\n      pop\n      pop\n      pop\n      jump\t// out\n        /* \"#utility.yul\":25698:26037   */\n    tag_142:\n        /* \"#utility.yul\":25767:25772   */\n      0x00\n        /* \"#utility.yul\":25816:25819   */\n      dup3\n        /* \"#utility.yul\":25809:25813   */\n      0x1f\n        /* \"#utility.yul\":25801:25807   */\n      dup4\n        /* \"#utility.yul\":25797:25814   */\n      add\n        /* \"#utility.yul\":25793:25820   */\n      slt\n        /* \"#utility.yul\":25783:25905   */\n      tag_420\n      jumpi\n        /* \"#utility.yul\":25824:25903   */\n      tag_421\n      tag_65\n      jump\t// in\n    tag_421:\n        /* \"#utility.yul\":25783:25905   */\n    tag_420:\n        /* \"#utility.yul\":25928:25932   */\n      0x02\n        /* \"#utility.yul\":25950:26031   */\n      tag_422\n        /* \"#utility.yul\":26027:26030   */\n      dup5\n        /* \"#utility.yul\":26019:26025   */\n      dup3\n        /* \"#utility.yul\":26011:26017   */\n      dup6\n        /* \"#utility.yul\":25950:26031   */\n      tag_141\n      jump\t// in\n    tag_422:\n        /* \"#utility.yul\":25941:26031   */\n      swap2\n      pop\n        /* \"#utility.yul\":25773:26037   */\n      pop\n        /* \"#utility.yul\":25698:26037   */\n      swap3\n      swap2\n      pop\n      pop\n      jump\t// out\n        /* \"#utility.yul\":26076:26841   */\n    tag_143:\n        /* \"#utility.yul\":26148:26153   */\n      0x00\n        /* \"#utility.yul\":26192:26196   */\n      0x60\n        /* \"#utility.yul\":26180:26189   */\n      dup3\n        /* \"#utility.yul\":26175:26178   */\n      dup5\n        /* \"#utility.yul\":26171:26190   */\n      sub\n        /* \"#utility.yul\":26167:26197   */\n      slt\n        /* \"#utility.yul\":26164:26281   */\n      iszero\n      tag_424\n      jumpi\n        /* \"#utility.yul\":26200:26279   */\n      tag_425\n      tag_138\n      jump\t// in\n    tag_425:\n        /* \"#utility.yul\":26164:26281   */\n    tag_424:\n        /* \"#utility.yul\":26299:26320   */\n      tag_426\n        /* \"#utility.yul\":26315:26319   */\n      0x40\n        /* \"#utility.yul\":26299:26320   */\n      tag_70\n      jump\t// in\n    tag_426:\n        /* \"#utility.yul\":26290:26320   */\n      swap1\n      pop\n        /* \"#utility.yul\":26407:26408   */\n      0x00\n        /* \"#utility.yul\":26396:26405   */\n      dup3\n        /* \"#utility.yul\":26392:26409   */\n      add\n        /* \"#utility.yul\":26379:26410   */\n      calldataload\n        /* \"#utility.yul\":26437:26455   */\n      0xffffffffffffffff\n        /* \"#utility.yul\":26429:26435   */\n      dup2\n        /* \"#utility.yul\":26426:26456   */\n      gt\n        /* \"#utility.yul\":26423:26540   */\n      iszero\n      tag_427\n      jumpi\n        /* \"#utility.yul\":26459:26538   */\n      tag_428\n      tag_139\n      jump\t// in\n    tag_428:\n        /* \"#utility.yul\":26423:26540   */\n    tag_427:\n        /* \"#utility.yul\":26579:26638   */\n      tag_429\n        /* \"#utility.yul\":26634:26637   */\n      dup5\n        /* \"#utility.yul\":26625:26631   */\n      dup3\n        /* \"#utility.yul\":26614:26623   */\n      dup6\n        /* \"#utility.yul\":26610:26632   */\n      add\n        /* \"#utility.yul\":26579:26638   */\n      tag_74\n      jump\t// in\n    tag_429:\n        /* \"#utility.yul\":26572:26576   */\n      0x00\n        /* \"#utility.yul\":26565:26570   */\n      dup4\n        /* \"#utility.yul\":26561:26577   */\n      add\n        /* \"#utility.yul\":26554:26639   */\n      mstore\n        /* \"#utility.yul\":26330:26650   */\n      pop\n        /* \"#utility.yul\":26709:26711   */\n      0x20\n        /* \"#utility.yul\":26750:26822   */\n      tag_430\n        /* \"#utility.yul\":26818:26821   */\n      dup5\n        /* \"#utility.yul\":26809:26815   */\n      dup3\n        /* \"#utility.yul\":26798:26807   */\n      dup6\n        /* \"#utility.yul\":26794:26816   */\n      add\n        /* \"#utility.yul\":26750:26822   */\n      tag_142\n      jump\t// in\n    tag_430:\n        /* \"#utility.yul\":26743:26747   */\n      0x20\n        /* \"#utility.yul\":26736:26741   */\n      dup4\n        /* \"#utility.yul\":26732:26748   */\n      add\n        /* \"#utility.yul\":26725:26823   */\n      mstore\n        /* \"#utility.yul\":26660:26834   */\n      pop\n        /* \"#utility.yul\":26076:26841   */\n      swap3\n      swap2\n      pop\n      pop\n      jump\t// out\n        /* \"#utility.yul\":26847:28044   */\n    tag_43:\n        /* \"#utility.yul\":26989:26995   */\n      0x00\n        /* \"#utility.yul\":26997:27003   */\n      dup1\n        /* \"#utility.yul\":27005:27011   */\n      0x00\n        /* \"#utility.yul\":27013:27019   */\n      dup1\n        /* \"#utility.yul\":27062:27065   */\n      0x80\n        /* \"#utility.yul\":27050:27059   */\n      dup6\n        /* \"#utility.yul\":27041:27048   */\n      dup8\n        /* \"#utility.yul\":27037:27060   */\n      sub\n        /* \"#utility.yul\":27033:27066   */\n      slt\n        /* \"#utility.yul\":27030:27150   */\n      iszero\n      tag_432\n      jumpi\n        /* \"#utility.yul\":27069:27148   */\n      tag_433\n      tag_54\n      jump\t// in\n    tag_433:\n        /* \"#utility.yul\":27030:27150   */\n    tag_432:\n        /* \"#utility.yul\":27189:27190   */\n      0x00\n        /* \"#utility.yul\":27214:27267   */\n      tag_434\n        /* \"#utility.yul\":27259:27266   */\n      dup8\n        /* \"#utility.yul\":27250:27256   */\n      dup3\n        /* \"#utility.yul\":27239:27248   */\n      dup9\n        /* \"#utility.yul\":27235:27257   */\n      add\n        /* \"#utility.yul\":27214:27267   */\n      tag_81\n      jump\t// in\n    tag_434:\n        /* \"#utility.yul\":27204:27267   */\n      swap5\n      pop\n        /* \"#utility.yul\":27160:27277   */\n      pop\n        /* \"#utility.yul\":27316:27318   */\n      0x20\n        /* \"#utility.yul\":27342:27403   */\n      tag_435\n        /* \"#utility.yul\":27395:27402   */\n      dup8\n        /* \"#utility.yul\":27386:27392   */\n      dup3\n        /* \"#utility.yul\":27375:27384   */\n      dup9\n        /* \"#utility.yul\":27371:27393   */\n      add\n        /* \"#utility.yul\":27342:27403   */\n      tag_134\n      jump\t// in\n    tag_435:\n        /* \"#utility.yul\":27332:27403   */\n      swap4\n      pop\n        /* \"#utility.yul\":27287:27413   */\n      pop\n        /* \"#utility.yul\":27480:27482   */\n      0x40\n        /* \"#utility.yul\":27469:27478   */\n      dup6\n        /* \"#utility.yul\":27465:27483   */\n      add\n        /* \"#utility.yul\":27452:27484   */\n      calldataload\n        /* \"#utility.yul\":27511:27529   */\n      0xffffffffffffffff\n        /* \"#utility.yul\":27503:27509   */\n      dup2\n        /* \"#utility.yul\":27500:27530   */\n      gt\n        /* \"#utility.yul\":27497:27614   */\n      iszero\n      tag_436\n      jumpi\n        /* \"#utility.yul\":27533:27612   */\n      tag_437\n      tag_55\n      jump\t// in\n    tag_437:\n        /* \"#utility.yul\":27497:27614   */\n    tag_436:\n        /* \"#utility.yul\":27638:27716   */\n      tag_438\n        /* \"#utility.yul\":27708:27715   */\n      dup8\n        /* \"#utility.yul\":27699:27705   */\n      dup3\n        /* \"#utility.yul\":27688:27697   */\n      dup9\n        /* \"#utility.yul\":27684:27706   */\n      add\n        /* \"#utility.yul\":27638:27716   */\n      tag_137\n      jump\t// in\n    tag_438:\n        /* \"#utility.yul\":27628:27716   */\n      swap3\n      pop\n        /* \"#utility.yul\":27423:27726   */\n      pop\n        /* \"#utility.yul\":27793:27795   */\n      0x60\n        /* \"#utility.yul\":27782:27791   */\n      dup6\n        /* \"#utility.yul\":27778:27796   */\n      add\n        /* \"#utility.yul\":27765:27797   */\n      calldataload\n        /* \"#utility.yul\":27824:27842   */\n      0xffffffffffffffff\n        /* \"#utility.yul\":27816:27822   */\n      dup2\n        /* \"#utility.yul\":27813:27843   */\n      gt\n        /* \"#utility.yul\":27810:27927   */\n      iszero\n      tag_439\n      jumpi\n        /* \"#utility.yul\":27846:27925   */\n      tag_440\n      tag_55\n      jump\t// in\n    tag_440:\n        /* \"#utility.yul\":27810:27927   */\n    tag_439:\n        /* \"#utility.yul\":27951:28027   */\n      tag_441\n        /* \"#utility.yul\":28019:28026   */\n      dup8\n        /* \"#utility.yul\":28010:28016   */\n      dup3\n        /* \"#utility.yul\":27999:28008   */\n      dup9\n        /* \"#utility.yul\":27995:28017   */\n      add\n        /* \"#utility.yul\":27951:28027   */\n      tag_143\n      jump\t// in\n    tag_441:\n        /* \"#utility.yul\":27941:28027   */\n      swap2\n      pop\n        /* \"#utility.yul\":27736:28037   */\n      pop\n        /* \"#utility.yul\":26847:28044   */\n      swap3\n      swap6\n      swap2\n      swap5\n      pop\n      swap3\n      pop\n      jump\t// out\n        /* \"#utility.yul\":28050:28203   */\n    tag_144:\n        /* \"#utility.yul\":28190:28195   */\n      0x3130300000000000000000000000000000000000000000000000000000000000\n        /* \"#utility.yul\":28186:28187   */\n      0x00\n        /* \"#utility.yul\":28178:28184   */\n      dup3\n        /* \"#utility.yul\":28174:28188   */\n      add\n        /* \"#utility.yul\":28167:28196   */\n      mstore\n        /* \"#utility.yul\":28050:28203   */\n      pop\n      jump\t// out\n        /* \"#utility.yul\":28209:28609   */\n    tag_145:\n        /* \"#utility.yul\":28369:28372   */\n      0x00\n        /* \"#utility.yul\":28390:28474   */\n      tag_444\n        /* \"#utility.yul\":28472:28473   */\n      0x03\n        /* \"#utility.yul\":28467:28470   */\n      dup4\n        /* \"#utility.yul\":28390:28474   */\n      tag_119\n      jump\t// in\n    tag_444:\n        /* \"#utility.yul\":28383:28474   */\n      swap2\n      pop\n        /* \"#utility.yul\":28483:28576   */\n      tag_445\n        /* \"#utility.yul\":28572:28575   */\n      dup3\n        /* \"#utility.yul\":28483:28576   */\n      tag_144\n      jump\t// in\n    tag_445:\n        /* \"#utility.yul\":28601:28602   */\n      0x03\n        /* \"#utility.yul\":28596:28599   */\n      dup3\n        /* \"#utility.yul\":28592:28603   */\n      add\n        /* \"#utility.yul\":28585:28603   */\n      swap1\n      pop\n        /* \"#utility.yul\":28209:28609   */\n      swap2\n      swap1\n      pop\n      jump\t// out\n        /* \"#utility.yul\":28615:28770   */\n    tag_146:\n        /* \"#utility.yul\":28755:28762   */\n      0x2e6a736f6e000000000000000000000000000000000000000000000000000000\n        /* \"#utility.yul\":28751:28752   */\n      0x00\n        /* \"#utility.yul\":28743:28749   */\n      dup3\n        /* \"#utility.yul\":28739:28753   */\n      add\n        /* \"#utility.yul\":28732:28763   */\n      mstore\n        /* \"#utility.yul\":28615:28770   */\n      pop\n      jump\t// out\n        /* \"#utility.yul\":28776:29176   */\n    tag_147:\n        /* \"#utility.yul\":28936:28939   */\n      0x00\n        /* \"#utility.yul\":28957:29041   */\n      tag_448\n        /* \"#utility.yul\":29039:29040   */\n      0x05\n        /* \"#utility.yul\":29034:29037   */\n      dup4\n        /* \"#utility.yul\":28957:29041   */\n      tag_119\n      jump\t// in\n    tag_448:\n        /* \"#utility.yul\":28950:29041   */\n      swap2\n      pop\n        /* \"#utility.yul\":29050:29143   */\n      tag_449\n        /* \"#utility.yul\":29139:29142   */\n      dup3\n        /* \"#utility.yul\":29050:29143   */\n      tag_146\n      jump\t// in\n    tag_449:\n        /* \"#utility.yul\":29168:29169   */\n      0x05\n        /* \"#utility.yul\":29163:29166   */\n      dup3\n        /* \"#utility.yul\":29159:29170   */\n      add\n        /* \"#utility.yul\":29152:29170   */\n      swap1\n      pop\n        /* \"#utility.yul\":28776:29176   */\n      swap2\n      swap1\n      pop\n      jump\t// out\n        /* \"#utility.yul\":29182:29989   */\n    tag_46:\n        /* \"#utility.yul\":29516:29519   */\n      0x00\n        /* \"#utility.yul\":29538:29633   */\n      tag_451\n        /* \"#utility.yul\":29629:29632   */\n      dup3\n        /* \"#utility.yul\":29620:29626   */\n      dup5\n        /* \"#utility.yul\":29538:29633   */\n      tag_120\n      jump\t// in\n    tag_451:\n        /* \"#utility.yul\":29531:29633   */\n      swap2\n      pop\n        /* \"#utility.yul\":29650:29798   */\n      tag_452\n        /* \"#utility.yul\":29794:29797   */\n      dup3\n        /* \"#utility.yul\":29650:29798   */\n      tag_145\n      jump\t// in\n    tag_452:\n        /* \"#utility.yul\":29643:29798   */\n      swap2\n      pop\n        /* \"#utility.yul\":29815:29963   */\n      tag_453\n        /* \"#utility.yul\":29959:29962   */\n      dup3\n        /* \"#utility.yul\":29815:29963   */\n      tag_147\n      jump\t// in\n    tag_453:\n        /* \"#utility.yul\":29808:29963   */\n      swap2\n      pop\n        /* \"#utility.yul\":29980:29983   */\n      dup2\n        /* \"#utility.yul\":29973:29983   */\n      swap1\n      pop\n        /* \"#utility.yul\":29182:29989   */\n      swap3\n      swap2\n      pop\n      pop\n      jump\t// out\n        /* \"#utility.yul\":29995:30324   */\n    tag_50:\n        /* \"#utility.yul\":30054:30060   */\n      0x00\n        /* \"#utility.yul\":30103:30105   */\n      0x20\n        /* \"#utility.yul\":30091:30100   */\n      dup3\n        /* \"#utility.yul\":30082:30089   */\n      dup5\n        /* \"#utility.yul\":30078:30101   */\n      sub\n        /* \"#utility.yul\":30074:30106   */\n      slt\n        /* \"#utility.yul\":30071:30190   */\n      iszero\n      tag_455\n      jumpi\n        /* \"#utility.yul\":30109:30188   */\n      tag_456\n      tag_54\n      jump\t// in\n    tag_456:\n        /* \"#utility.yul\":30071:30190   */\n    tag_455:\n        /* \"#utility.yul\":30229:30230   */\n      0x00\n        /* \"#utility.yul\":30254:30307   */\n      tag_457\n        /* \"#utility.yul\":30299:30306   */\n      dup5\n        /* \"#utility.yul\":30290:30296   */\n      dup3\n        /* \"#utility.yul\":30279:30288   */\n      dup6\n        /* \"#utility.yul\":30275:30297   */\n      add\n        /* \"#utility.yul\":30254:30307   */\n      tag_81\n      jump\t// in\n    tag_457:\n        /* \"#utility.yul\":30244:30307   */\n      swap2\n      pop\n        /* \"#utility.yul\":30200:30317   */\n      pop\n        /* \"#utility.yul\":29995:30324   */\n      swap3\n      swap2\n      pop\n      pop\n      jump\t// out\n    stop\n    data_78f5984cd48107fa85e24c79ba072c0a56e5a8f628e6616efbb314b74aa2d4b2 697066733a2f2f62616679626569646d72737665686c34656869706d3571717667656769333372362f\n\n    auxdata: 0xa2646970667358221220d178bd130754bf51ddde155c0569118a555d544a5ac29b0704de8973c3ff9f4d64736f6c634300081a0033\n}\n",
				"bytecode": {
					"linkReferences": {},
					"object": "6080604052348015600e575f80fd5b506111328061001c5f395ff3fe608060405234801561000f575f80fd5b5060043610610055575f3560e01c80631278f07c146100595780637049e08714610089578063e5c5e9a3146100b9578063ebf9292f146100ec578063fb39553c1461010a575b5f80fd5b610073600480360381019061006e9190610493565b61013d565b6040516100809190610573565b60405180910390f35b6100a3600480360381019061009e919061069f565b61016f565b6040516100b09190610573565b60405180910390f35b6100d360048036038101906100ce9190610794565b6101a4565b6040516100e394939291906109bf565b60405180910390f35b6100f46101d8565b6040516101019190610a58565b60405180910390f35b610124600480360381019061011f9190610794565b61021c565b60405161013494939291906109bf565b60405180910390f35b6060848484846040516020016101569493929190610b2e565b6040516020818303038152906040529050949350505050565b6060858585858560405160200161018a959493929190610cdf565b604051602081830303815290604052905095945050505050565b5f8060606101b0610242565b85858101906101bf9190610f4c565b8094508195508296508397505050505092959194509250565b60605f6040518060600160405280602981526020016110d460299139905080604051602001610207919061107c565b60405160208183030381529060405291505090565b5f806060610228610242565b858581019061023791906110a8565b935092959194509250565b60405180604001604052806060815260200161025c610262565b81525090565b6040518060400160405280600290602082028036833780820191505090505090565b5f604051905090565b5f80fd5b5f80fd5b5f8160010b9050919050565b6102aa81610295565b81146102b4575f80fd5b50565b5f813590506102c5816102a1565b92915050565b5f7fff0000000000000000000000000000000000000000000000000000000000000082169050919050565b6102ff816102cb565b8114610309575f80fd5b50565b5f8135905061031a816102f6565b92915050565b5f61ffff82169050919050565b61033681610320565b8114610340575f80fd5b50565b5f813590506103518161032d565b92915050565b5f80fd5b5f80fd5b5f601f19601f8301169050919050565b7f4e487b71000000000000000000000000000000000000000000000000000000005f52604160045260245ffd5b6103a58261035f565b810181811067ffffffffffffffff821117156103c4576103c361036f565b5b80604052505050565b5f6103d6610284565b90506103e2828261039c565b919050565b5f67ffffffffffffffff8211156104015761040061036f565b5b61040a8261035f565b9050602081019050919050565b828183375f83830152505050565b5f610437610432846103e7565b6103cd565b9050828152602081018484840111156104535761045261035b565b5b61045e848285610417565b509392505050565b5f82601f83011261047a57610479610357565b5b813561048a848260208601610425565b91505092915050565b5f805f80608085870312156104ab576104aa61028d565b5b5f6104b8878288016102b7565b94505060206104c98782880161030c565b93505060406104da87828801610343565b925050606085013567ffffffffffffffff8111156104fb576104fa610291565b5b61050787828801610466565b91505092959194509250565b5f81519050919050565b5f82825260208201905092915050565b8281835e5f83830152505050565b5f61054582610513565b61054f818561051d565b935061055f81856020860161052d565b6105688161035f565b840191505092915050565b5f6020820190508181035f83015261058b818461053b565b905092915050565b5f819050919050565b6105a581610593565b81146105af575f80fd5b50565b5f813590506105c08161059c565b92915050565b5f73ffffffffffffffffffffffffffffffffffffffff82169050919050565b5f6105ef826105c6565b9050919050565b6105ff816105e5565b8114610609575f80fd5b50565b5f8135905061061a816105f6565b92915050565b5f80fd5b5f80fd5b5f8083601f84011261063d5761063c610357565b5b8235905067ffffffffffffffff81111561065a57610659610620565b5b60208301915083602082028301111561067657610675610624565b5b9250929050565b5f80fd5b5f606082840312156106965761069561067d565b5b81905092915050565b5f805f805f608086880312156106b8576106b761028d565b5b5f6106c5888289016105b2565b95505060206106d68882890161060c565b945050604086013567ffffffffffffffff8111156106f7576106f6610291565b5b61070388828901610628565b9350935050606086013567ffffffffffffffff81111561072657610725610291565b5b61073288828901610681565b9150509295509295909350565b5f8083601f84011261075457610753610357565b5b8235905067ffffffffffffffff81111561077157610770610620565b5b60208301915083600182028301111561078d5761078c610624565b5b9250929050565b5f80602083850312156107aa576107a961028d565b5b5f83013567ffffffffffffffff8111156107c7576107c6610291565b5b6107d38582860161073f565b92509250509250929050565b6107e881610593565b82525050565b6107f7816105e5565b82525050565b5f81519050919050565b5f82825260208201905092915050565b5f819050602082019050919050565b61082f81610593565b82525050565b5f6108408383610826565b60208301905092915050565b5f602082019050919050565b5f610862826107fd565b61086c8185610807565b935061087783610817565b805f5b838110156108a757815161088e8882610835565b97506108998361084c565b92505060018101905061087a565b5085935050505092915050565b5f81519050919050565b5f82825260208201905092915050565b5f6108d8826108b4565b6108e281856108be565b93506108f281856020860161052d565b6108fb8161035f565b840191505092915050565b5f60029050919050565b5f81905092915050565b5f819050919050565b5f602082019050919050565b61093881610906565b6109428184610910565b925061094d8261091a565b805f5b8381101561097d5781516109648782610835565b965061096f83610923565b925050600181019050610950565b505050505050565b5f606083015f8301518482035f86015261099f82826108ce565b91505060208301516109b4602086018261092f565b508091505092915050565b5f6080820190506109d25f8301876107df565b6109df60208301866107ee565b81810360408301526109f18185610858565b90508181036060830152610a058184610985565b905095945050505050565b5f82825260208201905092915050565b5f610a2a826108b4565b610a348185610a10565b9350610a4481856020860161052d565b610a4d8161035f565b840191505092915050565b5f6020820190508181035f830152610a708184610a20565b905092915050565b5f8160f01b9050919050565b5f610a8e82610a78565b9050919050565b610aa6610aa182610295565b610a84565b82525050565b5f819050919050565b610ac6610ac1826102cb565b610aac565b82525050565b5f610ad682610a78565b9050919050565b610aee610ae982610320565b610acc565b82525050565b5f81905092915050565b5f610b08826108b4565b610b128185610af4565b9350610b2281856020860161052d565b80840191505092915050565b5f610b398287610a95565b600282019150610b498286610ab5565b600182019150610b598285610add565b600282019150610b698284610afe565b915081905095945050505050565b5f80fd5b82818337505050565b5f610b8f8385610807565b93507f07ffffffffffffffffffffffffffffffffffffffffffffffffffffffffffffff831115610bc257610bc1610b77565b5b602083029250610bd3838584610b7b565b82840190509392505050565b5f80fd5b5f80fd5b5f80fd5b5f8083356001602003843603038112610c0757610c06610be7565b5b83810192508235915060208301925067ffffffffffffffff821115610c2f57610c2e610bdf565b5b600182023603831315610c4557610c44610be3565b5b509250929050565b5f610c5883856108be565b9350610c65838584610417565b610c6e8361035f565b840190509392505050565b5f82905092915050565b610c8f60408383610b7b565b5050565b5f60608301610ca45f840184610beb565b8583035f870152610cb6838284610c4d565b92505050610cc76020840184610c79565b610cd46020860182610c83565b508091505092915050565b5f608082019050610cf25f8301886107df565b610cff60208301876107ee565b8181036040830152610d12818587610b84565b90508181036060830152610d268184610c93565b90509695505050505050565b5f610d3c826105c6565b9050919050565b610d4c81610d32565b8114610d56575f80fd5b50565b5f81359050610d6781610d43565b92915050565b5f67ffffffffffffffff821115610d8757610d8661036f565b5b602082029050602081019050919050565b5f610daa610da584610d6d565b6103cd565b90508083825260208201905060208402830185811115610dcd57610dcc610624565b5b835b81811015610df65780610de288826105b2565b845260208401935050602081019050610dcf565b5050509392505050565b5f82601f830112610e1457610e13610357565b5b8135610e24848260208601610d98565b91505092915050565b5f80fd5b5f80fd5b5f67ffffffffffffffff821115610e4f57610e4e61036f565b5b602082029050919050565b5f610e6c610e6784610e35565b6103cd565b90508060208402830185811115610e8657610e85610624565b5b835b81811015610eaf5780610e9b88826105b2565b845260208401935050602081019050610e88565b5050509392505050565b5f82601f830112610ecd57610ecc610357565b5b6002610eda848285610e5a565b91505092915050565b5f60608284031215610ef857610ef7610e2d565b5b610f0260406103cd565b90505f82013567ffffffffffffffff811115610f2157610f20610e31565b5b610f2d84828501610466565b5f830152506020610f4084828501610eb9565b60208301525092915050565b5f805f8060808587031215610f6457610f6361028d565b5b5f610f71878288016105b2565b9450506020610f8287828801610d59565b935050604085013567ffffffffffffffff811115610fa357610fa2610291565b5b610faf87828801610e00565b925050606085013567ffffffffffffffff811115610fd057610fcf610291565b5b610fdc87828801610ee3565b91505092959194509250565b7f31303000000000000000000000000000000000000000000000000000000000005f82015250565b5f61101c600383610af4565b915061102782610fe8565b600382019050919050565b7f2e6a736f6e0000000000000000000000000000000000000000000000000000005f82015250565b5f611066600583610af4565b915061107182611032565b600582019050919050565b5f6110878284610afe565b915061109282611010565b915061109d8261105a565b915081905092915050565b5f602082840312156110bd576110bc61028d565b5b5f6110ca848285016105b2565b9150509291505056fe697066733a2f2f62616679626569646d72737665686c34656869706d3571717667656769333372362fa2646970667358221220d178bd130754bf51ddde155c0569118a555d544a5ac29b0704de8973c3ff9f4d64736f6c634300081a0033",
					"opcodes": "PUSH1 0x80 PUSH1 0x40 MSTORE CALLVALUE DUP1 ISZERO PUSH1 0xE JUMPI PUSH0 DUP1 REVERT JUMPDEST POP PUSH2 0x1132 DUP1 PUSH2 0x1C PUSH0 CODECOPY PUSH0 RETURN INVALID PUSH1 0x80 PUSH1 0x40 MSTORE CALLVALUE DUP1 ISZERO PUSH2 0xF JUMPI PUSH0 DUP1 REVERT JUMPDEST POP PUSH1 0x4 CALLDATASIZE LT PUSH2 0x55 JUMPI PUSH0 CALLDATALOAD PUSH1 0xE0 SHR DUP1 PUSH4 0x1278F07C EQ PUSH2 0x59 JUMPI DUP1 PUSH4 0x7049E087 EQ PUSH2 0x89 JUMPI DUP1 PUSH4 0xE5C5E9A3 EQ PUSH2 0xB9 JUMPI DUP1 PUSH4 0xEBF9292F EQ PUSH2 0xEC JUMPI DUP1 PUSH4 0xFB39553C EQ PUSH2 0x10A JUMPI JUMPDEST PUSH0 DUP1 REVERT JUMPDEST PUSH2 0x73 PUSH1 0x4 DUP1 CALLDATASIZE SUB DUP2 ADD SWAP1 PUSH2 0x6E SWAP2 SWAP1 PUSH2 0x493 JUMP JUMPDEST PUSH2 0x13D JUMP JUMPDEST PUSH1 0x40 MLOAD PUSH2 0x80 SWAP2 SWAP1 PUSH2 0x573 JUMP JUMPDEST PUSH1 0x40 MLOAD DUP1 SWAP2 SUB SWAP1 RETURN JUMPDEST PUSH2 0xA3 PUSH1 0x4 DUP1 CALLDATASIZE SUB DUP2 ADD SWAP1 PUSH2 0x9E SWAP2 SWAP1 PUSH2 0x69F JUMP JUMPDEST PUSH2 0x16F JUMP JUMPDEST PUSH1 0x40 MLOAD PUSH2 0xB0 SWAP2 SWAP1 PUSH2 0x573 JUMP JUMPDEST PUSH1 0x40 MLOAD DUP1 SWAP2 SUB SWAP1 RETURN JUMPDEST PUSH2 0xD3 PUSH1 0x4 DUP1 CALLDATASIZE SUB DUP2 ADD SWAP1 PUSH2 0xCE SWAP2 SWAP1 PUSH2 0x794 JUMP JUMPDEST PUSH2 0x1A4 JUMP JUMPDEST PUSH1 0x40 MLOAD PUSH2 0xE3 SWAP5 SWAP4 SWAP3 SWAP2 SWAP1 PUSH2 0x9BF JUMP JUMPDEST PUSH1 0x40 MLOAD DUP1 SWAP2 SUB SWAP1 RETURN JUMPDEST PUSH2 0xF4 PUSH2 0x1D8 JUMP JUMPDEST PUSH1 0x40 MLOAD PUSH2 0x101 SWAP2 SWAP1 PUSH2 0xA58 JUMP JUMPDEST PUSH1 0x40 MLOAD DUP1 SWAP2 SUB SWAP1 RETURN JUMPDEST PUSH2 0x124 PUSH1 0x4 DUP1 CALLDATASIZE SUB DUP2 ADD SWAP1 PUSH2 0x11F SWAP2 SWAP1 PUSH2 0x794 JUMP JUMPDEST PUSH2 0x21C JUMP JUMPDEST PUSH1 0x40 MLOAD PUSH2 0x134 SWAP5 SWAP4 SWAP3 SWAP2 SWAP1 PUSH2 0x9BF JUMP JUMPDEST PUSH1 0x40 MLOAD DUP1 SWAP2 SUB SWAP1 RETURN JUMPDEST PUSH1 0x60 DUP5 DUP5 DUP5 DUP5 PUSH1 0x40 MLOAD PUSH1 0x20 ADD PUSH2 0x156 SWAP5 SWAP4 SWAP3 SWAP2 SWAP1 PUSH2 0xB2E JUMP JUMPDEST PUSH1 0x40 MLOAD PUSH1 0x20 DUP2 DUP4 SUB SUB DUP2 MSTORE SWAP1 PUSH1 0x40 MSTORE SWAP1 POP SWAP5 SWAP4 POP POP POP POP JUMP JUMPDEST PUSH1 0x60 DUP6 DUP6 DUP6 DUP6 DUP6 PUSH1 0x40 MLOAD PUSH1 0x20 ADD PUSH2 0x18A SWAP6 SWAP5 SWAP4 SWAP3 SWAP2 SWAP1 PUSH2 0xCDF JUMP JUMPDEST PUSH1 0x40 MLOAD PUSH1 0x20 DUP2 DUP4 SUB SUB DUP2 MSTORE SWAP1 PUSH1 0x40 MSTORE SWAP1 POP SWAP6 SWAP5 POP POP POP POP POP JUMP JUMPDEST PUSH0 DUP1 PUSH1 0x60 PUSH2 0x1B0 PUSH2 0x242 JUMP JUMPDEST DUP6 DUP6 DUP2 ADD SWAP1 PUSH2 0x1BF SWAP2 SWAP1 PUSH2 0xF4C JUMP JUMPDEST DUP1 SWAP5 POP DUP2 SWAP6 POP DUP3 SWAP7 POP DUP4 SWAP8 POP POP POP POP POP SWAP3 SWAP6 SWAP2 SWAP5 POP SWAP3 POP JUMP JUMPDEST PUSH1 0x60 PUSH0 PUSH1 0x40 MLOAD DUP1 PUSH1 0x60 ADD PUSH1 0x40 MSTORE DUP1 PUSH1 0x29 DUP2 MSTORE PUSH1 0x20 ADD PUSH2 0x10D4 PUSH1 0x29 SWAP2 CODECOPY SWAP1 POP DUP1 PUSH1 0x40 MLOAD PUSH1 0x20 ADD PUSH2 0x207 SWAP2 SWAP1 PUSH2 0x107C JUMP JUMPDEST PUSH1 0x40 MLOAD PUSH1 0x20 DUP2 DUP4 SUB SUB DUP2 MSTORE SWAP1 PUSH1 0x40 MSTORE SWAP2 POP POP SWAP1 JUMP JUMPDEST PUSH0 DUP1 PUSH1 0x60 PUSH2 0x228 PUSH2 0x242 JUMP JUMPDEST DUP6 DUP6 DUP2 ADD SWAP1 PUSH2 0x237 SWAP2 SWAP1 PUSH2 0x10A8 JUMP JUMPDEST SWAP4 POP SWAP3 SWAP6 SWAP2 SWAP5 POP SWAP3 POP JUMP JUMPDEST PUSH1 0x40 MLOAD DUP1 PUSH1 0x40 ADD PUSH1 0x40 MSTORE DUP1 PUSH1 0x60 DUP2 MSTORE PUSH1 0x20 ADD PUSH2 0x25C PUSH2 0x262 JUMP JUMPDEST DUP2 MSTORE POP SWAP1 JUMP JUMPDEST PUSH1 0x40 MLOAD DUP1 PUSH1 0x40 ADD PUSH1 0x40 MSTORE DUP1 PUSH1 0x2 SWAP1 PUSH1 0x20 DUP3 MUL DUP1 CALLDATASIZE DUP4 CALLDATACOPY DUP1 DUP3 ADD SWAP2 POP POP SWAP1 POP POP SWAP1 JUMP JUMPDEST PUSH0 PUSH1 0x40 MLOAD SWAP1 POP SWAP1 JUMP JUMPDEST PUSH0 DUP1 REVERT JUMPDEST PUSH0 DUP1 REVERT JUMPDEST PUSH0 DUP2 PUSH1 0x1 SIGNEXTEND SWAP1 POP SWAP2 SWAP1 POP JUMP JUMPDEST PUSH2 0x2AA DUP2 PUSH2 0x295 JUMP JUMPDEST DUP2 EQ PUSH2 0x2B4 JUMPI PUSH0 DUP1 REVERT JUMPDEST POP JUMP JUMPDEST PUSH0 DUP2 CALLDATALOAD SWAP1 POP PUSH2 0x2C5 DUP2 PUSH2 0x2A1 JUMP JUMPDEST SWAP3 SWAP2 POP POP JUMP JUMPDEST PUSH0 PUSH32 0xFF00000000000000000000000000000000000000000000000000000000000000 DUP3 AND SWAP1 POP SWAP2 SWAP1 POP JUMP JUMPDEST PUSH2 0x2FF DUP2 PUSH2 0x2CB JUMP JUMPDEST DUP2 EQ PUSH2 0x309 JUMPI PUSH0 DUP1 REVERT JUMPDEST POP JUMP JUMPDEST PUSH0 DUP2 CALLDATALOAD SWAP1 POP PUSH2 0x31A DUP2 PUSH2 0x2F6 JUMP JUMPDEST SWAP3 SWAP2 POP POP JUMP JUMPDEST PUSH0 PUSH2 0xFFFF DUP3 AND SWAP1 POP SWAP2 SWAP1 POP JUMP JUMPDEST PUSH2 0x336 DUP2 PUSH2 0x320 JUMP JUMPDEST DUP2 EQ PUSH2 0x340 JUMPI PUSH0 DUP1 REVERT JUMPDEST POP JUMP JUMPDEST PUSH0 DUP2 CALLDATALOAD SWAP1 POP PUSH2 0x351 DUP2 PUSH2 0x32D JUMP JUMPDEST SWAP3 SWAP2 POP POP JUMP JUMPDEST PUSH0 DUP1 REVERT JUMPDEST PUSH0 DUP1 REVERT JUMPDEST PUSH0 PUSH1 0x1F NOT PUSH1 0x1F DUP4 ADD AND SWAP1 POP SWAP2 SWAP1 POP JUMP JUMPDEST PUSH32 0x4E487B7100000000000000000000000000000000000000000000000000000000 PUSH0 MSTORE PUSH1 0x41 PUSH1 0x4 MSTORE PUSH1 0x24 PUSH0 REVERT JUMPDEST PUSH2 0x3A5 DUP3 PUSH2 0x35F JUMP JUMPDEST DUP2 ADD DUP2 DUP2 LT PUSH8 0xFFFFFFFFFFFFFFFF DUP3 GT OR ISZERO PUSH2 0x3C4 JUMPI PUSH2 0x3C3 PUSH2 0x36F JUMP JUMPDEST JUMPDEST DUP1 PUSH1 0x40 MSTORE POP POP POP JUMP JUMPDEST PUSH0 PUSH2 0x3D6 PUSH2 0x284 JUMP JUMPDEST SWAP1 POP PUSH2 0x3E2 DUP3 DUP3 PUSH2 0x39C JUMP JUMPDEST SWAP2 SWAP1 POP JUMP JUMPDEST PUSH0 PUSH8 0xFFFFFFFFFFFFFFFF DUP3 GT ISZERO PUSH2 0x401 JUMPI PUSH2 0x400 PUSH2 0x36F JUMP JUMPDEST JUMPDEST PUSH2 0x40A DUP3 PUSH2 0x35F JUMP JUMPDEST SWAP1 POP PUSH1 0x20 DUP2 ADD SWAP1 POP SWAP2 SWAP1 POP JUMP JUMPDEST DUP3 DUP2 DUP4 CALLDATACOPY PUSH0 DUP4 DUP4 ADD MSTORE POP POP POP JUMP JUMPDEST PUSH0 PUSH2 0x437 PUSH2 0x432 DUP5 PUSH2 0x3E7 JUMP JUMPDEST PUSH2 0x3CD JUMP JUMPDEST SWAP1 POP DUP3 DUP2 MSTORE PUSH1 0x20 DUP2 ADD DUP5 DUP5 DUP5 ADD GT ISZERO PUSH2 0x453 JUMPI PUSH2 0x452 PUSH2 0x35B JUMP JUMPDEST JUMPDEST PUSH2 0x45E DUP5 DUP3 DUP6 PUSH2 0x417 JUMP JUMPDEST POP SWAP4 SWAP3 POP POP POP JUMP JUMPDEST PUSH0 DUP3 PUSH1 0x1F DUP4 ADD SLT PUSH2 0x47A JUMPI PUSH2 0x479 PUSH2 0x357 JUMP JUMPDEST JUMPDEST DUP2 CALLDATALOAD PUSH2 0x48A DUP5 DUP3 PUSH1 0x20 DUP7 ADD PUSH2 0x425 JUMP JUMPDEST SWAP2 POP POP SWAP3 SWAP2 POP POP JUMP JUMPDEST PUSH0 DUP1 PUSH0 DUP1 PUSH1 0x80 DUP6 DUP8 SUB SLT ISZERO PUSH2 0x4AB JUMPI PUSH2 0x4AA PUSH2 0x28D JUMP JUMPDEST JUMPDEST PUSH0 PUSH2 0x4B8 DUP8 DUP3 DUP9 ADD PUSH2 0x2B7 JUMP JUMPDEST SWAP5 POP POP PUSH1 0x20 PUSH2 0x4C9 DUP8 DUP3 DUP9 ADD PUSH2 0x30C JUMP JUMPDEST SWAP4 POP POP PUSH1 0x40 PUSH2 0x4DA DUP8 DUP3 DUP9 ADD PUSH2 0x343 JUMP JUMPDEST SWAP3 POP POP PUSH1 0x60 DUP6 ADD CALLDATALOAD PUSH8 0xFFFFFFFFFFFFFFFF DUP2 GT ISZERO PUSH2 0x4FB JUMPI PUSH2 0x4FA PUSH2 0x291 JUMP JUMPDEST JUMPDEST PUSH2 0x507 DUP8 DUP3 DUP9 ADD PUSH2 0x466 JUMP JUMPDEST SWAP2 POP POP SWAP3 SWAP6 SWAP2 SWAP5 POP SWAP3 POP JUMP JUMPDEST PUSH0 DUP2 MLOAD SWAP1 POP SWAP2 SWAP1 POP JUMP JUMPDEST PUSH0 DUP3 DUP3 MSTORE PUSH1 0x20 DUP3 ADD SWAP1 POP SWAP3 SWAP2 POP POP JUMP JUMPDEST DUP3 DUP2 DUP4 MCOPY PUSH0 DUP4 DUP4 ADD MSTORE POP POP POP JUMP JUMPDEST PUSH0 PUSH2 0x545 DUP3 PUSH2 0x513 JUMP JUMPDEST PUSH2 0x54F DUP2 DUP6 PUSH2 0x51D JUMP JUMPDEST SWAP4 POP PUSH2 0x55F DUP2 DUP6 PUSH1 0x20 DUP7 ADD PUSH2 0x52D JUMP JUMPDEST PUSH2 0x568 DUP2 PUSH2 0x35F JUMP JUMPDEST DUP5 ADD SWAP2 POP POP SWAP3 SWAP2 POP POP JUMP JUMPDEST PUSH0 PUSH1 0x20 DUP3 ADD SWAP1 POP DUP2 DUP2 SUB PUSH0 DUP4 ADD MSTORE PUSH2 0x58B DUP2 DUP5 PUSH2 0x53B JUMP JUMPDEST SWAP1 POP SWAP3 SWAP2 POP POP JUMP JUMPDEST PUSH0 DUP2 SWAP1 POP SWAP2 SWAP1 POP JUMP JUMPDEST PUSH2 0x5A5 DUP2 PUSH2 0x593 JUMP JUMPDEST DUP2 EQ PUSH2 0x5AF JUMPI PUSH0 DUP1 REVERT JUMPDEST POP JUMP JUMPDEST PUSH0 DUP2 CALLDATALOAD SWAP1 POP PUSH2 0x5C0 DUP2 PUSH2 0x59C JUMP JUMPDEST SWAP3 SWAP2 POP POP JUMP JUMPDEST PUSH0 PUSH20 0xFFFFFFFFFFFFFFFFFFFFFFFFFFFFFFFFFFFFFFFF DUP3 AND SWAP1 POP SWAP2 SWAP1 POP JUMP JUMPDEST PUSH0 PUSH2 0x5EF DUP3 PUSH2 0x5C6 JUMP JUMPDEST SWAP1 POP SWAP2 SWAP1 POP JUMP JUMPDEST PUSH2 0x5FF DUP2 PUSH2 0x5E5 JUMP JUMPDEST DUP2 EQ PUSH2 0x609 JUMPI PUSH0 DUP1 REVERT JUMPDEST POP JUMP JUMPDEST PUSH0 DUP2 CALLDATALOAD SWAP1 POP PUSH2 0x61A DUP2 PUSH2 0x5F6 JUMP JUMPDEST SWAP3 SWAP2 POP POP JUMP JUMPDEST PUSH0 DUP1 REVERT JUMPDEST PUSH0 DUP1 REVERT JUMPDEST PUSH0 DUP1 DUP4 PUSH1 0x1F DUP5 ADD SLT PUSH2 0x63D JUMPI PUSH2 0x63C PUSH2 0x357 JUMP JUMPDEST JUMPDEST DUP3 CALLDATALOAD SWAP1 POP PUSH8 0xFFFFFFFFFFFFFFFF DUP2 GT ISZERO PUSH2 0x65A JUMPI PUSH2 0x659 PUSH2 0x620 JUMP JUMPDEST JUMPDEST PUSH1 0x20 DUP4 ADD SWAP2 POP DUP4 PUSH1 0x20 DUP3 MUL DUP4 ADD GT ISZERO PUSH2 0x676 JUMPI PUSH2 0x675 PUSH2 0x624 JUMP JUMPDEST JUMPDEST SWAP3 POP SWAP3 SWAP1 POP JUMP JUMPDEST PUSH0 DUP1 REVERT JUMPDEST PUSH0 PUSH1 0x60 DUP3 DUP5 SUB SLT ISZERO PUSH2 0x696 JUMPI PUSH2 0x695 PUSH2 0x67D JUMP JUMPDEST JUMPDEST DUP2 SWAP1 POP SWAP3 SWAP2 POP POP JUMP JUMPDEST PUSH0 DUP1 PUSH0 DUP1 PUSH0 PUSH1 0x80 DUP7 DUP9 SUB SLT ISZERO PUSH2 0x6B8 JUMPI PUSH2 0x6B7 PUSH2 0x28D JUMP JUMPDEST JUMPDEST PUSH0 PUSH2 0x6C5 DUP9 DUP3 DUP10 ADD PUSH2 0x5B2 JUMP JUMPDEST SWAP6 POP POP PUSH1 0x20 PUSH2 0x6D6 DUP9 DUP3 DUP10 ADD PUSH2 0x60C JUMP JUMPDEST SWAP5 POP POP PUSH1 0x40 DUP7 ADD CALLDATALOAD PUSH8 0xFFFFFFFFFFFFFFFF DUP2 GT ISZERO PUSH2 0x6F7 JUMPI PUSH2 0x6F6 PUSH2 0x291 JUMP JUMPDEST JUMPDEST PUSH2 0x703 DUP9 DUP3 DUP10 ADD PUSH2 0x628 JUMP JUMPDEST SWAP4 POP SWAP4 POP POP PUSH1 0x60 DUP7 ADD CALLDATALOAD PUSH8 0xFFFFFFFFFFFFFFFF DUP2 GT ISZERO PUSH2 0x726 JUMPI PUSH2 0x725 PUSH2 0x291 JUMP JUMPDEST JUMPDEST PUSH2 0x732 DUP9 DUP3 DUP10 ADD PUSH2 0x681 JUMP JUMPDEST SWAP2 POP POP SWAP3 SWAP6 POP SWAP3 SWAP6 SWAP1 SWAP4 POP JUMP JUMPDEST PUSH0 DUP1 DUP4 PUSH1 0x1F DUP5 ADD SLT PUSH2 0x754 JUMPI PUSH2 0x753 PUSH2 0x357 JUMP JUMPDEST JUMPDEST DUP3 CALLDATALOAD SWAP1 POP PUSH8 0xFFFFFFFFFFFFFFFF DUP2 GT ISZERO PUSH2 0x771 JUMPI PUSH2 0x770 PUSH2 0x620 JUMP JUMPDEST JUMPDEST PUSH1 0x20 DUP4 ADD SWAP2 POP DUP4 PUSH1 0x1 DUP3 MUL DUP4 ADD GT ISZERO PUSH2 0x78D JUMPI PUSH2 0x78C PUSH2 0x624 JUMP JUMPDEST JUMPDEST SWAP3 POP SWAP3 SWAP1 POP JUMP JUMPDEST PUSH0 DUP1 PUSH1 0x20 DUP4 DUP6 SUB SLT ISZERO PUSH2 0x7AA JUMPI PUSH2 0x7A9 PUSH2 0x28D JUMP JUMPDEST JUMPDEST PUSH0 DUP4 ADD CALLDATALOAD PUSH8 0xFFFFFFFFFFFFFFFF DUP2 GT ISZERO PUSH2 0x7C7 JUMPI PUSH2 0x7C6 PUSH2 0x291 JUMP JUMPDEST JUMPDEST PUSH2 0x7D3 DUP6 DUP3 DUP7 ADD PUSH2 0x73F JUMP JUMPDEST SWAP3 POP SWAP3 POP POP SWAP3 POP SWAP3 SWAP1 POP JUMP JUMPDEST PUSH2 0x7E8 DUP2 PUSH2 0x593 JUMP JUMPDEST DUP3 MSTORE POP POP JUMP JUMPDEST PUSH2 0x7F7 DUP2 PUSH2 0x5E5 JUMP JUMPDEST DUP3 MSTORE POP POP JUMP JUMPDEST PUSH0 DUP2 MLOAD SWAP1 POP SWAP2 SWAP1 POP JUMP JUMPDEST PUSH0 DUP3 DUP3 MSTORE PUSH1 0x20 DUP3 ADD SWAP1 POP SWAP3 SWAP2 POP POP JUMP JUMPDEST PUSH0 DUP2 SWAP1 POP PUSH1 0x20 DUP3 ADD SWAP1 POP SWAP2 SWAP1 POP JUMP JUMPDEST PUSH2 0x82F DUP2 PUSH2 0x593 JUMP JUMPDEST DUP3 MSTORE POP POP JUMP JUMPDEST PUSH0 PUSH2 0x840 DUP4 DUP4 PUSH2 0x826 JUMP JUMPDEST PUSH1 0x20 DUP4 ADD SWAP1 POP SWAP3 SWAP2 POP POP JUMP JUMPDEST PUSH0 PUSH1 0x20 DUP3 ADD SWAP1 POP SWAP2 SWAP1 POP JUMP JUMPDEST PUSH0 PUSH2 0x862 DUP3 PUSH2 0x7FD JUMP JUMPDEST PUSH2 0x86C DUP2 DUP6 PUSH2 0x807 JUMP JUMPDEST SWAP4 POP PUSH2 0x877 DUP4 PUSH2 0x817 JUMP JUMPDEST DUP1 PUSH0 JUMPDEST DUP4 DUP2 LT ISZERO PUSH2 0x8A7 JUMPI DUP2 MLOAD PUSH2 0x88E DUP9 DUP3 PUSH2 0x835 JUMP JUMPDEST SWAP8 POP PUSH2 0x899 DUP4 PUSH2 0x84C JUMP JUMPDEST SWAP3 POP POP PUSH1 0x1 DUP2 ADD SWAP1 POP PUSH2 0x87A JUMP JUMPDEST POP DUP6 SWAP4 POP POP POP POP SWAP3 SWAP2 POP POP JUMP JUMPDEST PUSH0 DUP2 MLOAD SWAP1 POP SWAP2 SWAP1 POP JUMP JUMPDEST PUSH0 DUP3 DUP3 MSTORE PUSH1 0x20 DUP3 ADD SWAP1 POP SWAP3 SWAP2 POP POP JUMP JUMPDEST PUSH0 PUSH2 0x8D8 DUP3 PUSH2 0x8B4 JUMP JUMPDEST PUSH2 0x8E2 DUP2 DUP6 PUSH2 0x8BE JUMP JUMPDEST SWAP4 POP PUSH2 0x8F2 DUP2 DUP6 PUSH1 0x20 DUP7 ADD PUSH2 0x52D JUMP JUMPDEST PUSH2 0x8FB DUP2 PUSH2 0x35F JUMP JUMPDEST DUP5 ADD SWAP2 POP POP SWAP3 SWAP2 POP POP JUMP JUMPDEST PUSH0 PUSH1 0x2 SWAP1 POP SWAP2 SWAP1 POP JUMP JUMPDEST PUSH0 DUP2 SWAP1 POP SWAP3 SWAP2 POP POP JUMP JUMPDEST PUSH0 DUP2 SWAP1 POP SWAP2 SWAP1 POP JUMP JUMPDEST PUSH0 PUSH1 0x20 DUP3 ADD SWAP1 POP SWAP2 SWAP1 POP JUMP JUMPDEST PUSH2 0x938 DUP2 PUSH2 0x906 JUMP JUMPDEST PUSH2 0x942 DUP2 DUP5 PUSH2 0x910 JUMP JUMPDEST SWAP3 POP PUSH2 0x94D DUP3 PUSH2 0x91A JUMP JUMPDEST DUP1 PUSH0 JUMPDEST DUP4 DUP2 LT ISZERO PUSH2 0x97D JUMPI DUP2 MLOAD PUSH2 0x964 DUP8 DUP3 PUSH2 0x835 JUMP JUMPDEST SWAP7 POP PUSH2 0x96F DUP4 PUSH2 0x923 JUMP JUMPDEST SWAP3 POP POP PUSH1 0x1 DUP2 ADD SWAP1 POP PUSH2 0x950 JUMP JUMPDEST POP POP POP POP POP POP JUMP JUMPDEST PUSH0 PUSH1 0x60 DUP4 ADD PUSH0 DUP4 ADD MLOAD DUP5 DUP3 SUB PUSH0 DUP7 ADD MSTORE PUSH2 0x99F DUP3 DUP3 PUSH2 0x8CE JUMP JUMPDEST SWAP2 POP POP PUSH1 0x20 DUP4 ADD MLOAD PUSH2 0x9B4 PUSH1 0x20 DUP7 ADD DUP3 PUSH2 0x92F JUMP JUMPDEST POP DUP1 SWAP2 POP POP SWAP3 SWAP2 POP POP JUMP JUMPDEST PUSH0 PUSH1 0x80 DUP3 ADD SWAP1 POP PUSH2 0x9D2 PUSH0 DUP4 ADD DUP8 PUSH2 0x7DF JUMP JUMPDEST PUSH2 0x9DF PUSH1 0x20 DUP4 ADD DUP7 PUSH2 0x7EE JUMP JUMPDEST DUP2 DUP2 SUB PUSH1 0x40 DUP4 ADD MSTORE PUSH2 0x9F1 DUP2 DUP6 PUSH2 0x858 JUMP JUMPDEST SWAP1 POP DUP2 DUP2 SUB PUSH1 0x60 DUP4 ADD MSTORE PUSH2 0xA05 DUP2 DUP5 PUSH2 0x985 JUMP JUMPDEST SWAP1 POP SWAP6 SWAP5 POP POP POP POP POP JUMP JUMPDEST PUSH0 DUP3 DUP3 MSTORE PUSH1 0x20 DUP3 ADD SWAP1 POP SWAP3 SWAP2 POP POP JUMP JUMPDEST PUSH0 PUSH2 0xA2A DUP3 PUSH2 0x8B4 JUMP JUMPDEST PUSH2 0xA34 DUP2 DUP6 PUSH2 0xA10 JUMP JUMPDEST SWAP4 POP PUSH2 0xA44 DUP2 DUP6 PUSH1 0x20 DUP7 ADD PUSH2 0x52D JUMP JUMPDEST PUSH2 0xA4D DUP2 PUSH2 0x35F JUMP JUMPDEST DUP5 ADD SWAP2 POP POP SWAP3 SWAP2 POP POP JUMP JUMPDEST PUSH0 PUSH1 0x20 DUP3 ADD SWAP1 POP DUP2 DUP2 SUB PUSH0 DUP4 ADD MSTORE PUSH2 0xA70 DUP2 DUP5 PUSH2 0xA20 JUMP JUMPDEST SWAP1 POP SWAP3 SWAP2 POP POP JUMP JUMPDEST PUSH0 DUP2 PUSH1 0xF0 SHL SWAP1 POP SWAP2 SWAP1 POP JUMP JUMPDEST PUSH0 PUSH2 0xA8E DUP3 PUSH2 0xA78 JUMP JUMPDEST SWAP1 POP SWAP2 SWAP1 POP JUMP JUMPDEST PUSH2 0xAA6 PUSH2 0xAA1 DUP3 PUSH2 0x295 JUMP JUMPDEST PUSH2 0xA84 JUMP JUMPDEST DUP3 MSTORE POP POP JUMP JUMPDEST PUSH0 DUP2 SWAP1 POP SWAP2 SWAP1 POP JUMP JUMPDEST PUSH2 0xAC6 PUSH2 0xAC1 DUP3 PUSH2 0x2CB JUMP JUMPDEST PUSH2 0xAAC JUMP JUMPDEST DUP3 MSTORE POP POP JUMP JUMPDEST PUSH0 PUSH2 0xAD6 DUP3 PUSH2 0xA78 JUMP JUMPDEST SWAP1 POP SWAP2 SWAP1 POP JUMP JUMPDEST PUSH2 0xAEE PUSH2 0xAE9 DUP3 PUSH2 0x320 JUMP JUMPDEST PUSH2 0xACC JUMP JUMPDEST DUP3 MSTORE POP POP JUMP JUMPDEST PUSH0 DUP2 SWAP1 POP SWAP3 SWAP2 POP POP JUMP JUMPDEST PUSH0 PUSH2 0xB08 DUP3 PUSH2 0x8B4 JUMP JUMPDEST PUSH2 0xB12 DUP2 DUP6 PUSH2 0xAF4 JUMP JUMPDEST SWAP4 POP PUSH2 0xB22 DUP2 DUP6 PUSH1 0x20 DUP7 ADD PUSH2 0x52D JUMP JUMPDEST DUP1 DUP5 ADD SWAP2 POP POP SWAP3 SWAP2 POP POP JUMP JUMPDEST PUSH0 PUSH2 0xB39 DUP3 DUP8 PUSH2 0xA95 JUMP JUMPDEST PUSH1 0x2 DUP3 ADD SWAP2 POP PUSH2 0xB49 DUP3 DUP7 PUSH2 0xAB5 JUMP JUMPDEST PUSH1 0x1 DUP3 ADD SWAP2 POP PUSH2 0xB59 DUP3 DUP6 PUSH2 0xADD JUMP JUMPDEST PUSH1 0x2 DUP3 ADD SWAP2 POP PUSH2 0xB69 DUP3 DUP5 PUSH2 0xAFE JUMP JUMPDEST SWAP2 POP DUP2 SWAP1 POP SWAP6 SWAP5 POP POP POP POP POP JUMP JUMPDEST PUSH0 DUP1 REVERT JUMPDEST DUP3 DUP2 DUP4 CALLDATACOPY POP POP POP JUMP JUMPDEST PUSH0 PUSH2 0xB8F DUP4 DUP6 PUSH2 0x807 JUMP JUMPDEST SWAP4 POP PUSH32 0x7FFFFFFFFFFFFFFFFFFFFFFFFFFFFFFFFFFFFFFFFFFFFFFFFFFFFFFFFFFFFFF DUP4 GT ISZERO PUSH2 0xBC2 JUMPI PUSH2 0xBC1 PUSH2 0xB77 JUMP JUMPDEST JUMPDEST PUSH1 0x20 DUP4 MUL SWAP3 POP PUSH2 0xBD3 DUP4 DUP6 DUP5 PUSH2 0xB7B JUMP JUMPDEST DUP3 DUP5 ADD SWAP1 POP SWAP4 SWAP3 POP POP POP JUMP JUMPDEST PUSH0 DUP1 REVERT JUMPDEST PUSH0 DUP1 REVERT JUMPDEST PUSH0 DUP1 REVERT JUMPDEST PUSH0 DUP1 DUP4 CALLDATALOAD PUSH1 0x1 PUSH1 0x20 SUB DUP5 CALLDATASIZE SUB SUB DUP2 SLT PUSH2 0xC07 JUMPI PUSH2 0xC06 PUSH2 0xBE7 JUMP JUMPDEST JUMPDEST DUP4 DUP2 ADD SWAP3 POP DUP3 CALLDATALOAD SWAP2 POP PUSH1 0x20 DUP4 ADD SWAP3 POP PUSH8 0xFFFFFFFFFFFFFFFF DUP3 GT ISZERO PUSH2 0xC2F JUMPI PUSH2 0xC2E PUSH2 0xBDF JUMP JUMPDEST JUMPDEST PUSH1 0x1 DUP3 MUL CALLDATASIZE SUB DUP4 SGT ISZERO PUSH2 0xC45 JUMPI PUSH2 0xC44 PUSH2 0xBE3 JUMP JUMPDEST JUMPDEST POP SWAP3 POP SWAP3 SWAP1 POP JUMP JUMPDEST PUSH0 PUSH2 0xC58 DUP4 DUP6 PUSH2 0x8BE JUMP JUMPDEST SWAP4 POP PUSH2 0xC65 DUP4 DUP6 DUP5 PUSH2 0x417 JUMP JUMPDEST PUSH2 0xC6E DUP4 PUSH2 0x35F JUMP JUMPDEST DUP5 ADD SWAP1 POP SWAP4 SWAP3 POP POP POP JUMP JUMPDEST PUSH0 DUP3 SWAP1 POP SWAP3 SWAP2 POP POP JUMP JUMPDEST PUSH2 0xC8F PUSH1 0x40 DUP4 DUP4 PUSH2 0xB7B JUMP JUMPDEST POP POP JUMP JUMPDEST PUSH0 PUSH1 0x60 DUP4 ADD PUSH2 0xCA4 PUSH0 DUP5 ADD DUP5 PUSH2 0xBEB JUMP JUMPDEST DUP6 DUP4 SUB PUSH0 DUP8 ADD MSTORE PUSH2 0xCB6 DUP4 DUP3 DUP5 PUSH2 0xC4D JUMP JUMPDEST SWAP3 POP POP POP PUSH2 0xCC7 PUSH1 0x20 DUP5 ADD DUP5 PUSH2 0xC79 JUMP JUMPDEST PUSH2 0xCD4 PUSH1 0x20 DUP7 ADD DUP3 PUSH2 0xC83 JUMP JUMPDEST POP DUP1 SWAP2 POP POP SWAP3 SWAP2 POP POP JUMP JUMPDEST PUSH0 PUSH1 0x80 DUP3 ADD SWAP1 POP PUSH2 0xCF2 PUSH0 DUP4 ADD DUP9 PUSH2 0x7DF JUMP JUMPDEST PUSH2 0xCFF PUSH1 0x20 DUP4 ADD DUP8 PUSH2 0x7EE JUMP JUMPDEST DUP2 DUP2 SUB PUSH1 0x40 DUP4 ADD MSTORE PUSH2 0xD12 DUP2 DUP6 DUP8 PUSH2 0xB84 JUMP JUMPDEST SWAP1 POP DUP2 DUP2 SUB PUSH1 0x60 DUP4 ADD MSTORE PUSH2 0xD26 DUP2 DUP5 PUSH2 0xC93 JUMP JUMPDEST SWAP1 POP SWAP7 SWAP6 POP POP POP POP POP POP JUMP JUMPDEST PUSH0 PUSH2 0xD3C DUP3 PUSH2 0x5C6 JUMP JUMPDEST SWAP1 POP SWAP2 SWAP1 POP JUMP JUMPDEST PUSH2 0xD4C DUP2 PUSH2 0xD32 JUMP JUMPDEST DUP2 EQ PUSH2 0xD56 JUMPI PUSH0 DUP1 REVERT JUMPDEST POP JUMP JUMPDEST PUSH0 DUP2 CALLDATALOAD SWAP1 POP PUSH2 0xD67 DUP2 PUSH2 0xD43 JUMP JUMPDEST SWAP3 SWAP2 POP POP JUMP JUMPDEST PUSH0 PUSH8 0xFFFFFFFFFFFFFFFF DUP3 GT ISZERO PUSH2 0xD87 JUMPI PUSH2 0xD86 PUSH2 0x36F JUMP JUMPDEST JUMPDEST PUSH1 0x20 DUP3 MUL SWAP1 POP PUSH1 0x20 DUP2 ADD SWAP1 POP SWAP2 SWAP1 POP JUMP JUMPDEST PUSH0 PUSH2 0xDAA PUSH2 0xDA5 DUP5 PUSH2 0xD6D JUMP JUMPDEST PUSH2 0x3CD JUMP JUMPDEST SWAP1 POP DUP1 DUP4 DUP3 MSTORE PUSH1 0x20 DUP3 ADD SWAP1 POP PUSH1 0x20 DUP5 MUL DUP4 ADD DUP6 DUP2 GT ISZERO PUSH2 0xDCD JUMPI PUSH2 0xDCC PUSH2 0x624 JUMP JUMPDEST JUMPDEST DUP4 JUMPDEST DUP2 DUP2 LT ISZERO PUSH2 0xDF6 JUMPI DUP1 PUSH2 0xDE2 DUP9 DUP3 PUSH2 0x5B2 JUMP JUMPDEST DUP5 MSTORE PUSH1 0x20 DUP5 ADD SWAP4 POP POP PUSH1 0x20 DUP2 ADD SWAP1 POP PUSH2 0xDCF JUMP JUMPDEST POP POP POP SWAP4 SWAP3 POP POP POP JUMP JUMPDEST PUSH0 DUP3 PUSH1 0x1F DUP4 ADD SLT PUSH2 0xE14 JUMPI PUSH2 0xE13 PUSH2 0x357 JUMP JUMPDEST JUMPDEST DUP2 CALLDATALOAD PUSH2 0xE24 DUP5 DUP3 PUSH1 0x20 DUP7 ADD PUSH2 0xD98 JUMP JUMPDEST SWAP2 POP POP SWAP3 SWAP2 POP POP JUMP JUMPDEST PUSH0 DUP1 REVERT JUMPDEST PUSH0 DUP1 REVERT JUMPDEST PUSH0 PUSH8 0xFFFFFFFFFFFFFFFF DUP3 GT ISZERO PUSH2 0xE4F JUMPI PUSH2 0xE4E PUSH2 0x36F JUMP JUMPDEST JUMPDEST PUSH1 0x20 DUP3 MUL SWAP1 POP SWAP2 SWAP1 POP JUMP JUMPDEST PUSH0 PUSH2 0xE6C PUSH2 0xE67 DUP5 PUSH2 0xE35 JUMP JUMPDEST PUSH2 0x3CD JUMP JUMPDEST SWAP1 POP DUP1 PUSH1 0x20 DUP5 MUL DUP4 ADD DUP6 DUP2 GT ISZERO PUSH2 0xE86 JUMPI PUSH2 0xE85 PUSH2 0x624 JUMP JUMPDEST JUMPDEST DUP4 JUMPDEST DUP2 DUP2 LT ISZERO PUSH2 0xEAF JUMPI DUP1 PUSH2 0xE9B DUP9 DUP3 PUSH2 0x5B2 JUMP JUMPDEST DUP5 MSTORE PUSH1 0x20 DUP5 ADD SWAP4 POP POP PUSH1 0x20 DUP2 ADD SWAP1 POP PUSH2 0xE88 JUMP JUMPDEST POP POP POP SWAP4 SWAP3 POP POP POP JUMP JUMPDEST PUSH0 DUP3 PUSH1 0x1F DUP4 ADD SLT PUSH2 0xECD JUMPI PUSH2 0xECC PUSH2 0x357 JUMP JUMPDEST JUMPDEST PUSH1 0x2 PUSH2 0xEDA DUP5 DUP3 DUP6 PUSH2 0xE5A JUMP JUMPDEST SWAP2 POP POP SWAP3 SWAP2 POP POP JUMP JUMPDEST PUSH0 PUSH1 0x60 DUP3 DUP5 SUB SLT ISZERO PUSH2 0xEF8 JUMPI PUSH2 0xEF7 PUSH2 0xE2D JUMP JUMPDEST JUMPDEST PUSH2 0xF02 PUSH1 0x40 PUSH2 0x3CD JUMP JUMPDEST SWAP1 POP PUSH0 DUP3 ADD CALLDATALOAD PUSH8 0xFFFFFFFFFFFFFFFF DUP2 GT ISZERO PUSH2 0xF21 JUMPI PUSH2 0xF20 PUSH2 0xE31 JUMP JUMPDEST JUMPDEST PUSH2 0xF2D DUP5 DUP3 DUP6 ADD PUSH2 0x466 JUMP JUMPDEST PUSH0 DUP4 ADD MSTORE POP PUSH1 0x20 PUSH2 0xF40 DUP5 DUP3 DUP6 ADD PUSH2 0xEB9 JUMP JUMPDEST PUSH1 0x20 DUP4 ADD MSTORE POP SWAP3 SWAP2 POP POP JUMP JUMPDEST PUSH0 DUP1 PUSH0 DUP1 PUSH1 0x80 DUP6 DUP8 SUB SLT ISZERO PUSH2 0xF64 JUMPI PUSH2 0xF63 PUSH2 0x28D JUMP JUMPDEST JUMPDEST PUSH0 PUSH2 0xF71 DUP8 DUP3 DUP9 ADD PUSH2 0x5B2 JUMP JUMPDEST SWAP5 POP POP PUSH1 0x20 PUSH2 0xF82 DUP8 DUP3 DUP9 ADD PUSH2 0xD59 JUMP JUMPDEST SWAP4 POP POP PUSH1 0x40 DUP6 ADD CALLDATALOAD PUSH8 0xFFFFFFFFFFFFFFFF DUP2 GT ISZERO PUSH2 0xFA3 JUMPI PUSH2 0xFA2 PUSH2 0x291 JUMP JUMPDEST JUMPDEST PUSH2 0xFAF DUP8 DUP3 DUP9 ADD PUSH2 0xE00 JUMP JUMPDEST SWAP3 POP POP PUSH1 0x60 DUP6 ADD CALLDATALOAD PUSH8 0xFFFFFFFFFFFFFFFF DUP2 GT ISZERO PUSH2 0xFD0 JUMPI PUSH2 0xFCF PUSH2 0x291 JUMP JUMPDEST JUMPDEST PUSH2 0xFDC DUP8 DUP3 DUP9 ADD PUSH2 0xEE3 JUMP JUMPDEST SWAP2 POP POP SWAP3 SWAP6 SWAP2 SWAP5 POP SWAP3 POP JUMP JUMPDEST PUSH32 0x3130300000000000000000000000000000000000000000000000000000000000 PUSH0 DUP3 ADD MSTORE POP JUMP JUMPDEST PUSH0 PUSH2 0x101C PUSH1 0x3 DUP4 PUSH2 0xAF4 JUMP JUMPDEST SWAP2 POP PUSH2 0x1027 DUP3 PUSH2 0xFE8 JUMP JUMPDEST PUSH1 0x3 DUP3 ADD SWAP1 POP SWAP2 SWAP1 POP JUMP JUMPDEST PUSH32 0x2E6A736F6E000000000000000000000000000000000000000000000000000000 PUSH0 DUP3 ADD MSTORE POP JUMP JUMPDEST PUSH0 PUSH2 0x1066 PUSH1 0x5 DUP4 PUSH2 0xAF4 JUMP JUMPDEST SWAP2 POP PUSH2 0x1071 DUP3 PUSH2 0x1032 JUMP JUMPDEST PUSH1 0x5 DUP3 ADD SWAP1 POP SWAP2 SWAP1 POP JUMP JUMPDEST PUSH0 PUSH2 0x1087 DUP3 DUP5 PUSH2 0xAFE JUMP JUMPDEST SWAP2 POP PUSH2 0x1092 DUP3 PUSH2 0x1010 JUMP JUMPDEST SWAP2 POP PUSH2 0x109D DUP3 PUSH2 0x105A JUMP JUMPDEST SWAP2 POP DUP2 SWAP1 POP SWAP3 SWAP2 POP POP JUMP JUMPDEST PUSH0 PUSH1 0x20 DUP3 DUP5 SUB SLT ISZERO PUSH2 0x10BD JUMPI PUSH2 0x10BC PUSH2 0x28D JUMP JUMPDEST JUMPDEST PUSH0 PUSH2 0x10CA DUP5 DUP3 DUP6 ADD PUSH2 0x5B2 JUMP JUMPDEST SWAP2 POP POP SWAP3 SWAP2 POP POP JUMP INVALID PUSH10 0x7066733A2F2F62616679 PUSH3 0x656964 PUSH14 0x72737665686C34656869706D3571 PUSH18 0x7667656769333372362FA264697066735822 SLT KECCAK256 0xD1 PUSH25 0xBD130754BF51DDDE155C0569118A555D544A5AC29B0704DE89 PUSH20 0xC3FF9F4D64736F6C634300081A00330000000000 "
				},
				"gasEstimates": {
					"creation": {
						"codeDepositCost": "880400",
						"executionCost": "914",
						"totalCost": "881314"
					},
					"external": {
						"decode(bytes)": "infinite",
						"decodeLess(bytes)": "infinite",
						"encode(uint256,address,uint256[],(string,uint256[2]))": "infinite",
						"encodePacked(int16,bytes1,uint16,string)": "infinite",
						"encodePackedTest()": "infinite"
					}
				},
				"methodIdentifiers": {
					"decode(bytes)": "e5c5e9a3",
					"decodeLess(bytes)": "fb39553c",
					"encode(uint256,address,uint256[],(string,uint256[2]))": "7049e087",
					"encodePacked(int16,bytes1,uint16,string)": "1278f07c",
					"encodePackedTest()": "ebf9292f"
				}
			},
			"storageLayout": {
				"storage": [],
				"types": null
			},
			"userdoc": {
				"kind": "user",
				"methods": {},
				"version": 1
			}
		}
	}
}