{
	"practise/dukedaily/day01/11bytes_string.sol": {
		"Bytes": {
			"abi": [
				{
					"inputs": [],
					"name": "getLen",
					"outputs": [
						{
							"internalType": "uint256",
							"name": "",
							"type": "uint256"
						}
					],
					"stateMutability": "view",
					"type": "function"
				},
				{
					"inputs": [],
					"name": "name",
					"outputs": [
						{
							"internalType": "bytes",
							"name": "",
							"type": "bytes"
						}
					],
					"stateMutability": "view",
					"type": "function"
				},
				{
					"inputs": [],
					"name": "pushData",
					"outputs": [],
					"stateMutability": "nonpayable",
					"type": "function"
				},
				{
					"inputs": [
						{
							"internalType": "bytes",
							"name": "input",
							"type": "bytes"
						}
					],
					"name": "setValue",
					"outputs": [],
					"stateMutability": "nonpayable",
					"type": "function"
				}
			],
			"devdoc": {
				"kind": "dev",
				"methods": {},
				"version": 1
			},
			"evm": {
				"assembly": "    /* \"practise/dukedaily/day01/11bytes_string.sol\":205:647  contract Bytes {... */\n  mstore(0x40, 0x80)\n  callvalue\n  dup1\n  iszero\n  tag_1\n  jumpi\n  0x00\n  dup1\n  revert\ntag_1:\n  pop\n  dataSize(sub_0)\n  dup1\n  dataOffset(sub_0)\n  0x00\n  codecopy\n  0x00\n  return\nstop\n\nsub_0: assembly {\n        /* \"practise/dukedaily/day01/11bytes_string.sol\":205:647  contract Bytes {... */\n      mstore(0x40, 0x80)\n      callvalue\n      dup1\n      iszero\n      tag_1\n      jumpi\n      0x00\n      dup1\n      revert\n    tag_1:\n      pop\n      jumpi(tag_2, lt(calldatasize, 0x04))\n      shr(0xe0, calldataload(0x00))\n      dup1\n      0x06fdde03\n      eq\n      tag_3\n      jumpi\n      dup1\n      0x439970aa\n      eq\n      tag_4\n      jumpi\n      dup1\n      0x4a90be57\n      eq\n      tag_5\n      jumpi\n      dup1\n      0xc692c049\n      eq\n      tag_6\n      jumpi\n    tag_2:\n      0x00\n      dup1\n      revert\n        /* \"practise/dukedaily/day01/11bytes_string.sol\":226:243  bytes public name */\n    tag_3:\n      tag_7\n      tag_8\n      jump\t// in\n    tag_7:\n      mload(0x40)\n      tag_9\n      swap2\n      swap1\n      tag_10\n      jump\t// in\n    tag_9:\n      mload(0x40)\n      dup1\n      swap2\n      sub\n      swap1\n      return\n        /* \"practise/dukedaily/day01/11bytes_string.sol\":449:523  function setValue(bytes memory input) public {... */\n    tag_4:\n      tag_11\n      0x04\n      dup1\n      calldatasize\n      sub\n      dup2\n      add\n      swap1\n      tag_12\n      swap2\n      swap1\n      tag_13\n      jump\t// in\n    tag_12:\n      tag_14\n      jump\t// in\n    tag_11:\n      stop\n        /* \"practise/dukedaily/day01/11bytes_string.sol\":278:361  function getLen() public view returns (uint256) {... */\n    tag_5:\n      tag_15\n      tag_16\n      jump\t// in\n    tag_15:\n      mload(0x40)\n      tag_17\n      swap2\n      swap1\n      tag_18\n      jump\t// in\n    tag_17:\n      mload(0x40)\n      dup1\n      swap2\n      sub\n      swap1\n      return\n        /* \"practise/dukedaily/day01/11bytes_string.sol\":587:645  function pushData() public {... */\n    tag_6:\n      tag_19\n      tag_20\n      jump\t// in\n    tag_19:\n      stop\n        /* \"practise/dukedaily/day01/11bytes_string.sol\":226:243  bytes public name */\n    tag_8:\n      0x00\n      dup1\n      sload\n      tag_21\n      swap1\n      tag_22\n      jump\t// in\n    tag_21:\n      dup1\n      0x1f\n      add\n      0x20\n      dup1\n      swap2\n      div\n      mul\n      0x20\n      add\n      mload(0x40)\n      swap1\n      dup2\n      add\n      0x40\n      mstore\n      dup1\n      swap3\n      swap2\n      swap1\n      dup2\n      dup2\n      mstore\n      0x20\n      add\n      dup3\n      dup1\n      sload\n      tag_23\n      swap1\n      tag_22\n      jump\t// in\n    tag_23:\n      dup1\n      iszero\n      tag_24\n      jumpi\n      dup1\n      0x1f\n      lt\n      tag_25\n      jumpi\n      0x0100\n      dup1\n      dup4\n      sload\n      div\n      mul\n      dup4\n      mstore\n      swap2\n      0x20\n      add\n      swap2\n      jump(tag_24)\n    tag_25:\n      dup3\n      add\n      swap2\n      swap1\n      0x00\n      mstore\n      keccak256(0x00, 0x20)\n      swap1\n    tag_26:\n      dup2\n      sload\n      dup2\n      mstore\n      swap1\n      0x01\n      add\n      swap1\n      0x20\n      add\n      dup1\n      dup4\n      gt\n      tag_26\n      jumpi\n      dup3\n      swap1\n      sub\n      0x1f\n      and\n      dup3\n      add\n      swap2\n    tag_24:\n      pop\n      pop\n      pop\n      pop\n      pop\n      dup2\n      jump\t// out\n        /* \"practise/dukedaily/day01/11bytes_string.sol\":449:523  function setValue(bytes memory input) public {... */\n    tag_14:\n        /* \"practise/dukedaily/day01/11bytes_string.sol\":511:516  input */\n      dup1\n        /* \"practise/dukedaily/day01/11bytes_string.sol\":504:508  name */\n      0x00\n        /* \"practise/dukedaily/day01/11bytes_string.sol\":504:516  name = input */\n      swap1\n      dup2\n      tag_28\n      swap2\n      swap1\n      tag_29\n      jump\t// in\n    tag_28:\n      pop\n        /* \"practise/dukedaily/day01/11bytes_string.sol\":449:523  function setValue(bytes memory input) public {... */\n      pop\n      jump\t// out\n        /* \"practise/dukedaily/day01/11bytes_string.sol\":278:361  function getLen() public view returns (uint256) {... */\n    tag_16:\n        /* \"practise/dukedaily/day01/11bytes_string.sol\":317:324  uint256 */\n      0x00\n        /* \"practise/dukedaily/day01/11bytes_string.sol\":343:347  name */\n      dup1\n        /* \"practise/dukedaily/day01/11bytes_string.sol\":343:354  name.length */\n      dup1\n      sload\n      tag_31\n      swap1\n      tag_22\n      jump\t// in\n    tag_31:\n      swap1\n      pop\n        /* \"practise/dukedaily/day01/11bytes_string.sol\":336:354  return name.length */\n      swap1\n      pop\n        /* \"practise/dukedaily/day01/11bytes_string.sol\":278:361  function getLen() public view returns (uint256) {... */\n      swap1\n      jump\t// out\n        /* \"practise/dukedaily/day01/11bytes_string.sol\":587:645  function pushData() public {... */\n    tag_20:\n        /* \"practise/dukedaily/day01/11bytes_string.sol\":624:628  name */\n      0x00\n        /* \"practise/dukedaily/day01/11bytes_string.sol\":624:638  name.push(\"h\") */\n      dup1\n      dup1\n      sload\n      dup1\n      tag_33\n      swap1\n      tag_22\n      jump\t// in\n    tag_33:\n      dup1\n      0x1f\n      dup2\n      sub\n      tag_34\n      jumpi\n      dup4\n      0x00\n      mstore\n      keccak256(0x00, 0x20)\n      not(0xff)\n      dup5\n      and\n      dup2\n      sstore\n      0x3f\n      swap4\n      pop\n      pop\n    tag_34:\n      pop\n      0x02\n      dup3\n      add\n      dup4\n      sstore\n      0x01\n      dup2\n      add\n      swap3\n      pop\n      pop\n      pop\n      0x01\n      swap1\n      sub\n      dup2\n      sload\n      0x01\n      and\n      iszero\n      tag_36\n      jumpi\n      swap1\n      0x00\n      mstore\n      keccak256(0x00, 0x20)\n      swap1\n      0x20\n      swap2\n      dup3\n      dup3\n      div\n      add\n      swap2\n      swap1\n      mod\n    tag_36:\n      0x6800000000000000000000000000000000000000000000000000000000000000\n      swap1\n      swap2\n      swap1\n      swap2\n      0x1f\n      sub\n      0x0100\n      exp\n      dup2\n      sload\n      dup2\n      0xff\n      mul\n      not\n      and\n      swap1\n      0x0100000000000000000000000000000000000000000000000000000000000000\n      dup5\n      div\n      mul\n      or\n      swap1\n      sstore\n      pop\n        /* \"practise/dukedaily/day01/11bytes_string.sol\":587:645  function pushData() public {... */\n      jump\t// out\n        /* \"#utility.yul\":7:105   */\n    tag_37:\n        /* \"#utility.yul\":58:64   */\n      0x00\n        /* \"#utility.yul\":92:97   */\n      dup2\n        /* \"#utility.yul\":86:98   */\n      mload\n        /* \"#utility.yul\":76:98   */\n      swap1\n      pop\n        /* \"#utility.yul\":7:105   */\n      swap2\n      swap1\n      pop\n      jump\t// out\n        /* \"#utility.yul\":111:279   */\n    tag_38:\n        /* \"#utility.yul\":194:205   */\n      0x00\n        /* \"#utility.yul\":228:234   */\n      dup3\n        /* \"#utility.yul\":223:226   */\n      dup3\n        /* \"#utility.yul\":216:235   */\n      mstore\n        /* \"#utility.yul\":268:272   */\n      0x20\n        /* \"#utility.yul\":263:266   */\n      dup3\n        /* \"#utility.yul\":259:273   */\n      add\n        /* \"#utility.yul\":244:273   */\n      swap1\n      pop\n        /* \"#utility.yul\":111:279   */\n      swap3\n      swap2\n      pop\n      pop\n      jump\t// out\n        /* \"#utility.yul\":285:424   */\n    tag_39:\n        /* \"#utility.yul\":374:380   */\n      dup3\n        /* \"#utility.yul\":369:372   */\n      dup2\n        /* \"#utility.yul\":364:367   */\n      dup4\n        /* \"#utility.yul\":358:381   */\n      mcopy\n        /* \"#utility.yul\":415:416   */\n      0x00\n        /* \"#utility.yul\":406:412   */\n      dup4\n        /* \"#utility.yul\":401:404   */\n      dup4\n        /* \"#utility.yul\":397:413   */\n      add\n        /* \"#utility.yul\":390:417   */\n      mstore\n        /* \"#utility.yul\":285:424   */\n      pop\n      pop\n      pop\n      jump\t// out\n        /* \"#utility.yul\":430:532   */\n    tag_40:\n        /* \"#utility.yul\":471:477   */\n      0x00\n        /* \"#utility.yul\":522:524   */\n      0x1f\n        /* \"#utility.yul\":518:525   */\n      not\n        /* \"#utility.yul\":513:515   */\n      0x1f\n        /* \"#utility.yul\":506:511   */\n      dup4\n        /* \"#utility.yul\":502:516   */\n      add\n        /* \"#utility.yul\":498:526   */\n      and\n        /* \"#utility.yul\":488:526   */\n      swap1\n      pop\n        /* \"#utility.yul\":430:532   */\n      swap2\n      swap1\n      pop\n      jump\t// out\n        /* \"#utility.yul\":538:911   */\n    tag_41:\n        /* \"#utility.yul\":624:627   */\n      0x00\n        /* \"#utility.yul\":652:690   */\n      tag_78\n        /* \"#utility.yul\":684:689   */\n      dup3\n        /* \"#utility.yul\":652:690   */\n      tag_37\n      jump\t// in\n    tag_78:\n        /* \"#utility.yul\":706:776   */\n      tag_79\n        /* \"#utility.yul\":769:775   */\n      dup2\n        /* \"#utility.yul\":764:767   */\n      dup6\n        /* \"#utility.yul\":706:776   */\n      tag_38\n      jump\t// in\n    tag_79:\n        /* \"#utility.yul\":699:776   */\n      swap4\n      pop\n        /* \"#utility.yul\":785:850   */\n      tag_80\n        /* \"#utility.yul\":843:849   */\n      dup2\n        /* \"#utility.yul\":838:841   */\n      dup6\n        /* \"#utility.yul\":831:835   */\n      0x20\n        /* \"#utility.yul\":824:829   */\n      dup7\n        /* \"#utility.yul\":820:836   */\n      add\n        /* \"#utility.yul\":785:850   */\n      tag_39\n      jump\t// in\n    tag_80:\n        /* \"#utility.yul\":875:904   */\n      tag_81\n        /* \"#utility.yul\":897:903   */\n      dup2\n        /* \"#utility.yul\":875:904   */\n      tag_40\n      jump\t// in\n    tag_81:\n        /* \"#utility.yul\":870:873   */\n      dup5\n        /* \"#utility.yul\":866:905   */\n      add\n        /* \"#utility.yul\":859:905   */\n      swap2\n      pop\n        /* \"#utility.yul\":628:911   */\n      pop\n        /* \"#utility.yul\":538:911   */\n      swap3\n      swap2\n      pop\n      pop\n      jump\t// out\n        /* \"#utility.yul\":917:1226   */\n    tag_10:\n        /* \"#utility.yul\":1028:1032   */\n      0x00\n        /* \"#utility.yul\":1066:1068   */\n      0x20\n        /* \"#utility.yul\":1055:1064   */\n      dup3\n        /* \"#utility.yul\":1051:1069   */\n      add\n        /* \"#utility.yul\":1043:1069   */\n      swap1\n      pop\n        /* \"#utility.yul\":1115:1124   */\n      dup2\n        /* \"#utility.yul\":1109:1113   */\n      dup2\n        /* \"#utility.yul\":1105:1125   */\n      sub\n        /* \"#utility.yul\":1101:1102   */\n      0x00\n        /* \"#utility.yul\":1090:1099   */\n      dup4\n        /* \"#utility.yul\":1086:1103   */\n      add\n        /* \"#utility.yul\":1079:1126   */\n      mstore\n        /* \"#utility.yul\":1143:1219   */\n      tag_83\n        /* \"#utility.yul\":1214:1218   */\n      dup2\n        /* \"#utility.yul\":1205:1211   */\n      dup5\n        /* \"#utility.yul\":1143:1219   */\n      tag_41\n      jump\t// in\n    tag_83:\n        /* \"#utility.yul\":1135:1219   */\n      swap1\n      pop\n        /* \"#utility.yul\":917:1226   */\n      swap3\n      swap2\n      pop\n      pop\n      jump\t// out\n        /* \"#utility.yul\":1232:1307   */\n    tag_42:\n        /* \"#utility.yul\":1265:1271   */\n      0x00\n        /* \"#utility.yul\":1298:1300   */\n      0x40\n        /* \"#utility.yul\":1292:1301   */\n      mload\n        /* \"#utility.yul\":1282:1301   */\n      swap1\n      pop\n        /* \"#utility.yul\":1232:1307   */\n      swap1\n      jump\t// out\n        /* \"#utility.yul\":1313:1430   */\n    tag_43:\n        /* \"#utility.yul\":1422:1423   */\n      0x00\n        /* \"#utility.yul\":1419:1420   */\n      dup1\n        /* \"#utility.yul\":1412:1424   */\n      revert\n        /* \"#utility.yul\":1436:1553   */\n    tag_44:\n        /* \"#utility.yul\":1545:1546   */\n      0x00\n        /* \"#utility.yul\":1542:1543   */\n      dup1\n        /* \"#utility.yul\":1535:1547   */\n      revert\n        /* \"#utility.yul\":1559:1676   */\n    tag_45:\n        /* \"#utility.yul\":1668:1669   */\n      0x00\n        /* \"#utility.yul\":1665:1666   */\n      dup1\n        /* \"#utility.yul\":1658:1670   */\n      revert\n        /* \"#utility.yul\":1682:1799   */\n    tag_46:\n        /* \"#utility.yul\":1791:1792   */\n      0x00\n        /* \"#utility.yul\":1788:1789   */\n      dup1\n        /* \"#utility.yul\":1781:1793   */\n      revert\n        /* \"#utility.yul\":1805:1985   */\n    tag_47:\n        /* \"#utility.yul\":1853:1930   */\n      0x4e487b7100000000000000000000000000000000000000000000000000000000\n        /* \"#utility.yul\":1850:1851   */\n      0x00\n        /* \"#utility.yul\":1843:1931   */\n      mstore\n        /* \"#utility.yul\":1950:1954   */\n      0x41\n        /* \"#utility.yul\":1947:1948   */\n      0x04\n        /* \"#utility.yul\":1940:1955   */\n      mstore\n        /* \"#utility.yul\":1974:1978   */\n      0x24\n        /* \"#utility.yul\":1971:1972   */\n      0x00\n        /* \"#utility.yul\":1964:1979   */\n      revert\n        /* \"#utility.yul\":1991:2272   */\n    tag_48:\n        /* \"#utility.yul\":2074:2101   */\n      tag_91\n        /* \"#utility.yul\":2096:2100   */\n      dup3\n        /* \"#utility.yul\":2074:2101   */\n      tag_40\n      jump\t// in\n    tag_91:\n        /* \"#utility.yul\":2066:2072   */\n      dup2\n        /* \"#utility.yul\":2062:2102   */\n      add\n        /* \"#utility.yul\":2204:2210   */\n      dup2\n        /* \"#utility.yul\":2192:2202   */\n      dup2\n        /* \"#utility.yul\":2189:2211   */\n      lt\n        /* \"#utility.yul\":2168:2186   */\n      0xffffffffffffffff\n        /* \"#utility.yul\":2156:2166   */\n      dup3\n        /* \"#utility.yul\":2153:2187   */\n      gt\n        /* \"#utility.yul\":2150:2212   */\n      or\n        /* \"#utility.yul\":2147:2235   */\n      iszero\n      tag_92\n      jumpi\n        /* \"#utility.yul\":2215:2233   */\n      tag_93\n      tag_47\n      jump\t// in\n    tag_93:\n        /* \"#utility.yul\":2147:2235   */\n    tag_92:\n        /* \"#utility.yul\":2255:2265   */\n      dup1\n        /* \"#utility.yul\":2251:2253   */\n      0x40\n        /* \"#utility.yul\":2244:2266   */\n      mstore\n        /* \"#utility.yul\":2034:2272   */\n      pop\n        /* \"#utility.yul\":1991:2272   */\n      pop\n      pop\n      jump\t// out\n        /* \"#utility.yul\":2278:2407   */\n    tag_49:\n        /* \"#utility.yul\":2312:2318   */\n      0x00\n        /* \"#utility.yul\":2339:2359   */\n      tag_95\n      tag_42\n      jump\t// in\n    tag_95:\n        /* \"#utility.yul\":2329:2359   */\n      swap1\n      pop\n        /* \"#utility.yul\":2368:2401   */\n      tag_96\n        /* \"#utility.yul\":2396:2400   */\n      dup3\n        /* \"#utility.yul\":2388:2394   */\n      dup3\n        /* \"#utility.yul\":2368:2401   */\n      tag_48\n      jump\t// in\n    tag_96:\n        /* \"#utility.yul\":2278:2407   */\n      swap2\n      swap1\n      pop\n      jump\t// out\n        /* \"#utility.yul\":2413:2720   */\n    tag_50:\n        /* \"#utility.yul\":2474:2478   */\n      0x00\n        /* \"#utility.yul\":2564:2582   */\n      0xffffffffffffffff\n        /* \"#utility.yul\":2556:2562   */\n      dup3\n        /* \"#utility.yul\":2553:2583   */\n      gt\n        /* \"#utility.yul\":2550:2606   */\n      iszero\n      tag_98\n      jumpi\n        /* \"#utility.yul\":2586:2604   */\n      tag_99\n      tag_47\n      jump\t// in\n    tag_99:\n        /* \"#utility.yul\":2550:2606   */\n    tag_98:\n        /* \"#utility.yul\":2624:2653   */\n      tag_100\n        /* \"#utility.yul\":2646:2652   */\n      dup3\n        /* \"#utility.yul\":2624:2653   */\n      tag_40\n      jump\t// in\n    tag_100:\n        /* \"#utility.yul\":2616:2653   */\n      swap1\n      pop\n        /* \"#utility.yul\":2708:2712   */\n      0x20\n        /* \"#utility.yul\":2702:2706   */\n      dup2\n        /* \"#utility.yul\":2698:2713   */\n      add\n        /* \"#utility.yul\":2690:2713   */\n      swap1\n      pop\n        /* \"#utility.yul\":2413:2720   */\n      swap2\n      swap1\n      pop\n      jump\t// out\n        /* \"#utility.yul\":2726:2874   */\n    tag_51:\n        /* \"#utility.yul\":2824:2830   */\n      dup3\n        /* \"#utility.yul\":2819:2822   */\n      dup2\n        /* \"#utility.yul\":2814:2817   */\n      dup4\n        /* \"#utility.yul\":2801:2831   */\n      calldatacopy\n        /* \"#utility.yul\":2865:2866   */\n      0x00\n        /* \"#utility.yul\":2856:2862   */\n      dup4\n        /* \"#utility.yul\":2851:2854   */\n      dup4\n        /* \"#utility.yul\":2847:2863   */\n      add\n        /* \"#utility.yul\":2840:2867   */\n      mstore\n        /* \"#utility.yul\":2726:2874   */\n      pop\n      pop\n      pop\n      jump\t// out\n        /* \"#utility.yul\":2880:3303   */\n    tag_52:\n        /* \"#utility.yul\":2957:2962   */\n      0x00\n        /* \"#utility.yul\":2982:3047   */\n      tag_103\n        /* \"#utility.yul\":2998:3046   */\n      tag_104\n        /* \"#utility.yul\":3039:3045   */\n      dup5\n        /* \"#utility.yul\":2998:3046   */\n      tag_50\n      jump\t// in\n    tag_104:\n        /* \"#utility.yul\":2982:3047   */\n      tag_49\n      jump\t// in\n    tag_103:\n        /* \"#utility.yul\":2973:3047   */\n      swap1\n      pop\n        /* \"#utility.yul\":3070:3076   */\n      dup3\n        /* \"#utility.yul\":3063:3068   */\n      dup2\n        /* \"#utility.yul\":3056:3077   */\n      mstore\n        /* \"#utility.yul\":3108:3112   */\n      0x20\n        /* \"#utility.yul\":3101:3106   */\n      dup2\n        /* \"#utility.yul\":3097:3113   */\n      add\n        /* \"#utility.yul\":3146:3149   */\n      dup5\n        /* \"#utility.yul\":3137:3143   */\n      dup5\n        /* \"#utility.yul\":3132:3135   */\n      dup5\n        /* \"#utility.yul\":3128:3144   */\n      add\n        /* \"#utility.yul\":3125:3150   */\n      gt\n        /* \"#utility.yul\":3122:3234   */\n      iszero\n      tag_105\n      jumpi\n        /* \"#utility.yul\":3153:3232   */\n      tag_106\n      tag_46\n      jump\t// in\n    tag_106:\n        /* \"#utility.yul\":3122:3234   */\n    tag_105:\n        /* \"#utility.yul\":3243:3297   */\n      tag_107\n        /* \"#utility.yul\":3290:3296   */\n      dup5\n        /* \"#utility.yul\":3285:3288   */\n      dup3\n        /* \"#utility.yul\":3280:3283   */\n      dup6\n        /* \"#utility.yul\":3243:3297   */\n      tag_51\n      jump\t// in\n    tag_107:\n        /* \"#utility.yul\":2963:3303   */\n      pop\n        /* \"#utility.yul\":2880:3303   */\n      swap4\n      swap3\n      pop\n      pop\n      pop\n      jump\t// out\n        /* \"#utility.yul\":3322:3660   */\n    tag_53:\n        /* \"#utility.yul\":3377:3382   */\n      0x00\n        /* \"#utility.yul\":3426:3429   */\n      dup3\n        /* \"#utility.yul\":3419:3423   */\n      0x1f\n        /* \"#utility.yul\":3411:3417   */\n      dup4\n        /* \"#utility.yul\":3407:3424   */\n      add\n        /* \"#utility.yul\":3403:3430   */\n      slt\n        /* \"#utility.yul\":3393:3515   */\n      tag_109\n      jumpi\n        /* \"#utility.yul\":3434:3513   */\n      tag_110\n      tag_45\n      jump\t// in\n    tag_110:\n        /* \"#utility.yul\":3393:3515   */\n    tag_109:\n        /* \"#utility.yul\":3551:3557   */\n      dup2\n        /* \"#utility.yul\":3538:3558   */\n      calldataload\n        /* \"#utility.yul\":3576:3654   */\n      tag_111\n        /* \"#utility.yul\":3650:3653   */\n      dup5\n        /* \"#utility.yul\":3642:3648   */\n      dup3\n        /* \"#utility.yul\":3635:3639   */\n      0x20\n        /* \"#utility.yul\":3627:3633   */\n      dup7\n        /* \"#utility.yul\":3623:3640   */\n      add\n        /* \"#utility.yul\":3576:3654   */\n      tag_52\n      jump\t// in\n    tag_111:\n        /* \"#utility.yul\":3567:3654   */\n      swap2\n      pop\n        /* \"#utility.yul\":3383:3660   */\n      pop\n        /* \"#utility.yul\":3322:3660   */\n      swap3\n      swap2\n      pop\n      pop\n      jump\t// out\n        /* \"#utility.yul\":3666:4173   */\n    tag_13:\n        /* \"#utility.yul\":3734:3740   */\n      0x00\n        /* \"#utility.yul\":3783:3785   */\n      0x20\n        /* \"#utility.yul\":3771:3780   */\n      dup3\n        /* \"#utility.yul\":3762:3769   */\n      dup5\n        /* \"#utility.yul\":3758:3781   */\n      sub\n        /* \"#utility.yul\":3754:3786   */\n      slt\n        /* \"#utility.yul\":3751:3870   */\n      iszero\n      tag_113\n      jumpi\n        /* \"#utility.yul\":3789:3868   */\n      tag_114\n      tag_43\n      jump\t// in\n    tag_114:\n        /* \"#utility.yul\":3751:3870   */\n    tag_113:\n        /* \"#utility.yul\":3937:3938   */\n      0x00\n        /* \"#utility.yul\":3926:3935   */\n      dup3\n        /* \"#utility.yul\":3922:3939   */\n      add\n        /* \"#utility.yul\":3909:3940   */\n      calldataload\n        /* \"#utility.yul\":3967:3985   */\n      0xffffffffffffffff\n        /* \"#utility.yul\":3959:3965   */\n      dup2\n        /* \"#utility.yul\":3956:3986   */\n      gt\n        /* \"#utility.yul\":3953:4070   */\n      iszero\n      tag_115\n      jumpi\n        /* \"#utility.yul\":3989:4068   */\n      tag_116\n      tag_44\n      jump\t// in\n    tag_116:\n        /* \"#utility.yul\":3953:4070   */\n    tag_115:\n        /* \"#utility.yul\":4094:4156   */\n      tag_117\n        /* \"#utility.yul\":4148:4155   */\n      dup5\n        /* \"#utility.yul\":4139:4145   */\n      dup3\n        /* \"#utility.yul\":4128:4137   */\n      dup6\n        /* \"#utility.yul\":4124:4146   */\n      add\n        /* \"#utility.yul\":4094:4156   */\n      tag_53\n      jump\t// in\n    tag_117:\n        /* \"#utility.yul\":4084:4156   */\n      swap2\n      pop\n        /* \"#utility.yul\":3880:4166   */\n      pop\n        /* \"#utility.yul\":3666:4173   */\n      swap3\n      swap2\n      pop\n      pop\n      jump\t// out\n        /* \"#utility.yul\":4179:4256   */\n    tag_54:\n        /* \"#utility.yul\":4216:4223   */\n      0x00\n        /* \"#utility.yul\":4245:4250   */\n      dup2\n        /* \"#utility.yul\":4234:4250   */\n      swap1\n      pop\n        /* \"#utility.yul\":4179:4256   */\n      swap2\n      swap1\n      pop\n      jump\t// out\n        /* \"#utility.yul\":4262:4380   */\n    tag_55:\n        /* \"#utility.yul\":4349:4373   */\n      tag_120\n        /* \"#utility.yul\":4367:4372   */\n      dup2\n        /* \"#utility.yul\":4349:4373   */\n      tag_54\n      jump\t// in\n    tag_120:\n        /* \"#utility.yul\":4344:4347   */\n      dup3\n        /* \"#utility.yul\":4337:4374   */\n      mstore\n        /* \"#utility.yul\":4262:4380   */\n      pop\n      pop\n      jump\t// out\n        /* \"#utility.yul\":4386:4608   */\n    tag_18:\n        /* \"#utility.yul\":4479:4483   */\n      0x00\n        /* \"#utility.yul\":4517:4519   */\n      0x20\n        /* \"#utility.yul\":4506:4515   */\n      dup3\n        /* \"#utility.yul\":4502:4520   */\n      add\n        /* \"#utility.yul\":4494:4520   */\n      swap1\n      pop\n        /* \"#utility.yul\":4530:4601   */\n      tag_122\n        /* \"#utility.yul\":4598:4599   */\n      0x00\n        /* \"#utility.yul\":4587:4596   */\n      dup4\n        /* \"#utility.yul\":4583:4600   */\n      add\n        /* \"#utility.yul\":4574:4580   */\n      dup5\n        /* \"#utility.yul\":4530:4601   */\n      tag_55\n      jump\t// in\n    tag_122:\n        /* \"#utility.yul\":4386:4608   */\n      swap3\n      swap2\n      pop\n      pop\n      jump\t// out\n        /* \"#utility.yul\":4614:4794   */\n    tag_56:\n        /* \"#utility.yul\":4662:4739   */\n      0x4e487b7100000000000000000000000000000000000000000000000000000000\n        /* \"#utility.yul\":4659:4660   */\n      0x00\n        /* \"#utility.yul\":4652:4740   */\n      mstore\n        /* \"#utility.yul\":4759:4763   */\n      0x22\n        /* \"#utility.yul\":4756:4757   */\n      0x04\n        /* \"#utility.yul\":4749:4764   */\n      mstore\n        /* \"#utility.yul\":4783:4787   */\n      0x24\n        /* \"#utility.yul\":4780:4781   */\n      0x00\n        /* \"#utility.yul\":4773:4788   */\n      revert\n        /* \"#utility.yul\":4800:5120   */\n    tag_22:\n        /* \"#utility.yul\":4844:4850   */\n      0x00\n        /* \"#utility.yul\":4881:4882   */\n      0x02\n        /* \"#utility.yul\":4875:4879   */\n      dup3\n        /* \"#utility.yul\":4871:4883   */\n      div\n        /* \"#utility.yul\":4861:4883   */\n      swap1\n      pop\n        /* \"#utility.yul\":4928:4929   */\n      0x01\n        /* \"#utility.yul\":4922:4926   */\n      dup3\n        /* \"#utility.yul\":4918:4930   */\n      and\n        /* \"#utility.yul\":4949:4967   */\n      dup1\n        /* \"#utility.yul\":4939:5020   */\n      tag_125\n      jumpi\n        /* \"#utility.yul\":5005:5009   */\n      0x7f\n        /* \"#utility.yul\":4997:5003   */\n      dup3\n        /* \"#utility.yul\":4993:5010   */\n      and\n        /* \"#utility.yul\":4983:5010   */\n      swap2\n      pop\n        /* \"#utility.yul\":4939:5020   */\n    tag_125:\n        /* \"#utility.yul\":5067:5069   */\n      0x20\n        /* \"#utility.yul\":5059:5065   */\n      dup3\n        /* \"#utility.yul\":5056:5070   */\n      lt\n        /* \"#utility.yul\":5036:5054   */\n      dup2\n        /* \"#utility.yul\":5033:5071   */\n      sub\n        /* \"#utility.yul\":5030:5114   */\n      tag_126\n      jumpi\n        /* \"#utility.yul\":5086:5104   */\n      tag_127\n      tag_56\n      jump\t// in\n    tag_127:\n        /* \"#utility.yul\":5030:5114   */\n    tag_126:\n        /* \"#utility.yul\":4851:5120   */\n      pop\n        /* \"#utility.yul\":4800:5120   */\n      swap2\n      swap1\n      pop\n      jump\t// out\n        /* \"#utility.yul\":5126:5266   */\n    tag_57:\n        /* \"#utility.yul\":5174:5178   */\n      0x00\n        /* \"#utility.yul\":5197:5200   */\n      dup2\n        /* \"#utility.yul\":5189:5200   */\n      swap1\n      pop\n        /* \"#utility.yul\":5220:5223   */\n      dup2\n        /* \"#utility.yul\":5217:5218   */\n      0x00\n        /* \"#utility.yul\":5210:5224   */\n      mstore\n        /* \"#utility.yul\":5254:5258   */\n      0x20\n        /* \"#utility.yul\":5251:5252   */\n      0x00\n        /* \"#utility.yul\":5241:5259   */\n      keccak256\n        /* \"#utility.yul\":5233:5259   */\n      swap1\n      pop\n        /* \"#utility.yul\":5126:5266   */\n      swap2\n      swap1\n      pop\n      jump\t// out\n        /* \"#utility.yul\":5272:5365   */\n    tag_58:\n        /* \"#utility.yul\":5309:5315   */\n      0x00\n        /* \"#utility.yul\":5356:5358   */\n      0x20\n        /* \"#utility.yul\":5351:5353   */\n      0x1f\n        /* \"#utility.yul\":5344:5349   */\n      dup4\n        /* \"#utility.yul\":5340:5354   */\n      add\n        /* \"#utility.yul\":5336:5359   */\n      div\n        /* \"#utility.yul\":5326:5359   */\n      swap1\n      pop\n        /* \"#utility.yul\":5272:5365   */\n      swap2\n      swap1\n      pop\n      jump\t// out\n        /* \"#utility.yul\":5371:5478   */\n    tag_59:\n        /* \"#utility.yul\":5415:5423   */\n      0x00\n        /* \"#utility.yul\":5465:5470   */\n      dup3\n        /* \"#utility.yul\":5459:5463   */\n      dup3\n        /* \"#utility.yul\":5455:5471   */\n      shl\n        /* \"#utility.yul\":5434:5471   */\n      swap1\n      pop\n        /* \"#utility.yul\":5371:5478   */\n      swap3\n      swap2\n      pop\n      pop\n      jump\t// out\n        /* \"#utility.yul\":5484:5877   */\n    tag_60:\n        /* \"#utility.yul\":5553:5559   */\n      0x00\n        /* \"#utility.yul\":5603:5604   */\n      0x08\n        /* \"#utility.yul\":5591:5601   */\n      dup4\n        /* \"#utility.yul\":5587:5605   */\n      mul\n        /* \"#utility.yul\":5626:5723   */\n      tag_132\n        /* \"#utility.yul\":5656:5722   */\n      0xffffffffffffffffffffffffffffffffffffffffffffffffffffffffffffffff\n        /* \"#utility.yul\":5645:5654   */\n      dup3\n        /* \"#utility.yul\":5626:5723   */\n      tag_59\n      jump\t// in\n    tag_132:\n        /* \"#utility.yul\":5744:5783   */\n      tag_133\n        /* \"#utility.yul\":5774:5782   */\n      dup7\n        /* \"#utility.yul\":5763:5772   */\n      dup4\n        /* \"#utility.yul\":5744:5783   */\n      tag_59\n      jump\t// in\n    tag_133:\n        /* \"#utility.yul\":5732:5783   */\n      swap6\n      pop\n        /* \"#utility.yul\":5816:5820   */\n      dup1\n        /* \"#utility.yul\":5812:5821   */\n      not\n        /* \"#utility.yul\":5805:5810   */\n      dup5\n        /* \"#utility.yul\":5801:5822   */\n      and\n        /* \"#utility.yul\":5792:5822   */\n      swap4\n      pop\n        /* \"#utility.yul\":5865:5869   */\n      dup1\n        /* \"#utility.yul\":5855:5863   */\n      dup7\n        /* \"#utility.yul\":5851:5870   */\n      and\n        /* \"#utility.yul\":5844:5849   */\n      dup5\n        /* \"#utility.yul\":5841:5871   */\n      or\n        /* \"#utility.yul\":5831:5871   */\n      swap3\n      pop\n        /* \"#utility.yul\":5560:5877   */\n      pop\n      pop\n        /* \"#utility.yul\":5484:5877   */\n      swap4\n      swap3\n      pop\n      pop\n      pop\n      jump\t// out\n        /* \"#utility.yul\":5883:5943   */\n    tag_61:\n        /* \"#utility.yul\":5911:5914   */\n      0x00\n        /* \"#utility.yul\":5932:5937   */\n      dup2\n        /* \"#utility.yul\":5925:5937   */\n      swap1\n      pop\n        /* \"#utility.yul\":5883:5943   */\n      swap2\n      swap1\n      pop\n      jump\t// out\n        /* \"#utility.yul\":5949:6091   */\n    tag_62:\n        /* \"#utility.yul\":5999:6008   */\n      0x00\n        /* \"#utility.yul\":6032:6085   */\n      tag_136\n        /* \"#utility.yul\":6050:6084   */\n      tag_137\n        /* \"#utility.yul\":6059:6083   */\n      tag_138\n        /* \"#utility.yul\":6077:6082   */\n      dup5\n        /* \"#utility.yul\":6059:6083   */\n      tag_54\n      jump\t// in\n    tag_138:\n        /* \"#utility.yul\":6050:6084   */\n      tag_61\n      jump\t// in\n    tag_137:\n        /* \"#utility.yul\":6032:6085   */\n      tag_54\n      jump\t// in\n    tag_136:\n        /* \"#utility.yul\":6019:6085   */\n      swap1\n      pop\n        /* \"#utility.yul\":5949:6091   */\n      swap2\n      swap1\n      pop\n      jump\t// out\n        /* \"#utility.yul\":6097:6172   */\n    tag_63:\n        /* \"#utility.yul\":6140:6143   */\n      0x00\n        /* \"#utility.yul\":6161:6166   */\n      dup2\n        /* \"#utility.yul\":6154:6166   */\n      swap1\n      pop\n        /* \"#utility.yul\":6097:6172   */\n      swap2\n      swap1\n      pop\n      jump\t// out\n        /* \"#utility.yul\":6178:6447   */\n    tag_64:\n        /* \"#utility.yul\":6288:6327   */\n      tag_141\n        /* \"#utility.yul\":6319:6326   */\n      dup4\n        /* \"#utility.yul\":6288:6327   */\n      tag_62\n      jump\t// in\n    tag_141:\n        /* \"#utility.yul\":6349:6440   */\n      tag_142\n        /* \"#utility.yul\":6398:6439   */\n      tag_143\n        /* \"#utility.yul\":6422:6438   */\n      dup3\n        /* \"#utility.yul\":6398:6439   */\n      tag_63\n      jump\t// in\n    tag_143:\n        /* \"#utility.yul\":6390:6396   */\n      dup5\n        /* \"#utility.yul\":6383:6387   */\n      dup5\n        /* \"#utility.yul\":6377:6388   */\n      sload\n        /* \"#utility.yul\":6349:6440   */\n      tag_60\n      jump\t// in\n    tag_142:\n        /* \"#utility.yul\":6343:6347   */\n      dup3\n        /* \"#utility.yul\":6336:6441   */\n      sstore\n        /* \"#utility.yul\":6254:6447   */\n      pop\n        /* \"#utility.yul\":6178:6447   */\n      pop\n      pop\n      pop\n      jump\t// out\n        /* \"#utility.yul\":6453:6526   */\n    tag_65:\n        /* \"#utility.yul\":6498:6501   */\n      0x00\n        /* \"#utility.yul\":6453:6526   */\n      swap1\n      jump\t// out\n        /* \"#utility.yul\":6532:6721   */\n    tag_66:\n        /* \"#utility.yul\":6609:6641   */\n      tag_146\n      tag_65\n      jump\t// in\n    tag_146:\n        /* \"#utility.yul\":6650:6715   */\n      tag_147\n        /* \"#utility.yul\":6708:6714   */\n      dup2\n        /* \"#utility.yul\":6700:6706   */\n      dup5\n        /* \"#utility.yul\":6694:6698   */\n      dup5\n        /* \"#utility.yul\":6650:6715   */\n      tag_64\n      jump\t// in\n    tag_147:\n        /* \"#utility.yul\":6585:6721   */\n      pop\n        /* \"#utility.yul\":6532:6721   */\n      pop\n      pop\n      jump\t// out\n        /* \"#utility.yul\":6727:6913   */\n    tag_67:\n        /* \"#utility.yul\":6787:6907   */\n    tag_149:\n        /* \"#utility.yul\":6804:6807   */\n      dup2\n        /* \"#utility.yul\":6797:6802   */\n      dup2\n        /* \"#utility.yul\":6794:6808   */\n      lt\n        /* \"#utility.yul\":6787:6907   */\n      iszero\n      tag_151\n      jumpi\n        /* \"#utility.yul\":6858:6897   */\n      tag_152\n        /* \"#utility.yul\":6895:6896   */\n      0x00\n        /* \"#utility.yul\":6888:6893   */\n      dup3\n        /* \"#utility.yul\":6858:6897   */\n      tag_66\n      jump\t// in\n    tag_152:\n        /* \"#utility.yul\":6831:6832   */\n      0x01\n        /* \"#utility.yul\":6824:6829   */\n      dup2\n        /* \"#utility.yul\":6820:6833   */\n      add\n        /* \"#utility.yul\":6811:6833   */\n      swap1\n      pop\n        /* \"#utility.yul\":6787:6907   */\n      jump(tag_149)\n    tag_151:\n        /* \"#utility.yul\":6727:6913   */\n      pop\n      pop\n      jump\t// out\n        /* \"#utility.yul\":6919:7460   */\n    tag_68:\n        /* \"#utility.yul\":7019:7021   */\n      0x1f\n        /* \"#utility.yul\":7014:7017   */\n      dup3\n        /* \"#utility.yul\":7011:7022   */\n      gt\n        /* \"#utility.yul\":7008:7453   */\n      iszero\n      tag_154\n      jumpi\n        /* \"#utility.yul\":7053:7090   */\n      tag_155\n        /* \"#utility.yul\":7084:7089   */\n      dup2\n        /* \"#utility.yul\":7053:7090   */\n      tag_57\n      jump\t// in\n    tag_155:\n        /* \"#utility.yul\":7136:7165   */\n      tag_156\n        /* \"#utility.yul\":7154:7164   */\n      dup5\n        /* \"#utility.yul\":7136:7165   */\n      tag_58\n      jump\t// in\n    tag_156:\n        /* \"#utility.yul\":7126:7134   */\n      dup2\n        /* \"#utility.yul\":7122:7166   */\n      add\n        /* \"#utility.yul\":7319:7321   */\n      0x20\n        /* \"#utility.yul\":7307:7317   */\n      dup6\n        /* \"#utility.yul\":7304:7322   */\n      lt\n        /* \"#utility.yul\":7301:7350   */\n      iszero\n      tag_157\n      jumpi\n        /* \"#utility.yul\":7340:7348   */\n      dup2\n        /* \"#utility.yul\":7325:7348   */\n      swap1\n      pop\n        /* \"#utility.yul\":7301:7350   */\n    tag_157:\n        /* \"#utility.yul\":7363:7443   */\n      tag_158\n        /* \"#utility.yul\":7419:7441   */\n      tag_159\n        /* \"#utility.yul\":7437:7440   */\n      dup6\n        /* \"#utility.yul\":7419:7441   */\n      tag_58\n      jump\t// in\n    tag_159:\n        /* \"#utility.yul\":7409:7417   */\n      dup4\n        /* \"#utility.yul\":7405:7442   */\n      add\n        /* \"#utility.yul\":7392:7403   */\n      dup3\n        /* \"#utility.yul\":7363:7443   */\n      tag_67\n      jump\t// in\n    tag_158:\n        /* \"#utility.yul\":7023:7453   */\n      pop\n      pop\n        /* \"#utility.yul\":7008:7453   */\n    tag_154:\n        /* \"#utility.yul\":6919:7460   */\n      pop\n      pop\n      pop\n      jump\t// out\n        /* \"#utility.yul\":7466:7583   */\n    tag_69:\n        /* \"#utility.yul\":7520:7528   */\n      0x00\n        /* \"#utility.yul\":7570:7575   */\n      dup3\n        /* \"#utility.yul\":7564:7568   */\n      dup3\n        /* \"#utility.yul\":7560:7576   */\n      shr\n        /* \"#utility.yul\":7539:7576   */\n      swap1\n      pop\n        /* \"#utility.yul\":7466:7583   */\n      swap3\n      swap2\n      pop\n      pop\n      jump\t// out\n        /* \"#utility.yul\":7589:7758   */\n    tag_70:\n        /* \"#utility.yul\":7633:7639   */\n      0x00\n        /* \"#utility.yul\":7666:7717   */\n      tag_162\n        /* \"#utility.yul\":7714:7715   */\n      0x00\n        /* \"#utility.yul\":7710:7716   */\n      not\n        /* \"#utility.yul\":7702:7707   */\n      dup5\n        /* \"#utility.yul\":7699:7700   */\n      0x08\n        /* \"#utility.yul\":7695:7708   */\n      mul\n        /* \"#utility.yul\":7666:7717   */\n      tag_69\n      jump\t// in\n    tag_162:\n        /* \"#utility.yul\":7662:7718   */\n      not\n        /* \"#utility.yul\":7747:7751   */\n      dup1\n        /* \"#utility.yul\":7741:7745   */\n      dup4\n        /* \"#utility.yul\":7737:7752   */\n      and\n        /* \"#utility.yul\":7727:7752   */\n      swap2\n      pop\n        /* \"#utility.yul\":7640:7758   */\n      pop\n        /* \"#utility.yul\":7589:7758   */\n      swap3\n      swap2\n      pop\n      pop\n      jump\t// out\n        /* \"#utility.yul\":7763:8058   */\n    tag_71:\n        /* \"#utility.yul\":7839:7843   */\n      0x00\n        /* \"#utility.yul\":7985:8014   */\n      tag_164\n        /* \"#utility.yul\":8010:8013   */\n      dup4\n        /* \"#utility.yul\":8004:8008   */\n      dup4\n        /* \"#utility.yul\":7985:8014   */\n      tag_70\n      jump\t// in\n    tag_164:\n        /* \"#utility.yul\":7977:8014   */\n      swap2\n      pop\n        /* \"#utility.yul\":8047:8050   */\n      dup3\n        /* \"#utility.yul\":8044:8045   */\n      0x02\n        /* \"#utility.yul\":8040:8051   */\n      mul\n        /* \"#utility.yul\":8034:8038   */\n      dup3\n        /* \"#utility.yul\":8031:8052   */\n      or\n        /* \"#utility.yul\":8023:8052   */\n      swap1\n      pop\n        /* \"#utility.yul\":7763:8058   */\n      swap3\n      swap2\n      pop\n      pop\n      jump\t// out\n        /* \"#utility.yul\":8063:9453   */\n    tag_29:\n        /* \"#utility.yul\":8178:8214   */\n      tag_166\n        /* \"#utility.yul\":8210:8213   */\n      dup3\n        /* \"#utility.yul\":8178:8214   */\n      tag_37\n      jump\t// in\n    tag_166:\n        /* \"#utility.yul\":8279:8297   */\n      0xffffffffffffffff\n        /* \"#utility.yul\":8271:8277   */\n      dup2\n        /* \"#utility.yul\":8268:8298   */\n      gt\n        /* \"#utility.yul\":8265:8321   */\n      iszero\n      tag_167\n      jumpi\n        /* \"#utility.yul\":8301:8319   */\n      tag_168\n      tag_47\n      jump\t// in\n    tag_168:\n        /* \"#utility.yul\":8265:8321   */\n    tag_167:\n        /* \"#utility.yul\":8345:8383   */\n      tag_169\n        /* \"#utility.yul\":8377:8381   */\n      dup3\n        /* \"#utility.yul\":8371:8382   */\n      sload\n        /* \"#utility.yul\":8345:8383   */\n      tag_22\n      jump\t// in\n    tag_169:\n        /* \"#utility.yul\":8430:8496   */\n      tag_170\n        /* \"#utility.yul\":8489:8495   */\n      dup3\n        /* \"#utility.yul\":8481:8487   */\n      dup3\n        /* \"#utility.yul\":8475:8479   */\n      dup6\n        /* \"#utility.yul\":8430:8496   */\n      tag_68\n      jump\t// in\n    tag_170:\n        /* \"#utility.yul\":8523:8524   */\n      0x00\n        /* \"#utility.yul\":8547:8551   */\n      0x20\n        /* \"#utility.yul\":8534:8551   */\n      swap1\n      pop\n        /* \"#utility.yul\":8579:8581   */\n      0x1f\n        /* \"#utility.yul\":8571:8577   */\n      dup4\n        /* \"#utility.yul\":8568:8582   */\n      gt\n        /* \"#utility.yul\":8596:8597   */\n      0x01\n        /* \"#utility.yul\":8591:9208   */\n      dup2\n      eq\n      tag_172\n      jumpi\n        /* \"#utility.yul\":9252:9253   */\n      0x00\n        /* \"#utility.yul\":9269:9275   */\n      dup5\n        /* \"#utility.yul\":9266:9343   */\n      iszero\n      tag_173\n      jumpi\n        /* \"#utility.yul\":9318:9327   */\n      dup3\n        /* \"#utility.yul\":9313:9316   */\n      dup8\n        /* \"#utility.yul\":9309:9328   */\n      add\n        /* \"#utility.yul\":9303:9329   */\n      mload\n        /* \"#utility.yul\":9294:9329   */\n      swap1\n      pop\n        /* \"#utility.yul\":9266:9343   */\n    tag_173:\n        /* \"#utility.yul\":9369:9436   */\n      tag_174\n        /* \"#utility.yul\":9429:9435   */\n      dup6\n        /* \"#utility.yul\":9422:9427   */\n      dup3\n        /* \"#utility.yul\":9369:9436   */\n      tag_71\n      jump\t// in\n    tag_174:\n        /* \"#utility.yul\":9363:9367   */\n      dup7\n        /* \"#utility.yul\":9356:9437   */\n      sstore\n        /* \"#utility.yul\":9225:9447   */\n      pop\n        /* \"#utility.yul\":8561:9447   */\n      jump(tag_171)\n        /* \"#utility.yul\":8591:9208   */\n    tag_172:\n        /* \"#utility.yul\":8643:8647   */\n      0x1f\n        /* \"#utility.yul\":8639:8648   */\n      not\n        /* \"#utility.yul\":8631:8637   */\n      dup5\n        /* \"#utility.yul\":8627:8649   */\n      and\n        /* \"#utility.yul\":8677:8713   */\n      tag_175\n        /* \"#utility.yul\":8708:8712   */\n      dup7\n        /* \"#utility.yul\":8677:8713   */\n      tag_57\n      jump\t// in\n    tag_175:\n        /* \"#utility.yul\":8735:8736   */\n      0x00\n        /* \"#utility.yul\":8749:8957   */\n    tag_176:\n        /* \"#utility.yul\":8763:8770   */\n      dup3\n        /* \"#utility.yul\":8760:8761   */\n      dup2\n        /* \"#utility.yul\":8757:8771   */\n      lt\n        /* \"#utility.yul\":8749:8957   */\n      iszero\n      tag_178\n      jumpi\n        /* \"#utility.yul\":8842:8851   */\n      dup5\n        /* \"#utility.yul\":8837:8840   */\n      dup10\n        /* \"#utility.yul\":8833:8852   */\n      add\n        /* \"#utility.yul\":8827:8853   */\n      mload\n        /* \"#utility.yul\":8819:8825   */\n      dup3\n        /* \"#utility.yul\":8812:8854   */\n      sstore\n        /* \"#utility.yul\":8893:8894   */\n      0x01\n        /* \"#utility.yul\":8885:8891   */\n      dup3\n        /* \"#utility.yul\":8881:8895   */\n      add\n        /* \"#utility.yul\":8871:8895   */\n      swap2\n      pop\n        /* \"#utility.yul\":8940:8942   */\n      0x20\n        /* \"#utility.yul\":8929:8938   */\n      dup6\n        /* \"#utility.yul\":8925:8943   */\n      add\n        /* \"#utility.yul\":8912:8943   */\n      swap5\n      pop\n        /* \"#utility.yul\":8786:8790   */\n      0x20\n        /* \"#utility.yul\":8783:8784   */\n      dup2\n        /* \"#utility.yul\":8779:8791   */\n      add\n        /* \"#utility.yul\":8774:8791   */\n      swap1\n      pop\n        /* \"#utility.yul\":8749:8957   */\n      jump(tag_176)\n    tag_178:\n        /* \"#utility.yul\":8985:8991   */\n      dup7\n        /* \"#utility.yul\":8976:8983   */\n      dup4\n        /* \"#utility.yul\":8973:8992   */\n      lt\n        /* \"#utility.yul\":8970:9149   */\n      iszero\n      tag_179\n      jumpi\n        /* \"#utility.yul\":9043:9052   */\n      dup5\n        /* \"#utility.yul\":9038:9041   */\n      dup10\n        /* \"#utility.yul\":9034:9053   */\n      add\n        /* \"#utility.yul\":9028:9054   */\n      mload\n        /* \"#utility.yul\":9086:9134   */\n      tag_180\n        /* \"#utility.yul\":9128:9132   */\n      0x1f\n        /* \"#utility.yul\":9120:9126   */\n      dup10\n        /* \"#utility.yul\":9116:9133   */\n      and\n        /* \"#utility.yul\":9105:9114   */\n      dup3\n        /* \"#utility.yul\":9086:9134   */\n      tag_70\n      jump\t// in\n    tag_180:\n        /* \"#utility.yul\":9078:9084   */\n      dup4\n        /* \"#utility.yul\":9071:9135   */\n      sstore\n        /* \"#utility.yul\":8993:9149   */\n      pop\n        /* \"#utility.yul\":8970:9149   */\n    tag_179:\n        /* \"#utility.yul\":9195:9196   */\n      0x01\n        /* \"#utility.yul\":9191:9192   */\n      0x02\n        /* \"#utility.yul\":9183:9189   */\n      dup9\n        /* \"#utility.yul\":9179:9193   */\n      mul\n        /* \"#utility.yul\":9175:9197   */\n      add\n        /* \"#utility.yul\":9169:9173   */\n      dup9\n        /* \"#utility.yul\":9162:9198   */\n      sstore\n        /* \"#utility.yul\":8598:9208   */\n      pop\n      pop\n      pop\n        /* \"#utility.yul\":8561:9447   */\n    tag_171:\n      pop\n        /* \"#utility.yul\":8153:9453   */\n      pop\n      pop\n      pop\n        /* \"#utility.yul\":8063:9453   */\n      pop\n      pop\n      jump\t// out\n\n    auxdata: 0xa2646970667358221220c861c5e35af65f54227225a25558b745116db08d66d55500b1e4b33d5300066964736f6c63430008190033\n}\n",
				"bytecode": {
					"linkReferences": {},
					"object": "6080604052348015600e575f80fd5b5061075f8061001c5f395ff3fe608060405234801561000f575f80fd5b506004361061004a575f3560e01c806306fdde031461004e578063439970aa1461006c5780634a90be5714610088578063c692c049146100a6575b5f80fd5b6100566100b0565b604051610063919061028b565b60405180910390f35b610086600480360381019061008191906103e8565b61013b565b005b61009061014d565b60405161009d9190610447565b60405180910390f35b6100ae610161565b005b5f80546100bc9061048d565b80601f01602080910402602001604051908101604052809291908181526020018280546100e89061048d565b80156101335780601f1061010a57610100808354040283529160200191610133565b820191905f5260205f20905b81548152906001019060200180831161011657829003601f168201915b505050505081565b805f9081610149919061065a565b5050565b5f80805461015a9061048d565b9050905090565b5f8080548061016f9061048d565b80601f810361018c57835f5260205f2060ff1984168155603f9350505b506002820183556001810192505050600190038154600116156101bc57905f5260205f2090602091828204019190065b7f680000000000000000000000000000000000000000000000000000000000000090919091601f036101000a81548160ff021916907f010000000000000000000000000000000000000000000000000000000000000084040217905550565b5f81519050919050565b5f82825260208201905092915050565b8281835e5f83830152505050565b5f601f19601f8301169050919050565b5f61025d8261021b565b6102678185610225565b9350610277818560208601610235565b61028081610243565b840191505092915050565b5f6020820190508181035f8301526102a38184610253565b905092915050565b5f604051905090565b5f80fd5b5f80fd5b5f80fd5b5f80fd5b7f4e487b71000000000000000000000000000000000000000000000000000000005f52604160045260245ffd5b6102fa82610243565b810181811067ffffffffffffffff82111715610319576103186102c4565b5b80604052505050565b5f61032b6102ab565b905061033782826102f1565b919050565b5f67ffffffffffffffff821115610356576103556102c4565b5b61035f82610243565b9050602081019050919050565b828183375f83830152505050565b5f61038c6103878461033c565b610322565b9050828152602081018484840111156103a8576103a76102c0565b5b6103b384828561036c565b509392505050565b5f82601f8301126103cf576103ce6102bc565b5b81356103df84826020860161037a565b91505092915050565b5f602082840312156103fd576103fc6102b4565b5b5f82013567ffffffffffffffff81111561041a576104196102b8565b5b610426848285016103bb565b91505092915050565b5f819050919050565b6104418161042f565b82525050565b5f60208201905061045a5f830184610438565b92915050565b7f4e487b71000000000000000000000000000000000000000000000000000000005f52602260045260245ffd5b5f60028204905060018216806104a457607f821691505b6020821081036104b7576104b6610460565b5b50919050565b5f819050815f5260205f209050919050565b5f6020601f8301049050919050565b5f82821b905092915050565b5f600883026105197fffffffffffffffffffffffffffffffffffffffffffffffffffffffffffffffff826104de565b61052386836104de565b95508019841693508086168417925050509392505050565b5f819050919050565b5f61055e6105596105548461042f565b61053b565b61042f565b9050919050565b5f819050919050565b61057783610544565b61058b61058382610565565b8484546104ea565b825550505050565b5f90565b61059f610593565b6105aa81848461056e565b505050565b5b818110156105cd576105c25f82610597565b6001810190506105b0565b5050565b601f821115610612576105e3816104bd565b6105ec846104cf565b810160208510156105fb578190505b61060f610607856104cf565b8301826105af565b50505b505050565b5f82821c905092915050565b5f6106325f1984600802610617565b1980831691505092915050565b5f61064a8383610623565b9150826002028217905092915050565b6106638261021b565b67ffffffffffffffff81111561067c5761067b6102c4565b5b610686825461048d565b6106918282856105d1565b5f60209050601f8311600181146106c2575f84156106b0578287015190505b6106ba858261063f565b865550610721565b601f1984166106d0866104bd565b5f5b828110156106f7578489015182556001820191506020850194506020810190506106d2565b868310156107145784890151610710601f891682610623565b8355505b6001600288020188555050505b50505050505056fea2646970667358221220c861c5e35af65f54227225a25558b745116db08d66d55500b1e4b33d5300066964736f6c63430008190033",
					"opcodes": "PUSH1 0x80 PUSH1 0x40 MSTORE CALLVALUE DUP1 ISZERO PUSH1 0xE JUMPI PUSH0 DUP1 REVERT JUMPDEST POP PUSH2 0x75F DUP1 PUSH2 0x1C PUSH0 CODECOPY PUSH0 RETURN INVALID PUSH1 0x80 PUSH1 0x40 MSTORE CALLVALUE DUP1 ISZERO PUSH2 0xF JUMPI PUSH0 DUP1 REVERT JUMPDEST POP PUSH1 0x4 CALLDATASIZE LT PUSH2 0x4A JUMPI PUSH0 CALLDATALOAD PUSH1 0xE0 SHR DUP1 PUSH4 0x6FDDE03 EQ PUSH2 0x4E JUMPI DUP1 PUSH4 0x439970AA EQ PUSH2 0x6C JUMPI DUP1 PUSH4 0x4A90BE57 EQ PUSH2 0x88 JUMPI DUP1 PUSH4 0xC692C049 EQ PUSH2 0xA6 JUMPI JUMPDEST PUSH0 DUP1 REVERT JUMPDEST PUSH2 0x56 PUSH2 0xB0 JUMP JUMPDEST PUSH1 0x40 MLOAD PUSH2 0x63 SWAP2 SWAP1 PUSH2 0x28B JUMP JUMPDEST PUSH1 0x40 MLOAD DUP1 SWAP2 SUB SWAP1 RETURN JUMPDEST PUSH2 0x86 PUSH1 0x4 DUP1 CALLDATASIZE SUB DUP2 ADD SWAP1 PUSH2 0x81 SWAP2 SWAP1 PUSH2 0x3E8 JUMP JUMPDEST PUSH2 0x13B JUMP JUMPDEST STOP JUMPDEST PUSH2 0x90 PUSH2 0x14D JUMP JUMPDEST PUSH1 0x40 MLOAD PUSH2 0x9D SWAP2 SWAP1 PUSH2 0x447 JUMP JUMPDEST PUSH1 0x40 MLOAD DUP1 SWAP2 SUB SWAP1 RETURN JUMPDEST PUSH2 0xAE PUSH2 0x161 JUMP JUMPDEST STOP JUMPDEST PUSH0 DUP1 SLOAD PUSH2 0xBC SWAP1 PUSH2 0x48D JUMP JUMPDEST DUP1 PUSH1 0x1F ADD PUSH1 0x20 DUP1 SWAP2 DIV MUL PUSH1 0x20 ADD PUSH1 0x40 MLOAD SWAP1 DUP2 ADD PUSH1 0x40 MSTORE DUP1 SWAP3 SWAP2 SWAP1 DUP2 DUP2 MSTORE PUSH1 0x20 ADD DUP3 DUP1 SLOAD PUSH2 0xE8 SWAP1 PUSH2 0x48D JUMP JUMPDEST DUP1 ISZERO PUSH2 0x133 JUMPI DUP1 PUSH1 0x1F LT PUSH2 0x10A JUMPI PUSH2 0x100 DUP1 DUP4 SLOAD DIV MUL DUP4 MSTORE SWAP2 PUSH1 0x20 ADD SWAP2 PUSH2 0x133 JUMP JUMPDEST DUP3 ADD SWAP2 SWAP1 PUSH0 MSTORE PUSH1 0x20 PUSH0 KECCAK256 SWAP1 JUMPDEST DUP2 SLOAD DUP2 MSTORE SWAP1 PUSH1 0x1 ADD SWAP1 PUSH1 0x20 ADD DUP1 DUP4 GT PUSH2 0x116 JUMPI DUP3 SWAP1 SUB PUSH1 0x1F AND DUP3 ADD SWAP2 JUMPDEST POP POP POP POP POP DUP2 JUMP JUMPDEST DUP1 PUSH0 SWAP1 DUP2 PUSH2 0x149 SWAP2 SWAP1 PUSH2 0x65A JUMP JUMPDEST POP POP JUMP JUMPDEST PUSH0 DUP1 DUP1 SLOAD PUSH2 0x15A SWAP1 PUSH2 0x48D JUMP JUMPDEST SWAP1 POP SWAP1 POP SWAP1 JUMP JUMPDEST PUSH0 DUP1 DUP1 SLOAD DUP1 PUSH2 0x16F SWAP1 PUSH2 0x48D JUMP JUMPDEST DUP1 PUSH1 0x1F DUP2 SUB PUSH2 0x18C JUMPI DUP4 PUSH0 MSTORE PUSH1 0x20 PUSH0 KECCAK256 PUSH1 0xFF NOT DUP5 AND DUP2 SSTORE PUSH1 0x3F SWAP4 POP POP JUMPDEST POP PUSH1 0x2 DUP3 ADD DUP4 SSTORE PUSH1 0x1 DUP2 ADD SWAP3 POP POP POP PUSH1 0x1 SWAP1 SUB DUP2 SLOAD PUSH1 0x1 AND ISZERO PUSH2 0x1BC JUMPI SWAP1 PUSH0 MSTORE PUSH1 0x20 PUSH0 KECCAK256 SWAP1 PUSH1 0x20 SWAP2 DUP3 DUP3 DIV ADD SWAP2 SWAP1 MOD JUMPDEST PUSH32 0x6800000000000000000000000000000000000000000000000000000000000000 SWAP1 SWAP2 SWAP1 SWAP2 PUSH1 0x1F SUB PUSH2 0x100 EXP DUP2 SLOAD DUP2 PUSH1 0xFF MUL NOT AND SWAP1 PUSH32 0x100000000000000000000000000000000000000000000000000000000000000 DUP5 DIV MUL OR SWAP1 SSTORE POP JUMP JUMPDEST PUSH0 DUP2 MLOAD SWAP1 POP SWAP2 SWAP1 POP JUMP JUMPDEST PUSH0 DUP3 DUP3 MSTORE PUSH1 0x20 DUP3 ADD SWAP1 POP SWAP3 SWAP2 POP POP JUMP JUMPDEST DUP3 DUP2 DUP4 MCOPY PUSH0 DUP4 DUP4 ADD MSTORE POP POP POP JUMP JUMPDEST PUSH0 PUSH1 0x1F NOT PUSH1 0x1F DUP4 ADD AND SWAP1 POP SWAP2 SWAP1 POP JUMP JUMPDEST PUSH0 PUSH2 0x25D DUP3 PUSH2 0x21B JUMP JUMPDEST PUSH2 0x267 DUP2 DUP6 PUSH2 0x225 JUMP JUMPDEST SWAP4 POP PUSH2 0x277 DUP2 DUP6 PUSH1 0x20 DUP7 ADD PUSH2 0x235 JUMP JUMPDEST PUSH2 0x280 DUP2 PUSH2 0x243 JUMP JUMPDEST DUP5 ADD SWAP2 POP POP SWAP3 SWAP2 POP POP JUMP JUMPDEST PUSH0 PUSH1 0x20 DUP3 ADD SWAP1 POP DUP2 DUP2 SUB PUSH0 DUP4 ADD MSTORE PUSH2 0x2A3 DUP2 DUP5 PUSH2 0x253 JUMP JUMPDEST SWAP1 POP SWAP3 SWAP2 POP POP JUMP JUMPDEST PUSH0 PUSH1 0x40 MLOAD SWAP1 POP SWAP1 JUMP JUMPDEST PUSH0 DUP1 REVERT JUMPDEST PUSH0 DUP1 REVERT JUMPDEST PUSH0 DUP1 REVERT JUMPDEST PUSH0 DUP1 REVERT JUMPDEST PUSH32 0x4E487B7100000000000000000000000000000000000000000000000000000000 PUSH0 MSTORE PUSH1 0x41 PUSH1 0x4 MSTORE PUSH1 0x24 PUSH0 REVERT JUMPDEST PUSH2 0x2FA DUP3 PUSH2 0x243 JUMP JUMPDEST DUP2 ADD DUP2 DUP2 LT PUSH8 0xFFFFFFFFFFFFFFFF DUP3 GT OR ISZERO PUSH2 0x319 JUMPI PUSH2 0x318 PUSH2 0x2C4 JUMP JUMPDEST JUMPDEST DUP1 PUSH1 0x40 MSTORE POP POP POP JUMP JUMPDEST PUSH0 PUSH2 0x32B PUSH2 0x2AB JUMP JUMPDEST SWAP1 POP PUSH2 0x337 DUP3 DUP3 PUSH2 0x2F1 JUMP JUMPDEST SWAP2 SWAP1 POP JUMP JUMPDEST PUSH0 PUSH8 0xFFFFFFFFFFFFFFFF DUP3 GT ISZERO PUSH2 0x356 JUMPI PUSH2 0x355 PUSH2 0x2C4 JUMP JUMPDEST JUMPDEST PUSH2 0x35F DUP3 PUSH2 0x243 JUMP JUMPDEST SWAP1 POP PUSH1 0x20 DUP2 ADD SWAP1 POP SWAP2 SWAP1 POP JUMP JUMPDEST DUP3 DUP2 DUP4 CALLDATACOPY PUSH0 DUP4 DUP4 ADD MSTORE POP POP POP JUMP JUMPDEST PUSH0 PUSH2 0x38C PUSH2 0x387 DUP5 PUSH2 0x33C JUMP JUMPDEST PUSH2 0x322 JUMP JUMPDEST SWAP1 POP DUP3 DUP2 MSTORE PUSH1 0x20 DUP2 ADD DUP5 DUP5 DUP5 ADD GT ISZERO PUSH2 0x3A8 JUMPI PUSH2 0x3A7 PUSH2 0x2C0 JUMP JUMPDEST JUMPDEST PUSH2 0x3B3 DUP5 DUP3 DUP6 PUSH2 0x36C JUMP JUMPDEST POP SWAP4 SWAP3 POP POP POP JUMP JUMPDEST PUSH0 DUP3 PUSH1 0x1F DUP4 ADD SLT PUSH2 0x3CF JUMPI PUSH2 0x3CE PUSH2 0x2BC JUMP JUMPDEST JUMPDEST DUP2 CALLDATALOAD PUSH2 0x3DF DUP5 DUP3 PUSH1 0x20 DUP7 ADD PUSH2 0x37A JUMP JUMPDEST SWAP2 POP POP SWAP3 SWAP2 POP POP JUMP JUMPDEST PUSH0 PUSH1 0x20 DUP3 DUP5 SUB SLT ISZERO PUSH2 0x3FD JUMPI PUSH2 0x3FC PUSH2 0x2B4 JUMP JUMPDEST JUMPDEST PUSH0 DUP3 ADD CALLDATALOAD PUSH8 0xFFFFFFFFFFFFFFFF DUP2 GT ISZERO PUSH2 0x41A JUMPI PUSH2 0x419 PUSH2 0x2B8 JUMP JUMPDEST JUMPDEST PUSH2 0x426 DUP5 DUP3 DUP6 ADD PUSH2 0x3BB JUMP JUMPDEST SWAP2 POP POP SWAP3 SWAP2 POP POP JUMP JUMPDEST PUSH0 DUP2 SWAP1 POP SWAP2 SWAP1 POP JUMP JUMPDEST PUSH2 0x441 DUP2 PUSH2 0x42F JUMP JUMPDEST DUP3 MSTORE POP POP JUMP JUMPDEST PUSH0 PUSH1 0x20 DUP3 ADD SWAP1 POP PUSH2 0x45A PUSH0 DUP4 ADD DUP5 PUSH2 0x438 JUMP JUMPDEST SWAP3 SWAP2 POP POP JUMP JUMPDEST PUSH32 0x4E487B7100000000000000000000000000000000000000000000000000000000 PUSH0 MSTORE PUSH1 0x22 PUSH1 0x4 MSTORE PUSH1 0x24 PUSH0 REVERT JUMPDEST PUSH0 PUSH1 0x2 DUP3 DIV SWAP1 POP PUSH1 0x1 DUP3 AND DUP1 PUSH2 0x4A4 JUMPI PUSH1 0x7F DUP3 AND SWAP2 POP JUMPDEST PUSH1 0x20 DUP3 LT DUP2 SUB PUSH2 0x4B7 JUMPI PUSH2 0x4B6 PUSH2 0x460 JUMP JUMPDEST JUMPDEST POP SWAP2 SWAP1 POP JUMP JUMPDEST PUSH0 DUP2 SWAP1 POP DUP2 PUSH0 MSTORE PUSH1 0x20 PUSH0 KECCAK256 SWAP1 POP SWAP2 SWAP1 POP JUMP JUMPDEST PUSH0 PUSH1 0x20 PUSH1 0x1F DUP4 ADD DIV SWAP1 POP SWAP2 SWAP1 POP JUMP JUMPDEST PUSH0 DUP3 DUP3 SHL SWAP1 POP SWAP3 SWAP2 POP POP JUMP JUMPDEST PUSH0 PUSH1 0x8 DUP4 MUL PUSH2 0x519 PUSH32 0xFFFFFFFFFFFFFFFFFFFFFFFFFFFFFFFFFFFFFFFFFFFFFFFFFFFFFFFFFFFFFFFF DUP3 PUSH2 0x4DE JUMP JUMPDEST PUSH2 0x523 DUP7 DUP4 PUSH2 0x4DE JUMP JUMPDEST SWAP6 POP DUP1 NOT DUP5 AND SWAP4 POP DUP1 DUP7 AND DUP5 OR SWAP3 POP POP POP SWAP4 SWAP3 POP POP POP JUMP JUMPDEST PUSH0 DUP2 SWAP1 POP SWAP2 SWAP1 POP JUMP JUMPDEST PUSH0 PUSH2 0x55E PUSH2 0x559 PUSH2 0x554 DUP5 PUSH2 0x42F JUMP JUMPDEST PUSH2 0x53B JUMP JUMPDEST PUSH2 0x42F JUMP JUMPDEST SWAP1 POP SWAP2 SWAP1 POP JUMP JUMPDEST PUSH0 DUP2 SWAP1 POP SWAP2 SWAP1 POP JUMP JUMPDEST PUSH2 0x577 DUP4 PUSH2 0x544 JUMP JUMPDEST PUSH2 0x58B PUSH2 0x583 DUP3 PUSH2 0x565 JUMP JUMPDEST DUP5 DUP5 SLOAD PUSH2 0x4EA JUMP JUMPDEST DUP3 SSTORE POP POP POP POP JUMP JUMPDEST PUSH0 SWAP1 JUMP JUMPDEST PUSH2 0x59F PUSH2 0x593 JUMP JUMPDEST PUSH2 0x5AA DUP2 DUP5 DUP5 PUSH2 0x56E JUMP JUMPDEST POP POP POP JUMP JUMPDEST JUMPDEST DUP2 DUP2 LT ISZERO PUSH2 0x5CD JUMPI PUSH2 0x5C2 PUSH0 DUP3 PUSH2 0x597 JUMP JUMPDEST PUSH1 0x1 DUP2 ADD SWAP1 POP PUSH2 0x5B0 JUMP JUMPDEST POP POP JUMP JUMPDEST PUSH1 0x1F DUP3 GT ISZERO PUSH2 0x612 JUMPI PUSH2 0x5E3 DUP2 PUSH2 0x4BD JUMP JUMPDEST PUSH2 0x5EC DUP5 PUSH2 0x4CF JUMP JUMPDEST DUP2 ADD PUSH1 0x20 DUP6 LT ISZERO PUSH2 0x5FB JUMPI DUP2 SWAP1 POP JUMPDEST PUSH2 0x60F PUSH2 0x607 DUP6 PUSH2 0x4CF JUMP JUMPDEST DUP4 ADD DUP3 PUSH2 0x5AF JUMP JUMPDEST POP POP JUMPDEST POP POP POP JUMP JUMPDEST PUSH0 DUP3 DUP3 SHR SWAP1 POP SWAP3 SWAP2 POP POP JUMP JUMPDEST PUSH0 PUSH2 0x632 PUSH0 NOT DUP5 PUSH1 0x8 MUL PUSH2 0x617 JUMP JUMPDEST NOT DUP1 DUP4 AND SWAP2 POP POP SWAP3 SWAP2 POP POP JUMP JUMPDEST PUSH0 PUSH2 0x64A DUP4 DUP4 PUSH2 0x623 JUMP JUMPDEST SWAP2 POP DUP3 PUSH1 0x2 MUL DUP3 OR SWAP1 POP SWAP3 SWAP2 POP POP JUMP JUMPDEST PUSH2 0x663 DUP3 PUSH2 0x21B JUMP JUMPDEST PUSH8 0xFFFFFFFFFFFFFFFF DUP2 GT ISZERO PUSH2 0x67C JUMPI PUSH2 0x67B PUSH2 0x2C4 JUMP JUMPDEST JUMPDEST PUSH2 0x686 DUP3 SLOAD PUSH2 0x48D JUMP JUMPDEST PUSH2 0x691 DUP3 DUP3 DUP6 PUSH2 0x5D1 JUMP JUMPDEST PUSH0 PUSH1 0x20 SWAP1 POP PUSH1 0x1F DUP4 GT PUSH1 0x1 DUP2 EQ PUSH2 0x6C2 JUMPI PUSH0 DUP5 ISZERO PUSH2 0x6B0 JUMPI DUP3 DUP8 ADD MLOAD SWAP1 POP JUMPDEST PUSH2 0x6BA DUP6 DUP3 PUSH2 0x63F JUMP JUMPDEST DUP7 SSTORE POP PUSH2 0x721 JUMP JUMPDEST PUSH1 0x1F NOT DUP5 AND PUSH2 0x6D0 DUP7 PUSH2 0x4BD JUMP JUMPDEST PUSH0 JUMPDEST DUP3 DUP2 LT ISZERO PUSH2 0x6F7 JUMPI DUP5 DUP10 ADD MLOAD DUP3 SSTORE PUSH1 0x1 DUP3 ADD SWAP2 POP PUSH1 0x20 DUP6 ADD SWAP5 POP PUSH1 0x20 DUP2 ADD SWAP1 POP PUSH2 0x6D2 JUMP JUMPDEST DUP7 DUP4 LT ISZERO PUSH2 0x714 JUMPI DUP5 DUP10 ADD MLOAD PUSH2 0x710 PUSH1 0x1F DUP10 AND DUP3 PUSH2 0x623 JUMP JUMPDEST DUP4 SSTORE POP JUMPDEST PUSH1 0x1 PUSH1 0x2 DUP9 MUL ADD DUP9 SSTORE POP POP POP JUMPDEST POP POP POP POP POP POP JUMP INVALID LOG2 PUSH5 0x6970667358 0x22 SLT KECCAK256 0xC8 PUSH2 0xC5E3 GAS 0xF6 PUSH0 SLOAD 0x22 PUSH19 0x25A25558B745116DB08D66D55500B1E4B33D53 STOP MOD PUSH10 0x64736F6C634300081900 CALLER "
				},
				"gasEstimates": {
					"creation": {
						"codeDepositCost": "377400",
						"executionCost": "409",
						"totalCost": "377809"
					},
					"external": {
						"getLen()": "2586",
						"name()": "infinite",
						"pushData()": "74853",
						"setValue(bytes)": "infinite"
					}
				},
				"methodIdentifiers": {
					"getLen()": "4a90be57",
					"name()": "06fdde03",
					"pushData()": "c692c049",
					"setValue(bytes)": "439970aa"
				}
			},
			"storageLayout": {
				"storage": [
					{
						"astId": 3,
						"contract": "practise/dukedaily/day01/11bytes_string.sol:Bytes",
						"label": "name",
						"offset": 0,
						"slot": "0",
						"type": "t_bytes_storage"
					}
				],
				"types": {
					"t_bytes_storage": {
						"encoding": "bytes",
						"label": "bytes",
						"numberOfBytes": "32"
					}
				}
			},
			"userdoc": {
				"kind": "user",
				"methods": {},
				"version": 1
			}
		}
	}
}