{
	"practise/dukedaily/day02/01struct.sol": {
		"Todos": {
			"abi": [
				{
					"inputs": [
						{
							"internalType": "string",
							"name": "_text",
							"type": "string"
						}
					],
					"name": "create",
					"outputs": [],
					"stateMutability": "nonpayable",
					"type": "function"
				},
				{
					"inputs": [
						{
							"internalType": "uint256",
							"name": "_index",
							"type": "uint256"
						}
					],
					"name": "get",
					"outputs": [
						{
							"internalType": "string",
							"name": "text",
							"type": "string"
						},
						{
							"internalType": "bool",
							"name": "completed",
							"type": "bool"
						}
					],
					"stateMutability": "view",
					"type": "function"
				},
				{
					"inputs": [
						{
							"internalType": "uint256",
							"name": "",
							"type": "uint256"
						}
					],
					"name": "todos",
					"outputs": [
						{
							"internalType": "string",
							"name": "text",
							"type": "string"
						},
						{
							"internalType": "bool",
							"name": "completed",
							"type": "bool"
						}
					],
					"stateMutability": "view",
					"type": "function"
				},
				{
					"inputs": [
						{
							"internalType": "uint256",
							"name": "_index",
							"type": "uint256"
						}
					],
					"name": "toggleCompleted",
					"outputs": [],
					"stateMutability": "nonpayable",
					"type": "function"
				},
				{
					"inputs": [
						{
							"internalType": "uint256",
							"name": "_index",
							"type": "uint256"
						},
						{
							"internalType": "string",
							"name": "_text",
							"type": "string"
						}
					],
					"name": "update",
					"outputs": [],
					"stateMutability": "nonpayable",
					"type": "function"
				}
			],
			"devdoc": {
				"kind": "dev",
				"methods": {},
				"version": 1
			},
			"evm": {
				"assembly": "    /* \"practise/dukedaily/day02/01struct.sol\":280:1470  contract Todos {... */\n  mstore(0x40, 0x80)\n  callvalue\n  dup1\n  iszero\n  tag_1\n  jumpi\n  0x00\n  dup1\n  revert\ntag_1:\n  pop\n  dataSize(sub_0)\n  dup1\n  dataOffset(sub_0)\n  0x00\n  codecopy\n  0x00\n  return\nstop\n\nsub_0: assembly {\n        /* \"practise/dukedaily/day02/01struct.sol\":280:1470  contract Todos {... */\n      mstore(0x40, 0x80)\n      callvalue\n      dup1\n      iszero\n      tag_1\n      jumpi\n      0x00\n      dup1\n      revert\n    tag_1:\n      pop\n      jumpi(tag_2, lt(calldatasize, 0x04))\n      shr(0xe0, calldataload(0x00))\n      dup1\n      0x455f5024\n      eq\n      tag_3\n      jumpi\n      dup1\n      0x9507d39a\n      eq\n      tag_4\n      jumpi\n      dup1\n      0xb6a46b3b\n      eq\n      tag_5\n      jumpi\n      dup1\n      0xbc8bc2b4\n      eq\n      tag_6\n      jumpi\n      dup1\n      0xf745630f\n      eq\n      tag_7\n      jumpi\n    tag_2:\n      0x00\n      dup1\n      revert\n        /* \"practise/dukedaily/day02/01struct.sol\":1331:1468  function toggleCompleted(uint _index) public {... */\n    tag_3:\n      tag_8\n      0x04\n      dup1\n      calldatasize\n      sub\n      dup2\n      add\n      swap1\n      tag_9\n      swap2\n      swap1\n      tag_10\n      jump\t// in\n    tag_9:\n      tag_11\n      jump\t// in\n    tag_8:\n      stop\n        /* \"practise/dukedaily/day02/01struct.sol\":965:1142  function get(uint _index) public view returns (string memory text, bool completed) {... */\n    tag_4:\n      tag_12\n      0x04\n      dup1\n      calldatasize\n      sub\n      dup2\n      add\n      swap1\n      tag_13\n      swap2\n      swap1\n      tag_10\n      jump\t// in\n    tag_13:\n      tag_14\n      jump\t// in\n    tag_12:\n      mload(0x40)\n      tag_15\n      swap3\n      swap2\n      swap1\n      tag_16\n      jump\t// in\n    tag_15:\n      mload(0x40)\n      dup1\n      swap2\n      sub\n      swap1\n      return\n        /* \"practise/dukedaily/day02/01struct.sol\":405:851  function create(string memory _text) public {... */\n    tag_5:\n      tag_17\n      0x04\n      dup1\n      calldatasize\n      sub\n      dup2\n      add\n      swap1\n      tag_18\n      swap2\n      swap1\n      tag_19\n      jump\t// in\n    tag_18:\n      tag_20\n      jump\t// in\n    tag_17:\n      stop\n        /* \"practise/dukedaily/day02/01struct.sol\":375:394  Todo[] public todos */\n    tag_6:\n      tag_21\n      0x04\n      dup1\n      calldatasize\n      sub\n      dup2\n      add\n      swap1\n      tag_22\n      swap2\n      swap1\n      tag_10\n      jump\t// in\n    tag_22:\n      tag_23\n      jump\t// in\n    tag_21:\n      mload(0x40)\n      tag_24\n      swap3\n      swap2\n      swap1\n      tag_16\n      jump\t// in\n    tag_24:\n      mload(0x40)\n      dup1\n      swap2\n      sub\n      swap1\n      return\n        /* \"practise/dukedaily/day02/01struct.sol\":1167:1301  function update(uint _index, string memory _text) public {... */\n    tag_7:\n      tag_25\n      0x04\n      dup1\n      calldatasize\n      sub\n      dup2\n      add\n      swap1\n      tag_26\n      swap2\n      swap1\n      tag_27\n      jump\t// in\n    tag_26:\n      tag_28\n      jump\t// in\n    tag_25:\n      stop\n        /* \"practise/dukedaily/day02/01struct.sol\":1331:1468  function toggleCompleted(uint _index) public {... */\n    tag_11:\n        /* \"practise/dukedaily/day02/01struct.sol\":1386:1403  Todo storage todo */\n      0x00\n        /* \"practise/dukedaily/day02/01struct.sol\":1406:1411  todos */\n      dup1\n        /* \"practise/dukedaily/day02/01struct.sol\":1412:1418  _index */\n      dup3\n        /* \"practise/dukedaily/day02/01struct.sol\":1406:1419  todos[_index] */\n      dup2\n      sload\n      dup2\n      lt\n      tag_30\n      jumpi\n      tag_31\n      tag_32\n      jump\t// in\n    tag_31:\n    tag_30:\n      swap1\n      0x00\n      mstore\n      keccak256(0x00, 0x20)\n      swap1\n      0x02\n      mul\n      add\n        /* \"practise/dukedaily/day02/01struct.sol\":1386:1419  Todo storage todo = todos[_index] */\n      swap1\n      pop\n        /* \"practise/dukedaily/day02/01struct.sol\":1447:1451  todo */\n      dup1\n        /* \"practise/dukedaily/day02/01struct.sol\":1447:1461  todo.completed */\n      0x01\n      add\n      0x00\n      swap1\n      sload\n      swap1\n      0x0100\n      exp\n      swap1\n      div\n      0xff\n      and\n        /* \"practise/dukedaily/day02/01struct.sol\":1446:1461  !todo.completed */\n      iszero\n        /* \"practise/dukedaily/day02/01struct.sol\":1429:1433  todo */\n      dup2\n        /* \"practise/dukedaily/day02/01struct.sol\":1429:1443  todo.completed */\n      0x01\n      add\n      0x00\n        /* \"practise/dukedaily/day02/01struct.sol\":1429:1461  todo.completed = !todo.completed */\n      0x0100\n      exp\n      dup2\n      sload\n      dup2\n      0xff\n      mul\n      not\n      and\n      swap1\n      dup4\n      iszero\n      iszero\n      mul\n      or\n      swap1\n      sstore\n      pop\n        /* \"practise/dukedaily/day02/01struct.sol\":1376:1468  {... */\n      pop\n        /* \"practise/dukedaily/day02/01struct.sol\":1331:1468  function toggleCompleted(uint _index) public {... */\n      pop\n      jump\t// out\n        /* \"practise/dukedaily/day02/01struct.sol\":965:1142  function get(uint _index) public view returns (string memory text, bool completed) {... */\n    tag_14:\n        /* \"practise/dukedaily/day02/01struct.sol\":1012:1030  string memory text */\n      0x60\n        /* \"practise/dukedaily/day02/01struct.sol\":1032:1046  bool completed */\n      0x00\n        /* \"practise/dukedaily/day02/01struct.sol\":1058:1075  Todo storage todo */\n      dup1\n        /* \"practise/dukedaily/day02/01struct.sol\":1078:1083  todos */\n      0x00\n        /* \"practise/dukedaily/day02/01struct.sol\":1084:1090  _index */\n      dup5\n        /* \"practise/dukedaily/day02/01struct.sol\":1078:1091  todos[_index] */\n      dup2\n      sload\n      dup2\n      lt\n      tag_35\n      jumpi\n      tag_36\n      tag_32\n      jump\t// in\n    tag_36:\n    tag_35:\n      swap1\n      0x00\n      mstore\n      keccak256(0x00, 0x20)\n      swap1\n      0x02\n      mul\n      add\n        /* \"practise/dukedaily/day02/01struct.sol\":1058:1091  Todo storage todo = todos[_index] */\n      swap1\n      pop\n        /* \"practise/dukedaily/day02/01struct.sol\":1109:1113  todo */\n      dup1\n        /* \"practise/dukedaily/day02/01struct.sol\":1109:1118  todo.text */\n      0x00\n      add\n        /* \"practise/dukedaily/day02/01struct.sol\":1120:1124  todo */\n      dup2\n        /* \"practise/dukedaily/day02/01struct.sol\":1120:1134  todo.completed */\n      0x01\n      add\n      0x00\n      swap1\n      sload\n      swap1\n      0x0100\n      exp\n      swap1\n      div\n      0xff\n      and\n        /* \"practise/dukedaily/day02/01struct.sol\":1101:1135  return (todo.text, todo.completed) */\n      dup2\n      dup1\n      sload\n      tag_38\n      swap1\n      tag_39\n      jump\t// in\n    tag_38:\n      dup1\n      0x1f\n      add\n      0x20\n      dup1\n      swap2\n      div\n      mul\n      0x20\n      add\n      mload(0x40)\n      swap1\n      dup2\n      add\n      0x40\n      mstore\n      dup1\n      swap3\n      swap2\n      swap1\n      dup2\n      dup2\n      mstore\n      0x20\n      add\n      dup3\n      dup1\n      sload\n      tag_40\n      swap1\n      tag_39\n      jump\t// in\n    tag_40:\n      dup1\n      iszero\n      tag_41\n      jumpi\n      dup1\n      0x1f\n      lt\n      tag_42\n      jumpi\n      0x0100\n      dup1\n      dup4\n      sload\n      div\n      mul\n      dup4\n      mstore\n      swap2\n      0x20\n      add\n      swap2\n      jump(tag_41)\n    tag_42:\n      dup3\n      add\n      swap2\n      swap1\n      0x00\n      mstore\n      keccak256(0x00, 0x20)\n      swap1\n    tag_43:\n      dup2\n      sload\n      dup2\n      mstore\n      swap1\n      0x01\n      add\n      swap1\n      0x20\n      add\n      dup1\n      dup4\n      gt\n      tag_43\n      jumpi\n      dup3\n      swap1\n      sub\n      0x1f\n      and\n      dup3\n      add\n      swap2\n    tag_41:\n      pop\n      pop\n      pop\n      pop\n      pop\n      swap2\n      pop\n      swap3\n      pop\n      swap3\n      pop\n      pop\n        /* \"practise/dukedaily/day02/01struct.sol\":965:1142  function get(uint _index) public view returns (string memory text, bool completed) {... */\n      swap2\n      pop\n      swap2\n      jump\t// out\n        /* \"practise/dukedaily/day02/01struct.sol\":405:851  function create(string memory _text) public {... */\n    tag_20:\n        /* \"practise/dukedaily/day02/01struct.sol\":540:545  todos */\n      0x00\n        /* \"practise/dukedaily/day02/01struct.sol\":551:569  Todo(_text, false) */\n      mload(0x40)\n      dup1\n      0x40\n      add\n      0x40\n      mstore\n      dup1\n        /* \"practise/dukedaily/day02/01struct.sol\":556:561  _text */\n      dup4\n        /* \"practise/dukedaily/day02/01struct.sol\":551:569  Todo(_text, false) */\n      dup2\n      mstore\n      0x20\n      add\n        /* \"practise/dukedaily/day02/01struct.sol\":563:568  false */\n      0x00\n        /* \"practise/dukedaily/day02/01struct.sol\":551:569  Todo(_text, false) */\n      iszero\n      iszero\n      dup2\n      mstore\n      pop\n        /* \"practise/dukedaily/day02/01struct.sol\":540:570  todos.push(Todo(_text, false)) */\n      swap1\n      dup1\n      0x01\n      dup2\n      sload\n      add\n      dup1\n      dup3\n      sstore\n      dup1\n      swap2\n      pop\n      pop\n      0x01\n      swap1\n      sub\n      swap1\n      0x00\n      mstore\n      keccak256(0x00, 0x20)\n      swap1\n      0x02\n      mul\n      add\n      0x00\n      swap1\n      swap2\n      swap1\n      swap2\n      swap1\n      swap2\n      pop\n      0x00\n      dup3\n      add\n      mload\n      dup2\n      0x00\n      add\n      swap1\n      dup2\n      tag_46\n      swap2\n      swap1\n      tag_47\n      jump\t// in\n    tag_46:\n      pop\n      0x20\n      dup3\n      add\n      mload\n      dup2\n      0x01\n      add\n      exp(0x0100, 0x00)\n      dup2\n      sload\n      dup2\n      0xff\n      mul\n      not\n      and\n      swap1\n      dup4\n      iszero\n      iszero\n      mul\n      or\n      swap1\n      sstore\n      pop\n      pop\n      pop\n        /* \"practise/dukedaily/day02/01struct.sol\":610:615  todos */\n      0x00\n        /* \"practise/dukedaily/day02/01struct.sol\":621:658  Todo({text: _text, completed: false}) */\n      mload(0x40)\n      dup1\n      0x40\n      add\n      0x40\n      mstore\n      dup1\n        /* \"practise/dukedaily/day02/01struct.sol\":633:638  _text */\n      dup4\n        /* \"practise/dukedaily/day02/01struct.sol\":621:658  Todo({text: _text, completed: false}) */\n      dup2\n      mstore\n      0x20\n      add\n        /* \"practise/dukedaily/day02/01struct.sol\":651:656  false */\n      0x00\n        /* \"practise/dukedaily/day02/01struct.sol\":621:658  Todo({text: _text, completed: false}) */\n      iszero\n      iszero\n      dup2\n      mstore\n      pop\n        /* \"practise/dukedaily/day02/01struct.sol\":610:659  todos.push(Todo({text: _text, completed: false})) */\n      swap1\n      dup1\n      0x01\n      dup2\n      sload\n      add\n      dup1\n      dup3\n      sstore\n      dup1\n      swap2\n      pop\n      pop\n      0x01\n      swap1\n      sub\n      swap1\n      0x00\n      mstore\n      keccak256(0x00, 0x20)\n      swap1\n      0x02\n      mul\n      add\n      0x00\n      swap1\n      swap2\n      swap1\n      swap2\n      swap1\n      swap2\n      pop\n      0x00\n      dup3\n      add\n      mload\n      dup2\n      0x00\n      add\n      swap1\n      dup2\n      tag_49\n      swap2\n      swap1\n      tag_47\n      jump\t// in\n    tag_49:\n      pop\n      0x20\n      dup3\n      add\n      mload\n      dup2\n      0x01\n      add\n      exp(0x0100, 0x00)\n      dup2\n      sload\n      dup2\n      0xff\n      mul\n      not\n      and\n      swap1\n      dup4\n      iszero\n      iszero\n      mul\n      or\n      swap1\n      sstore\n      pop\n      pop\n      pop\n        /* \"practise/dukedaily/day02/01struct.sol\":727:743  Todo memory todo */\n      tag_50\n      tag_51\n      jump\t// in\n    tag_50:\n        /* \"practise/dukedaily/day02/01struct.sol\":765:770  _text */\n      dup2\n        /* \"practise/dukedaily/day02/01struct.sol\":753:757  todo */\n      dup2\n        /* \"practise/dukedaily/day02/01struct.sol\":753:762  todo.text */\n      0x00\n      add\n        /* \"practise/dukedaily/day02/01struct.sol\":753:770  todo.text = _text */\n      dup2\n      swap1\n      mstore\n      pop\n        /* \"practise/dukedaily/day02/01struct.sol\":828:833  todos */\n      0x00\n        /* \"practise/dukedaily/day02/01struct.sol\":839:843  todo */\n      dup2\n        /* \"practise/dukedaily/day02/01struct.sol\":828:844  todos.push(todo) */\n      swap1\n      dup1\n      0x01\n      dup2\n      sload\n      add\n      dup1\n      dup3\n      sstore\n      dup1\n      swap2\n      pop\n      pop\n      0x01\n      swap1\n      sub\n      swap1\n      0x00\n      mstore\n      keccak256(0x00, 0x20)\n      swap1\n      0x02\n      mul\n      add\n      0x00\n      swap1\n      swap2\n      swap1\n      swap2\n      swap1\n      swap2\n      pop\n      0x00\n      dup3\n      add\n      mload\n      dup2\n      0x00\n      add\n      swap1\n      dup2\n      tag_53\n      swap2\n      swap1\n      tag_47\n      jump\t// in\n    tag_53:\n      pop\n      0x20\n      dup3\n      add\n      mload\n      dup2\n      0x01\n      add\n      exp(0x0100, 0x00)\n      dup2\n      sload\n      dup2\n      0xff\n      mul\n      not\n      and\n      swap1\n      dup4\n      iszero\n      iszero\n      mul\n      or\n      swap1\n      sstore\n      pop\n      pop\n      pop\n        /* \"practise/dukedaily/day02/01struct.sol\":449:851  {... */\n      pop\n        /* \"practise/dukedaily/day02/01struct.sol\":405:851  function create(string memory _text) public {... */\n      pop\n      jump\t// out\n        /* \"practise/dukedaily/day02/01struct.sol\":375:394  Todo[] public todos */\n    tag_23:\n      0x00\n      dup2\n      dup2\n      sload\n      dup2\n      lt\n      tag_54\n      jumpi\n      0x00\n      dup1\n      revert\n    tag_54:\n      swap1\n      0x00\n      mstore\n      keccak256(0x00, 0x20)\n      swap1\n      0x02\n      mul\n      add\n      0x00\n      swap2\n      pop\n      swap1\n      pop\n      dup1\n      0x00\n      add\n      dup1\n      sload\n      tag_56\n      swap1\n      tag_39\n      jump\t// in\n    tag_56:\n      dup1\n      0x1f\n      add\n      0x20\n      dup1\n      swap2\n      div\n      mul\n      0x20\n      add\n      mload(0x40)\n      swap1\n      dup2\n      add\n      0x40\n      mstore\n      dup1\n      swap3\n      swap2\n      swap1\n      dup2\n      dup2\n      mstore\n      0x20\n      add\n      dup3\n      dup1\n      sload\n      tag_57\n      swap1\n      tag_39\n      jump\t// in\n    tag_57:\n      dup1\n      iszero\n      tag_58\n      jumpi\n      dup1\n      0x1f\n      lt\n      tag_59\n      jumpi\n      0x0100\n      dup1\n      dup4\n      sload\n      div\n      mul\n      dup4\n      mstore\n      swap2\n      0x20\n      add\n      swap2\n      jump(tag_58)\n    tag_59:\n      dup3\n      add\n      swap2\n      swap1\n      0x00\n      mstore\n      keccak256(0x00, 0x20)\n      swap1\n    tag_60:\n      dup2\n      sload\n      dup2\n      mstore\n      swap1\n      0x01\n      add\n      swap1\n      0x20\n      add\n      dup1\n      dup4\n      gt\n      tag_60\n      jumpi\n      dup3\n      swap1\n      sub\n      0x1f\n      and\n      dup3\n      add\n      swap2\n    tag_58:\n      pop\n      pop\n      pop\n      pop\n      pop\n      swap1\n      dup1\n      0x01\n      add\n      0x00\n      swap1\n      sload\n      swap1\n      0x0100\n      exp\n      swap1\n      div\n      0xff\n      and\n      swap1\n      pop\n      dup3\n      jump\t// out\n        /* \"practise/dukedaily/day02/01struct.sol\":1167:1301  function update(uint _index, string memory _text) public {... */\n    tag_28:\n        /* \"practise/dukedaily/day02/01struct.sol\":1234:1251  Todo storage todo */\n      0x00\n        /* \"practise/dukedaily/day02/01struct.sol\":1254:1259  todos */\n      dup1\n        /* \"practise/dukedaily/day02/01struct.sol\":1260:1266  _index */\n      dup4\n        /* \"practise/dukedaily/day02/01struct.sol\":1254:1267  todos[_index] */\n      dup2\n      sload\n      dup2\n      lt\n      tag_62\n      jumpi\n      tag_63\n      tag_32\n      jump\t// in\n    tag_63:\n    tag_62:\n      swap1\n      0x00\n      mstore\n      keccak256(0x00, 0x20)\n      swap1\n      0x02\n      mul\n      add\n        /* \"practise/dukedaily/day02/01struct.sol\":1234:1267  Todo storage todo = todos[_index] */\n      swap1\n      pop\n        /* \"practise/dukedaily/day02/01struct.sol\":1289:1294  _text */\n      dup2\n        /* \"practise/dukedaily/day02/01struct.sol\":1277:1281  todo */\n      dup2\n        /* \"practise/dukedaily/day02/01struct.sol\":1277:1286  todo.text */\n      0x00\n      add\n        /* \"practise/dukedaily/day02/01struct.sol\":1277:1294  todo.text = _text */\n      swap1\n      dup2\n      tag_65\n      swap2\n      swap1\n      tag_47\n      jump\t// in\n    tag_65:\n      pop\n        /* \"practise/dukedaily/day02/01struct.sol\":1224:1301  {... */\n      pop\n        /* \"practise/dukedaily/day02/01struct.sol\":1167:1301  function update(uint _index, string memory _text) public {... */\n      pop\n      pop\n      jump\t// out\n    tag_51:\n      mload(0x40)\n      dup1\n      0x40\n      add\n      0x40\n      mstore\n      dup1\n      0x60\n      dup2\n      mstore\n      0x20\n      add\n      iszero(iszero(0x00))\n      dup2\n      mstore\n      pop\n      swap1\n      jump\t// out\n        /* \"#utility.yul\":7:82   */\n    tag_66:\n        /* \"#utility.yul\":40:46   */\n      0x00\n        /* \"#utility.yul\":73:75   */\n      0x40\n        /* \"#utility.yul\":67:76   */\n      mload\n        /* \"#utility.yul\":57:76   */\n      swap1\n      pop\n        /* \"#utility.yul\":7:82   */\n      swap1\n      jump\t// out\n        /* \"#utility.yul\":88:205   */\n    tag_67:\n        /* \"#utility.yul\":197:198   */\n      0x00\n        /* \"#utility.yul\":194:195   */\n      dup1\n        /* \"#utility.yul\":187:199   */\n      revert\n        /* \"#utility.yul\":211:328   */\n    tag_68:\n        /* \"#utility.yul\":320:321   */\n      0x00\n        /* \"#utility.yul\":317:318   */\n      dup1\n        /* \"#utility.yul\":310:322   */\n      revert\n        /* \"#utility.yul\":334:411   */\n    tag_69:\n        /* \"#utility.yul\":371:378   */\n      0x00\n        /* \"#utility.yul\":400:405   */\n      dup2\n        /* \"#utility.yul\":389:405   */\n      swap1\n      pop\n        /* \"#utility.yul\":334:411   */\n      swap2\n      swap1\n      pop\n      jump\t// out\n        /* \"#utility.yul\":417:539   */\n    tag_70:\n        /* \"#utility.yul\":490:514   */\n      tag_110\n        /* \"#utility.yul\":508:513   */\n      dup2\n        /* \"#utility.yul\":490:514   */\n      tag_69\n      jump\t// in\n    tag_110:\n        /* \"#utility.yul\":483:488   */\n      dup2\n        /* \"#utility.yul\":480:515   */\n      eq\n        /* \"#utility.yul\":470:533   */\n      tag_111\n      jumpi\n        /* \"#utility.yul\":529:530   */\n      0x00\n        /* \"#utility.yul\":526:527   */\n      dup1\n        /* \"#utility.yul\":519:531   */\n      revert\n        /* \"#utility.yul\":470:533   */\n    tag_111:\n        /* \"#utility.yul\":417:539   */\n      pop\n      jump\t// out\n        /* \"#utility.yul\":545:684   */\n    tag_71:\n        /* \"#utility.yul\":591:596   */\n      0x00\n        /* \"#utility.yul\":629:635   */\n      dup2\n        /* \"#utility.yul\":616:636   */\n      calldataload\n        /* \"#utility.yul\":607:636   */\n      swap1\n      pop\n        /* \"#utility.yul\":645:678   */\n      tag_113\n        /* \"#utility.yul\":672:677   */\n      dup2\n        /* \"#utility.yul\":645:678   */\n      tag_70\n      jump\t// in\n    tag_113:\n        /* \"#utility.yul\":545:684   */\n      swap3\n      swap2\n      pop\n      pop\n      jump\t// out\n        /* \"#utility.yul\":690:1019   */\n    tag_10:\n        /* \"#utility.yul\":749:755   */\n      0x00\n        /* \"#utility.yul\":798:800   */\n      0x20\n        /* \"#utility.yul\":786:795   */\n      dup3\n        /* \"#utility.yul\":777:784   */\n      dup5\n        /* \"#utility.yul\":773:796   */\n      sub\n        /* \"#utility.yul\":769:801   */\n      slt\n        /* \"#utility.yul\":766:885   */\n      iszero\n      tag_115\n      jumpi\n        /* \"#utility.yul\":804:883   */\n      tag_116\n      tag_67\n      jump\t// in\n    tag_116:\n        /* \"#utility.yul\":766:885   */\n    tag_115:\n        /* \"#utility.yul\":924:925   */\n      0x00\n        /* \"#utility.yul\":949:1002   */\n      tag_117\n        /* \"#utility.yul\":994:1001   */\n      dup5\n        /* \"#utility.yul\":985:991   */\n      dup3\n        /* \"#utility.yul\":974:983   */\n      dup6\n        /* \"#utility.yul\":970:992   */\n      add\n        /* \"#utility.yul\":949:1002   */\n      tag_71\n      jump\t// in\n    tag_117:\n        /* \"#utility.yul\":939:1002   */\n      swap2\n      pop\n        /* \"#utility.yul\":895:1012   */\n      pop\n        /* \"#utility.yul\":690:1019   */\n      swap3\n      swap2\n      pop\n      pop\n      jump\t// out\n        /* \"#utility.yul\":1025:1124   */\n    tag_72:\n        /* \"#utility.yul\":1077:1083   */\n      0x00\n        /* \"#utility.yul\":1111:1116   */\n      dup2\n        /* \"#utility.yul\":1105:1117   */\n      mload\n        /* \"#utility.yul\":1095:1117   */\n      swap1\n      pop\n        /* \"#utility.yul\":1025:1124   */\n      swap2\n      swap1\n      pop\n      jump\t// out\n        /* \"#utility.yul\":1130:1299   */\n    tag_73:\n        /* \"#utility.yul\":1214:1225   */\n      0x00\n        /* \"#utility.yul\":1248:1254   */\n      dup3\n        /* \"#utility.yul\":1243:1246   */\n      dup3\n        /* \"#utility.yul\":1236:1255   */\n      mstore\n        /* \"#utility.yul\":1288:1292   */\n      0x20\n        /* \"#utility.yul\":1283:1286   */\n      dup3\n        /* \"#utility.yul\":1279:1293   */\n      add\n        /* \"#utility.yul\":1264:1293   */\n      swap1\n      pop\n        /* \"#utility.yul\":1130:1299   */\n      swap3\n      swap2\n      pop\n      pop\n      jump\t// out\n        /* \"#utility.yul\":1305:1444   */\n    tag_74:\n        /* \"#utility.yul\":1394:1400   */\n      dup3\n        /* \"#utility.yul\":1389:1392   */\n      dup2\n        /* \"#utility.yul\":1384:1387   */\n      dup4\n        /* \"#utility.yul\":1378:1401   */\n      mcopy\n        /* \"#utility.yul\":1435:1436   */\n      0x00\n        /* \"#utility.yul\":1426:1432   */\n      dup4\n        /* \"#utility.yul\":1421:1424   */\n      dup4\n        /* \"#utility.yul\":1417:1433   */\n      add\n        /* \"#utility.yul\":1410:1437   */\n      mstore\n        /* \"#utility.yul\":1305:1444   */\n      pop\n      pop\n      pop\n      jump\t// out\n        /* \"#utility.yul\":1450:1552   */\n    tag_75:\n        /* \"#utility.yul\":1491:1497   */\n      0x00\n        /* \"#utility.yul\":1542:1544   */\n      0x1f\n        /* \"#utility.yul\":1538:1545   */\n      not\n        /* \"#utility.yul\":1533:1535   */\n      0x1f\n        /* \"#utility.yul\":1526:1531   */\n      dup4\n        /* \"#utility.yul\":1522:1536   */\n      add\n        /* \"#utility.yul\":1518:1546   */\n      and\n        /* \"#utility.yul\":1508:1546   */\n      swap1\n      pop\n        /* \"#utility.yul\":1450:1552   */\n      swap2\n      swap1\n      pop\n      jump\t// out\n        /* \"#utility.yul\":1558:1935   */\n    tag_76:\n        /* \"#utility.yul\":1646:1649   */\n      0x00\n        /* \"#utility.yul\":1674:1713   */\n      tag_123\n        /* \"#utility.yul\":1707:1712   */\n      dup3\n        /* \"#utility.yul\":1674:1713   */\n      tag_72\n      jump\t// in\n    tag_123:\n        /* \"#utility.yul\":1729:1800   */\n      tag_124\n        /* \"#utility.yul\":1793:1799   */\n      dup2\n        /* \"#utility.yul\":1788:1791   */\n      dup6\n        /* \"#utility.yul\":1729:1800   */\n      tag_73\n      jump\t// in\n    tag_124:\n        /* \"#utility.yul\":1722:1800   */\n      swap4\n      pop\n        /* \"#utility.yul\":1809:1874   */\n      tag_125\n        /* \"#utility.yul\":1867:1873   */\n      dup2\n        /* \"#utility.yul\":1862:1865   */\n      dup6\n        /* \"#utility.yul\":1855:1859   */\n      0x20\n        /* \"#utility.yul\":1848:1853   */\n      dup7\n        /* \"#utility.yul\":1844:1860   */\n      add\n        /* \"#utility.yul\":1809:1874   */\n      tag_74\n      jump\t// in\n    tag_125:\n        /* \"#utility.yul\":1899:1928   */\n      tag_126\n        /* \"#utility.yul\":1921:1927   */\n      dup2\n        /* \"#utility.yul\":1899:1928   */\n      tag_75\n      jump\t// in\n    tag_126:\n        /* \"#utility.yul\":1894:1897   */\n      dup5\n        /* \"#utility.yul\":1890:1929   */\n      add\n        /* \"#utility.yul\":1883:1929   */\n      swap2\n      pop\n        /* \"#utility.yul\":1650:1935   */\n      pop\n        /* \"#utility.yul\":1558:1935   */\n      swap3\n      swap2\n      pop\n      pop\n      jump\t// out\n        /* \"#utility.yul\":1941:2031   */\n    tag_77:\n        /* \"#utility.yul\":1975:1982   */\n      0x00\n        /* \"#utility.yul\":2018:2023   */\n      dup2\n        /* \"#utility.yul\":2011:2024   */\n      iszero\n        /* \"#utility.yul\":2004:2025   */\n      iszero\n        /* \"#utility.yul\":1993:2025   */\n      swap1\n      pop\n        /* \"#utility.yul\":1941:2031   */\n      swap2\n      swap1\n      pop\n      jump\t// out\n        /* \"#utility.yul\":2037:2146   */\n    tag_78:\n        /* \"#utility.yul\":2118:2139   */\n      tag_129\n        /* \"#utility.yul\":2133:2138   */\n      dup2\n        /* \"#utility.yul\":2118:2139   */\n      tag_77\n      jump\t// in\n    tag_129:\n        /* \"#utility.yul\":2113:2116   */\n      dup3\n        /* \"#utility.yul\":2106:2140   */\n      mstore\n        /* \"#utility.yul\":2037:2146   */\n      pop\n      pop\n      jump\t// out\n        /* \"#utility.yul\":2152:2563   */\n    tag_16:\n        /* \"#utility.yul\":2287:2291   */\n      0x00\n        /* \"#utility.yul\":2325:2327   */\n      0x40\n        /* \"#utility.yul\":2314:2323   */\n      dup3\n        /* \"#utility.yul\":2310:2328   */\n      add\n        /* \"#utility.yul\":2302:2328   */\n      swap1\n      pop\n        /* \"#utility.yul\":2374:2383   */\n      dup2\n        /* \"#utility.yul\":2368:2372   */\n      dup2\n        /* \"#utility.yul\":2364:2384   */\n      sub\n        /* \"#utility.yul\":2360:2361   */\n      0x00\n        /* \"#utility.yul\":2349:2358   */\n      dup4\n        /* \"#utility.yul\":2345:2362   */\n      add\n        /* \"#utility.yul\":2338:2385   */\n      mstore\n        /* \"#utility.yul\":2402:2480   */\n      tag_131\n        /* \"#utility.yul\":2475:2479   */\n      dup2\n        /* \"#utility.yul\":2466:2472   */\n      dup6\n        /* \"#utility.yul\":2402:2480   */\n      tag_76\n      jump\t// in\n    tag_131:\n        /* \"#utility.yul\":2394:2480   */\n      swap1\n      pop\n        /* \"#utility.yul\":2490:2556   */\n      tag_132\n        /* \"#utility.yul\":2552:2554   */\n      0x20\n        /* \"#utility.yul\":2541:2550   */\n      dup4\n        /* \"#utility.yul\":2537:2555   */\n      add\n        /* \"#utility.yul\":2528:2534   */\n      dup5\n        /* \"#utility.yul\":2490:2556   */\n      tag_78\n      jump\t// in\n    tag_132:\n        /* \"#utility.yul\":2152:2563   */\n      swap4\n      swap3\n      pop\n      pop\n      pop\n      jump\t// out\n        /* \"#utility.yul\":2569:2686   */\n    tag_79:\n        /* \"#utility.yul\":2678:2679   */\n      0x00\n        /* \"#utility.yul\":2675:2676   */\n      dup1\n        /* \"#utility.yul\":2668:2680   */\n      revert\n        /* \"#utility.yul\":2692:2809   */\n    tag_80:\n        /* \"#utility.yul\":2801:2802   */\n      0x00\n        /* \"#utility.yul\":2798:2799   */\n      dup1\n        /* \"#utility.yul\":2791:2803   */\n      revert\n        /* \"#utility.yul\":2815:2995   */\n    tag_81:\n        /* \"#utility.yul\":2863:2940   */\n      0x4e487b7100000000000000000000000000000000000000000000000000000000\n        /* \"#utility.yul\":2860:2861   */\n      0x00\n        /* \"#utility.yul\":2853:2941   */\n      mstore\n        /* \"#utility.yul\":2960:2964   */\n      0x41\n        /* \"#utility.yul\":2957:2958   */\n      0x04\n        /* \"#utility.yul\":2950:2965   */\n      mstore\n        /* \"#utility.yul\":2984:2988   */\n      0x24\n        /* \"#utility.yul\":2981:2982   */\n      0x00\n        /* \"#utility.yul\":2974:2989   */\n      revert\n        /* \"#utility.yul\":3001:3282   */\n    tag_82:\n        /* \"#utility.yul\":3084:3111   */\n      tag_137\n        /* \"#utility.yul\":3106:3110   */\n      dup3\n        /* \"#utility.yul\":3084:3111   */\n      tag_75\n      jump\t// in\n    tag_137:\n        /* \"#utility.yul\":3076:3082   */\n      dup2\n        /* \"#utility.yul\":3072:3112   */\n      add\n        /* \"#utility.yul\":3214:3220   */\n      dup2\n        /* \"#utility.yul\":3202:3212   */\n      dup2\n        /* \"#utility.yul\":3199:3221   */\n      lt\n        /* \"#utility.yul\":3178:3196   */\n      0xffffffffffffffff\n        /* \"#utility.yul\":3166:3176   */\n      dup3\n        /* \"#utility.yul\":3163:3197   */\n      gt\n        /* \"#utility.yul\":3160:3222   */\n      or\n        /* \"#utility.yul\":3157:3245   */\n      iszero\n      tag_138\n      jumpi\n        /* \"#utility.yul\":3225:3243   */\n      tag_139\n      tag_81\n      jump\t// in\n    tag_139:\n        /* \"#utility.yul\":3157:3245   */\n    tag_138:\n        /* \"#utility.yul\":3265:3275   */\n      dup1\n        /* \"#utility.yul\":3261:3263   */\n      0x40\n        /* \"#utility.yul\":3254:3276   */\n      mstore\n        /* \"#utility.yul\":3044:3282   */\n      pop\n        /* \"#utility.yul\":3001:3282   */\n      pop\n      pop\n      jump\t// out\n        /* \"#utility.yul\":3288:3417   */\n    tag_83:\n        /* \"#utility.yul\":3322:3328   */\n      0x00\n        /* \"#utility.yul\":3349:3369   */\n      tag_141\n      tag_66\n      jump\t// in\n    tag_141:\n        /* \"#utility.yul\":3339:3369   */\n      swap1\n      pop\n        /* \"#utility.yul\":3378:3411   */\n      tag_142\n        /* \"#utility.yul\":3406:3410   */\n      dup3\n        /* \"#utility.yul\":3398:3404   */\n      dup3\n        /* \"#utility.yul\":3378:3411   */\n      tag_82\n      jump\t// in\n    tag_142:\n        /* \"#utility.yul\":3288:3417   */\n      swap2\n      swap1\n      pop\n      jump\t// out\n        /* \"#utility.yul\":3423:3731   */\n    tag_84:\n        /* \"#utility.yul\":3485:3489   */\n      0x00\n        /* \"#utility.yul\":3575:3593   */\n      0xffffffffffffffff\n        /* \"#utility.yul\":3567:3573   */\n      dup3\n        /* \"#utility.yul\":3564:3594   */\n      gt\n        /* \"#utility.yul\":3561:3617   */\n      iszero\n      tag_144\n      jumpi\n        /* \"#utility.yul\":3597:3615   */\n      tag_145\n      tag_81\n      jump\t// in\n    tag_145:\n        /* \"#utility.yul\":3561:3617   */\n    tag_144:\n        /* \"#utility.yul\":3635:3664   */\n      tag_146\n        /* \"#utility.yul\":3657:3663   */\n      dup3\n        /* \"#utility.yul\":3635:3664   */\n      tag_75\n      jump\t// in\n    tag_146:\n        /* \"#utility.yul\":3627:3664   */\n      swap1\n      pop\n        /* \"#utility.yul\":3719:3723   */\n      0x20\n        /* \"#utility.yul\":3713:3717   */\n      dup2\n        /* \"#utility.yul\":3709:3724   */\n      add\n        /* \"#utility.yul\":3701:3724   */\n      swap1\n      pop\n        /* \"#utility.yul\":3423:3731   */\n      swap2\n      swap1\n      pop\n      jump\t// out\n        /* \"#utility.yul\":3737:3885   */\n    tag_85:\n        /* \"#utility.yul\":3835:3841   */\n      dup3\n        /* \"#utility.yul\":3830:3833   */\n      dup2\n        /* \"#utility.yul\":3825:3828   */\n      dup4\n        /* \"#utility.yul\":3812:3842   */\n      calldatacopy\n        /* \"#utility.yul\":3876:3877   */\n      0x00\n        /* \"#utility.yul\":3867:3873   */\n      dup4\n        /* \"#utility.yul\":3862:3865   */\n      dup4\n        /* \"#utility.yul\":3858:3874   */\n      add\n        /* \"#utility.yul\":3851:3878   */\n      mstore\n        /* \"#utility.yul\":3737:3885   */\n      pop\n      pop\n      pop\n      jump\t// out\n        /* \"#utility.yul\":3891:4316   */\n    tag_86:\n        /* \"#utility.yul\":3969:3974   */\n      0x00\n        /* \"#utility.yul\":3994:4060   */\n      tag_149\n        /* \"#utility.yul\":4010:4059   */\n      tag_150\n        /* \"#utility.yul\":4052:4058   */\n      dup5\n        /* \"#utility.yul\":4010:4059   */\n      tag_84\n      jump\t// in\n    tag_150:\n        /* \"#utility.yul\":3994:4060   */\n      tag_83\n      jump\t// in\n    tag_149:\n        /* \"#utility.yul\":3985:4060   */\n      swap1\n      pop\n        /* \"#utility.yul\":4083:4089   */\n      dup3\n        /* \"#utility.yul\":4076:4081   */\n      dup2\n        /* \"#utility.yul\":4069:4090   */\n      mstore\n        /* \"#utility.yul\":4121:4125   */\n      0x20\n        /* \"#utility.yul\":4114:4119   */\n      dup2\n        /* \"#utility.yul\":4110:4126   */\n      add\n        /* \"#utility.yul\":4159:4162   */\n      dup5\n        /* \"#utility.yul\":4150:4156   */\n      dup5\n        /* \"#utility.yul\":4145:4148   */\n      dup5\n        /* \"#utility.yul\":4141:4157   */\n      add\n        /* \"#utility.yul\":4138:4163   */\n      gt\n        /* \"#utility.yul\":4135:4247   */\n      iszero\n      tag_151\n      jumpi\n        /* \"#utility.yul\":4166:4245   */\n      tag_152\n      tag_80\n      jump\t// in\n    tag_152:\n        /* \"#utility.yul\":4135:4247   */\n    tag_151:\n        /* \"#utility.yul\":4256:4310   */\n      tag_153\n        /* \"#utility.yul\":4303:4309   */\n      dup5\n        /* \"#utility.yul\":4298:4301   */\n      dup3\n        /* \"#utility.yul\":4293:4296   */\n      dup6\n        /* \"#utility.yul\":4256:4310   */\n      tag_85\n      jump\t// in\n    tag_153:\n        /* \"#utility.yul\":3975:4316   */\n      pop\n        /* \"#utility.yul\":3891:4316   */\n      swap4\n      swap3\n      pop\n      pop\n      pop\n      jump\t// out\n        /* \"#utility.yul\":4336:4676   */\n    tag_87:\n        /* \"#utility.yul\":4392:4397   */\n      0x00\n        /* \"#utility.yul\":4441:4444   */\n      dup3\n        /* \"#utility.yul\":4434:4438   */\n      0x1f\n        /* \"#utility.yul\":4426:4432   */\n      dup4\n        /* \"#utility.yul\":4422:4439   */\n      add\n        /* \"#utility.yul\":4418:4445   */\n      slt\n        /* \"#utility.yul\":4408:4530   */\n      tag_155\n      jumpi\n        /* \"#utility.yul\":4449:4528   */\n      tag_156\n      tag_79\n      jump\t// in\n    tag_156:\n        /* \"#utility.yul\":4408:4530   */\n    tag_155:\n        /* \"#utility.yul\":4566:4572   */\n      dup2\n        /* \"#utility.yul\":4553:4573   */\n      calldataload\n        /* \"#utility.yul\":4591:4670   */\n      tag_157\n        /* \"#utility.yul\":4666:4669   */\n      dup5\n        /* \"#utility.yul\":4658:4664   */\n      dup3\n        /* \"#utility.yul\":4651:4655   */\n      0x20\n        /* \"#utility.yul\":4643:4649   */\n      dup7\n        /* \"#utility.yul\":4639:4656   */\n      add\n        /* \"#utility.yul\":4591:4670   */\n      tag_86\n      jump\t// in\n    tag_157:\n        /* \"#utility.yul\":4582:4670   */\n      swap2\n      pop\n        /* \"#utility.yul\":4398:4676   */\n      pop\n        /* \"#utility.yul\":4336:4676   */\n      swap3\n      swap2\n      pop\n      pop\n      jump\t// out\n        /* \"#utility.yul\":4682:5191   */\n    tag_19:\n        /* \"#utility.yul\":4751:4757   */\n      0x00\n        /* \"#utility.yul\":4800:4802   */\n      0x20\n        /* \"#utility.yul\":4788:4797   */\n      dup3\n        /* \"#utility.yul\":4779:4786   */\n      dup5\n        /* \"#utility.yul\":4775:4798   */\n      sub\n        /* \"#utility.yul\":4771:4803   */\n      slt\n        /* \"#utility.yul\":4768:4887   */\n      iszero\n      tag_159\n      jumpi\n        /* \"#utility.yul\":4806:4885   */\n      tag_160\n      tag_67\n      jump\t// in\n    tag_160:\n        /* \"#utility.yul\":4768:4887   */\n    tag_159:\n        /* \"#utility.yul\":4954:4955   */\n      0x00\n        /* \"#utility.yul\":4943:4952   */\n      dup3\n        /* \"#utility.yul\":4939:4956   */\n      add\n        /* \"#utility.yul\":4926:4957   */\n      calldataload\n        /* \"#utility.yul\":4984:5002   */\n      0xffffffffffffffff\n        /* \"#utility.yul\":4976:4982   */\n      dup2\n        /* \"#utility.yul\":4973:5003   */\n      gt\n        /* \"#utility.yul\":4970:5087   */\n      iszero\n      tag_161\n      jumpi\n        /* \"#utility.yul\":5006:5085   */\n      tag_162\n      tag_68\n      jump\t// in\n    tag_162:\n        /* \"#utility.yul\":4970:5087   */\n    tag_161:\n        /* \"#utility.yul\":5111:5174   */\n      tag_163\n        /* \"#utility.yul\":5166:5173   */\n      dup5\n        /* \"#utility.yul\":5157:5163   */\n      dup3\n        /* \"#utility.yul\":5146:5155   */\n      dup6\n        /* \"#utility.yul\":5142:5164   */\n      add\n        /* \"#utility.yul\":5111:5174   */\n      tag_87\n      jump\t// in\n    tag_163:\n        /* \"#utility.yul\":5101:5174   */\n      swap2\n      pop\n        /* \"#utility.yul\":4897:5184   */\n      pop\n        /* \"#utility.yul\":4682:5191   */\n      swap3\n      swap2\n      pop\n      pop\n      jump\t// out\n        /* \"#utility.yul\":5197:5851   */\n    tag_27:\n        /* \"#utility.yul\":5275:5281   */\n      0x00\n        /* \"#utility.yul\":5283:5289   */\n      dup1\n        /* \"#utility.yul\":5332:5334   */\n      0x40\n        /* \"#utility.yul\":5320:5329   */\n      dup4\n        /* \"#utility.yul\":5311:5318   */\n      dup6\n        /* \"#utility.yul\":5307:5330   */\n      sub\n        /* \"#utility.yul\":5303:5335   */\n      slt\n        /* \"#utility.yul\":5300:5419   */\n      iszero\n      tag_165\n      jumpi\n        /* \"#utility.yul\":5338:5417   */\n      tag_166\n      tag_67\n      jump\t// in\n    tag_166:\n        /* \"#utility.yul\":5300:5419   */\n    tag_165:\n        /* \"#utility.yul\":5458:5459   */\n      0x00\n        /* \"#utility.yul\":5483:5536   */\n      tag_167\n        /* \"#utility.yul\":5528:5535   */\n      dup6\n        /* \"#utility.yul\":5519:5525   */\n      dup3\n        /* \"#utility.yul\":5508:5517   */\n      dup7\n        /* \"#utility.yul\":5504:5526   */\n      add\n        /* \"#utility.yul\":5483:5536   */\n      tag_71\n      jump\t// in\n    tag_167:\n        /* \"#utility.yul\":5473:5536   */\n      swap3\n      pop\n        /* \"#utility.yul\":5429:5546   */\n      pop\n        /* \"#utility.yul\":5613:5615   */\n      0x20\n        /* \"#utility.yul\":5602:5611   */\n      dup4\n        /* \"#utility.yul\":5598:5616   */\n      add\n        /* \"#utility.yul\":5585:5617   */\n      calldataload\n        /* \"#utility.yul\":5644:5662   */\n      0xffffffffffffffff\n        /* \"#utility.yul\":5636:5642   */\n      dup2\n        /* \"#utility.yul\":5633:5663   */\n      gt\n        /* \"#utility.yul\":5630:5747   */\n      iszero\n      tag_168\n      jumpi\n        /* \"#utility.yul\":5666:5745   */\n      tag_169\n      tag_68\n      jump\t// in\n    tag_169:\n        /* \"#utility.yul\":5630:5747   */\n    tag_168:\n        /* \"#utility.yul\":5771:5834   */\n      tag_170\n        /* \"#utility.yul\":5826:5833   */\n      dup6\n        /* \"#utility.yul\":5817:5823   */\n      dup3\n        /* \"#utility.yul\":5806:5815   */\n      dup7\n        /* \"#utility.yul\":5802:5824   */\n      add\n        /* \"#utility.yul\":5771:5834   */\n      tag_87\n      jump\t// in\n    tag_170:\n        /* \"#utility.yul\":5761:5834   */\n      swap2\n      pop\n        /* \"#utility.yul\":5556:5844   */\n      pop\n        /* \"#utility.yul\":5197:5851   */\n      swap3\n      pop\n      swap3\n      swap1\n      pop\n      jump\t// out\n        /* \"#utility.yul\":5857:6037   */\n    tag_32:\n        /* \"#utility.yul\":5905:5982   */\n      0x4e487b7100000000000000000000000000000000000000000000000000000000\n        /* \"#utility.yul\":5902:5903   */\n      0x00\n        /* \"#utility.yul\":5895:5983   */\n      mstore\n        /* \"#utility.yul\":6002:6006   */\n      0x32\n        /* \"#utility.yul\":5999:6000   */\n      0x04\n        /* \"#utility.yul\":5992:6007   */\n      mstore\n        /* \"#utility.yul\":6026:6030   */\n      0x24\n        /* \"#utility.yul\":6023:6024   */\n      0x00\n        /* \"#utility.yul\":6016:6031   */\n      revert\n        /* \"#utility.yul\":6043:6223   */\n    tag_88:\n        /* \"#utility.yul\":6091:6168   */\n      0x4e487b7100000000000000000000000000000000000000000000000000000000\n        /* \"#utility.yul\":6088:6089   */\n      0x00\n        /* \"#utility.yul\":6081:6169   */\n      mstore\n        /* \"#utility.yul\":6188:6192   */\n      0x22\n        /* \"#utility.yul\":6185:6186   */\n      0x04\n        /* \"#utility.yul\":6178:6193   */\n      mstore\n        /* \"#utility.yul\":6212:6216   */\n      0x24\n        /* \"#utility.yul\":6209:6210   */\n      0x00\n        /* \"#utility.yul\":6202:6217   */\n      revert\n        /* \"#utility.yul\":6229:6549   */\n    tag_39:\n        /* \"#utility.yul\":6273:6279   */\n      0x00\n        /* \"#utility.yul\":6310:6311   */\n      0x02\n        /* \"#utility.yul\":6304:6308   */\n      dup3\n        /* \"#utility.yul\":6300:6312   */\n      div\n        /* \"#utility.yul\":6290:6312   */\n      swap1\n      pop\n        /* \"#utility.yul\":6357:6358   */\n      0x01\n        /* \"#utility.yul\":6351:6355   */\n      dup3\n        /* \"#utility.yul\":6347:6359   */\n      and\n        /* \"#utility.yul\":6378:6396   */\n      dup1\n        /* \"#utility.yul\":6368:6449   */\n      tag_174\n      jumpi\n        /* \"#utility.yul\":6434:6438   */\n      0x7f\n        /* \"#utility.yul\":6426:6432   */\n      dup3\n        /* \"#utility.yul\":6422:6439   */\n      and\n        /* \"#utility.yul\":6412:6439   */\n      swap2\n      pop\n        /* \"#utility.yul\":6368:6449   */\n    tag_174:\n        /* \"#utility.yul\":6496:6498   */\n      0x20\n        /* \"#utility.yul\":6488:6494   */\n      dup3\n        /* \"#utility.yul\":6485:6499   */\n      lt\n        /* \"#utility.yul\":6465:6483   */\n      dup2\n        /* \"#utility.yul\":6462:6500   */\n      sub\n        /* \"#utility.yul\":6459:6543   */\n      tag_175\n      jumpi\n        /* \"#utility.yul\":6515:6533   */\n      tag_176\n      tag_88\n      jump\t// in\n    tag_176:\n        /* \"#utility.yul\":6459:6543   */\n    tag_175:\n        /* \"#utility.yul\":6280:6549   */\n      pop\n        /* \"#utility.yul\":6229:6549   */\n      swap2\n      swap1\n      pop\n      jump\t// out\n        /* \"#utility.yul\":6555:6696   */\n    tag_89:\n        /* \"#utility.yul\":6604:6608   */\n      0x00\n        /* \"#utility.yul\":6627:6630   */\n      dup2\n        /* \"#utility.yul\":6619:6630   */\n      swap1\n      pop\n        /* \"#utility.yul\":6650:6653   */\n      dup2\n        /* \"#utility.yul\":6647:6648   */\n      0x00\n        /* \"#utility.yul\":6640:6654   */\n      mstore\n        /* \"#utility.yul\":6684:6688   */\n      0x20\n        /* \"#utility.yul\":6681:6682   */\n      0x00\n        /* \"#utility.yul\":6671:6689   */\n      keccak256\n        /* \"#utility.yul\":6663:6689   */\n      swap1\n      pop\n        /* \"#utility.yul\":6555:6696   */\n      swap2\n      swap1\n      pop\n      jump\t// out\n        /* \"#utility.yul\":6702:6795   */\n    tag_90:\n        /* \"#utility.yul\":6739:6745   */\n      0x00\n        /* \"#utility.yul\":6786:6788   */\n      0x20\n        /* \"#utility.yul\":6781:6783   */\n      0x1f\n        /* \"#utility.yul\":6774:6779   */\n      dup4\n        /* \"#utility.yul\":6770:6784   */\n      add\n        /* \"#utility.yul\":6766:6789   */\n      div\n        /* \"#utility.yul\":6756:6789   */\n      swap1\n      pop\n        /* \"#utility.yul\":6702:6795   */\n      swap2\n      swap1\n      pop\n      jump\t// out\n        /* \"#utility.yul\":6801:6908   */\n    tag_91:\n        /* \"#utility.yul\":6845:6853   */\n      0x00\n        /* \"#utility.yul\":6895:6900   */\n      dup3\n        /* \"#utility.yul\":6889:6893   */\n      dup3\n        /* \"#utility.yul\":6885:6901   */\n      shl\n        /* \"#utility.yul\":6864:6901   */\n      swap1\n      pop\n        /* \"#utility.yul\":6801:6908   */\n      swap3\n      swap2\n      pop\n      pop\n      jump\t// out\n        /* \"#utility.yul\":6914:7307   */\n    tag_92:\n        /* \"#utility.yul\":6983:6989   */\n      0x00\n        /* \"#utility.yul\":7033:7034   */\n      0x08\n        /* \"#utility.yul\":7021:7031   */\n      dup4\n        /* \"#utility.yul\":7017:7035   */\n      mul\n        /* \"#utility.yul\":7056:7153   */\n      tag_181\n        /* \"#utility.yul\":7086:7152   */\n      0xffffffffffffffffffffffffffffffffffffffffffffffffffffffffffffffff\n        /* \"#utility.yul\":7075:7084   */\n      dup3\n        /* \"#utility.yul\":7056:7153   */\n      tag_91\n      jump\t// in\n    tag_181:\n        /* \"#utility.yul\":7174:7213   */\n      tag_182\n        /* \"#utility.yul\":7204:7212   */\n      dup7\n        /* \"#utility.yul\":7193:7202   */\n      dup4\n        /* \"#utility.yul\":7174:7213   */\n      tag_91\n      jump\t// in\n    tag_182:\n        /* \"#utility.yul\":7162:7213   */\n      swap6\n      pop\n        /* \"#utility.yul\":7246:7250   */\n      dup1\n        /* \"#utility.yul\":7242:7251   */\n      not\n        /* \"#utility.yul\":7235:7240   */\n      dup5\n        /* \"#utility.yul\":7231:7252   */\n      and\n        /* \"#utility.yul\":7222:7252   */\n      swap4\n      pop\n        /* \"#utility.yul\":7295:7299   */\n      dup1\n        /* \"#utility.yul\":7285:7293   */\n      dup7\n        /* \"#utility.yul\":7281:7300   */\n      and\n        /* \"#utility.yul\":7274:7279   */\n      dup5\n        /* \"#utility.yul\":7271:7301   */\n      or\n        /* \"#utility.yul\":7261:7301   */\n      swap3\n      pop\n        /* \"#utility.yul\":6990:7307   */\n      pop\n      pop\n        /* \"#utility.yul\":6914:7307   */\n      swap4\n      swap3\n      pop\n      pop\n      pop\n      jump\t// out\n        /* \"#utility.yul\":7313:7373   */\n    tag_93:\n        /* \"#utility.yul\":7341:7344   */\n      0x00\n        /* \"#utility.yul\":7362:7367   */\n      dup2\n        /* \"#utility.yul\":7355:7367   */\n      swap1\n      pop\n        /* \"#utility.yul\":7313:7373   */\n      swap2\n      swap1\n      pop\n      jump\t// out\n        /* \"#utility.yul\":7379:7521   */\n    tag_94:\n        /* \"#utility.yul\":7429:7438   */\n      0x00\n        /* \"#utility.yul\":7462:7515   */\n      tag_185\n        /* \"#utility.yul\":7480:7514   */\n      tag_186\n        /* \"#utility.yul\":7489:7513   */\n      tag_187\n        /* \"#utility.yul\":7507:7512   */\n      dup5\n        /* \"#utility.yul\":7489:7513   */\n      tag_69\n      jump\t// in\n    tag_187:\n        /* \"#utility.yul\":7480:7514   */\n      tag_93\n      jump\t// in\n    tag_186:\n        /* \"#utility.yul\":7462:7515   */\n      tag_69\n      jump\t// in\n    tag_185:\n        /* \"#utility.yul\":7449:7515   */\n      swap1\n      pop\n        /* \"#utility.yul\":7379:7521   */\n      swap2\n      swap1\n      pop\n      jump\t// out\n        /* \"#utility.yul\":7527:7602   */\n    tag_95:\n        /* \"#utility.yul\":7570:7573   */\n      0x00\n        /* \"#utility.yul\":7591:7596   */\n      dup2\n        /* \"#utility.yul\":7584:7596   */\n      swap1\n      pop\n        /* \"#utility.yul\":7527:7602   */\n      swap2\n      swap1\n      pop\n      jump\t// out\n        /* \"#utility.yul\":7608:7877   */\n    tag_96:\n        /* \"#utility.yul\":7718:7757   */\n      tag_190\n        /* \"#utility.yul\":7749:7756   */\n      dup4\n        /* \"#utility.yul\":7718:7757   */\n      tag_94\n      jump\t// in\n    tag_190:\n        /* \"#utility.yul\":7779:7870   */\n      tag_191\n        /* \"#utility.yul\":7828:7869   */\n      tag_192\n        /* \"#utility.yul\":7852:7868   */\n      dup3\n        /* \"#utility.yul\":7828:7869   */\n      tag_95\n      jump\t// in\n    tag_192:\n        /* \"#utility.yul\":7820:7826   */\n      dup5\n        /* \"#utility.yul\":7813:7817   */\n      dup5\n        /* \"#utility.yul\":7807:7818   */\n      sload\n        /* \"#utility.yul\":7779:7870   */\n      tag_92\n      jump\t// in\n    tag_191:\n        /* \"#utility.yul\":7773:7777   */\n      dup3\n        /* \"#utility.yul\":7766:7871   */\n      sstore\n        /* \"#utility.yul\":7684:7877   */\n      pop\n        /* \"#utility.yul\":7608:7877   */\n      pop\n      pop\n      pop\n      jump\t// out\n        /* \"#utility.yul\":7883:7956   */\n    tag_97:\n        /* \"#utility.yul\":7928:7931   */\n      0x00\n        /* \"#utility.yul\":7883:7956   */\n      swap1\n      jump\t// out\n        /* \"#utility.yul\":7962:8151   */\n    tag_98:\n        /* \"#utility.yul\":8039:8071   */\n      tag_195\n      tag_97\n      jump\t// in\n    tag_195:\n        /* \"#utility.yul\":8080:8145   */\n      tag_196\n        /* \"#utility.yul\":8138:8144   */\n      dup2\n        /* \"#utility.yul\":8130:8136   */\n      dup5\n        /* \"#utility.yul\":8124:8128   */\n      dup5\n        /* \"#utility.yul\":8080:8145   */\n      tag_96\n      jump\t// in\n    tag_196:\n        /* \"#utility.yul\":8015:8151   */\n      pop\n        /* \"#utility.yul\":7962:8151   */\n      pop\n      pop\n      jump\t// out\n        /* \"#utility.yul\":8157:8343   */\n    tag_99:\n        /* \"#utility.yul\":8217:8337   */\n    tag_198:\n        /* \"#utility.yul\":8234:8237   */\n      dup2\n        /* \"#utility.yul\":8227:8232   */\n      dup2\n        /* \"#utility.yul\":8224:8238   */\n      lt\n        /* \"#utility.yul\":8217:8337   */\n      iszero\n      tag_200\n      jumpi\n        /* \"#utility.yul\":8288:8327   */\n      tag_201\n        /* \"#utility.yul\":8325:8326   */\n      0x00\n        /* \"#utility.yul\":8318:8323   */\n      dup3\n        /* \"#utility.yul\":8288:8327   */\n      tag_98\n      jump\t// in\n    tag_201:\n        /* \"#utility.yul\":8261:8262   */\n      0x01\n        /* \"#utility.yul\":8254:8259   */\n      dup2\n        /* \"#utility.yul\":8250:8263   */\n      add\n        /* \"#utility.yul\":8241:8263   */\n      swap1\n      pop\n        /* \"#utility.yul\":8217:8337   */\n      jump(tag_198)\n    tag_200:\n        /* \"#utility.yul\":8157:8343   */\n      pop\n      pop\n      jump\t// out\n        /* \"#utility.yul\":8349:8892   */\n    tag_100:\n        /* \"#utility.yul\":8450:8452   */\n      0x1f\n        /* \"#utility.yul\":8445:8448   */\n      dup3\n        /* \"#utility.yul\":8442:8453   */\n      gt\n        /* \"#utility.yul\":8439:8885   */\n      iszero\n      tag_203\n      jumpi\n        /* \"#utility.yul\":8484:8522   */\n      tag_204\n        /* \"#utility.yul\":8516:8521   */\n      dup2\n        /* \"#utility.yul\":8484:8522   */\n      tag_89\n      jump\t// in\n    tag_204:\n        /* \"#utility.yul\":8568:8597   */\n      tag_205\n        /* \"#utility.yul\":8586:8596   */\n      dup5\n        /* \"#utility.yul\":8568:8597   */\n      tag_90\n      jump\t// in\n    tag_205:\n        /* \"#utility.yul\":8558:8566   */\n      dup2\n        /* \"#utility.yul\":8554:8598   */\n      add\n        /* \"#utility.yul\":8751:8753   */\n      0x20\n        /* \"#utility.yul\":8739:8749   */\n      dup6\n        /* \"#utility.yul\":8736:8754   */\n      lt\n        /* \"#utility.yul\":8733:8782   */\n      iszero\n      tag_206\n      jumpi\n        /* \"#utility.yul\":8772:8780   */\n      dup2\n        /* \"#utility.yul\":8757:8780   */\n      swap1\n      pop\n        /* \"#utility.yul\":8733:8782   */\n    tag_206:\n        /* \"#utility.yul\":8795:8875   */\n      tag_207\n        /* \"#utility.yul\":8851:8873   */\n      tag_208\n        /* \"#utility.yul\":8869:8872   */\n      dup6\n        /* \"#utility.yul\":8851:8873   */\n      tag_90\n      jump\t// in\n    tag_208:\n        /* \"#utility.yul\":8841:8849   */\n      dup4\n        /* \"#utility.yul\":8837:8874   */\n      add\n        /* \"#utility.yul\":8824:8835   */\n      dup3\n        /* \"#utility.yul\":8795:8875   */\n      tag_99\n      jump\t// in\n    tag_207:\n        /* \"#utility.yul\":8454:8885   */\n      pop\n      pop\n        /* \"#utility.yul\":8439:8885   */\n    tag_203:\n        /* \"#utility.yul\":8349:8892   */\n      pop\n      pop\n      pop\n      jump\t// out\n        /* \"#utility.yul\":8898:9015   */\n    tag_101:\n        /* \"#utility.yul\":8952:8960   */\n      0x00\n        /* \"#utility.yul\":9002:9007   */\n      dup3\n        /* \"#utility.yul\":8996:9000   */\n      dup3\n        /* \"#utility.yul\":8992:9008   */\n      shr\n        /* \"#utility.yul\":8971:9008   */\n      swap1\n      pop\n        /* \"#utility.yul\":8898:9015   */\n      swap3\n      swap2\n      pop\n      pop\n      jump\t// out\n        /* \"#utility.yul\":9021:9190   */\n    tag_102:\n        /* \"#utility.yul\":9065:9071   */\n      0x00\n        /* \"#utility.yul\":9098:9149   */\n      tag_211\n        /* \"#utility.yul\":9146:9147   */\n      0x00\n        /* \"#utility.yul\":9142:9148   */\n      not\n        /* \"#utility.yul\":9134:9139   */\n      dup5\n        /* \"#utility.yul\":9131:9132   */\n      0x08\n        /* \"#utility.yul\":9127:9140   */\n      mul\n        /* \"#utility.yul\":9098:9149   */\n      tag_101\n      jump\t// in\n    tag_211:\n        /* \"#utility.yul\":9094:9150   */\n      not\n        /* \"#utility.yul\":9179:9183   */\n      dup1\n        /* \"#utility.yul\":9173:9177   */\n      dup4\n        /* \"#utility.yul\":9169:9184   */\n      and\n        /* \"#utility.yul\":9159:9184   */\n      swap2\n      pop\n        /* \"#utility.yul\":9072:9190   */\n      pop\n        /* \"#utility.yul\":9021:9190   */\n      swap3\n      swap2\n      pop\n      pop\n      jump\t// out\n        /* \"#utility.yul\":9195:9490   */\n    tag_103:\n        /* \"#utility.yul\":9271:9275   */\n      0x00\n        /* \"#utility.yul\":9417:9446   */\n      tag_213\n        /* \"#utility.yul\":9442:9445   */\n      dup4\n        /* \"#utility.yul\":9436:9440   */\n      dup4\n        /* \"#utility.yul\":9417:9446   */\n      tag_102\n      jump\t// in\n    tag_213:\n        /* \"#utility.yul\":9409:9446   */\n      swap2\n      pop\n        /* \"#utility.yul\":9479:9482   */\n      dup3\n        /* \"#utility.yul\":9476:9477   */\n      0x02\n        /* \"#utility.yul\":9472:9483   */\n      mul\n        /* \"#utility.yul\":9466:9470   */\n      dup3\n        /* \"#utility.yul\":9463:9484   */\n      or\n        /* \"#utility.yul\":9455:9484   */\n      swap1\n      pop\n        /* \"#utility.yul\":9195:9490   */\n      swap3\n      swap2\n      pop\n      pop\n      jump\t// out\n        /* \"#utility.yul\":9495:10890   */\n    tag_47:\n        /* \"#utility.yul\":9612:9649   */\n      tag_215\n        /* \"#utility.yul\":9645:9648   */\n      dup3\n        /* \"#utility.yul\":9612:9649   */\n      tag_72\n      jump\t// in\n    tag_215:\n        /* \"#utility.yul\":9714:9732   */\n      0xffffffffffffffff\n        /* \"#utility.yul\":9706:9712   */\n      dup2\n        /* \"#utility.yul\":9703:9733   */\n      gt\n        /* \"#utility.yul\":9700:9756   */\n      iszero\n      tag_216\n      jumpi\n        /* \"#utility.yul\":9736:9754   */\n      tag_217\n      tag_81\n      jump\t// in\n    tag_217:\n        /* \"#utility.yul\":9700:9756   */\n    tag_216:\n        /* \"#utility.yul\":9780:9818   */\n      tag_218\n        /* \"#utility.yul\":9812:9816   */\n      dup3\n        /* \"#utility.yul\":9806:9817   */\n      sload\n        /* \"#utility.yul\":9780:9818   */\n      tag_39\n      jump\t// in\n    tag_218:\n        /* \"#utility.yul\":9865:9932   */\n      tag_219\n        /* \"#utility.yul\":9925:9931   */\n      dup3\n        /* \"#utility.yul\":9917:9923   */\n      dup3\n        /* \"#utility.yul\":9911:9915   */\n      dup6\n        /* \"#utility.yul\":9865:9932   */\n      tag_100\n      jump\t// in\n    tag_219:\n        /* \"#utility.yul\":9959:9960   */\n      0x00\n        /* \"#utility.yul\":9983:9987   */\n      0x20\n        /* \"#utility.yul\":9970:9987   */\n      swap1\n      pop\n        /* \"#utility.yul\":10015:10017   */\n      0x1f\n        /* \"#utility.yul\":10007:10013   */\n      dup4\n        /* \"#utility.yul\":10004:10018   */\n      gt\n        /* \"#utility.yul\":10032:10033   */\n      0x01\n        /* \"#utility.yul\":10027:10645   */\n      dup2\n      eq\n      tag_221\n      jumpi\n        /* \"#utility.yul\":10689:10690   */\n      0x00\n        /* \"#utility.yul\":10706:10712   */\n      dup5\n        /* \"#utility.yul\":10703:10780   */\n      iszero\n      tag_222\n      jumpi\n        /* \"#utility.yul\":10755:10764   */\n      dup3\n        /* \"#utility.yul\":10750:10753   */\n      dup8\n        /* \"#utility.yul\":10746:10765   */\n      add\n        /* \"#utility.yul\":10740:10766   */\n      mload\n        /* \"#utility.yul\":10731:10766   */\n      swap1\n      pop\n        /* \"#utility.yul\":10703:10780   */\n    tag_222:\n        /* \"#utility.yul\":10806:10873   */\n      tag_223\n        /* \"#utility.yul\":10866:10872   */\n      dup6\n        /* \"#utility.yul\":10859:10864   */\n      dup3\n        /* \"#utility.yul\":10806:10873   */\n      tag_103\n      jump\t// in\n    tag_223:\n        /* \"#utility.yul\":10800:10804   */\n      dup7\n        /* \"#utility.yul\":10793:10874   */\n      sstore\n        /* \"#utility.yul\":10662:10884   */\n      pop\n        /* \"#utility.yul\":9997:10884   */\n      jump(tag_220)\n        /* \"#utility.yul\":10027:10645   */\n    tag_221:\n        /* \"#utility.yul\":10079:10083   */\n      0x1f\n        /* \"#utility.yul\":10075:10084   */\n      not\n        /* \"#utility.yul\":10067:10073   */\n      dup5\n        /* \"#utility.yul\":10063:10085   */\n      and\n        /* \"#utility.yul\":10113:10150   */\n      tag_224\n        /* \"#utility.yul\":10145:10149   */\n      dup7\n        /* \"#utility.yul\":10113:10150   */\n      tag_89\n      jump\t// in\n    tag_224:\n        /* \"#utility.yul\":10172:10173   */\n      0x00\n        /* \"#utility.yul\":10186:10394   */\n    tag_225:\n        /* \"#utility.yul\":10200:10207   */\n      dup3\n        /* \"#utility.yul\":10197:10198   */\n      dup2\n        /* \"#utility.yul\":10194:10208   */\n      lt\n        /* \"#utility.yul\":10186:10394   */\n      iszero\n      tag_227\n      jumpi\n        /* \"#utility.yul\":10279:10288   */\n      dup5\n        /* \"#utility.yul\":10274:10277   */\n      dup10\n        /* \"#utility.yul\":10270:10289   */\n      add\n        /* \"#utility.yul\":10264:10290   */\n      mload\n        /* \"#utility.yul\":10256:10262   */\n      dup3\n        /* \"#utility.yul\":10249:10291   */\n      sstore\n        /* \"#utility.yul\":10330:10331   */\n      0x01\n        /* \"#utility.yul\":10322:10328   */\n      dup3\n        /* \"#utility.yul\":10318:10332   */\n      add\n        /* \"#utility.yul\":10308:10332   */\n      swap2\n      pop\n        /* \"#utility.yul\":10377:10379   */\n      0x20\n        /* \"#utility.yul\":10366:10375   */\n      dup6\n        /* \"#utility.yul\":10362:10380   */\n      add\n        /* \"#utility.yul\":10349:10380   */\n      swap5\n      pop\n        /* \"#utility.yul\":10223:10227   */\n      0x20\n        /* \"#utility.yul\":10220:10221   */\n      dup2\n        /* \"#utility.yul\":10216:10228   */\n      add\n        /* \"#utility.yul\":10211:10228   */\n      swap1\n      pop\n        /* \"#utility.yul\":10186:10394   */\n      jump(tag_225)\n    tag_227:\n        /* \"#utility.yul\":10422:10428   */\n      dup7\n        /* \"#utility.yul\":10413:10420   */\n      dup4\n        /* \"#utility.yul\":10410:10429   */\n      lt\n        /* \"#utility.yul\":10407:10586   */\n      iszero\n      tag_228\n      jumpi\n        /* \"#utility.yul\":10480:10489   */\n      dup5\n        /* \"#utility.yul\":10475:10478   */\n      dup10\n        /* \"#utility.yul\":10471:10490   */\n      add\n        /* \"#utility.yul\":10465:10491   */\n      mload\n        /* \"#utility.yul\":10523:10571   */\n      tag_229\n        /* \"#utility.yul\":10565:10569   */\n      0x1f\n        /* \"#utility.yul\":10557:10563   */\n      dup10\n        /* \"#utility.yul\":10553:10570   */\n      and\n        /* \"#utility.yul\":10542:10551   */\n      dup3\n        /* \"#utility.yul\":10523:10571   */\n      tag_102\n      jump\t// in\n    tag_229:\n        /* \"#utility.yul\":10515:10521   */\n      dup4\n        /* \"#utility.yul\":10508:10572   */\n      sstore\n        /* \"#utility.yul\":10430:10586   */\n      pop\n        /* \"#utility.yul\":10407:10586   */\n    tag_228:\n        /* \"#utility.yul\":10632:10633   */\n      0x01\n        /* \"#utility.yul\":10628:10629   */\n      0x02\n        /* \"#utility.yul\":10620:10626   */\n      dup9\n        /* \"#utility.yul\":10616:10630   */\n      mul\n        /* \"#utility.yul\":10612:10634   */\n      add\n        /* \"#utility.yul\":10606:10610   */\n      dup9\n        /* \"#utility.yul\":10599:10635   */\n      sstore\n        /* \"#utility.yul\":10034:10645   */\n      pop\n      pop\n      pop\n        /* \"#utility.yul\":9997:10884   */\n    tag_220:\n      pop\n        /* \"#utility.yul\":9587:10890   */\n      pop\n      pop\n      pop\n        /* \"#utility.yul\":9495:10890   */\n      pop\n      pop\n      jump\t// out\n\n    auxdata: 0xa2646970667358221220f877c7548bfd1ba05324fd00e5866d9b456f6fb3d781111ae167fbb8a76635a664736f6c634300081a0033\n}\n",
				"bytecode": {
					"linkReferences": {},
					"object": "6080604052348015600e575f80fd5b50610ab88061001c5f395ff3fe608060405234801561000f575f80fd5b5060043610610055575f3560e01c8063455f5024146100595780639507d39a14610075578063b6a46b3b146100a6578063bc8bc2b4146100c2578063f745630f146100f3575b5f80fd5b610073600480360381019061006e91906104dc565b61010f565b005b61008f600480360381019061008a91906104dc565b610161565b60405161009d929190610591565b60405180910390f35b6100c060048036038101906100bb91906106eb565b61022e565b005b6100dc60048036038101906100d791906104dc565b610385565b6040516100ea929190610591565b60405180910390f35b61010d60048036038101906101089190610732565b610445565b005b5f8082815481106101235761012261078c565b5b905f5260205f2090600202019050806001015f9054906101000a900460ff1615816001015f6101000a81548160ff0219169083151502179055505050565b60605f805f84815481106101785761017761078c565b5b905f5260205f2090600202019050805f01816001015f9054906101000a900460ff168180546101a6906107e6565b80601f01602080910402602001604051908101604052809291908181526020018280546101d2906107e6565b801561021d5780601f106101f45761010080835404028352916020019161021d565b820191905f5260205f20905b81548152906001019060200180831161020057829003601f168201915b505050505091509250925050915091565b5f60405180604001604052808381526020015f1515815250908060018154018082558091505060019003905f5260205f2090600202015f909190919091505f820151815f01908161027f91906109b3565b506020820151816001015f6101000a81548160ff02191690831515021790555050505f60405180604001604052808381526020015f1515815250908060018154018082558091505060019003905f5260205f2090600202015f909190919091505f820151815f0190816102f291906109b3565b506020820151816001015f6101000a81548160ff021916908315150217905550505061031c61047d565b81815f01819052505f81908060018154018082558091505060019003905f5260205f2090600202015f909190919091505f820151815f01908161035f91906109b3565b506020820151816001015f6101000a81548160ff02191690831515021790555050505050565b5f8181548110610393575f80fd5b905f5260205f2090600202015f91509050805f0180546103b2906107e6565b80601f01602080910402602001604051908101604052809291908181526020018280546103de906107e6565b80156104295780601f1061040057610100808354040283529160200191610429565b820191905f5260205f20905b81548152906001019060200180831161040c57829003601f168201915b505050505090806001015f9054906101000a900460ff16905082565b5f8083815481106104595761045861078c565b5b905f5260205f209060020201905081815f01908161047791906109b3565b50505050565b6040518060400160405280606081526020015f151581525090565b5f604051905090565b5f80fd5b5f80fd5b5f819050919050565b6104bb816104a9565b81146104c5575f80fd5b50565b5f813590506104d6816104b2565b92915050565b5f602082840312156104f1576104f06104a1565b5b5f6104fe848285016104c8565b91505092915050565b5f81519050919050565b5f82825260208201905092915050565b8281835e5f83830152505050565b5f601f19601f8301169050919050565b5f61054982610507565b6105538185610511565b9350610563818560208601610521565b61056c8161052f565b840191505092915050565b5f8115159050919050565b61058b81610577565b82525050565b5f6040820190508181035f8301526105a9818561053f565b90506105b86020830184610582565b9392505050565b5f80fd5b5f80fd5b7f4e487b71000000000000000000000000000000000000000000000000000000005f52604160045260245ffd5b6105fd8261052f565b810181811067ffffffffffffffff8211171561061c5761061b6105c7565b5b80604052505050565b5f61062e610498565b905061063a82826105f4565b919050565b5f67ffffffffffffffff821115610659576106586105c7565b5b6106628261052f565b9050602081019050919050565b828183375f83830152505050565b5f61068f61068a8461063f565b610625565b9050828152602081018484840111156106ab576106aa6105c3565b5b6106b684828561066f565b509392505050565b5f82601f8301126106d2576106d16105bf565b5b81356106e284826020860161067d565b91505092915050565b5f60208284031215610700576106ff6104a1565b5b5f82013567ffffffffffffffff81111561071d5761071c6104a5565b5b610729848285016106be565b91505092915050565b5f8060408385031215610748576107476104a1565b5b5f610755858286016104c8565b925050602083013567ffffffffffffffff811115610776576107756104a5565b5b610782858286016106be565b9150509250929050565b7f4e487b71000000000000000000000000000000000000000000000000000000005f52603260045260245ffd5b7f4e487b71000000000000000000000000000000000000000000000000000000005f52602260045260245ffd5b5f60028204905060018216806107fd57607f821691505b6020821081036108105761080f6107b9565b5b50919050565b5f819050815f5260205f209050919050565b5f6020601f8301049050919050565b5f82821b905092915050565b5f600883026108727fffffffffffffffffffffffffffffffffffffffffffffffffffffffffffffffff82610837565b61087c8683610837565b95508019841693508086168417925050509392505050565b5f819050919050565b5f6108b76108b26108ad846104a9565b610894565b6104a9565b9050919050565b5f819050919050565b6108d08361089d565b6108e46108dc826108be565b848454610843565b825550505050565b5f90565b6108f86108ec565b6109038184846108c7565b505050565b5b818110156109265761091b5f826108f0565b600181019050610909565b5050565b601f82111561096b5761093c81610816565b61094584610828565b81016020851015610954578190505b61096861096085610828565b830182610908565b50505b505050565b5f82821c905092915050565b5f61098b5f1984600802610970565b1980831691505092915050565b5f6109a3838361097c565b9150826002028217905092915050565b6109bc82610507565b67ffffffffffffffff8111156109d5576109d46105c7565b5b6109df82546107e6565b6109ea82828561092a565b5f60209050601f831160018114610a1b575f8415610a09578287015190505b610a138582610998565b865550610a7a565b601f198416610a2986610816565b5f5b82811015610a5057848901518255600182019150602085019450602081019050610a2b565b86831015610a6d5784890151610a69601f89168261097c565b8355505b6001600288020188555050505b50505050505056fea2646970667358221220f877c7548bfd1ba05324fd00e5866d9b456f6fb3d781111ae167fbb8a76635a664736f6c634300081a0033",
					"opcodes": "PUSH1 0x80 PUSH1 0x40 MSTORE CALLVALUE DUP1 ISZERO PUSH1 0xE JUMPI PUSH0 DUP1 REVERT JUMPDEST POP PUSH2 0xAB8 DUP1 PUSH2 0x1C PUSH0 CODECOPY PUSH0 RETURN INVALID PUSH1 0x80 PUSH1 0x40 MSTORE CALLVALUE DUP1 ISZERO PUSH2 0xF JUMPI PUSH0 DUP1 REVERT JUMPDEST POP PUSH1 0x4 CALLDATASIZE LT PUSH2 0x55 JUMPI PUSH0 CALLDATALOAD PUSH1 0xE0 SHR DUP1 PUSH4 0x455F5024 EQ PUSH2 0x59 JUMPI DUP1 PUSH4 0x9507D39A EQ PUSH2 0x75 JUMPI DUP1 PUSH4 0xB6A46B3B EQ PUSH2 0xA6 JUMPI DUP1 PUSH4 0xBC8BC2B4 EQ PUSH2 0xC2 JUMPI DUP1 PUSH4 0xF745630F EQ PUSH2 0xF3 JUMPI JUMPDEST PUSH0 DUP1 REVERT JUMPDEST PUSH2 0x73 PUSH1 0x4 DUP1 CALLDATASIZE SUB DUP2 ADD SWAP1 PUSH2 0x6E SWAP2 SWAP1 PUSH2 0x4DC JUMP JUMPDEST PUSH2 0x10F JUMP JUMPDEST STOP JUMPDEST PUSH2 0x8F PUSH1 0x4 DUP1 CALLDATASIZE SUB DUP2 ADD SWAP1 PUSH2 0x8A SWAP2 SWAP1 PUSH2 0x4DC JUMP JUMPDEST PUSH2 0x161 JUMP JUMPDEST PUSH1 0x40 MLOAD PUSH2 0x9D SWAP3 SWAP2 SWAP1 PUSH2 0x591 JUMP JUMPDEST PUSH1 0x40 MLOAD DUP1 SWAP2 SUB SWAP1 RETURN JUMPDEST PUSH2 0xC0 PUSH1 0x4 DUP1 CALLDATASIZE SUB DUP2 ADD SWAP1 PUSH2 0xBB SWAP2 SWAP1 PUSH2 0x6EB JUMP JUMPDEST PUSH2 0x22E JUMP JUMPDEST STOP JUMPDEST PUSH2 0xDC PUSH1 0x4 DUP1 CALLDATASIZE SUB DUP2 ADD SWAP1 PUSH2 0xD7 SWAP2 SWAP1 PUSH2 0x4DC JUMP JUMPDEST PUSH2 0x385 JUMP JUMPDEST PUSH1 0x40 MLOAD PUSH2 0xEA SWAP3 SWAP2 SWAP1 PUSH2 0x591 JUMP JUMPDEST PUSH1 0x40 MLOAD DUP1 SWAP2 SUB SWAP1 RETURN JUMPDEST PUSH2 0x10D PUSH1 0x4 DUP1 CALLDATASIZE SUB DUP2 ADD SWAP1 PUSH2 0x108 SWAP2 SWAP1 PUSH2 0x732 JUMP JUMPDEST PUSH2 0x445 JUMP JUMPDEST STOP JUMPDEST PUSH0 DUP1 DUP3 DUP2 SLOAD DUP2 LT PUSH2 0x123 JUMPI PUSH2 0x122 PUSH2 0x78C JUMP JUMPDEST JUMPDEST SWAP1 PUSH0 MSTORE PUSH1 0x20 PUSH0 KECCAK256 SWAP1 PUSH1 0x2 MUL ADD SWAP1 POP DUP1 PUSH1 0x1 ADD PUSH0 SWAP1 SLOAD SWAP1 PUSH2 0x100 EXP SWAP1 DIV PUSH1 0xFF AND ISZERO DUP2 PUSH1 0x1 ADD PUSH0 PUSH2 0x100 EXP DUP2 SLOAD DUP2 PUSH1 0xFF MUL NOT AND SWAP1 DUP4 ISZERO ISZERO MUL OR SWAP1 SSTORE POP POP POP JUMP JUMPDEST PUSH1 0x60 PUSH0 DUP1 PUSH0 DUP5 DUP2 SLOAD DUP2 LT PUSH2 0x178 JUMPI PUSH2 0x177 PUSH2 0x78C JUMP JUMPDEST JUMPDEST SWAP1 PUSH0 MSTORE PUSH1 0x20 PUSH0 KECCAK256 SWAP1 PUSH1 0x2 MUL ADD SWAP1 POP DUP1 PUSH0 ADD DUP2 PUSH1 0x1 ADD PUSH0 SWAP1 SLOAD SWAP1 PUSH2 0x100 EXP SWAP1 DIV PUSH1 0xFF AND DUP2 DUP1 SLOAD PUSH2 0x1A6 SWAP1 PUSH2 0x7E6 JUMP JUMPDEST DUP1 PUSH1 0x1F ADD PUSH1 0x20 DUP1 SWAP2 DIV MUL PUSH1 0x20 ADD PUSH1 0x40 MLOAD SWAP1 DUP2 ADD PUSH1 0x40 MSTORE DUP1 SWAP3 SWAP2 SWAP1 DUP2 DUP2 MSTORE PUSH1 0x20 ADD DUP3 DUP1 SLOAD PUSH2 0x1D2 SWAP1 PUSH2 0x7E6 JUMP JUMPDEST DUP1 ISZERO PUSH2 0x21D JUMPI DUP1 PUSH1 0x1F LT PUSH2 0x1F4 JUMPI PUSH2 0x100 DUP1 DUP4 SLOAD DIV MUL DUP4 MSTORE SWAP2 PUSH1 0x20 ADD SWAP2 PUSH2 0x21D JUMP JUMPDEST DUP3 ADD SWAP2 SWAP1 PUSH0 MSTORE PUSH1 0x20 PUSH0 KECCAK256 SWAP1 JUMPDEST DUP2 SLOAD DUP2 MSTORE SWAP1 PUSH1 0x1 ADD SWAP1 PUSH1 0x20 ADD DUP1 DUP4 GT PUSH2 0x200 JUMPI DUP3 SWAP1 SUB PUSH1 0x1F AND DUP3 ADD SWAP2 JUMPDEST POP POP POP POP POP SWAP2 POP SWAP3 POP SWAP3 POP POP SWAP2 POP SWAP2 JUMP JUMPDEST PUSH0 PUSH1 0x40 MLOAD DUP1 PUSH1 0x40 ADD PUSH1 0x40 MSTORE DUP1 DUP4 DUP2 MSTORE PUSH1 0x20 ADD PUSH0 ISZERO ISZERO DUP2 MSTORE POP SWAP1 DUP1 PUSH1 0x1 DUP2 SLOAD ADD DUP1 DUP3 SSTORE DUP1 SWAP2 POP POP PUSH1 0x1 SWAP1 SUB SWAP1 PUSH0 MSTORE PUSH1 0x20 PUSH0 KECCAK256 SWAP1 PUSH1 0x2 MUL ADD PUSH0 SWAP1 SWAP2 SWAP1 SWAP2 SWAP1 SWAP2 POP PUSH0 DUP3 ADD MLOAD DUP2 PUSH0 ADD SWAP1 DUP2 PUSH2 0x27F SWAP2 SWAP1 PUSH2 0x9B3 JUMP JUMPDEST POP PUSH1 0x20 DUP3 ADD MLOAD DUP2 PUSH1 0x1 ADD PUSH0 PUSH2 0x100 EXP DUP2 SLOAD DUP2 PUSH1 0xFF MUL NOT AND SWAP1 DUP4 ISZERO ISZERO MUL OR SWAP1 SSTORE POP POP POP PUSH0 PUSH1 0x40 MLOAD DUP1 PUSH1 0x40 ADD PUSH1 0x40 MSTORE DUP1 DUP4 DUP2 MSTORE PUSH1 0x20 ADD PUSH0 ISZERO ISZERO DUP2 MSTORE POP SWAP1 DUP1 PUSH1 0x1 DUP2 SLOAD ADD DUP1 DUP3 SSTORE DUP1 SWAP2 POP POP PUSH1 0x1 SWAP1 SUB SWAP1 PUSH0 MSTORE PUSH1 0x20 PUSH0 KECCAK256 SWAP1 PUSH1 0x2 MUL ADD PUSH0 SWAP1 SWAP2 SWAP1 SWAP2 SWAP1 SWAP2 POP PUSH0 DUP3 ADD MLOAD DUP2 PUSH0 ADD SWAP1 DUP2 PUSH2 0x2F2 SWAP2 SWAP1 PUSH2 0x9B3 JUMP JUMPDEST POP PUSH1 0x20 DUP3 ADD MLOAD DUP2 PUSH1 0x1 ADD PUSH0 PUSH2 0x100 EXP DUP2 SLOAD DUP2 PUSH1 0xFF MUL NOT AND SWAP1 DUP4 ISZERO ISZERO MUL OR SWAP1 SSTORE POP POP POP PUSH2 0x31C PUSH2 0x47D JUMP JUMPDEST DUP2 DUP2 PUSH0 ADD DUP2 SWAP1 MSTORE POP PUSH0 DUP2 SWAP1 DUP1 PUSH1 0x1 DUP2 SLOAD ADD DUP1 DUP3 SSTORE DUP1 SWAP2 POP POP PUSH1 0x1 SWAP1 SUB SWAP1 PUSH0 MSTORE PUSH1 0x20 PUSH0 KECCAK256 SWAP1 PUSH1 0x2 MUL ADD PUSH0 SWAP1 SWAP2 SWAP1 SWAP2 SWAP1 SWAP2 POP PUSH0 DUP3 ADD MLOAD DUP2 PUSH0 ADD SWAP1 DUP2 PUSH2 0x35F SWAP2 SWAP1 PUSH2 0x9B3 JUMP JUMPDEST POP PUSH1 0x20 DUP3 ADD MLOAD DUP2 PUSH1 0x1 ADD PUSH0 PUSH2 0x100 EXP DUP2 SLOAD DUP2 PUSH1 0xFF MUL NOT AND SWAP1 DUP4 ISZERO ISZERO MUL OR SWAP1 SSTORE POP POP POP POP POP JUMP JUMPDEST PUSH0 DUP2 DUP2 SLOAD DUP2 LT PUSH2 0x393 JUMPI PUSH0 DUP1 REVERT JUMPDEST SWAP1 PUSH0 MSTORE PUSH1 0x20 PUSH0 KECCAK256 SWAP1 PUSH1 0x2 MUL ADD PUSH0 SWAP2 POP SWAP1 POP DUP1 PUSH0 ADD DUP1 SLOAD PUSH2 0x3B2 SWAP1 PUSH2 0x7E6 JUMP JUMPDEST DUP1 PUSH1 0x1F ADD PUSH1 0x20 DUP1 SWAP2 DIV MUL PUSH1 0x20 ADD PUSH1 0x40 MLOAD SWAP1 DUP2 ADD PUSH1 0x40 MSTORE DUP1 SWAP3 SWAP2 SWAP1 DUP2 DUP2 MSTORE PUSH1 0x20 ADD DUP3 DUP1 SLOAD PUSH2 0x3DE SWAP1 PUSH2 0x7E6 JUMP JUMPDEST DUP1 ISZERO PUSH2 0x429 JUMPI DUP1 PUSH1 0x1F LT PUSH2 0x400 JUMPI PUSH2 0x100 DUP1 DUP4 SLOAD DIV MUL DUP4 MSTORE SWAP2 PUSH1 0x20 ADD SWAP2 PUSH2 0x429 JUMP JUMPDEST DUP3 ADD SWAP2 SWAP1 PUSH0 MSTORE PUSH1 0x20 PUSH0 KECCAK256 SWAP1 JUMPDEST DUP2 SLOAD DUP2 MSTORE SWAP1 PUSH1 0x1 ADD SWAP1 PUSH1 0x20 ADD DUP1 DUP4 GT PUSH2 0x40C JUMPI DUP3 SWAP1 SUB PUSH1 0x1F AND DUP3 ADD SWAP2 JUMPDEST POP POP POP POP POP SWAP1 DUP1 PUSH1 0x1 ADD PUSH0 SWAP1 SLOAD SWAP1 PUSH2 0x100 EXP SWAP1 DIV PUSH1 0xFF AND SWAP1 POP DUP3 JUMP JUMPDEST PUSH0 DUP1 DUP4 DUP2 SLOAD DUP2 LT PUSH2 0x459 JUMPI PUSH2 0x458 PUSH2 0x78C JUMP JUMPDEST JUMPDEST SWAP1 PUSH0 MSTORE PUSH1 0x20 PUSH0 KECCAK256 SWAP1 PUSH1 0x2 MUL ADD SWAP1 POP DUP2 DUP2 PUSH0 ADD SWAP1 DUP2 PUSH2 0x477 SWAP2 SWAP1 PUSH2 0x9B3 JUMP JUMPDEST POP POP POP POP JUMP JUMPDEST PUSH1 0x40 MLOAD DUP1 PUSH1 0x40 ADD PUSH1 0x40 MSTORE DUP1 PUSH1 0x60 DUP2 MSTORE PUSH1 0x20 ADD PUSH0 ISZERO ISZERO DUP2 MSTORE POP SWAP1 JUMP JUMPDEST PUSH0 PUSH1 0x40 MLOAD SWAP1 POP SWAP1 JUMP JUMPDEST PUSH0 DUP1 REVERT JUMPDEST PUSH0 DUP1 REVERT JUMPDEST PUSH0 DUP2 SWAP1 POP SWAP2 SWAP1 POP JUMP JUMPDEST PUSH2 0x4BB DUP2 PUSH2 0x4A9 JUMP JUMPDEST DUP2 EQ PUSH2 0x4C5 JUMPI PUSH0 DUP1 REVERT JUMPDEST POP JUMP JUMPDEST PUSH0 DUP2 CALLDATALOAD SWAP1 POP PUSH2 0x4D6 DUP2 PUSH2 0x4B2 JUMP JUMPDEST SWAP3 SWAP2 POP POP JUMP JUMPDEST PUSH0 PUSH1 0x20 DUP3 DUP5 SUB SLT ISZERO PUSH2 0x4F1 JUMPI PUSH2 0x4F0 PUSH2 0x4A1 JUMP JUMPDEST JUMPDEST PUSH0 PUSH2 0x4FE DUP5 DUP3 DUP6 ADD PUSH2 0x4C8 JUMP JUMPDEST SWAP2 POP POP SWAP3 SWAP2 POP POP JUMP JUMPDEST PUSH0 DUP2 MLOAD SWAP1 POP SWAP2 SWAP1 POP JUMP JUMPDEST PUSH0 DUP3 DUP3 MSTORE PUSH1 0x20 DUP3 ADD SWAP1 POP SWAP3 SWAP2 POP POP JUMP JUMPDEST DUP3 DUP2 DUP4 MCOPY PUSH0 DUP4 DUP4 ADD MSTORE POP POP POP JUMP JUMPDEST PUSH0 PUSH1 0x1F NOT PUSH1 0x1F DUP4 ADD AND SWAP1 POP SWAP2 SWAP1 POP JUMP JUMPDEST PUSH0 PUSH2 0x549 DUP3 PUSH2 0x507 JUMP JUMPDEST PUSH2 0x553 DUP2 DUP6 PUSH2 0x511 JUMP JUMPDEST SWAP4 POP PUSH2 0x563 DUP2 DUP6 PUSH1 0x20 DUP7 ADD PUSH2 0x521 JUMP JUMPDEST PUSH2 0x56C DUP2 PUSH2 0x52F JUMP JUMPDEST DUP5 ADD SWAP2 POP POP SWAP3 SWAP2 POP POP JUMP JUMPDEST PUSH0 DUP2 ISZERO ISZERO SWAP1 POP SWAP2 SWAP1 POP JUMP JUMPDEST PUSH2 0x58B DUP2 PUSH2 0x577 JUMP JUMPDEST DUP3 MSTORE POP POP JUMP JUMPDEST PUSH0 PUSH1 0x40 DUP3 ADD SWAP1 POP DUP2 DUP2 SUB PUSH0 DUP4 ADD MSTORE PUSH2 0x5A9 DUP2 DUP6 PUSH2 0x53F JUMP JUMPDEST SWAP1 POP PUSH2 0x5B8 PUSH1 0x20 DUP4 ADD DUP5 PUSH2 0x582 JUMP JUMPDEST SWAP4 SWAP3 POP POP POP JUMP JUMPDEST PUSH0 DUP1 REVERT JUMPDEST PUSH0 DUP1 REVERT JUMPDEST PUSH32 0x4E487B7100000000000000000000000000000000000000000000000000000000 PUSH0 MSTORE PUSH1 0x41 PUSH1 0x4 MSTORE PUSH1 0x24 PUSH0 REVERT JUMPDEST PUSH2 0x5FD DUP3 PUSH2 0x52F JUMP JUMPDEST DUP2 ADD DUP2 DUP2 LT PUSH8 0xFFFFFFFFFFFFFFFF DUP3 GT OR ISZERO PUSH2 0x61C JUMPI PUSH2 0x61B PUSH2 0x5C7 JUMP JUMPDEST JUMPDEST DUP1 PUSH1 0x40 MSTORE POP POP POP JUMP JUMPDEST PUSH0 PUSH2 0x62E PUSH2 0x498 JUMP JUMPDEST SWAP1 POP PUSH2 0x63A DUP3 DUP3 PUSH2 0x5F4 JUMP JUMPDEST SWAP2 SWAP1 POP JUMP JUMPDEST PUSH0 PUSH8 0xFFFFFFFFFFFFFFFF DUP3 GT ISZERO PUSH2 0x659 JUMPI PUSH2 0x658 PUSH2 0x5C7 JUMP JUMPDEST JUMPDEST PUSH2 0x662 DUP3 PUSH2 0x52F JUMP JUMPDEST SWAP1 POP PUSH1 0x20 DUP2 ADD SWAP1 POP SWAP2 SWAP1 POP JUMP JUMPDEST DUP3 DUP2 DUP4 CALLDATACOPY PUSH0 DUP4 DUP4 ADD MSTORE POP POP POP JUMP JUMPDEST PUSH0 PUSH2 0x68F PUSH2 0x68A DUP5 PUSH2 0x63F JUMP JUMPDEST PUSH2 0x625 JUMP JUMPDEST SWAP1 POP DUP3 DUP2 MSTORE PUSH1 0x20 DUP2 ADD DUP5 DUP5 DUP5 ADD GT ISZERO PUSH2 0x6AB JUMPI PUSH2 0x6AA PUSH2 0x5C3 JUMP JUMPDEST JUMPDEST PUSH2 0x6B6 DUP5 DUP3 DUP6 PUSH2 0x66F JUMP JUMPDEST POP SWAP4 SWAP3 POP POP POP JUMP JUMPDEST PUSH0 DUP3 PUSH1 0x1F DUP4 ADD SLT PUSH2 0x6D2 JUMPI PUSH2 0x6D1 PUSH2 0x5BF JUMP JUMPDEST JUMPDEST DUP2 CALLDATALOAD PUSH2 0x6E2 DUP5 DUP3 PUSH1 0x20 DUP7 ADD PUSH2 0x67D JUMP JUMPDEST SWAP2 POP POP SWAP3 SWAP2 POP POP JUMP JUMPDEST PUSH0 PUSH1 0x20 DUP3 DUP5 SUB SLT ISZERO PUSH2 0x700 JUMPI PUSH2 0x6FF PUSH2 0x4A1 JUMP JUMPDEST JUMPDEST PUSH0 DUP3 ADD CALLDATALOAD PUSH8 0xFFFFFFFFFFFFFFFF DUP2 GT ISZERO PUSH2 0x71D JUMPI PUSH2 0x71C PUSH2 0x4A5 JUMP JUMPDEST JUMPDEST PUSH2 0x729 DUP5 DUP3 DUP6 ADD PUSH2 0x6BE JUMP JUMPDEST SWAP2 POP POP SWAP3 SWAP2 POP POP JUMP JUMPDEST PUSH0 DUP1 PUSH1 0x40 DUP4 DUP6 SUB SLT ISZERO PUSH2 0x748 JUMPI PUSH2 0x747 PUSH2 0x4A1 JUMP JUMPDEST JUMPDEST PUSH0 PUSH2 0x755 DUP6 DUP3 DUP7 ADD PUSH2 0x4C8 JUMP JUMPDEST SWAP3 POP POP PUSH1 0x20 DUP4 ADD CALLDATALOAD PUSH8 0xFFFFFFFFFFFFFFFF DUP2 GT ISZERO PUSH2 0x776 JUMPI PUSH2 0x775 PUSH2 0x4A5 JUMP JUMPDEST JUMPDEST PUSH2 0x782 DUP6 DUP3 DUP7 ADD PUSH2 0x6BE JUMP JUMPDEST SWAP2 POP POP SWAP3 POP SWAP3 SWAP1 POP JUMP JUMPDEST PUSH32 0x4E487B7100000000000000000000000000000000000000000000000000000000 PUSH0 MSTORE PUSH1 0x32 PUSH1 0x4 MSTORE PUSH1 0x24 PUSH0 REVERT JUMPDEST PUSH32 0x4E487B7100000000000000000000000000000000000000000000000000000000 PUSH0 MSTORE PUSH1 0x22 PUSH1 0x4 MSTORE PUSH1 0x24 PUSH0 REVERT JUMPDEST PUSH0 PUSH1 0x2 DUP3 DIV SWAP1 POP PUSH1 0x1 DUP3 AND DUP1 PUSH2 0x7FD JUMPI PUSH1 0x7F DUP3 AND SWAP2 POP JUMPDEST PUSH1 0x20 DUP3 LT DUP2 SUB PUSH2 0x810 JUMPI PUSH2 0x80F PUSH2 0x7B9 JUMP JUMPDEST JUMPDEST POP SWAP2 SWAP1 POP JUMP JUMPDEST PUSH0 DUP2 SWAP1 POP DUP2 PUSH0 MSTORE PUSH1 0x20 PUSH0 KECCAK256 SWAP1 POP SWAP2 SWAP1 POP JUMP JUMPDEST PUSH0 PUSH1 0x20 PUSH1 0x1F DUP4 ADD DIV SWAP1 POP SWAP2 SWAP1 POP JUMP JUMPDEST PUSH0 DUP3 DUP3 SHL SWAP1 POP SWAP3 SWAP2 POP POP JUMP JUMPDEST PUSH0 PUSH1 0x8 DUP4 MUL PUSH2 0x872 PUSH32 0xFFFFFFFFFFFFFFFFFFFFFFFFFFFFFFFFFFFFFFFFFFFFFFFFFFFFFFFFFFFFFFFF DUP3 PUSH2 0x837 JUMP JUMPDEST PUSH2 0x87C DUP7 DUP4 PUSH2 0x837 JUMP JUMPDEST SWAP6 POP DUP1 NOT DUP5 AND SWAP4 POP DUP1 DUP7 AND DUP5 OR SWAP3 POP POP POP SWAP4 SWAP3 POP POP POP JUMP JUMPDEST PUSH0 DUP2 SWAP1 POP SWAP2 SWAP1 POP JUMP JUMPDEST PUSH0 PUSH2 0x8B7 PUSH2 0x8B2 PUSH2 0x8AD DUP5 PUSH2 0x4A9 JUMP JUMPDEST PUSH2 0x894 JUMP JUMPDEST PUSH2 0x4A9 JUMP JUMPDEST SWAP1 POP SWAP2 SWAP1 POP JUMP JUMPDEST PUSH0 DUP2 SWAP1 POP SWAP2 SWAP1 POP JUMP JUMPDEST PUSH2 0x8D0 DUP4 PUSH2 0x89D JUMP JUMPDEST PUSH2 0x8E4 PUSH2 0x8DC DUP3 PUSH2 0x8BE JUMP JUMPDEST DUP5 DUP5 SLOAD PUSH2 0x843 JUMP JUMPDEST DUP3 SSTORE POP POP POP POP JUMP JUMPDEST PUSH0 SWAP1 JUMP JUMPDEST PUSH2 0x8F8 PUSH2 0x8EC JUMP JUMPDEST PUSH2 0x903 DUP2 DUP5 DUP5 PUSH2 0x8C7 JUMP JUMPDEST POP POP POP JUMP JUMPDEST JUMPDEST DUP2 DUP2 LT ISZERO PUSH2 0x926 JUMPI PUSH2 0x91B PUSH0 DUP3 PUSH2 0x8F0 JUMP JUMPDEST PUSH1 0x1 DUP2 ADD SWAP1 POP PUSH2 0x909 JUMP JUMPDEST POP POP JUMP JUMPDEST PUSH1 0x1F DUP3 GT ISZERO PUSH2 0x96B JUMPI PUSH2 0x93C DUP2 PUSH2 0x816 JUMP JUMPDEST PUSH2 0x945 DUP5 PUSH2 0x828 JUMP JUMPDEST DUP2 ADD PUSH1 0x20 DUP6 LT ISZERO PUSH2 0x954 JUMPI DUP2 SWAP1 POP JUMPDEST PUSH2 0x968 PUSH2 0x960 DUP6 PUSH2 0x828 JUMP JUMPDEST DUP4 ADD DUP3 PUSH2 0x908 JUMP JUMPDEST POP POP JUMPDEST POP POP POP JUMP JUMPDEST PUSH0 DUP3 DUP3 SHR SWAP1 POP SWAP3 SWAP2 POP POP JUMP JUMPDEST PUSH0 PUSH2 0x98B PUSH0 NOT DUP5 PUSH1 0x8 MUL PUSH2 0x970 JUMP JUMPDEST NOT DUP1 DUP4 AND SWAP2 POP POP SWAP3 SWAP2 POP POP JUMP JUMPDEST PUSH0 PUSH2 0x9A3 DUP4 DUP4 PUSH2 0x97C JUMP JUMPDEST SWAP2 POP DUP3 PUSH1 0x2 MUL DUP3 OR SWAP1 POP SWAP3 SWAP2 POP POP JUMP JUMPDEST PUSH2 0x9BC DUP3 PUSH2 0x507 JUMP JUMPDEST PUSH8 0xFFFFFFFFFFFFFFFF DUP2 GT ISZERO PUSH2 0x9D5 JUMPI PUSH2 0x9D4 PUSH2 0x5C7 JUMP JUMPDEST JUMPDEST PUSH2 0x9DF DUP3 SLOAD PUSH2 0x7E6 JUMP JUMPDEST PUSH2 0x9EA DUP3 DUP3 DUP6 PUSH2 0x92A JUMP JUMPDEST PUSH0 PUSH1 0x20 SWAP1 POP PUSH1 0x1F DUP4 GT PUSH1 0x1 DUP2 EQ PUSH2 0xA1B JUMPI PUSH0 DUP5 ISZERO PUSH2 0xA09 JUMPI DUP3 DUP8 ADD MLOAD SWAP1 POP JUMPDEST PUSH2 0xA13 DUP6 DUP3 PUSH2 0x998 JUMP JUMPDEST DUP7 SSTORE POP PUSH2 0xA7A JUMP JUMPDEST PUSH1 0x1F NOT DUP5 AND PUSH2 0xA29 DUP7 PUSH2 0x816 JUMP JUMPDEST PUSH0 JUMPDEST DUP3 DUP2 LT ISZERO PUSH2 0xA50 JUMPI DUP5 DUP10 ADD MLOAD DUP3 SSTORE PUSH1 0x1 DUP3 ADD SWAP2 POP PUSH1 0x20 DUP6 ADD SWAP5 POP PUSH1 0x20 DUP2 ADD SWAP1 POP PUSH2 0xA2B JUMP JUMPDEST DUP7 DUP4 LT ISZERO PUSH2 0xA6D JUMPI DUP5 DUP10 ADD MLOAD PUSH2 0xA69 PUSH1 0x1F DUP10 AND DUP3 PUSH2 0x97C JUMP JUMPDEST DUP4 SSTORE POP JUMPDEST PUSH1 0x1 PUSH1 0x2 DUP9 MUL ADD DUP9 SSTORE POP POP POP JUMPDEST POP POP POP POP POP POP JUMP INVALID LOG2 PUSH5 0x6970667358 0x22 SLT KECCAK256 0xF8 PUSH24 0xC7548BFD1BA05324FD00E5866D9B456F6FB3D781111AE167 0xFB 0xB8 0xA7 PUSH7 0x35A664736F6C63 NUMBER STOP ADDMOD BYTE STOP CALLER "
				},
				"gasEstimates": {
					"creation": {
						"codeDepositCost": "548800",
						"executionCost": "579",
						"totalCost": "549379"
					},
					"external": {
						"create(string)": "infinite",
						"get(uint256)": "infinite",
						"todos(uint256)": "infinite",
						"toggleCompleted(uint256)": "28996",
						"update(uint256,string)": "infinite"
					}
				},
				"methodIdentifiers": {
					"create(string)": "b6a46b3b",
					"get(uint256)": "9507d39a",
					"todos(uint256)": "bc8bc2b4",
					"toggleCompleted(uint256)": "455f5024",
					"update(uint256,string)": "f745630f"
				}
			},
			"storageLayout": {
				"storage": [
					{
						"astId": 10,
						"contract": "practise/dukedaily/day02/01struct.sol:Todos",
						"label": "todos",
						"offset": 0,
						"slot": "0",
						"type": "t_array(t_struct(Todo)6_storage)dyn_storage"
					}
				],
				"types": {
					"t_array(t_struct(Todo)6_storage)dyn_storage": {
						"base": "t_struct(Todo)6_storage",
						"encoding": "dynamic_array",
						"label": "struct Todos.Todo[]",
						"numberOfBytes": "32"
					},
					"t_bool": {
						"encoding": "inplace",
						"label": "bool",
						"numberOfBytes": "1"
					},
					"t_string_storage": {
						"encoding": "bytes",
						"label": "string",
						"numberOfBytes": "32"
					},
					"t_struct(Todo)6_storage": {
						"encoding": "inplace",
						"label": "struct Todos.Todo",
						"members": [
							{
								"astId": 3,
								"contract": "practise/dukedaily/day02/01struct.sol:Todos",
								"label": "text",
								"offset": 0,
								"slot": "0",
								"type": "t_string_storage"
							},
							{
								"astId": 5,
								"contract": "practise/dukedaily/day02/01struct.sol:Todos",
								"label": "completed",
								"offset": 0,
								"slot": "1",
								"type": "t_bool"
							}
						],
						"numberOfBytes": "64"
					}
				}
			},
			"userdoc": {
				"kind": "user",
				"methods": {},
				"version": 1
			}
		}
	}
}