{
    "contractName": "Error",
    "abi": [
        {
            "inputs": [
                {
                    "internalType": "address",
                    "name": "caller",
                    "type": "address"
                },
                {
                    "internalType": "uint256",
                    "name": "i",
                    "type": "uint256"
                }
            ],
            "name": "MyError",
            "type": "error"
        },
        {
            "inputs": [
                {
                    "internalType": "uint256",
                    "name": "_i",
                    "type": "uint256"
                }
            ],
            "name": "foo",
            "outputs": [],
            "stateMutability": "nonpayable",
            "type": "function"
        },
        {
            "inputs": [],
            "name": "num",
            "outputs": [
                {
                    "internalType": "uint256",
                    "name": "",
                    "type": "uint256"
                }
            ],
            "stateMutability": "view",
            "type": "function"
        },
        {
            "inputs": [],
            "name": "testAssert",
            "outputs": [],
            "stateMutability": "view",
            "type": "function"
        },
        {
            "inputs": [
                {
                    "internalType": "uint256",
                    "name": "_i",
                    "type": "uint256"
                }
            ],
            "name": "testCustomError",
            "outputs": [],
            "stateMutability": "view",
            "type": "function"
        },
        {
            "inputs": [
                {
                    "internalType": "uint256",
                    "name": "_i",
                    "type": "uint256"
                }
            ],
            "name": "testRequire",
            "outputs": [],
            "stateMutability": "pure",
            "type": "function"
        },
        {
            "inputs": [
                {
                    "internalType": "uint256",
                    "name": "_i",
                    "type": "uint256"
                }
            ],
            "name": "testRevert",
            "outputs": [],
            "stateMutability": "pure",
            "type": "function"
        }
    ],
    "bytecode": "6080604052607b60005534801561001557600080fd5b50610243806100256000396000f3fe608060405234801561001057600080fd5b50600436106100625760003560e01c806320987767146100675780632b813bc01461007c5780632fbebd38146100845780634e70b1dc1461009757806375f7286c146100b2578063b8bd717f146100c5575b600080fd5b61007a6100753660046101b7565b6100d8565b005b61007a61011a565b61007a6100923660046101b7565b61012e565b6100a060005481565b60405190815260200160405180910390f35b61007a6100c03660046101b7565b610152565b61007a6100d33660046101b7565b61017d565b60018111156101175760405162461bcd60e51b8152602060048201526006602482015265069203e2031360d41b60448201526064015b60405180910390fd5b50565b600054607b1461012c5761012c6101d0565b565b600160008082825461014091906101e6565b9091555050600a811061011757600080fd5b600a81111561011757604051631c47337760e31b81523360048201526024810182905260440161010e565b600a8111156101175760405162461bcd60e51b8152602060048201526006602482015265069203e2031360d41b604482015260640161010e565b6000602082840312156101c957600080fd5b5035919050565b634e487b7160e01b600052600160045260246000fd5b8082018082111561020757634e487b7160e01b600052601160045260246000fd5b9291505056fea2646970667358221220697e9f26fd0bc768aae94bb69bbb8964ce2a3161456165af845d9ea72b65f4a464736f6c63430008130033",
    "sourcePath": "/Users/zhyj/vscode/solidity/practise/day02/Error.sol",
    "compiler": {
        "name": "solc",
        "version": "0.8.19+commit.7dd6d404"
    },
    "functionHashes": {
        "foo(uint256)": "2fbebd38",
        "num()": "4e70b1dc",
        "testAssert()": "2b813bc0",
        "testCustomError(uint256)": "75f7286c",
        "testRequire(uint256)": "b8bd717f",
        "testRevert(uint256)": "20987767"
    },
    "gasEstimates": {
        "creation": {
            "codeDepositCost": "115800",
            "executionCost": "22271",
            "totalCost": "138071"
        },
        "external": {
            "foo(uint256)": "24568",
            "num()": "2327",
            "testAssert()": "2302",
            "testCustomError(uint256)": "404",
            "testRequire(uint256)": "448",
            "testRevert(uint256)": "327"
        }
    }
}